{
  "contractName": "voting15",
  "abi": [
    {
      "constant": true,
      "inputs": [],
      "name": "getAccountInfo",
      "outputs": [
        {
          "name": "",
          "type": "bytes8"
        }
      ],
      "payable": false,
      "stateMutability": "view",
      "type": "function"
    },
    {
      "constant": false,
      "inputs": [
        {
          "name": "_id",
          "type": "uint256"
        }
      ],
      "name": "closeRoom",
      "outputs": [
        {
          "name": "",
          "type": "bool"
        }
      ],
      "payable": false,
      "stateMutability": "nonpayable",
      "type": "function"
    },
    {
      "constant": false,
      "inputs": [
        {
          "name": "_roomID",
          "type": "uint256"
        },
        {
          "name": "_ids",
          "type": "bytes8[]"
        }
      ],
      "name": "setListVotersByID",
      "outputs": [
        {
          "name": "",
          "type": "bool"
        }
      ],
      "payable": false,
      "stateMutability": "nonpayable",
      "type": "function"
    },
    {
      "constant": false,
      "inputs": [
        {
          "name": "_til",
          "type": "string"
        },
        {
          "name": "_privateR",
          "type": "bool"
        },
        {
          "name": "_des",
          "type": "string"
        },
        {
          "name": "_expiredTime",
          "type": "uint256"
        }
      ],
      "name": "openRoom",
      "outputs": [
        {
          "name": "id",
          "type": "uint256"
        }
      ],
      "payable": false,
      "stateMutability": "nonpayable",
      "type": "function"
    },
    {
      "constant": false,
      "inputs": [
        {
          "name": "_roomID",
          "type": "uint256"
        },
        {
          "name": "_quest",
          "type": "string"
        },
        {
          "name": "_opt",
          "type": "bytes32[]"
        }
      ],
      "name": "addPoll",
      "outputs": [
        {
          "name": "pollNo",
          "type": "uint256"
        }
      ],
      "payable": false,
      "stateMutability": "nonpayable",
      "type": "function"
    },
    {
      "constant": false,
      "inputs": [
        {
          "name": "_id",
          "type": "bytes8"
        }
      ],
      "name": "createAcc",
      "outputs": [
        {
          "name": "",
          "type": "bool"
        }
      ],
      "payable": false,
      "stateMutability": "nonpayable",
      "type": "function"
    },
    {
      "constant": true,
      "inputs": [
        {
          "name": "",
          "type": "uint256"
        }
      ],
      "name": "listAddressAccount",
      "outputs": [
        {
          "name": "",
          "type": "address"
        }
      ],
      "payable": false,
      "stateMutability": "view",
      "type": "function"
    },
    {
      "constant": true,
      "inputs": [
        {
          "name": "_roomID",
          "type": "uint256"
        }
      ],
      "name": "getNumberOfPolls",
      "outputs": [
        {
          "name": "",
          "type": "uint256"
        }
      ],
      "payable": false,
      "stateMutability": "view",
      "type": "function"
    },
    {
      "constant": true,
      "inputs": [
        {
          "name": "x",
          "type": "bytes32"
        }
      ],
      "name": "bytes32ToString",
      "outputs": [
        {
          "name": "",
          "type": "string"
        }
      ],
      "payable": false,
      "stateMutability": "pure",
      "type": "function"
    },
    {
      "constant": true,
      "inputs": [],
      "name": "getListAccounts",
      "outputs": [
        {
          "name": "",
          "type": "address[]"
        }
      ],
      "payable": false,
      "stateMutability": "view",
      "type": "function"
    },
    {
      "constant": true,
      "inputs": [],
      "name": "getVoterPoint",
      "outputs": [
        {
          "name": "",
          "type": "uint256"
        }
      ],
      "payable": false,
      "stateMutability": "view",
      "type": "function"
    },
    {
      "constant": true,
      "inputs": [
        {
          "name": "_roomID",
          "type": "uint256"
        },
        {
          "name": "_voter",
          "type": "address"
        }
      ],
      "name": "checkVailableVoter",
      "outputs": [
        {
          "name": "",
          "type": "bool"
        }
      ],
      "payable": false,
      "stateMutability": "view",
      "type": "function"
    },
    {
      "constant": false,
      "inputs": [
        {
          "name": "_roomID",
          "type": "uint256"
        },
        {
          "name": "_options",
          "type": "bytes32[]"
        }
      ],
      "name": "voteFor",
      "outputs": [],
      "payable": false,
      "stateMutability": "nonpayable",
      "type": "function"
    },
    {
      "constant": true,
      "inputs": [
        {
          "name": "_roomID",
          "type": "uint256"
        }
      ],
      "name": "getListVoterOf",
      "outputs": [
        {
          "name": "",
          "type": "address[]"
        }
      ],
      "payable": false,
      "stateMutability": "view",
      "type": "function"
    },
    {
      "inputs": [],
      "payable": false,
      "stateMutability": "nonpayable",
      "type": "constructor"
    },
    {
      "anonymous": false,
      "inputs": [
        {
          "indexed": true,
          "name": "roomID",
          "type": "uint256"
        },
        {
          "indexed": true,
          "name": "owner",
          "type": "address"
        },
        {
          "indexed": false,
          "name": "title",
          "type": "string"
        },
        {
          "indexed": false,
          "name": "descript",
          "type": "string"
        },
        {
          "indexed": false,
          "name": "privateRoom",
          "type": "bool"
        },
        {
          "indexed": false,
          "name": "expiredTime",
          "type": "uint256"
        }
      ],
      "name": "LOGroomOpened",
      "type": "event"
    },
    {
      "anonymous": false,
      "inputs": [
        {
          "indexed": true,
          "name": "roomID",
          "type": "uint256"
        },
        {
          "indexed": false,
          "name": "list",
          "type": "address[]"
        }
      ],
      "name": "LOGaddListVoter",
      "type": "event"
    },
    {
      "anonymous": false,
      "inputs": [
        {
          "indexed": true,
          "name": "roomID",
          "type": "uint256"
        },
        {
          "indexed": false,
          "name": "id",
          "type": "bytes8"
        },
        {
          "indexed": false,
          "name": "addr",
          "type": "address"
        }
      ],
      "name": "LOGPrivateListVoter",
      "type": "event"
    },
    {
      "anonymous": false,
      "inputs": [
        {
          "indexed": true,
          "name": "roomID",
          "type": "uint256"
        },
        {
          "indexed": true,
          "name": "pollID",
          "type": "uint256"
        },
        {
          "indexed": false,
          "name": "question",
          "type": "string"
        },
        {
          "indexed": false,
          "name": "options",
          "type": "bytes32[]"
        }
      ],
      "name": "LOGpollingAdded",
      "type": "event"
    },
    {
      "anonymous": false,
      "inputs": [
        {
          "indexed": true,
          "name": "roomID",
          "type": "uint256"
        }
      ],
      "name": "LOGroomClosed",
      "type": "event"
    },
    {
      "anonymous": false,
      "inputs": [
        {
          "indexed": true,
          "name": "roomID",
          "type": "uint256"
        },
        {
          "indexed": false,
          "name": "options",
          "type": "bytes[]"
        }
      ],
      "name": "LOGoptions",
      "type": "event"
    },
    {
      "anonymous": false,
      "inputs": [
        {
          "indexed": true,
          "name": "roomID",
          "type": "uint256"
        },
        {
          "indexed": false,
          "name": "option",
          "type": "bytes"
        },
        {
          "indexed": false,
          "name": "voters",
          "type": "address[]"
        }
      ],
      "name": "LOGlistVotersOf",
      "type": "event"
    },
    {
      "anonymous": false,
      "inputs": [
        {
          "indexed": true,
          "name": "roomID",
          "type": "uint256"
        },
        {
          "indexed": false,
          "name": "option",
          "type": "bytes"
        },
        {
          "indexed": false,
          "name": "counts",
          "type": "uint256"
        },
        {
          "indexed": false,
          "name": "voters",
          "type": "address[]"
        }
      ],
      "name": "LOGroomResult",
      "type": "event"
    },
    {
      "anonymous": false,
      "inputs": [
        {
          "indexed": true,
          "name": "roomID",
          "type": "uint256"
        },
        {
          "indexed": true,
          "name": "sender",
          "type": "address"
        },
        {
          "indexed": false,
          "name": "options",
          "type": "bytes32[]"
        }
      ],
      "name": "LOGvoteNotify",
      "type": "event"
    },
    {
      "anonymous": false,
      "inputs": [
        {
          "indexed": false,
          "name": "roomID",
          "type": "uint256"
        },
        {
          "indexed": false,
          "name": "pollNo",
          "type": "uint256"
        },
        {
          "indexed": false,
          "name": "question",
          "type": "string"
        },
        {
          "indexed": false,
          "name": "option",
          "type": "bytes32[]"
        },
        {
          "indexed": false,
          "name": "count",
          "type": "uint256[]"
        }
      ],
      "name": "LOGcountOf",
      "type": "event"
    },
    {
      "anonymous": false,
      "inputs": [
        {
          "indexed": false,
          "name": "id",
          "type": "bytes8"
        },
        {
          "indexed": false,
          "name": "addr",
          "type": "address"
        },
        {
          "indexed": false,
          "name": "point",
          "type": "uint256"
        }
      ],
      "name": "LOGaccountInfo",
      "type": "event"
    }
  ],
  "bytecode": "0x6060604052341561000f57600080fd5b612e628061001e6000396000f3006060604052600436106100d0576000357c0100000000000000000000000000000000000000000000000000000000900463ffffffff1680631b9e16ad146100d55780631c3a8892146101345780632564e03d1461016f578063572ab162146101ea5780635a192c01146102b25780637bf1a45f1461036c5780637fc9f41a146103c257806380be87e0146104255780639201de551461045c57806395991e5e146104fc5780639a962c7f14610566578063a3b077841461058f578063a82a5601146105e9578063b95f80821461064c575b600080fd5b34156100e057600080fd5b6100e86106c4565b604051808277ffffffffffffffffffffffffffffffffffffffffffffffff191677ffffffffffffffffffffffffffffffffffffffffffffffff1916815260200191505060405180910390f35b341561013f57600080fd5b6101556004808035906020019091905050610732565b604051808215151515815260200191505060405180910390f35b341561017a57600080fd5b6101d0600480803590602001909190803590602001908201803590602001908080602002602001604051908101604052809392919081815260200183836020028082843782019150505050505091905050610b55565b604051808215151515815260200191505060405180910390f35b34156101f557600080fd5b61029c600480803590602001908201803590602001908080601f01602080910402602001604051908101604052809392919081815260200183838082843782019150505050505091908035151590602001909190803590602001908201803590602001908080601f01602080910402602001604051908101604052809392919081815260200183838082843782019150505050505091908035906020019091905050611184565b6040518082815260200191505060405180910390f35b34156102bd57600080fd5b610356600480803590602001909190803590602001908201803590602001908080601f0160208091040260200160405190810160405280939291908181526020018383808284378201915050505050509190803590602001908201803590602001908080602002602001604051908101604052809392919081815260200183836020028082843782019150505050505091905050611569565b6040518082815260200191505060405180910390f35b341561037757600080fd5b6103a8600480803577ffffffffffffffffffffffffffffffffffffffffffffffff1916906020019091905050611912565b604051808215151515815260200191505060405180910390f35b34156103cd57600080fd5b6103e36004808035906020019091905050611cae565b604051808273ffffffffffffffffffffffffffffffffffffffff1673ffffffffffffffffffffffffffffffffffffffff16815260200191505060405180910390f35b341561043057600080fd5b6104466004808035906020019091905050611ced565b6040518082815260200191505060405180910390f35b341561046757600080fd5b610481600480803560001916906020019091905050611d1a565b6040518080602001828103825283818151815260200191508051906020019080838360005b838110156104c15780820151818401526020810190506104a6565b50505050905090810190601f1680156104ee5780820380516001836020036101000a031916815260200191505b509250505060405180910390f35b341561050757600080fd5b61050f611f07565b6040518080602001828103825283818151815260200191508051906020019060200280838360005b83811015610552578082015181840152602081019050610537565b505050509050019250505060405180910390f35b341561057157600080fd5b610579611f9b565b6040518082815260200191505060405180910390f35b341561059a57600080fd5b6105cf600480803590602001909190803573ffffffffffffffffffffffffffffffffffffffff16906020019091905050611fe4565b604051808215151515815260200191505060405180910390f35b34156105f457600080fd5b61064a6004808035906020019091908035906020019082018035906020019080806020026020016040519081016040528093929190818152602001838360200280828437820191505050505050919050506120cb565b005b341561065757600080fd5b61066d60048080359060200190919050506125f2565b6040518080602001828103825283818151815260200191508051906020019060200280838360005b838110156106b0578082015181840152602081019050610695565b505050509050019250505060405180910390f35b60008060003373ffffffffffffffffffffffffffffffffffffffff1673ffffffffffffffffffffffffffffffffffffffff16815260200190815260200160002060000160009054906101000a9004780100000000000000000000000000000000000000000000000002905090565b60008060008360028181548110151561074757fe5b90600052602060002090600a020160090160009054906101000a900460ff16151561077157600080fd5b600060028681548110151561078257fe5b90600052602060002090600a020160090160006101000a81548160ff021916908315150217905550600092505b6002858154811015156107be57fe5b90600052602060002090600a020160050180549050831015610afd57600091505b6002858154811015156107ee57fe5b90600052602060002090600a02016005018381548110151561080c57fe5b90600052602060002090600302016001018054905082101561090e576003805480600101828161083c9190612a18565b9160005260206000209001600060028881548110151561085857fe5b90600052602060002090600a02016005018681548110151561087657fe5b9060005260206000209060030201600201600060028a81548110151561089857fe5b90600052602060002090600a0201600501888154811015156108b657fe5b9060005260206000209060030201600101878154811015156108d457fe5b90600052602060002090015460001916600019168152602001908152602001600020805490509091909150555081806001019250506107df565b7f659e615bee88913161c32222f9db189aea9123f2a0fd2a7f101fe7f15bebc1fb858460028881548110151561094057fe5b90600052602060002090600a02016005018681548110151561095e57fe5b906000526020600020906003020160000160028981548110151561097e57fe5b90600052602060002090600a02016005018781548110151561099c57fe5b9060005260206000209060030201600101600360405180868152602001858152602001806020018060200180602001848103845287818154600181600116156101000203166002900481526020019150805460018160011615610100020316600290048015610a4c5780601f10610a2157610100808354040283529160200191610a4c565b820191906000526020600020905b815481529060010190602001808311610a2f57829003601f168201915b50508481038352868181548152602001915080548015610a8f57602002820191906000526020600020905b81546000191681526020019060010190808311610a77575b50508481038252858181548152602001915080548015610ace57602002820191906000526020600020905b815481526020019060010190808311610aba575b50509850505050505050505060405180910390a160036000610af09190612a44565b82806001019350506107af565b600285815481101515610b0c57fe5b90600052602060002090600a0201600101547e492c57d0a2470ca283c7ff9ec501fcaae4487c87b6ab87d5cb0f6914a3018260405160405180910390a260019350505050919050565b6000806000843373ffffffffffffffffffffffffffffffffffffffff16600282815481101515610b8157fe5b90600052602060002090600a020160000160009054906101000a900473ffffffffffffffffffffffffffffffffffffffff1673ffffffffffffffffffffffffffffffffffffffff16141515610bd557600080fd5b85600281815481101515610be557fe5b90600052602060002090600a020160090160009054906101000a900460ff161515610c0f57600080fd5b86600281815481101515610c1f57fe5b90600052602060002090600a020160040160009054906101000a900460ff161515610c4957600080fd5b876000600282815481101515610c5b57fe5b90600052602060002090600a0201600601600101805490501115610c7e57600080fd5b600289815481101515610c8d57fe5b90600052602060002090600a02016006016001018054806001018281610cb39190612a65565b9160005260206000209001600033909190916101000a81548173ffffffffffffffffffffffffffffffffffffffff021916908373ffffffffffffffffffffffffffffffffffffffff16021790555050887f74962391ff5eff7b4df261595a631f4e12f3b0a304d4cfdc760bb0d529b37bb76000803373ffffffffffffffffffffffffffffffffffffffff1673ffffffffffffffffffffffffffffffffffffffff16815260200190815260200160002060000160009054906101000a900478010000000000000000000000000000000000000000000000000233604051808377ffffffffffffffffffffffffffffffffffffffffffffffff191677ffffffffffffffffffffffffffffffffffffffffffffffff191681526020018273ffffffffffffffffffffffffffffffffffffffff1673ffffffffffffffffffffffffffffffffffffffff1681526020019250505060405180910390a2600095505b60018054905086101561117457600094505b8751851015611167578785815181101515610e3857fe5b9060200190602002015177ffffffffffffffffffffffffffffffffffffffffffffffff1916600080600189815481101515610e6f57fe5b906000526020600020900160009054906101000a900473ffffffffffffffffffffffffffffffffffffffff1673ffffffffffffffffffffffffffffffffffffffff1673ffffffffffffffffffffffffffffffffffffffff16815260200190815260200160002060000160009054906101000a900478010000000000000000000000000000000000000000000000000277ffffffffffffffffffffffffffffffffffffffffffffffff1916141561115a57600289815481101515610f2e57fe5b90600052602060002090600a02016006016001018054806001018281610f549190612a65565b91600052602060002090016000600189815481101515610f7057fe5b906000526020600020900160009054906101000a900473ffffffffffffffffffffffffffffffffffffffff16909190916101000a81548173ffffffffffffffffffffffffffffffffffffffff021916908373ffffffffffffffffffffffffffffffffffffffff16021790555050887f74962391ff5eff7b4df261595a631f4e12f3b0a304d4cfdc760bb0d529b37bb760008060018a81548110151561101157fe5b906000526020600020900160009054906101000a900473ffffffffffffffffffffffffffffffffffffffff1673ffffffffffffffffffffffffffffffffffffffff1673ffffffffffffffffffffffffffffffffffffffff16815260200190815260200160002060000160009054906101000a90047801000000000000000000000000000000000000000000000000026001898154811015156110af57fe5b906000526020600020900160009054906101000a900473ffffffffffffffffffffffffffffffffffffffff16604051808377ffffffffffffffffffffffffffffffffffffffffffffffff191677ffffffffffffffffffffffffffffffffffffffffffffffff191681526020018273ffffffffffffffffffffffffffffffffffffffff1673ffffffffffffffffffffffffffffffffffffffff1681526020019250505060405180910390a25b8480600101955050610e21565b8580600101965050610e0f565b6001965050505050505092915050565b60006002805490509050600280548091906001016111a29190612a91565b50806002828154811015156111b357fe5b90600052602060002090600a020160010181905550336002828154811015156111d857fe5b90600052602060002090600a020160000160006101000a81548173ffffffffffffffffffffffffffffffffffffffff021916908373ffffffffffffffffffffffffffffffffffffffff1602179055508260028281548110151561123757fe5b90600052602060002090600a0201600301908051906020019061125b929190612ac3565b508460028281548110151561126c57fe5b90600052602060002090600a02016002019080519060200190611290929190612ac3565b50836002828154811015156112a157fe5b90600052602060002090600a020160040160006101000a81548160ff021916908315150217905550816002828154811015156112d957fe5b90600052602060002090600a02016008018190555060016002828154811015156112ff57fe5b90600052602060002090600a020160090160006101000a81548160ff02191690831515021790555060028181548110151561133657fe5b90600052602060002090600a020160000160009054906101000a900473ffffffffffffffffffffffffffffffffffffffff1673ffffffffffffffffffffffffffffffffffffffff16817fa2b5ca96e1c5de8e9a5a72d3726d31afed57fde16bcf46dbf75a1ddcc2a0df096002848154811015156113af57fe5b90600052602060002090600a02016002016002858154811015156113cf57fe5b90600052602060002090600a02016003016002868154811015156113ef57fe5b90600052602060002090600a020160040160009054906101000a900460ff1660028781548110151561141d57fe5b90600052602060002090600a020160080154604051808060200180602001851515151581526020018481526020018381038352878181546001816001161561010002031660029004815260200191508054600181600116156101000203166002900480156114cc5780601f106114a1576101008083540402835291602001916114cc565b820191906000526020600020905b8154815290600101906020018083116114af57829003601f168201915b505083810382528681815460018160011615610100020316600290048152602001915080546001816001161561010002031660029004801561154f5780601f106115245761010080835404028352916020019161154f565b820191906000526020600020905b81548152906001019060200180831161153257829003601f168201915b5050965050505050505060405180910390a3949350505050565b6000833373ffffffffffffffffffffffffffffffffffffffff1660028281548110151561159257fe5b90600052602060002090600a020160000160009054906101000a900473ffffffffffffffffffffffffffffffffffffffff1673ffffffffffffffffffffffffffffffffffffffff161415156115e657600080fd5b8260008090505b600182510381101561164f57818180600101925081518110151561160d57fe5b9060200190602002015160001916828281518110151561162957fe5b9060200190602002015160001916141561164257600080fd5b80806001019150506115ed565b8660028181548110151561165f57fe5b90600052602060002090600a020160090160009054906101000a900460ff16151561168957600080fd5b60028881548110151561169857fe5b90600052602060002090600a02016005018054905094506002888154811015156116be57fe5b90600052602060002090600a020160050180548091906001016116e19190612b43565b50866002898154811015156116f257fe5b90600052602060002090600a02016005018681548110151561171057fe5b90600052602060002090600302016000019080519060200190611734929190612ac3565b508560028981548110151561174557fe5b90600052602060002090600a02016005018681548110151561176357fe5b90600052602060002090600302016001019080519060200190611787929190612b75565b5084887fa07ff47130ada328502f2b954ef63cb0306148ca86fe6b9468d2794128b8774360028b8154811015156117ba57fe5b90600052602060002090600a0201600501888154811015156117d857fe5b906000526020600020906003020160000160028c8154811015156117f857fe5b90600052602060002090600a02016005018981548110151561181657fe5b90600052602060002090600302016001016040518080602001806020018381038352858181546001816001161561010002031660029004815260200191508054600181600116156101000203166002900480156118b45780601f10611889576101008083540402835291602001916118b4565b820191906000526020600020905b81548152906001019060200180831161189757829003601f168201915b505083810382528481815481526020019150805480156118f757602002820191906000526020600020905b815460001916815260200190600101908083116118df575b505094505050505060405180910390a3505050509392505050565b600061191c612bc8565b8260008090505b600180549050811015611a20578177ffffffffffffffffffffffffffffffffffffffffffffffff191660008060018481548110151561195e57fe5b906000526020600020900160009054906101000a900473ffffffffffffffffffffffffffffffffffffffff1673ffffffffffffffffffffffffffffffffffffffff1673ffffffffffffffffffffffffffffffffffffffff16815260200190815260200160002060000160009054906101000a900478010000000000000000000000000000000000000000000000000277ffffffffffffffffffffffffffffffffffffffffffffffff19161415611a1357600080fd5b8080600101915050611923565b60008090505b600180549050811015611ab357600181815481101515611a4257fe5b906000526020600020900160009054906101000a900473ffffffffffffffffffffffffffffffffffffffff1673ffffffffffffffffffffffffffffffffffffffff163373ffffffffffffffffffffffffffffffffffffffff161415611aa657600080fd5b8080600101915050611a26565b85846000019077ffffffffffffffffffffffffffffffffffffffffffffffff1916908177ffffffffffffffffffffffffffffffffffffffffffffffff1916815250506000846020018181525050836000803373ffffffffffffffffffffffffffffffffffffffff1673ffffffffffffffffffffffffffffffffffffffff16815260200190815260200160002060008201518160000160006101000a81548167ffffffffffffffff02191690837801000000000000000000000000000000000000000000000000900402179055506020820151816001015590505060018054806001018281611ba19190612a65565b9160005260206000209001600033909190916101000a81548173ffffffffffffffffffffffffffffffffffffffff021916908373ffffffffffffffffffffffffffffffffffffffff160217905550507f96596898687effee9fd8db31bbd7fc00c0ee2e755c1035c4635ac52c398060338460000151338660200151604051808477ffffffffffffffffffffffffffffffffffffffffffffffff191677ffffffffffffffffffffffffffffffffffffffffffffffff191681526020018373ffffffffffffffffffffffffffffffffffffffff1673ffffffffffffffffffffffffffffffffffffffff168152602001828152602001935050505060405180910390a16001945050505050919050565b600181815481101515611cbd57fe5b90600052602060002090016000915054906101000a900473ffffffffffffffffffffffffffffffffffffffff1681565b6000600282815481101515611cfe57fe5b90600052602060002090600a0201600501805490509050919050565b611d22612bfd565b611d2a612c11565b6000806000611d37612c11565b6020604051805910611d465750595b9080825280601f01601f1916602001820160405250945060009350600092505b6020831015611e24578260080260020a876001900402600102915060007f010000000000000000000000000000000000000000000000000000000000000002827effffffffffffffffffffffffffffffffffffffffffffffffffffffffffffff1916141515611e1757818585815181101515611dde57fe5b9060200101907effffffffffffffffffffffffffffffffffffffffffffffffffffffffffffff1916908160001a90535083806001019450505b8280600101935050611d66565b83604051805910611e325750595b9080825280601f01601f19166020018201604052509050600092505b83831015611efa578483815181101515611e6457fe5b9060200101517f010000000000000000000000000000000000000000000000000000000000000090047f0100000000000000000000000000000000000000000000000000000000000000028184815181101515611ebd57fe5b9060200101907effffffffffffffffffffffffffffffffffffffffffffffffffffffffffffff1916908160001a9053508280600101935050611e4e565b8095505050505050919050565b611f0f612c25565b6001805480602002602001604051908101604052809291908181526020018280548015611f9157602002820191906000526020600020905b8160009054906101000a900473ffffffffffffffffffffffffffffffffffffffff1673ffffffffffffffffffffffffffffffffffffffff1681526020019060010190808311611f47575b5050505050905090565b60008060003373ffffffffffffffffffffffffffffffffffffffff1673ffffffffffffffffffffffffffffffffffffffff16815260200190815260200160002060010154905090565b600080600090505b600284815481101515611ffb57fe5b90600052602060002090600a0201600601600101805490508110156120bf5760028481548110151561202957fe5b90600052602060002090600a02016006016001018181548110151561204a57fe5b906000526020600020900160009054906101000a900473ffffffffffffffffffffffffffffffffffffffff1673ffffffffffffffffffffffffffffffffffffffff168373ffffffffffffffffffffffffffffffffffffffff1614156120b257600191506120c4565b8080600101915050611fec565b600091505b5092915050565b816002818154811015156120db57fe5b90600052602060002090600a020160090160009054906101000a900460ff16151561210557600080fd5b8260028181548110151561211557fe5b90600052602060002090600a020160060160000160003373ffffffffffffffffffffffffffffffffffffffff1673ffffffffffffffffffffffffffffffffffffffff16815260200190815260200160002060010160009054906101000a900460ff1615151561218357600080fd5b8383600080600061219385611ced565b84511415156121a157600080fd5b60009250600091505b6121b385611ced565b8210156122a857600090505b6002858154811015156121ce57fe5b90600052602060002090600a0201600501828154811015156121ec57fe5b90600052602060002090600302016001018054905081101561229b5760028581548110151561221757fe5b90600052602060002090600a02016005018281548110151561223557fe5b90600052602060002090600302016001018181548110151561225357fe5b90600052602060002090015460001916848381518110151561227157fe5b9060200190602002015160001916141561228e5782806001019350505b80806001019150506121bf565b81806001019250506121aa565b6122b185611ced565b831415156122be57600080fd5b6002898154811015156122cd57fe5b90600052602060002090600a020160040160009054906101000a900460ff1615612300576122fb89896126a9565b6125e7565b8760028a81548110151561231057fe5b90600052602060002090600a020160060160000160003373ffffffffffffffffffffffffffffffffffffffff1673ffffffffffffffffffffffffffffffffffffffff1681526020019081526020016000206000019080519060200190612377929190612b75565b50600160028a81548110151561238957fe5b90600052602060002090600a020160060160000160003373ffffffffffffffffffffffffffffffffffffffff1673ffffffffffffffffffffffffffffffffffffffff16815260200190815260200160002060010160006101000a81548160ff02191690831515021790555060028981548110151561240357fe5b90600052602060002090600a020160060160010180548060010182816124299190612a65565b9160005260206000209001600033909190916101000a81548173ffffffffffffffffffffffffffffffffffffffff021916908373ffffffffffffffffffffffffffffffffffffffff160217905550506000803373ffffffffffffffffffffffffffffffffffffffff1673ffffffffffffffffffffffffffffffffffffffff168152602001908152602001600020600101600081548092919060010191905055506124d38989612928565b3373ffffffffffffffffffffffffffffffffffffffff1660028a8154811015156124f957fe5b90600052602060002090600a0201600101547fae7fab35878ff4034302ce8b7ef19f037e3ef08350dca61711beb352c1076c2f60028c81548110151561253b57fe5b90600052602060002090600a020160060160000160003373ffffffffffffffffffffffffffffffffffffffff1673ffffffffffffffffffffffffffffffffffffffff168152602001908152602001600020600001604051808060200182810382528381815481526020019150805480156125d857602002820191906000526020600020905b815460001916815260200190600101908083116125c0575b50509250505060405180910390a35b505050505050505050565b6125fa612c25565b60028281548110151561260957fe5b90600052602060002090600a020160060160010180548060200260200160405190810160405280929190818152602001828054801561269d57602002820191906000526020600020905b8160009054906101000a900473ffffffffffffffffffffffffffffffffffffffff1673ffffffffffffffffffffffffffffffffffffffff1681526020019060010190808311612653575b50505050509050919050565b81336126b58282611fe4565b15156126c057600080fd5b826002858154811015156126d057fe5b90600052602060002090600a020160060160000160003373ffffffffffffffffffffffffffffffffffffffff1673ffffffffffffffffffffffffffffffffffffffff1681526020019081526020016000206000019080519060200190612737929190612b75565b50600160028581548110151561274957fe5b90600052602060002090600a020160060160000160003373ffffffffffffffffffffffffffffffffffffffff1673ffffffffffffffffffffffffffffffffffffffff16815260200190815260200160002060010160006101000a81548160ff0219169083151502179055506000803373ffffffffffffffffffffffffffffffffffffffff1673ffffffffffffffffffffffffffffffffffffffff1681526020019081526020016000206001016000815480929190600101919050555061280f8484612928565b3373ffffffffffffffffffffffffffffffffffffffff1660028581548110151561283557fe5b90600052602060002090600a0201600101547fae7fab35878ff4034302ce8b7ef19f037e3ef08350dca61711beb352c1076c2f60028781548110151561287757fe5b90600052602060002090600a020160060160000160003373ffffffffffffffffffffffffffffffffffffffff1673ffffffffffffffffffffffffffffffffffffffff1681526020019081526020016000206000016040518080602001828103825283818154815260200191508054801561291457602002820191906000526020600020905b815460001916815260200190600101908083116128fc575b50509250505060405180910390a350505050565b60008090505b8151811015612a135760028381548110151561294657fe5b90600052602060002090600a02016005018181548110151561296457fe5b90600052602060002090600302016002016000838381518110151561298557fe5b906020019060200201516000191660001916815260200190815260200160002080548060010182816129b79190612a65565b9160005260206000209001600033909190916101000a81548173ffffffffffffffffffffffffffffffffffffffff021916908373ffffffffffffffffffffffffffffffffffffffff16021790555050808060010191505061292e565b505050565b815481835581811511612a3f57818360005260206000209182019101612a3e9190612c39565b5b505050565b5080546000825590600052602060002090810190612a629190612c39565b50565b815481835581811511612a8c57818360005260206000209182019101612a8b9190612c39565b5b505050565b815481835581811511612abe57600a0281600a028360005260206000209182019101612abd9190612c5e565b5b505050565b828054600181600116156101000203166002900490600052602060002090601f016020900481019282601f10612b0457805160ff1916838001178555612b32565b82800160010185558215612b32579182015b82811115612b31578251825591602001919060010190612b16565b5b509050612b3f9190612c39565b5090565b815481835581811511612b7057600302816003028360005260206000209182019101612b6f9190612d24565b5b505050565b828054828255906000526020600020908101928215612bb7579160200282015b82811115612bb6578251829060001916905591602001919060010190612b95565b5b509050612bc49190612d63565b5090565b6040805190810160405280600077ffffffffffffffffffffffffffffffffffffffffffffffff19168152602001600081525090565b602060405190810160405280600081525090565b602060405190810160405280600081525090565b602060405190810160405280600081525090565b612c5b91905b80821115612c57576000816000905550600101612c3f565b5090565b90565b612d2191905b80821115612d1d57600080820160006101000a81549073ffffffffffffffffffffffffffffffffffffffff02191690556001820160009055600282016000612cac9190612d88565b600382016000612cbc9190612d88565b6004820160006101000a81549060ff0219169055600582016000612ce09190612dd0565b600682016000600182016000612cf69190612df4565b505060088201600090556009820160006101000a81549060ff021916905550600a01612c64565b5090565b90565b612d6091905b80821115612d5c5760008082016000612d439190612d88565b600182016000612d539190612e15565b50600301612d2a565b5090565b90565b612d8591905b80821115612d81576000816000905550600101612d69565b5090565b90565b50805460018160011615610100020316600290046000825580601f10612dae5750612dcd565b601f016020900490600052602060002090810190612dcc9190612c39565b5b50565b5080546000825560030290600052602060002090810190612df19190612d24565b50565b5080546000825590600052602060002090810190612e129190612c39565b50565b5080546000825590600052602060002090810190612e339190612d63565b505600a165627a7a72305820a2ac57ce124a972e5f7836cb7bb2258c29cb5617b9855b8391366e9c65dc89e20029",
  "source": "pragma solidity ^0.4.18;\n\nimport \"./ManageAccount15.sol\";\n\ncontract voting15 is ManageAccount15\n {\n    room[] rooms;\n    uint[] result;\n    struct room\n    {\n        address owner;\n        uint id;\n        string title;\n        string descript;\n        bool privateRoom;\n        Poll[] poll;\n        ListVoters listVoters;\n        uint expiredTime;\n        bool open;\n    }\n\n    struct Voter\n    {\n\n        bytes32[] ballot;//roomID => ballot\n        bool voted;//roomID => ballot\n    }\n    \n    struct ListVoters\n    {\n        mapping (address => Voter) voter;\n        address[] addrs;\n    }\n    \n    struct Poll\n    {\n        string questions;\n        bytes32[] options;\n        mapping(bytes32 => address[]) listVotersOf;\n    }\n    \n    event LOGroomOpened(uint indexed roomID, address indexed owner,string title, string descript, bool privateRoom, uint expiredTime);\n    \n    event LOGaddListVoter(uint indexed roomID, address[] list);\n    event LOGPrivateListVoter(uint indexed roomID, bytes8 id, address addr);\n    \n    event LOGpollingAdded(uint indexed roomID,uint indexed pollID, string question, bytes32[] options);\n    event LOGroomClosed(uint indexed roomID);\n    event LOGoptions(uint indexed roomID, bytes[] options);\n    event LOGlistVotersOf(uint indexed roomID, bytes option, address[] voters);\n    event LOGroomResult(uint indexed roomID, bytes option, uint counts, address[] voters);\n    \n    event LOGvoteNotify(uint indexed roomID, address indexed sender, bytes32[] options);\n    event LOGcountOf(uint roomID, uint pollNo, string question, bytes32[] option, uint[] count);\n    //event LOGvoterOf(uint roomID, uint pollNo, bytes32 option, address[] voter);\n    \n    \n    modifier owned(uint _RoomID)\n    {\n       require(rooms[_RoomID].owner == msg.sender);\n       _;\n    }\n    \n    modifier roomOpening(uint _RoomID) \n    {\n        require(rooms[_RoomID].open);\n        _;\n    }\n    \n    modifier roomClosed(uint _RoomID) \n    {\n        require(!rooms[_RoomID].open);\n        _;\n    }\n    \n\n    modifier listVoterEmpty(uint _RoomID)\n    {\n        require(rooms[_RoomID].listVoters.addrs.length == 0);\n        _;\n    }\n    \n    modifier privateRoom(uint _RoomID)\n    {\n        require(rooms[_RoomID].privateRoom);\n        _;\n    }\n    \n    modifier validBallot(uint _roomID, bytes32[] _option)\n    {\n        if(_option.length != getNumberOfPolls(_roomID))\n        {\n            revert();\n        }\n        uint a = 0;\n        for(uint i = 0; i < getNumberOfPolls(_roomID); i++)\n        {\n            for(uint j = 0; j < rooms[_roomID].poll[i].options.length; j++)\n            {\n                if(_option[i] == rooms[_roomID].poll[i].options[j])\n                {\n                    a++;\n                }\n            }\n        }\n        if(a != getNumberOfPolls(_roomID))\n        {\n            revert();\n        }\n        _;\n    }\n    \n    modifier duplicateOption(bytes32[] _options)\n    {\n        for(uint i = 0; i < _options.length-1; i++)\n        {\n            if(_options[i] == _options[i++])\n            {\n                revert();\n            }\n        }\n        _;\n    }\n    \n    modifier notVoted(uint _roomID)\n    {\n        require(!rooms[_roomID].listVoters.voter[msg.sender].voted);\n        _;\n    }\n    \n    function checkVailableVoter(uint _roomID, address _voter) public view returns(bool)\n    {\n        for(uint i= 0; i < rooms[_roomID].listVoters.addrs.length ; i++)\n            {\n                if(_voter == rooms[_roomID].listVoters.addrs[i])\n                {\n                   return true;\n                }\n            }\n        return false;\n    }\n    \n    modifier vailableVoter(uint _roomID, address _voter)\n    {\n         require(checkVailableVoter(_roomID, _voter));\n        _;\n    }\n    \n   \n    \n    modifier emptyList(uint _roomID)\n    {\n        if(rooms[_roomID].listVoters.addrs.length >0)\n        {\n            revert();\n        }\n        _;\n    }\n    \n    modifier emptyOption(uint _roomID)\n    {\n        if(rooms[_roomID].listVoters.addrs.length >0)\n        {\n            revert();\n        }\n        _;\n    }\n    \n     function voting15()\n        public \n    {\n        \n    }\n    \n    function openRoom(string _til, bool _privateR, string _des, uint _expiredTime) public returns (uint id)\n    {\n        id = rooms.length;\n        rooms.length++;\n        rooms[id].id = id;\n        rooms[id].owner = msg.sender;\n        rooms[id].descript = _des;\n        rooms[id].title = _til;\n        rooms[id].privateRoom = _privateR;\n        rooms[id].expiredTime = _expiredTime;\n        rooms[id].open = true;\n        LOGroomOpened(id, rooms[id].owner,rooms[id].title, rooms[id].descript, rooms[id].privateRoom, rooms[id].expiredTime);\n    }\n    \n    function addPoll(uint _roomID, string _quest, bytes32[] _opt) \n            owned(_roomID)\n            duplicateOption(_opt)\n            roomOpening(_roomID)\n            //emptyOption(_roomID)\n            public returns(uint pollNo)\n    {\n        pollNo = rooms[_roomID].poll.length;\n        rooms[_roomID].poll.length++;\n        rooms[_roomID].poll[pollNo].questions = _quest;\n        rooms[_roomID].poll[pollNo].options = _opt;\n        LOGpollingAdded(_roomID, pollNo, rooms[_roomID].poll[pollNo].questions, rooms[_roomID].poll[pollNo].options);\n    }\n\n    function getNumberOfPolls(uint _roomID) public view returns(uint)\n    {\n        return rooms[_roomID].poll.length;\n    }\n    \n    function closeRoom(uint _id) \n            //owned(_id) \n            roomOpening(_id) public returns (bool)\n    {\n        rooms[_id].open = false;\n        for(uint i = 0; i < rooms[_id].poll.length; i++)\n        {\n            for(uint j = 0; j < rooms[_id].poll[i].options.length; j++)\n            {\n               result.push(rooms[_id].poll[i].listVotersOf[rooms[_id].poll[i].options[j]].length);\n            }\n            LOGcountOf(_id, i, rooms[_id].poll[i].questions, rooms[_id].poll[i].options, result);\n            delete result;\n        }\n        LOGroomClosed(rooms[_id].id);\n        return true;\n    }\n    \n    function voteForPrivateRoom(uint _roomID, bytes32[] _options)\n        vailableVoter(_roomID, msg.sender)\n        private \n    {\n        rooms[_roomID].listVoters.voter[msg.sender].ballot = _options;\n        rooms[_roomID].listVoters.voter[msg.sender].voted = true;\n        account[msg.sender].point++;\n        addToListVoteOf(_roomID, _options);\n        LOGvoteNotify(rooms[_roomID].id, msg.sender, rooms[_roomID].listVoters.voter[msg.sender].ballot);\n        //LOGaccountInfo(account[msg.sender].id, msg.sender, account[msg.sender].point);\n    }\n\n    function voteFor(uint _roomID, bytes32[] _options)\n        roomOpening(_roomID)\n        notVoted(_roomID)\n        validBallot(_roomID, _options)\n        public\n    {\n        if(rooms[_roomID].privateRoom)\n        {\n            voteForPrivateRoom(_roomID, _options);\n            return;\n        }\n        rooms[_roomID].listVoters.voter[msg.sender].ballot = _options;\n        rooms[_roomID].listVoters.voter[msg.sender].voted = true;\n        rooms[_roomID].listVoters.addrs.push(msg.sender);\n        account[msg.sender].point++;\n        addToListVoteOf(_roomID, _options);\n        LOGvoteNotify(rooms[_roomID].id, msg.sender, rooms[_roomID].listVoters.voter[msg.sender].ballot);\n        //LOGaccountInfo(account[msg.sender].id, msg.sender, account[msg.sender].point);\n    }\n    \n    function addToListVoteOf(uint _roomID, bytes32[] _option) private \n    {\n        for(uint i=0; i <  _option.length; i++)\n        {\n            rooms[_roomID].poll[i].listVotersOf[_option[i]].push(msg.sender);\n        }\n    }\n    \n    function setListVotersByID(uint _roomID, bytes8[] _ids) \n            owned(_roomID)\n            roomOpening(_roomID)\n            privateRoom(_roomID)\n            emptyList(_roomID)\n            public returns (bool)\n    {\n        rooms[_roomID].listVoters.addrs.push(msg.sender);\n        LOGPrivateListVoter(_roomID, account[msg.sender].id, msg.sender);\n        for(uint i = 0; i < listAddressAccount.length; i++)\n        {\n            for(uint j = 0; j < _ids.length; j++)\n            {\n                if(account[listAddressAccount[i]].id == _ids[j])\n                {\n                    rooms[_roomID].listVoters.addrs.push(listAddressAccount[i]);\n                    LOGPrivateListVoter(_roomID, account[listAddressAccount[i]].id, listAddressAccount[i]);\n                }\n            }\n        }\n        return true;\n    }\n    \n    function getListVoterOf(uint _roomID) public view returns(address[])\n    {\n        return  rooms[_roomID].listVoters.addrs;\n    }\n    \n    function getVoterPoint() public view returns(uint)\n    {\n        return account[msg.sender].point;\n    }\n  \n    function bytes32ToString(bytes32 x) public pure returns (string) \n    {\n        bytes memory bytesString = new bytes(32);\n        uint charCount = 0;\n        for (uint j = 0; j < 32; j++) \n        {\n            byte char = byte(bytes32(uint(x) * 2 ** (8 * j)));\n            if (char != 0) \n            {\n                bytesString[charCount] = char;\n                charCount++;\n            }\n        }\n        bytes memory bytesStringTrimmed = new bytes(charCount);\n        for (j = 0; j < charCount; j++) \n        {\n            bytesStringTrimmed[j] = bytesString[j];\n        }\n        return string(bytesStringTrimmed);\n    }\n }",
  "sourcePath": "C:\\Users\\UNT81HC\\Desktop\\workplace\\minh\\VoteChain\\contracts\\voting15.sol",
  "compiler": {
    "name": "solc",
    "version": "0.4.18+commit.9cf6e910.Emscripten.clang"
  },
  "schemaVersion": "1.0.1",
  "updatedAt": "2018-04-04T06:26:33.237Z"
}