{
  "contractName": "ManageAccount14",
  "abi": [
    {
      "constant": true,
      "inputs": [
        {
          "name": "",
          "type": "uint256"
        }
      ],
      "name": "listAddressAccount",
      "outputs": [
        {
          "name": "",
          "type": "address"
        }
      ],
      "payable": false,
      "stateMutability": "view",
      "type": "function"
    },
    {
      "inputs": [],
      "payable": false,
      "stateMutability": "nonpayable",
      "type": "constructor"
    },
    {
      "anonymous": false,
      "inputs": [
        {
          "indexed": false,
          "name": "id",
          "type": "bytes8"
        },
        {
          "indexed": false,
          "name": "addr",
          "type": "address"
        },
        {
          "indexed": false,
          "name": "point",
          "type": "uint256"
        }
      ],
      "name": "LOGaccountInfo",
      "type": "event"
    },
    {
      "constant": false,
      "inputs": [
        {
          "name": "_id",
          "type": "bytes8"
        }
      ],
      "name": "createAcc",
      "outputs": [
        {
          "name": "",
          "type": "bool"
        }
      ],
      "payable": false,
      "stateMutability": "nonpayable",
      "type": "function"
    },
    {
      "constant": true,
      "inputs": [],
      "name": "getListAccounts",
      "outputs": [
        {
          "name": "",
          "type": "address[]"
        }
      ],
      "payable": false,
      "stateMutability": "view",
      "type": "function"
    },
    {
      "constant": true,
      "inputs": [],
      "name": "getAccountInfo",
      "outputs": [
        {
          "name": "",
          "type": "bytes8"
        }
      ],
      "payable": false,
      "stateMutability": "view",
      "type": "function"
    }
  ],
  "bytecode": "0x6060604052341561000f57600080fd5b61078c8061001e6000396000f300606060405260043610610062576000357c0100000000000000000000000000000000000000000000000000000000900463ffffffff1680631b9e16ad146100675780637bf1a45f146100c65780637fc9f41a1461011c57806395991e5e1461017f575b600080fd5b341561007257600080fd5b61007a6101e9565b604051808277ffffffffffffffffffffffffffffffffffffffffffffffff191677ffffffffffffffffffffffffffffffffffffffffffffffff1916815260200191505060405180910390f35b34156100d157600080fd5b610102600480803577ffffffffffffffffffffffffffffffffffffffffffffffff1916906020019091905050610257565b604051808215151515815260200191505060405180910390f35b341561012757600080fd5b61013d60048080359060200190919050506105f3565b604051808273ffffffffffffffffffffffffffffffffffffffff1673ffffffffffffffffffffffffffffffffffffffff16815260200191505060405180910390f35b341561018a57600080fd5b610192610632565b6040518080602001828103825283818151815260200191508051906020019060200280838360005b838110156101d55780820151818401526020810190506101ba565b505050509050019250505060405180910390f35b60008060003373ffffffffffffffffffffffffffffffffffffffff1673ffffffffffffffffffffffffffffffffffffffff16815260200190815260200160002060000160009054906101000a9004780100000000000000000000000000000000000000000000000002905090565b60006102616106c6565b8260008090505b600180549050811015610365578177ffffffffffffffffffffffffffffffffffffffffffffffff19166000806001848154811015156102a357fe5b906000526020600020900160009054906101000a900473ffffffffffffffffffffffffffffffffffffffff1673ffffffffffffffffffffffffffffffffffffffff1673ffffffffffffffffffffffffffffffffffffffff16815260200190815260200160002060000160009054906101000a900478010000000000000000000000000000000000000000000000000277ffffffffffffffffffffffffffffffffffffffffffffffff1916141561035857600080fd5b8080600101915050610268565b60008090505b6001805490508110156103f85760018181548110151561038757fe5b906000526020600020900160009054906101000a900473ffffffffffffffffffffffffffffffffffffffff1673ffffffffffffffffffffffffffffffffffffffff163373ffffffffffffffffffffffffffffffffffffffff1614156103eb57600080fd5b808060010191505061036b565b85846000019077ffffffffffffffffffffffffffffffffffffffffffffffff1916908177ffffffffffffffffffffffffffffffffffffffffffffffff1916815250506000846020018181525050836000803373ffffffffffffffffffffffffffffffffffffffff1673ffffffffffffffffffffffffffffffffffffffff16815260200190815260200160002060008201518160000160006101000a81548167ffffffffffffffff021916908378010000000000000000000000000000000000000000000000009004021790555060208201518160010155905050600180548060010182816104e691906106fb565b9160005260206000209001600033909190916101000a81548173ffffffffffffffffffffffffffffffffffffffff021916908373ffffffffffffffffffffffffffffffffffffffff160217905550507f96596898687effee9fd8db31bbd7fc00c0ee2e755c1035c4635ac52c398060338460000151338660200151604051808477ffffffffffffffffffffffffffffffffffffffffffffffff191677ffffffffffffffffffffffffffffffffffffffffffffffff191681526020018373ffffffffffffffffffffffffffffffffffffffff1673ffffffffffffffffffffffffffffffffffffffff168152602001828152602001935050505060405180910390a16001945050505050919050565b60018181548110151561060257fe5b90600052602060002090016000915054906101000a900473ffffffffffffffffffffffffffffffffffffffff1681565b61063a610727565b60018054806020026020016040519081016040528092919081815260200182805480156106bc57602002820191906000526020600020905b8160009054906101000a900473ffffffffffffffffffffffffffffffffffffffff1673ffffffffffffffffffffffffffffffffffffffff1681526020019060010190808311610672575b5050505050905090565b6040805190810160405280600077ffffffffffffffffffffffffffffffffffffffffffffffff19168152602001600081525090565b81548183558181151161072257818360005260206000209182019101610721919061073b565b5b505050565b602060405190810160405280600081525090565b61075d91905b80821115610759576000816000905550600101610741565b5090565b905600a165627a7a72305820d5194dfb4a4494a892b2e76932e9fdc113ef8fe1209dd2c92b8d62d5db6e99ed0029",
  "source": "pragma solidity ^0.4.18;\r\n \r\ncontract ManageAccount14\r\n{\r\n    struct Account\r\n    {\r\n        bytes8 id;\r\n        uint point;\r\n    }\r\n    mapping (address => Account) account;\r\n    address[] public listAddressAccount;\r\n    \r\n    event LOGaccountInfo(bytes8 id, address addr, uint point);\r\n    \r\n   function ManageAccount14() public\r\n   {\r\n       //listAddrAcc = [msg.sender];\r\n   }\r\n   \r\n    modifier validID(bytes8 _id)\r\n    {\r\n         for(uint i = 0; i < listAddressAccount.length; i++)\r\n        {\r\n            if(account[listAddressAccount[i]].id == _id)\r\n            {\r\n                revert();\r\n            }\r\n        }\r\n        _;\r\n    }\r\n    modifier validAddr()\r\n    {\r\n        for(uint i = 0; i < listAddressAccount.length; i++)\r\n        {\r\n            if(msg.sender == listAddressAccount[i])\r\n            {\r\n                revert();\r\n            }\r\n        }\r\n        _;\r\n    }\r\n    \r\n    function createAcc(bytes8 _id) \r\n        validID(_id)\r\n        validAddr\r\n        public returns(bool)\r\n    {\r\n        Account memory temp;\r\n        temp.id = _id;\r\n        temp.point = 0;\r\n        account[msg.sender] = temp;\r\n        listAddressAccount.push(msg.sender);\r\n        LOGaccountInfo(temp.id, msg.sender, temp.point);\r\n\r\n        \r\n        return true;\r\n    }\r\n    function getListAccounts() public view returns(address[])\r\n    {\r\n        return listAddressAccount;\r\n    }\r\n    function getAccountInfo() public view returns(bytes8)\r\n    {\r\n        return account[msg.sender].id;\r\n    }\r\n}",
  "sourcePath": "C:\\Users\\PMM81HC\\Desktop\\Experiment\\VoteChain\\contracts\\ManageAccount14.sol",
  "compiler": {
    "name": "solc",
    "version": "0.4.19+commit.c4cbbb05.Emscripten.clang"
  },
  "schemaVersion": "2.0.0",
  "updatedAt": "2018-03-28T02:06:21.846Z"
}