{
  "contractName": "ManageAccount12",
  "abi": [
    {
      "constant": true,
      "inputs": [
        {
          "name": "",
          "type": "uint256"
        }
      ],
      "name": "listAddressAccount",
      "outputs": [
        {
          "name": "",
          "type": "address"
        }
      ],
      "payable": false,
      "stateMutability": "view",
      "type": "function"
    },
    {
      "anonymous": false,
      "inputs": [
        {
          "indexed": false,
          "name": "id",
          "type": "bytes8"
        },
        {
          "indexed": false,
          "name": "addr",
          "type": "address"
        },
        {
          "indexed": false,
          "name": "point",
          "type": "uint256"
        }
      ],
      "name": "LOGaccountInfo",
      "type": "event"
    },
    {
      "constant": false,
      "inputs": [],
      "name": "ManageAccount",
      "outputs": [],
      "payable": false,
      "stateMutability": "nonpayable",
      "type": "function"
    },
    {
      "constant": false,
      "inputs": [
        {
          "name": "_id",
          "type": "bytes8"
        }
      ],
      "name": "createAcc",
      "outputs": [
        {
          "name": "",
          "type": "bool"
        }
      ],
      "payable": false,
      "stateMutability": "nonpayable",
      "type": "function"
    },
    {
      "constant": true,
      "inputs": [],
      "name": "getListAccounts",
      "outputs": [
        {
          "name": "",
          "type": "address[]"
        }
      ],
      "payable": false,
      "stateMutability": "view",
      "type": "function"
    },
    {
      "constant": true,
      "inputs": [],
      "name": "getAccountInfo",
      "outputs": [
        {
          "name": "",
          "type": "bytes8"
        }
      ],
      "payable": false,
      "stateMutability": "view",
      "type": "function"
    }
  ],
  "bytecode": "0x6060604052341561000f57600080fd5b6107ae8061001e6000396000f30060606040526004361061006d576000357c0100000000000000000000000000000000000000000000000000000000900463ffffffff1680631b9e16ad146100725780637bf1a45f146100d15780637fc9f41a1461012757806395991e5e1461018a578063c179520c146101f4575b600080fd5b341561007d57600080fd5b610085610209565b604051808277ffffffffffffffffffffffffffffffffffffffffffffffff191677ffffffffffffffffffffffffffffffffffffffffffffffff1916815260200191505060405180910390f35b34156100dc57600080fd5b61010d600480803577ffffffffffffffffffffffffffffffffffffffffffffffff1916906020019091905050610277565b604051808215151515815260200191505060405180910390f35b341561013257600080fd5b6101486004808035906020019091905050610613565b604051808273ffffffffffffffffffffffffffffffffffffffff1673ffffffffffffffffffffffffffffffffffffffff16815260200191505060405180910390f35b341561019557600080fd5b61019d610652565b6040518080602001828103825283818151815260200191508051906020019060200280838360005b838110156101e05780820151818401526020810190506101c5565b505050509050019250505060405180910390f35b34156101ff57600080fd5b6102076106e6565b005b60008060003373ffffffffffffffffffffffffffffffffffffffff1673ffffffffffffffffffffffffffffffffffffffff16815260200190815260200160002060000160009054906101000a9004780100000000000000000000000000000000000000000000000002905090565b60006102816106e8565b8260008090505b600180549050811015610385578177ffffffffffffffffffffffffffffffffffffffffffffffff19166000806001848154811015156102c357fe5b906000526020600020900160009054906101000a900473ffffffffffffffffffffffffffffffffffffffff1673ffffffffffffffffffffffffffffffffffffffff1673ffffffffffffffffffffffffffffffffffffffff16815260200190815260200160002060000160009054906101000a900478010000000000000000000000000000000000000000000000000277ffffffffffffffffffffffffffffffffffffffffffffffff1916141561037857600080fd5b8080600101915050610288565b60008090505b600180549050811015610418576001818154811015156103a757fe5b906000526020600020900160009054906101000a900473ffffffffffffffffffffffffffffffffffffffff1673ffffffffffffffffffffffffffffffffffffffff163373ffffffffffffffffffffffffffffffffffffffff16141561040b57600080fd5b808060010191505061038b565b85846000019077ffffffffffffffffffffffffffffffffffffffffffffffff1916908177ffffffffffffffffffffffffffffffffffffffffffffffff1916815250506000846020018181525050836000803373ffffffffffffffffffffffffffffffffffffffff1673ffffffffffffffffffffffffffffffffffffffff16815260200190815260200160002060008201518160000160006101000a81548167ffffffffffffffff02191690837801000000000000000000000000000000000000000000000000900402179055506020820151816001015590505060018054806001018281610506919061071d565b9160005260206000209001600033909190916101000a81548173ffffffffffffffffffffffffffffffffffffffff021916908373ffffffffffffffffffffffffffffffffffffffff160217905550507f96596898687effee9fd8db31bbd7fc00c0ee2e755c1035c4635ac52c398060338460000151338660200151604051808477ffffffffffffffffffffffffffffffffffffffffffffffff191677ffffffffffffffffffffffffffffffffffffffffffffffff191681526020018373ffffffffffffffffffffffffffffffffffffffff1673ffffffffffffffffffffffffffffffffffffffff168152602001828152602001935050505060405180910390a16001945050505050919050565b60018181548110151561062257fe5b90600052602060002090016000915054906101000a900473ffffffffffffffffffffffffffffffffffffffff1681565b61065a610749565b60018054806020026020016040519081016040528092919081815260200182805480156106dc57602002820191906000526020600020905b8160009054906101000a900473ffffffffffffffffffffffffffffffffffffffff1673ffffffffffffffffffffffffffffffffffffffff1681526020019060010190808311610692575b5050505050905090565b565b6040805190810160405280600077ffffffffffffffffffffffffffffffffffffffffffffffff19168152602001600081525090565b81548183558181151161074457818360005260206000209182019101610743919061075d565b5b505050565b602060405190810160405280600081525090565b61077f91905b8082111561077b576000816000905550600101610763565b5090565b905600a165627a7a723058205a9dbbddbe49ae951a49afd14f6836b98674c7e20284ac6b9b10f6902056e64b0029",
  "source": "pragma solidity ^0.4.18;\r\n \r\ncontract ManageAccount12\r\n{\r\n    struct Account\r\n    {\r\n        bytes8 id;\r\n        uint point;\r\n    }\r\n    mapping (address => Account) account;\r\n    address[] public listAddressAccount;\r\n    \r\n    event LOGaccountInfo(bytes8 id, address addr, uint point);\r\n    \r\n   function ManageAccount() public\r\n   {\r\n       //listAddrAcc = [msg.sender];\r\n   }\r\n   \r\n    modifier validID(bytes8 _id)\r\n    {\r\n         for(uint i = 0; i < listAddressAccount.length; i++)\r\n        {\r\n            if(account[listAddressAccount[i]].id == _id)\r\n            {\r\n                revert();\r\n            }\r\n        }\r\n        _;\r\n    }\r\n    modifier validAddr()\r\n    {\r\n        for(uint i = 0; i < listAddressAccount.length; i++)\r\n        {\r\n            if(msg.sender == listAddressAccount[i])\r\n            {\r\n                revert();\r\n            }\r\n        }\r\n        _;\r\n    }\r\n    \r\n    function createAcc(bytes8 _id) \r\n        validID(_id)\r\n        validAddr\r\n        public returns(bool)\r\n    {\r\n        Account memory temp;\r\n        temp.id = _id;\r\n        temp.point = 0;\r\n        account[msg.sender] = temp;\r\n        listAddressAccount.push(msg.sender);\r\n         LOGaccountInfo(temp.id, msg.sender, temp.point);\r\n        return true;\r\n    }\r\n    function getListAccounts() public view returns(address[])\r\n    {\r\n        return listAddressAccount;\r\n    }\r\n    function getAccountInfo() public view returns(bytes8)\r\n    {\r\n        return account[msg.sender].id;\r\n    }\r\n}",
  "sourcePath": "C:\\Users\\PMM81HC\\Desktop\\Experiment\\VoteChain\\contracts\\ManageAccount12.sol",
  "compiler": {
    "name": "solc",
    "version": "0.4.19+commit.c4cbbb05.Emscripten.clang"
  },
  "schemaVersion": "2.0.0",
  "updatedAt": "2018-03-26T09:50:57.769Z"
}