{
  "contractName": "ManageAccount",
  "abi": [
    {
      "constant": false,
      "inputs": [
        {
          "name": "_n",
          "type": "string"
        },
        {
          "name": "_id",
          "type": "bytes8"
        },
        {
          "name": "_age",
          "type": "uint256"
        }
      ],
      "name": "createAcc1",
      "outputs": [
        {
          "name": "_idd",
          "type": "uint256"
        }
      ],
      "payable": false,
      "stateMutability": "nonpayable",
      "type": "function"
    },
    {
      "constant": false,
      "inputs": [
        {
          "name": "_addr",
          "type": "address"
        }
      ],
      "name": "add2List",
      "outputs": [],
      "payable": false,
      "stateMutability": "nonpayable",
      "type": "function"
    },
    {
      "constant": true,
      "inputs": [
        {
          "name": "_addr",
          "type": "address"
        }
      ],
      "name": "getFullAcc",
      "outputs": [
        {
          "name": "",
          "type": "string"
        },
        {
          "name": "",
          "type": "bytes8"
        },
        {
          "name": "",
          "type": "uint256"
        }
      ],
      "payable": false,
      "stateMutability": "view",
      "type": "function"
    },
    {
      "constant": true,
      "inputs": [],
      "name": "getMsgSender",
      "outputs": [
        {
          "name": "",
          "type": "address"
        }
      ],
      "payable": false,
      "stateMutability": "view",
      "type": "function"
    },
    {
      "constant": true,
      "inputs": [],
      "name": "getListAddrAcc",
      "outputs": [
        {
          "name": "",
          "type": "address[]"
        }
      ],
      "payable": false,
      "stateMutability": "view",
      "type": "function"
    },
    {
      "constant": false,
      "inputs": [
        {
          "name": "_addr",
          "type": "address"
        },
        {
          "name": "_n",
          "type": "string"
        },
        {
          "name": "_id",
          "type": "bytes8"
        },
        {
          "name": "_age",
          "type": "uint256"
        }
      ],
      "name": "createAcc",
      "outputs": [
        {
          "name": "_idd",
          "type": "uint256"
        }
      ],
      "payable": false,
      "stateMutability": "nonpayable",
      "type": "function"
    },
    {
      "inputs": [],
      "payable": false,
      "stateMutability": "nonpayable",
      "type": "constructor"
    }
  ],
  "bytecode": "0x6060604052341561000f57600080fd5b610b238061001e6000396000f300606060405260043610610078576000357c0100000000000000000000000000000000000000000000000000000000900463ffffffff1680630b5c52671461007d578063388ef1e41461011b57806351c81e5c146101545780637a6ce2e11461024a5780637e6f57011461029f578063b4f3292514610309575b600080fd5b341561008857600080fd5b610105600480803590602001908201803590602001908080601f0160208091040260200160405190810160405280939291908181526020018383808284378201915050505050509190803577ffffffffffffffffffffffffffffffffffffffffffffffff19169060200190919080359060200190919050506103c6565b6040518082815260200191505060405180910390f35b341561012657600080fd5b610152600480803573ffffffffffffffffffffffffffffffffffffffff16906020019091905050610550565b005b341561015f57600080fd5b61018b600480803573ffffffffffffffffffffffffffffffffffffffff169060200190919050506105b6565b60405180806020018477ffffffffffffffffffffffffffffffffffffffffffffffff191677ffffffffffffffffffffffffffffffffffffffffffffffff19168152602001838152602001828103825285818151815260200191508051906020019080838360005b8381101561020d5780820151818401526020810190506101f2565b50505050905090810190601f16801561023a5780820380516001836020036101000a031916815260200191505b5094505050505060405180910390f35b341561025557600080fd5b61025d610754565b604051808273ffffffffffffffffffffffffffffffffffffffff1673ffffffffffffffffffffffffffffffffffffffff16815260200191505060405180910390f35b34156102aa57600080fd5b6102b261075c565b6040518080602001828103825283818151815260200191508051906020019060200280838360005b838110156102f55780820151818401526020810190506102da565b505050509050019250505060405180910390f35b341561031457600080fd5b6103b0600480803573ffffffffffffffffffffffffffffffffffffffff1690602001909190803590602001908201803590602001908080601f0160208091040260200160405190810160405280939291908181526020018383808284378201915050505050509190803577ffffffffffffffffffffffffffffffffffffffffffffffff19169060200190919080359060200190919050506107f0565b6040518082815260200191505060405180910390f35b60006103d061097b565b6001805490509150600180548091906001016103ec91906109be565b50336001838154811015156103fd57fe5b906000526020600020900160006101000a81548173ffffffffffffffffffffffffffffffffffffffff021916908373ffffffffffffffffffffffffffffffffffffffff16021790555084816000018190525083816020019077ffffffffffffffffffffffffffffffffffffffffffffffff1916908177ffffffffffffffffffffffffffffffffffffffffffffffff19168152505082816040018181525050806000803373ffffffffffffffffffffffffffffffffffffffff1673ffffffffffffffffffffffffffffffffffffffff16815260200190815260200160002060008201518160000190805190602001906104f69291906109ea565b5060208201518160010160006101000a81548167ffffffffffffffff021916908378010000000000000000000000000000000000000000000000009004021790555060408201518160020155905050819150509392505050565b600180548060010182816105649190610a6a565b9160005260206000209001600083909190916101000a81548173ffffffffffffffffffffffffffffffffffffffff021916908373ffffffffffffffffffffffffffffffffffffffff1602179055505050565b6105be610a96565b6000806000808573ffffffffffffffffffffffffffffffffffffffff1673ffffffffffffffffffffffffffffffffffffffff1681526020019081526020016000206000016000808673ffffffffffffffffffffffffffffffffffffffff1673ffffffffffffffffffffffffffffffffffffffff16815260200190815260200160002060010160009054906101000a90047801000000000000000000000000000000000000000000000000026000808773ffffffffffffffffffffffffffffffffffffffff1673ffffffffffffffffffffffffffffffffffffffff16815260200190815260200160002060020154828054600181600116156101000203166002900480601f0160208091040260200160405190810160405280929190818152602001828054600181600116156101000203166002900480156107405780601f1061071557610100808354040283529160200191610740565b820191906000526020600020905b81548152906001019060200180831161072357829003601f168201915b505050505092509250925092509193909250565b600033905090565b610764610aaa565b60018054806020026020016040519081016040528092919081815260200182805480156107e657602002820191906000526020600020905b8160009054906101000a900473ffffffffffffffffffffffffffffffffffffffff1673ffffffffffffffffffffffffffffffffffffffff168152602001906001019080831161079c575b5050505050905090565b60006107fa61097b565b60018054905091506001805480919060010161081691906109be565b508560018381548110151561082757fe5b906000526020600020900160006101000a81548173ffffffffffffffffffffffffffffffffffffffff021916908373ffffffffffffffffffffffffffffffffffffffff16021790555084816000018190525083816020019077ffffffffffffffffffffffffffffffffffffffffffffffff1916908177ffffffffffffffffffffffffffffffffffffffffffffffff19168152505082816040018181525050806000808873ffffffffffffffffffffffffffffffffffffffff1673ffffffffffffffffffffffffffffffffffffffff16815260200190815260200160002060008201518160000190805190602001906109209291906109ea565b5060208201518160010160006101000a81548167ffffffffffffffff02191690837801000000000000000000000000000000000000000000000000900402179055506040820151816002015590505081915050949350505050565b60606040519081016040528061098f610abe565b8152602001600077ffffffffffffffffffffffffffffffffffffffffffffffff19168152602001600081525090565b8154818355818115116109e5578183600052602060002091820191016109e49190610ad2565b5b505050565b828054600181600116156101000203166002900490600052602060002090601f016020900481019282601f10610a2b57805160ff1916838001178555610a59565b82800160010185558215610a59579182015b82811115610a58578251825591602001919060010190610a3d565b5b509050610a669190610ad2565b5090565b815481835581811511610a9157818360005260206000209182019101610a909190610ad2565b5b505050565b602060405190810160405280600081525090565b602060405190810160405280600081525090565b602060405190810160405280600081525090565b610af491905b80821115610af0576000816000905550600101610ad8565b5090565b905600a165627a7a72305820788ec81ec2efe71695722f8678a7c7ae7ecb59d1fc62e28f0c0d0a8632eb8f780029",
  "source": "/**\r\n * ver1.1\r\n * checkValidAddr  -> checkVailabledAddr\r\n * checkValidAccAt -> checkVailabledAccAt\r\n * \r\n * add modifier\r\n *  \r\n *---------------------------------------------------------------------------------------------------\r\n * ver1\r\n *  1 name <> 1 address\r\n *  1 ID   <> 1 address\r\n * \r\n *  create account\r\n *  manage address by array listAddrAcc\r\n *  update account\r\n */\r\n\r\npragma solidity ^0.4.18;\r\n\r\ncontract ManageAccount {\r\n  struct Acc {\r\n    string name;\r\n    bytes8 id;\r\n    uint age;\r\n  }\r\n  mapping(address => Acc) private accAt;\r\n  address[] private listAddrAcc;\r\n\r\n  function ManageAccount() public {\r\n    //listAddrAcc = [msg.sender];\r\n  }\r\n\r\n\r\n\r\n\r\n  function createAcc(address _addr, string _n, bytes8 _id, uint _age) public returns(uint _idd) {\r\n    _idd = listAddrAcc.length;\r\n    listAddrAcc.length++;\r\n    listAddrAcc[_idd] = _addr;\r\n    Acc memory temp;\r\n    temp.name = _n;\r\n    temp.id = _id;\r\n    temp.age = _age;\r\n    accAt[_addr] = temp;\r\n    return (_idd);\r\n  }\r\n\r\n  function createAcc1(string _n, bytes8 _id, uint _age) public returns(uint _idd) {\r\n    _idd = listAddrAcc.length;\r\n    listAddrAcc.length++;\r\n    listAddrAcc[_idd] = msg.sender;\r\n    Acc memory temp;\r\n    temp.name = _n;\r\n    temp.id = _id;\r\n    temp.age = _age;\r\n    accAt[msg.sender] = temp;\r\n    return (_idd);\r\n  }\r\n\r\n\r\n  function getMsgSender() public view returns(address) {\r\n    return msg.sender;\r\n  }\r\n\r\n  /**\r\n   * After create accout, must call add2List to add the address to listAddrAcc\r\n   */\r\n\r\n\r\n\r\n\r\n  function add2List(address _addr) public {\r\n    listAddrAcc.push(_addr);\r\n  }\r\n\r\n\r\n\r\n\r\n  function getFullAcc(address _addr) public view returns(string, bytes8, uint) {\r\n    //var temp = accAt[_addr];\r\n    return (accAt[_addr].name, accAt[_addr].id, accAt[_addr].age);\r\n  }\r\n\r\n\r\n  function getListAddrAcc() public view returns(address[]) {\r\n    return listAddrAcc;\r\n  }\r\n}\r\n",
  "sourcePath": "C:\\Users\\PMM81HC\\Desktop\\Experiment\\VoteChain\\contracts\\ManageAccount.sol",
  "compiler": {
    "name": "solc",
    "version": "0.4.18+commit.9cf6e910.Emscripten.clang"
  },
  "schemaVersion": "2.0.0",
  "updatedAt": "2018-03-19T07:06:51.715Z"
}