{
  "contractName": "ManageAccount_1_0_1",
  "abi": [
    {
      "inputs": [],
      "payable": false,
      "stateMutability": "nonpayable",
      "type": "constructor"
    },
    {
      "anonymous": false,
      "inputs": [
        {
          "indexed": false,
          "name": "addr",
          "type": "address"
        },
        {
          "indexed": false,
          "name": "id",
          "type": "bytes8"
        }
      ],
      "name": "LOGaccountCreated",
      "type": "event"
    },
    {
      "constant": false,
      "inputs": [
        {
          "name": "_n",
          "type": "string"
        },
        {
          "name": "_id",
          "type": "bytes8"
        }
      ],
      "name": "createAcc",
      "outputs": [
        {
          "name": "_idd",
          "type": "uint256"
        }
      ],
      "payable": false,
      "stateMutability": "nonpayable",
      "type": "function"
    }
  ],
  "bytecode": "0x6060604052341561000f57600080fd5b61061d8061001e6000396000f300606060405260043610610041576000357c0100000000000000000000000000000000000000000000000000000000900463ffffffff1680636a9cc6f714610046575b600080fd5b341561005157600080fd5b6100c5600480803590602001908201803590602001908080601f0160208091040260200160405190810160405280939291908181526020018383808284378201915050505050509190803577ffffffffffffffffffffffffffffffffffffffffffffffff19169060200190919050506100db565b6040518082815260200191505060405180910390f35b60006100e56104c9565b826100ef816103b5565b1515156100fb57600080fd5b60008090505b60018054905081101561018e5760018181548110151561011d57fe5b906000526020600020900160009054906101000a900473ffffffffffffffffffffffffffffffffffffffff1673ffffffffffffffffffffffffffffffffffffffff163373ffffffffffffffffffffffffffffffffffffffff16141561018157600080fd5b8080600101915050610101565b6001805490509350600180548091906001016101aa919061050c565b50336001858154811015156101bb57fe5b906000526020600020900160006101000a81548173ffffffffffffffffffffffffffffffffffffffff021916908373ffffffffffffffffffffffffffffffffffffffff16021790555085836000018190525084836020019077ffffffffffffffffffffffffffffffffffffffffffffffff1916908177ffffffffffffffffffffffffffffffffffffffffffffffff1916815250506000836040018181525050826000803373ffffffffffffffffffffffffffffffffffffffff1673ffffffffffffffffffffffffffffffffffffffff16815260200190815260200160002060008201518160000190805190602001906102b5929190610538565b5060208201518160010160006101000a81548167ffffffffffffffff0219169083780100000000000000000000000000000000000000000000000090040217905550604082015181600201559050507f8e1126be51f15125ac5b66a567e5ee6ccb05a0ac83c48e2fc0f2d5aae79877c8338460200151604051808373ffffffffffffffffffffffffffffffffffffffff1673ffffffffffffffffffffffffffffffffffffffff1681526020018277ffffffffffffffffffffffffffffffffffffffffffffffff191677ffffffffffffffffffffffffffffffffffffffffffffffff191681526020019250505060405180910390a183935050505092915050565b600080600090505b6001805490508110156104be578277ffffffffffffffffffffffffffffffffffffffffffffffff19166000806001848154811015156103f857fe5b906000526020600020900160009054906101000a900473ffffffffffffffffffffffffffffffffffffffff1673ffffffffffffffffffffffffffffffffffffffff1673ffffffffffffffffffffffffffffffffffffffff16815260200190815260200160002060010160009054906101000a900478010000000000000000000000000000000000000000000000000277ffffffffffffffffffffffffffffffffffffffffffffffff191614156104b157600191506104c3565b80806001019150506103bd565b600091505b50919050565b6060604051908101604052806104dd6105b8565b8152602001600077ffffffffffffffffffffffffffffffffffffffffffffffff19168152602001600081525090565b8154818355818115116105335781836000526020600020918201910161053291906105cc565b5b505050565b828054600181600116156101000203166002900490600052602060002090601f016020900481019282601f1061057957805160ff19168380011785556105a7565b828001600101855582156105a7579182015b828111156105a657825182559160200191906001019061058b565b5b5090506105b491906105cc565b5090565b602060405190810160405280600081525090565b6105ee91905b808211156105ea5760008160009055506001016105d2565b5090565b905600a165627a7a723058206de088d9a19d64e99778cc2f1e87669c3aa061c957134f469b33d0a8079e83570029",
  "source": "/**\r\n * ver 1.0.3\r\n * \r\n * add modifier to control\r\n *  1 name <> 1 address\r\n *  1 ID   <> 1 address\r\n * -----------------------------------------------------\r\n * ver1.0.2\r\n *  create account\r\n *  manage address by array listAddrAcc\r\n *  update account\r\n */\r\n\r\npragma solidity ^0.4.18;\r\n\r\ncontract ManageAccount_1_0_1\r\n{\r\n    struct acc\r\n    {\r\n        string  name;\r\n        bytes8 id;\r\n        uint point;\r\n    }\r\n    mapping (address => acc) private accAt;\r\n    address[] private listAddrAcc;\r\n    \r\n   event LOGaccountCreated(address addr, bytes8 id);\r\n    \r\n   function ManageAccount_1_0_1() public\r\n   {\r\n       //listAddrAcc = [msg.sender];\r\n   }\r\n   function duplicatedID(bytes8 _id) private view returns(bool)\r\n    {\r\n        for(uint i = 0; i < listAddrAcc.length; i++)\r\n        {\r\n            if(accAt[listAddrAcc[i]].id == _id)\r\n            {\r\n                return true; //ID existed\r\n            }\r\n        }\r\n        return false;//ID NOT existed\r\n    }\r\n   \r\n    modifier validID(bytes8 _id)\r\n    {\r\n        require(!duplicatedID(_id));\r\n        _;\r\n    }\r\n    modifier validAddr()\r\n    {\r\n        for(uint i = 0; i < listAddrAcc.length; i++)\r\n        {\r\n            if(msg.sender == listAddrAcc[i])\r\n            {\r\n                revert();\r\n            }\r\n        }\r\n        _;\r\n    }\r\n    \r\n    function createAcc(string _n, bytes8 _id) \r\n        validID(_id)\r\n        validAddr()\r\n        public returns(uint _idd)\r\n    {\r\n        _idd = listAddrAcc.length;\r\n        listAddrAcc.length++;\r\n        listAddrAcc[_idd] = msg.sender;\r\n        acc memory temp;\r\n        temp.name = _n;\r\n        temp.id = _id;\r\n        temp.point = 0;\r\n        accAt[msg.sender] = temp;\r\n        LOGaccountCreated(msg.sender, temp.id);\r\n        return(_idd);\r\n    }\r\n}",
  "sourcePath": "C:\\Users\\PMM81HC\\Desktop\\Experiment\\VoteChain\\contracts\\ManageAccount_1_0_1.sol",
  "compiler": {
    "name": "solc",
    "version": "0.4.19+commit.c4cbbb05.Emscripten.clang"
  },
  "schemaVersion": "2.0.0",
  "updatedAt": "2018-03-20T10:17:35.977Z"
}