{
  "contractName": "voting",
  "abi": [
    {
      "constant": true,
      "inputs": [
        {
          "name": "_id",
          "type": "bytes32"
        }
      ],
      "name": "getListVoterOf",
      "outputs": [
        {
          "name": "",
          "type": "address[]"
        }
      ],
      "payable": false,
      "stateMutability": "view",
      "type": "function"
    },
    {
      "constant": false,
      "inputs": [
        {
          "name": "_option",
          "type": "bytes32"
        }
      ],
      "name": "VoteFor",
      "outputs": [],
      "payable": false,
      "stateMutability": "nonpayable",
      "type": "function"
    },
    {
      "constant": true,
      "inputs": [],
      "name": "getListVoters",
      "outputs": [
        {
          "name": "",
          "type": "address[]"
        }
      ],
      "payable": false,
      "stateMutability": "view",
      "type": "function"
    },
    {
      "constant": true,
      "inputs": [
        {
          "name": "x",
          "type": "bytes32"
        }
      ],
      "name": "bytes32ToString",
      "outputs": [
        {
          "name": "",
          "type": "string"
        }
      ],
      "payable": false,
      "stateMutability": "pure",
      "type": "function"
    },
    {
      "constant": true,
      "inputs": [],
      "name": "getOptions",
      "outputs": [
        {
          "name": "",
          "type": "bytes32[]"
        }
      ],
      "payable": false,
      "stateMutability": "view",
      "type": "function"
    },
    {
      "constant": true,
      "inputs": [
        {
          "name": "_option",
          "type": "bytes32"
        }
      ],
      "name": "getCountOf",
      "outputs": [
        {
          "name": "",
          "type": "uint256"
        }
      ],
      "payable": false,
      "stateMutability": "view",
      "type": "function"
    },
    {
      "constant": true,
      "inputs": [
        {
          "name": "_addr",
          "type": "address"
        }
      ],
      "name": "getVoteOf",
      "outputs": [
        {
          "name": "",
          "type": "bytes32"
        }
      ],
      "payable": false,
      "stateMutability": "view",
      "type": "function"
    },
    {
      "constant": false,
      "inputs": [
        {
          "name": "_n",
          "type": "bytes32"
        }
      ],
      "name": "addOption",
      "outputs": [],
      "payable": false,
      "stateMutability": "nonpayable",
      "type": "function"
    },
    {
      "constant": false,
      "inputs": [
        {
          "name": "_addr",
          "type": "address"
        }
      ],
      "name": "addVoter",
      "outputs": [],
      "payable": false,
      "stateMutability": "nonpayable",
      "type": "function"
    },
    {
      "inputs": [
        {
          "name": "_opt",
          "type": "bytes32[]"
        },
        {
          "name": "_voters",
          "type": "address[]"
        }
      ],
      "payable": false,
      "stateMutability": "nonpayable",
      "type": "constructor"
    },
    {
      "anonymous": false,
      "inputs": [
        {
          "indexed": false,
          "name": "sender",
          "type": "address"
        },
        {
          "indexed": false,
          "name": "option",
          "type": "string"
        },
        {
          "indexed": false,
          "name": "consequence",
          "type": "string"
        }
      ],
      "name": "notify",
      "type": "event"
    }
  ],
  "bytecode": "0x606060405234156200001057600080fd5b604051620012563803806200125683398101604052808051820191906020018051820191905050816000815114151562000070576200006381620000eb6401000000000262000e98176401000000009004565b15156200006f57600080fd5b5b336000806101000a81548173ffffffffffffffffffffffffffffffffffffffff021916908373ffffffffffffffffffffffffffffffffffffffff1602179055508260019080519060200190620000c892919062000190565b508160059080519060200190620000e1929190620001e8565b50505050620002e5565b600080600080600092505b600185510383111515620001835784838151811015156200011357fe5b9060200190602002015191506001830190505b600185510381111515620001755784818151811015156200014357fe5b90602001906020020151600019168260001916141562000167576000935062000188565b808060010191505062000126565b8280600101935050620000f6565b600193505b505050919050565b828054828255906000526020600020908101928215620001d5579160200282015b82811115620001d4578251829060001916905591602001919060010190620001b1565b5b509050620001e4919062000277565b5090565b82805482825590600052602060002090810192821562000264579160200282015b82811115620002635782518260006101000a81548173ffffffffffffffffffffffffffffffffffffffff021916908373ffffffffffffffffffffffffffffffffffffffff1602179055509160200191906001019062000209565b5b5090506200027391906200029f565b5090565b6200029c91905b80821115620002985760008160009055506001016200027e565b5090565b90565b620002e291905b80821115620002de57600081816101000a81549073ffffffffffffffffffffffffffffffffffffffff021916905550600101620002a6565b5090565b90565b610f6180620002f56000396000f300606060405260043610610098576000357c0100000000000000000000000000000000000000000000000000000000900463ffffffff1680620f7f9d1461009d5780631925d443146101195780631b545327146101405780639201de55146101aa578063cc2ee1961461024a578063d3912c3e146102b4578063da38ab4b146102ef578063dde08b4114610344578063f4ab9adf1461036b575b600080fd5b34156100a857600080fd5b6100c26004808035600019169060200190919050506103a4565b6040518080602001828103825283818151815260200191508051906020019060200280838360005b838110156101055780820151818401526020810190506100ea565b505050509050019250505060405180910390f35b341561012457600080fd5b61013e600480803560001916906020019091905050610453565b005b341561014b57600080fd5b610153610728565b6040518080602001828103825283818151815260200191508051906020019060200280838360005b8381101561019657808201518184015260208101905061017b565b505050509050019250505060405180910390f35b34156101b557600080fd5b6101cf6004808035600019169060200190919050506107bc565b6040518080602001828103825283818151815260200191508051906020019080838360005b8381101561020f5780820151818401526020810190506101f4565b50505050905090810190601f16801561023c5780820380516001836020036101000a031916815260200191505b509250505060405180910390f35b341561025557600080fd5b61025d6109a9565b6040518080602001828103825283818151815260200191508051906020019060200280838360005b838110156102a0578082015181840152602081019050610285565b505050509050019250505060405180910390f35b34156102bf57600080fd5b6102d9600480803560001916906020019091905050610a0b565b6040518082815260200191505060405180910390f35b34156102fa57600080fd5b610326600480803573ffffffffffffffffffffffffffffffffffffffff16906020019091905050610a33565b60405180826000191660001916815260200191505060405180910390f35b341561034f57600080fd5b610369600480803560001916906020019091905050610ae2565b005b341561037657600080fd5b6103a2600480803573ffffffffffffffffffffffffffffffffffffffff16906020019091905050610c3c565b005b6103ac610da6565b60026000836000191660001916815260200190815260200160002080548060200260200160405190810160405280929190818152602001828054801561044757602002820191906000526020600020905b8160009054906101000a900473ffffffffffffffffffffffffffffffffffffffff1673ffffffffffffffffffffffffffffffffffffffff16815260200190600101908083116103fd575b50505050509050919050565b8061045d81610ca2565b15151561046957600080fd5b3360001515600360008373ffffffffffffffffffffffffffffffffffffffff1673ffffffffffffffffffffffffffffffffffffffff16815260200190815260200160002060009054906101000a900460ff1615151415156104c957600080fd5b3360006005805490501415156104f557600115156104e682610d02565b15151415156104f457600080fd5b5b83600460003373ffffffffffffffffffffffffffffffffffffffff1673ffffffffffffffffffffffffffffffffffffffff1681526020019081526020016000208160001916905550600260008560001916600019168152602001908152602001600020805480600101828161056a9190610dba565b9160005260206000209001600033909190916101000a81548173ffffffffffffffffffffffffffffffffffffffff021916908373ffffffffffffffffffffffffffffffffffffffff160217905550506001600360003373ffffffffffffffffffffffffffffffffffffffff1673ffffffffffffffffffffffffffffffffffffffff16815260200190815260200160002060006101000a81548160ff0219169083151502179055507f6881f879f9d68b63a8645882505add0c1c07fd0799fd86cc30a03d9fe124f07e3361063c866107bc565b604051808373ffffffffffffffffffffffffffffffffffffffff1673ffffffffffffffffffffffffffffffffffffffff1681526020018060200180602001838103835284818151815260200191508051906020019080838360005b838110156106b2578082015181840152602081019050610697565b50505050905090810190601f1680156106df5780820380516001836020036101000a031916815260200191505b50838103825260058152602001807f766f74656400000000000000000000000000000000000000000000000000000081525060200194505050505060405180910390a150505050565b610730610da6565b60058054806020026020016040519081016040528092919081815260200182805480156107b257602002820191906000526020600020905b8160009054906101000a900473ffffffffffffffffffffffffffffffffffffffff1673ffffffffffffffffffffffffffffffffffffffff1681526020019060010190808311610768575b5050505050905090565b6107c4610de6565b6107cc610dfa565b60008060006107d9610dfa565b60206040518059106107e85750595b9080825280601f01601f1916602001820160405250945060009350600092505b60208310156108c6578260080260020a876001900402600102915060007f010000000000000000000000000000000000000000000000000000000000000002827effffffffffffffffffffffffffffffffffffffffffffffffffffffffffffff19161415156108b95781858581518110151561088057fe5b9060200101907effffffffffffffffffffffffffffffffffffffffffffffffffffffffffffff1916908160001a90535083806001019450505b8280600101935050610808565b836040518059106108d45750595b9080825280601f01601f19166020018201604052509050600092505b8383101561099c57848381518110151561090657fe5b9060200101517f010000000000000000000000000000000000000000000000000000000000000090047f010000000000000000000000000000000000000000000000000000000000000002818481518110151561095f57fe5b9060200101907effffffffffffffffffffffffffffffffffffffffffffffffffffffffffffff1916908160001a90535082806001019350506108f0565b8095505050505050919050565b6109b1610e0e565b6001805480602002602001604051908101604052809291908181526020018280548015610a0157602002820191906000526020600020905b815460001916815260200190600101908083116109e9575b5050505050905090565b6000600260008360001916600019168152602001908152602001600020805490509050919050565b600060011515600360008473ffffffffffffffffffffffffffffffffffffffff1673ffffffffffffffffffffffffffffffffffffffff16815260200190815260200160002060009054906101000a900460ff1615151415610ad557600460008373ffffffffffffffffffffffffffffffffffffffff1673ffffffffffffffffffffffffffffffffffffffff168152602001908152602001600020549050610add565b600060010290505b919050565b80610aec81610ca2565b151515610af857600080fd5b7f6881f879f9d68b63a8645882505add0c1c07fd0799fd86cc30a03d9fe124f07e33610b23846107bc565b604051808373ffffffffffffffffffffffffffffffffffffffff1673ffffffffffffffffffffffffffffffffffffffff1681526020018060200180602001838103835284818151815260200191508051906020019080838360005b83811015610b99578082015181840152602081019050610b7e565b50505050905090810190601f168015610bc65780820380516001836020036101000a031916815260200191505b508381038252600c8152602001807f6f7074696f6e206164646564000000000000000000000000000000000000000081525060200194505050505060405180910390a160018054806001018281610c1d9190610e22565b9160005260206000209001600084909190915090600019169055505050565b60058054806001018281610c509190610dba565b9160005260206000209001600083909190916101000a81548173ffffffffffffffffffffffffffffffffffffffff021916908373ffffffffffffffffffffffffffffffffffffffff1602179055505050565b600080600090505b600180549050811015610cf7578260001916600182815481101515610ccb57fe5b906000526020600020900154600019161415610cea5760019150610cfc565b8080600101915050610caa565b600091505b50919050565b600080600090505b600580549050811015610d9b578273ffffffffffffffffffffffffffffffffffffffff16600582815481101515610d3d57fe5b906000526020600020900160009054906101000a900473ffffffffffffffffffffffffffffffffffffffff1673ffffffffffffffffffffffffffffffffffffffff161415610d8e5760019150610da0565b8080600101915050610d0a565b600091505b50919050565b602060405190810160405280600081525090565b815481835581811511610de157818360005260206000209182019101610de09190610e4e565b5b505050565b602060405190810160405280600081525090565b602060405190810160405280600081525090565b602060405190810160405280600081525090565b815481835581811511610e4957818360005260206000209182019101610e489190610e73565b5b505050565b610e7091905b80821115610e6c576000816000905550600101610e54565b5090565b90565b610e9591905b80821115610e91576000816000905550600101610e79565b5090565b90565b600080600080600092505b600185510383111515610f28578483815181101515610ebe57fe5b9060200190602002015191506001830190505b600185510381111515610f1b578481815181101515610eec57fe5b906020019060200201516000191682600019161415610f0e5760009350610f2d565b8080600101915050610ed1565b8280600101935050610ea3565b600193505b5050509190505600a165627a7a72305820411a0363018b552b690709295ce76b90f90b4d7d775e49b1b7063f0329753fa30029",
  "source": "/**\r\n * ver1.1.4\r\n * \r\n * add contract event\r\n * \r\n * -----------------------------------------------------\r\n * ver1.1.3\r\n * \r\n * add modifier to control vote, ballot, 1 address - 1 vote\r\n * check duplicate option when initiate the contract\r\n * \r\n * -----------------------------------------------------\r\n * ver1.1.2\r\n * \r\n * update\r\n *      add expired time: close the vote when time is up-to-date\r\n *      add list voters who can vote\r\n *          if the list is left empty, everyone can join the vote\r\n *          otherwise, only the ones in the list can cast vote\r\n *      get ballot of an address\r\n * \r\n * -----------------------------------------------------\r\n * ver1.1.1\r\n * \r\n * update\r\n *      add algorithm check 1 address - 1 vote\r\n * add new:\r\n *  property: \r\n *      voted\r\n *  method:\r\n *      (none)\r\n * remove:\r\n *      (none)\r\n * \r\n * -----------------------------------------------------\r\n * ver1.1.0\r\n * \r\n * update\r\n *      VotFor\r\n *      change the way managing the ballot\r\n *          voteOf => listVotersOf\r\n *      getCountOf => getCountOf\r\n * add new:\r\n *  property: \r\n *      owner\r\n *      listVotersOf\r\n *  method:\r\n *      getListVoterOf\r\n * remove:\r\n *      voteOf\r\n *      getCountOf\r\n * \r\n * -----------------------------------------------------\r\n * ver1\r\n * \r\n * add option when call the contract\r\n * vote for an option\r\n * convert option(bytes32) to string\r\n * get option vote\r\n * only available option can be voted\r\n * \r\n */\r\n \r\n pragma solidity ^0.4.18;\r\n \r\n contract voting\r\n {\r\n    address owner;\r\n    bytes32[] opt;\r\n    //mapping(bytes32 => uint) voteOf;\r\n    mapping(bytes32 => address[]) listVotersOf;\r\n    mapping(address => bool) voted;\r\n    mapping(address => bytes32) ballotOf;\r\n    address[] voters;\r\n    event notify(address sender, string option, string consequence);\r\n    \r\n    string private status;\r\n    \r\n    function voting(bytes32[] _opt, address[] _voters)\r\n        validInitiate(_opt)\r\n        public \r\n    {\r\n        owner = msg.sender;\r\n        opt = _opt;\r\n        voters = _voters;\r\n    }\r\n    \r\n    function checkInitiateOption(bytes32[] _option) private pure returns(bool)\r\n    {\r\n        for(uint i = 0; i <= _option.length - 1; i++){\r\n            var temp = _option[i];\r\n            for(uint j = i+1; j <= _option.length-1; j++){\r\n                if (temp == _option[j] )\r\n                {\r\n                    return false;\r\n                }\r\n            }\r\n        }\r\n        return true;\r\n    }\r\n    \r\n    \r\n    \r\n    \r\n   function checkVailableOption(bytes32 _n) private view returns(bool)\r\n    {\r\n        for(uint i = 0; i < opt.length; i++)\r\n        {\r\n            if(opt[i] == _n)\r\n            {\r\n                return true;\r\n            }    \r\n        }\r\n        return false;\r\n    }\r\n    \r\n    function checkVailableVoter(address _addr) private view returns(bool)\r\n    {\r\n        for(uint i = 0; i < voters.length; i++)\r\n        {\r\n            if(voters[i] == _addr)\r\n            {\r\n                return true;\r\n            }\r\n        }\r\n        return false;\r\n    }\r\n\r\n    modifier validInitiate(bytes32[] _option) \r\n    {\r\n        if(_option.length != 0)\r\n        {\r\n            require(checkInitiateOption(_option));    \r\n        }\r\n        \r\n        _;    \r\n    }\r\n    modifier validOption(bytes32 _option)\r\n    {\r\n        require(!checkVailableOption(_option));\r\n        _;\r\n       \r\n    }\r\n    modifier notVoted(address _addr)\r\n    {\r\n       \r\n        require(voted[_addr] == false);\r\n        _;\r\n       \r\n    }\r\n    // modifier validVoter(address _addr)\r\n    // {\r\n    //     require(checkVailableVoter(_addr));\r\n    //     _;\r\n        \r\n    // }\r\n    modifier hasVoter(address _addr){\r\n        if(voters.length != 0)\r\n        {\r\n            require(checkVailableVoter(_addr) == true);    \r\n        }\r\n        _;\r\n       \r\n    }\r\n    \r\n    function addOption(bytes32 _n) \r\n            validOption(_n)\r\n            public\r\n    {\r\n        notify(msg.sender, bytes32ToString(_n), \"option added\");\r\n        opt.push(_n);\r\n    }\r\n    function addVoter(address _addr) public\r\n    {\r\n        voters.push(_addr);\r\n    }\r\n    \r\n    function getOptions() public view returns(bytes32[])\r\n    {\r\n        return opt;\r\n    }\r\n     \r\n    function getListVoters() public view returns(address[])\r\n    {\r\n        return voters;\r\n    }\r\n    \r\n    function getOptionByIndex(uint _i) private view returns(string)\r\n    {\r\n        return bytes32ToString(opt[_i]);\r\n    }\r\n    \r\n    \r\n    function bytes32ToString(bytes32 x) public pure returns (string) \r\n    {\r\n        bytes memory bytesString = new bytes(32);\r\n        uint charCount = 0;\r\n        for (uint j = 0; j < 32; j++) \r\n        {\r\n            byte char = byte(bytes32(uint(x) * 2 ** (8 * j)));\r\n            if (char != 0) \r\n            {\r\n                bytesString[charCount] = char;\r\n                charCount++;\r\n            }\r\n        }\r\n        bytes memory bytesStringTrimmed = new bytes(charCount);\r\n        for (j = 0; j < charCount; j++) \r\n        {\r\n            bytesStringTrimmed[j] = bytesString[j];\r\n        }\r\n        return string(bytesStringTrimmed);\r\n    }\r\n   /* \r\n    modifier validopt(bytes32 _n){\r\n        for(uint i=0; i < opt.length; i++){\r\n            if(opt[i] == _n){\r\n                return true;\r\n            }   \r\n        }\r\n        return false;\r\n        _;\r\n        \r\n    }\r\n    */\r\n\r\n    function VoteFor(bytes32 _option) \r\n                validOption(_option) \r\n                notVoted(msg.sender)  \r\n                hasVoter(msg.sender)\r\n                public\r\n    {\r\n        ballotOf[msg.sender] = _option;\r\n        listVotersOf[_option].push(msg.sender);\r\n        voted[msg.sender] = true;\r\n        notify(msg.sender, bytes32ToString(_option), \"voted\");\r\n    }\r\n    \r\n    \r\n    function getVoteOf(address _addr) public view returns(bytes32)\r\n    {\r\n        if(voted[_addr] == true)\r\n        {\r\n            return ballotOf[_addr];\r\n        }\r\n        return 0x00;\r\n    }\r\n    \r\n    function getCountOf(bytes32 _option)public constant returns(uint){\r\n        //require(vailableCandidate(_addr));\r\n        return listVotersOf[_option].length;\r\n    }\r\n    \r\n    \r\n    function getListVoterOf(bytes32 _id) public view returns(address[])\r\n    {\r\n        return listVotersOf[_id];\r\n    }\r\n    \r\n}",
  "sourcePath": "C:\\Users\\PMM81HC\\Desktop\\Experiment\\VoteChain\\contracts\\votingVer1_1_5.sol",
  "compiler": {
    "name": "solc",
    "version": "0.4.18+commit.9cf6e910.Emscripten.clang"
  },
  "schemaVersion": "1.0.1",
  "updatedAt": "2018-02-23T08:53:05.161Z"
}