{
  "contractName": "voting12",
  "abi": [
    {
      "constant": true,
      "inputs": [],
      "name": "getAccountInfo",
      "outputs": [
        {
          "name": "",
          "type": "bytes8"
        }
      ],
      "payable": false,
      "stateMutability": "view",
      "type": "function"
    },
    {
      "constant": false,
      "inputs": [
        {
          "name": "_id",
          "type": "bytes8"
        }
      ],
      "name": "createAcc",
      "outputs": [
        {
          "name": "",
          "type": "bool"
        }
      ],
      "payable": false,
      "stateMutability": "nonpayable",
      "type": "function"
    },
    {
      "constant": true,
      "inputs": [
        {
          "name": "",
          "type": "uint256"
        }
      ],
      "name": "listAddressAccount",
      "outputs": [
        {
          "name": "",
          "type": "address"
        }
      ],
      "payable": false,
      "stateMutability": "view",
      "type": "function"
    },
    {
      "constant": true,
      "inputs": [],
      "name": "getListAccounts",
      "outputs": [
        {
          "name": "",
          "type": "address[]"
        }
      ],
      "payable": false,
      "stateMutability": "view",
      "type": "function"
    },
    {
      "constant": false,
      "inputs": [],
      "name": "ManageAccount",
      "outputs": [],
      "payable": false,
      "stateMutability": "nonpayable",
      "type": "function"
    },
    {
      "anonymous": false,
      "inputs": [
        {
          "indexed": true,
          "name": "roomID",
          "type": "uint256"
        },
        {
          "indexed": true,
          "name": "owner",
          "type": "address"
        },
        {
          "indexed": false,
          "name": "title",
          "type": "string"
        },
        {
          "indexed": false,
          "name": "descript",
          "type": "string"
        },
        {
          "indexed": false,
          "name": "privateRoom",
          "type": "bool"
        },
        {
          "indexed": false,
          "name": "expiredTime",
          "type": "uint256"
        }
      ],
      "name": "LOGroomOpened",
      "type": "event"
    },
    {
      "anonymous": false,
      "inputs": [
        {
          "indexed": true,
          "name": "roomID",
          "type": "uint256"
        },
        {
          "indexed": false,
          "name": "list",
          "type": "address[]"
        }
      ],
      "name": "LOGaddListVoter",
      "type": "event"
    },
    {
      "anonymous": false,
      "inputs": [
        {
          "indexed": true,
          "name": "roomID",
          "type": "uint256"
        },
        {
          "indexed": true,
          "name": "pollID",
          "type": "uint256"
        },
        {
          "indexed": false,
          "name": "question",
          "type": "string"
        },
        {
          "indexed": false,
          "name": "options",
          "type": "bytes32[]"
        }
      ],
      "name": "LOGpollingAdded",
      "type": "event"
    },
    {
      "anonymous": false,
      "inputs": [
        {
          "indexed": true,
          "name": "roomID",
          "type": "uint256"
        }
      ],
      "name": "LOGroomClosed",
      "type": "event"
    },
    {
      "anonymous": false,
      "inputs": [
        {
          "indexed": true,
          "name": "roomID",
          "type": "uint256"
        },
        {
          "indexed": false,
          "name": "options",
          "type": "bytes[]"
        }
      ],
      "name": "LOGoptions",
      "type": "event"
    },
    {
      "anonymous": false,
      "inputs": [
        {
          "indexed": true,
          "name": "roomID",
          "type": "uint256"
        },
        {
          "indexed": false,
          "name": "option",
          "type": "bytes"
        },
        {
          "indexed": false,
          "name": "voters",
          "type": "address[]"
        }
      ],
      "name": "LOGlistVotersOf",
      "type": "event"
    },
    {
      "anonymous": false,
      "inputs": [
        {
          "indexed": true,
          "name": "roomID",
          "type": "uint256"
        },
        {
          "indexed": false,
          "name": "option",
          "type": "bytes"
        },
        {
          "indexed": false,
          "name": "counts",
          "type": "uint256"
        },
        {
          "indexed": false,
          "name": "voters",
          "type": "address[]"
        }
      ],
      "name": "LOGroomResult",
      "type": "event"
    },
    {
      "anonymous": false,
      "inputs": [
        {
          "indexed": true,
          "name": "roomID",
          "type": "uint256"
        },
        {
          "indexed": true,
          "name": "sender",
          "type": "address"
        },
        {
          "indexed": false,
          "name": "options",
          "type": "bytes32[]"
        }
      ],
      "name": "LOGvoteNotify",
      "type": "event"
    },
    {
      "anonymous": false,
      "inputs": [
        {
          "indexed": false,
          "name": "roomID",
          "type": "uint256"
        },
        {
          "indexed": false,
          "name": "pollNo",
          "type": "uint256"
        },
        {
          "indexed": false,
          "name": "option",
          "type": "bytes32"
        },
        {
          "indexed": false,
          "name": "count",
          "type": "uint256"
        }
      ],
      "name": "LOGcountOf",
      "type": "event"
    },
    {
      "anonymous": false,
      "inputs": [
        {
          "indexed": false,
          "name": "roomID",
          "type": "uint256"
        },
        {
          "indexed": false,
          "name": "pollNo",
          "type": "uint256"
        },
        {
          "indexed": false,
          "name": "option",
          "type": "bytes32"
        },
        {
          "indexed": false,
          "name": "voter",
          "type": "address[]"
        }
      ],
      "name": "LOGvoterOf",
      "type": "event"
    },
    {
      "anonymous": false,
      "inputs": [
        {
          "indexed": false,
          "name": "id",
          "type": "bytes8"
        },
        {
          "indexed": false,
          "name": "addr",
          "type": "address"
        },
        {
          "indexed": false,
          "name": "point",
          "type": "uint256"
        }
      ],
      "name": "LOGaccountInfo",
      "type": "event"
    },
    {
      "constant": true,
      "inputs": [
        {
          "name": "_roomID",
          "type": "uint256"
        },
        {
          "name": "_voter",
          "type": "address"
        }
      ],
      "name": "checkVailableVoter",
      "outputs": [
        {
          "name": "",
          "type": "bool"
        }
      ],
      "payable": false,
      "stateMutability": "view",
      "type": "function"
    },
    {
      "constant": false,
      "inputs": [],
      "name": "voting",
      "outputs": [],
      "payable": false,
      "stateMutability": "nonpayable",
      "type": "function"
    },
    {
      "constant": false,
      "inputs": [
        {
          "name": "_til",
          "type": "string"
        },
        {
          "name": "_privateR",
          "type": "bool"
        },
        {
          "name": "_des",
          "type": "string"
        },
        {
          "name": "_expiredTime",
          "type": "uint256"
        }
      ],
      "name": "openRoom",
      "outputs": [
        {
          "name": "id",
          "type": "uint256"
        }
      ],
      "payable": false,
      "stateMutability": "nonpayable",
      "type": "function"
    },
    {
      "constant": false,
      "inputs": [
        {
          "name": "_roomID",
          "type": "uint256"
        },
        {
          "name": "_quest",
          "type": "string"
        },
        {
          "name": "_opt",
          "type": "bytes32[]"
        }
      ],
      "name": "addPoll",
      "outputs": [
        {
          "name": "pollNo",
          "type": "uint256"
        }
      ],
      "payable": false,
      "stateMutability": "nonpayable",
      "type": "function"
    },
    {
      "constant": true,
      "inputs": [
        {
          "name": "_roomID",
          "type": "uint256"
        }
      ],
      "name": "getNumberOfPolls",
      "outputs": [
        {
          "name": "",
          "type": "uint256"
        }
      ],
      "payable": false,
      "stateMutability": "view",
      "type": "function"
    },
    {
      "constant": false,
      "inputs": [
        {
          "name": "_id",
          "type": "uint256"
        }
      ],
      "name": "closeRoom",
      "outputs": [
        {
          "name": "",
          "type": "bool"
        }
      ],
      "payable": false,
      "stateMutability": "nonpayable",
      "type": "function"
    },
    {
      "constant": false,
      "inputs": [
        {
          "name": "_id",
          "type": "uint256"
        },
        {
          "name": "_voters",
          "type": "address[]"
        }
      ],
      "name": "setListVoters",
      "outputs": [
        {
          "name": "",
          "type": "bool"
        }
      ],
      "payable": false,
      "stateMutability": "nonpayable",
      "type": "function"
    },
    {
      "constant": false,
      "inputs": [
        {
          "name": "_roomID",
          "type": "uint256"
        },
        {
          "name": "_options",
          "type": "bytes32[]"
        }
      ],
      "name": "voteFor",
      "outputs": [],
      "payable": false,
      "stateMutability": "nonpayable",
      "type": "function"
    },
    {
      "constant": false,
      "inputs": [
        {
          "name": "_roomID",
          "type": "uint256"
        },
        {
          "name": "_ids",
          "type": "bytes8[]"
        }
      ],
      "name": "setListVotersByID",
      "outputs": [
        {
          "name": "",
          "type": "bool"
        }
      ],
      "payable": false,
      "stateMutability": "nonpayable",
      "type": "function"
    },
    {
      "constant": true,
      "inputs": [
        {
          "name": "_roomID",
          "type": "uint256"
        }
      ],
      "name": "getListVoterOf",
      "outputs": [
        {
          "name": "",
          "type": "address[]"
        }
      ],
      "payable": false,
      "stateMutability": "view",
      "type": "function"
    },
    {
      "constant": true,
      "inputs": [],
      "name": "getVoterPoint",
      "outputs": [
        {
          "name": "",
          "type": "uint256"
        }
      ],
      "payable": false,
      "stateMutability": "view",
      "type": "function"
    },
    {
      "constant": true,
      "inputs": [
        {
          "name": "x",
          "type": "bytes32"
        }
      ],
      "name": "bytes32ToString",
      "outputs": [
        {
          "name": "",
          "type": "string"
        }
      ],
      "payable": false,
      "stateMutability": "pure",
      "type": "function"
    }
  ],
  "bytecode": "0x6060604052341561000f57600080fd5b6132658061001e6000396000f3006060604052600436106100f1576000357c0100000000000000000000000000000000000000000000000000000000900463ffffffff1680631b9e16ad146100f65780631c3a8892146101555780632564e03d14610190578063572ab1621461020b5780635a192c01146102d35780637bf1a45f1461038d5780637fc9f41a146103e357806380be87e0146104465780639201de551461047d57806395991e5e1461051d5780639a962c7f14610587578063a3b07784146105b0578063a82a56011461060a578063b95f80821461066d578063c179520c146106e5578063fce1ccca146106fa578063fe7530541461070f575b600080fd5b341561010157600080fd5b61010961078a565b604051808277ffffffffffffffffffffffffffffffffffffffffffffffff191677ffffffffffffffffffffffffffffffffffffffffffffffff1916815260200191505060405180910390f35b341561016057600080fd5b61017660048080359060200190919050506107f8565b604051808215151515815260200191505060405180910390f35b341561019b57600080fd5b6101f1600480803590602001909190803590602001908201803590602001908080602002602001604051908101604052809392919081815260200183836020028082843782019150505050505091905050610c7e565b604051808215151515815260200191505060405180910390f35b341561021657600080fd5b6102bd600480803590602001908201803590602001908080601f01602080910402602001604051908101604052809392919081815260200183838082843782019150505050505091908035151590602001909190803590602001908201803590602001908080601f0160208091040260200160405190810160405280939291908181526020018383808284378201915050505050509190803590602001909190505061105d565b6040518082815260200191505060405180910390f35b34156102de57600080fd5b610377600480803590602001909190803590602001908201803590602001908080601f0160208091040260200160405190810160405280939291908181526020018383808284378201915050505050509190803590602001908201803590602001908080602002602001604051908101604052809392919081815260200183836020028082843782019150505050505091905050611442565b6040518082815260200191505060405180910390f35b341561039857600080fd5b6103c9600480803577ffffffffffffffffffffffffffffffffffffffffffffffff19169060200190919050506117eb565b604051808215151515815260200191505060405180910390f35b34156103ee57600080fd5b6104046004808035906020019091905050611b87565b604051808273ffffffffffffffffffffffffffffffffffffffff1673ffffffffffffffffffffffffffffffffffffffff16815260200191505060405180910390f35b341561045157600080fd5b6104676004808035906020019091905050611bc6565b6040518082815260200191505060405180910390f35b341561048857600080fd5b6104a2600480803560001916906020019091905050611bf3565b6040518080602001828103825283818151815260200191508051906020019080838360005b838110156104e25780820151818401526020810190506104c7565b50505050905090810190601f16801561050f5780820380516001836020036101000a031916815260200191505b509250505060405180910390f35b341561052857600080fd5b610530611de0565b6040518080602001828103825283818151815260200191508051906020019060200280838360005b83811015610573578082015181840152602081019050610558565b505050509050019250505060405180910390f35b341561059257600080fd5b61059a611e74565b6040518082815260200191505060405180910390f35b34156105bb57600080fd5b6105f0600480803590602001909190803573ffffffffffffffffffffffffffffffffffffffff16906020019091905050611ebd565b604051808215151515815260200191505060405180910390f35b341561061557600080fd5b61066b600480803590602001909190803590602001908201803590602001908080602002602001604051908101604052809392919081815260200183836020028082843782019150505050505091905050611fa4565b005b341561067857600080fd5b61068e600480803590602001909190505061261b565b6040518080602001828103825283818151815260200191508051906020019060200280838360005b838110156106d15780820151818401526020810190506106b6565b505050509050019250505060405180910390f35b34156106f057600080fd5b6106f86126d2565b005b341561070557600080fd5b61070d6126d4565b005b341561071a57600080fd5b6107706004808035906020019091908035906020019082018035906020019080806020026020016040519081016040528093929190818152602001838360200280828437820191505050505050919050506126d6565b604051808215151515815260200191505060405180910390f35b60008060003373ffffffffffffffffffffffffffffffffffffffff1673ffffffffffffffffffffffffffffffffffffffff16815260200190815260200160002060000160009054906101000a9004780100000000000000000000000000000000000000000000000002905090565b6000806000833373ffffffffffffffffffffffffffffffffffffffff1660028281548110151561082457fe5b90600052602060002090600b020160000160009054906101000a900473ffffffffffffffffffffffffffffffffffffffff1673ffffffffffffffffffffffffffffffffffffffff1614151561087857600080fd5b8460028181548110151561088857fe5b90600052602060002090600b020160090160009054906101000a900460ff1615156108b257600080fd5b60006002878154811015156108c357fe5b90600052602060002090600b020160090160006101000a81548160ff021916908315150217905550600093505b6002868154811015156108ff57fe5b90600052602060002090600b020160050180549050841015610c7157600092505b60028681548110151561092f57fe5b90600052602060002090600b02016005018481548110151561094d57fe5b906000526020600020906002020160010180549050831015610c64577fa0b97c54dd0a479ab4bd0bd2d8bcb48dd820730838fac276234d21b7ee992f22868460028981548110151561099b57fe5b90600052602060002090600b0201600501878154811015156109b957fe5b9060005260206000209060020201600101868154811015156109d757fe5b90600052602060002090015460028a8154811015156109f257fe5b90600052602060002090600b0201600a01600060028c815481101515610a1457fe5b90600052602060002090600b02016005018a815481101515610a3257fe5b906000526020600020906002020160010189815481101515610a5057fe5b906000526020600020900154600019166000191681526020019081526020016000208054905060405180858152602001848152602001836000191660001916815260200182815260200194505050505060405180910390a17fda9196a813fbfa5c19e610765f29a6b68b6e791aea0f733677deebf9cb6b10d08684600289815481101515610ada57fe5b90600052602060002090600b020160050187815481101515610af857fe5b906000526020600020906002020160010186815481101515610b1657fe5b90600052602060002090015460028a815481101515610b3157fe5b90600052602060002090600b0201600a01600060028c815481101515610b5357fe5b90600052602060002090600b02016005018a815481101515610b7157fe5b906000526020600020906002020160010189815481101515610b8f57fe5b90600052602060002090015460001916600019168152602001908152602001600020604051808581526020018481526020018360001916600019168152602001806020018281038252838181548152602001915080548015610c4657602002820191906000526020600020905b8160009054906101000a900473ffffffffffffffffffffffffffffffffffffffff1673ffffffffffffffffffffffffffffffffffffffff1681526020019060010190808311610bfc575b50509550505050505060405180910390a18280600101935050610920565b83806001019450506108f0565b6001945050505050919050565b6000806000843373ffffffffffffffffffffffffffffffffffffffff16600282815481101515610caa57fe5b90600052602060002090600b020160000160009054906101000a900473ffffffffffffffffffffffffffffffffffffffff1673ffffffffffffffffffffffffffffffffffffffff16141515610cfe57600080fd5b85600281815481101515610d0e57fe5b90600052602060002090600b020160090160009054906101000a900460ff161515610d3857600080fd5b86600281815481101515610d4857fe5b90600052602060002090600b020160040160009054906101000a900460ff161515610d7257600080fd5b600094505b600180549050851015610f6057600093505b8651841015610f53578684815181101515610da057fe5b9060200190602002015177ffffffffffffffffffffffffffffffffffffffffffffffff1916600080600188815481101515610dd757fe5b906000526020600020900160009054906101000a900473ffffffffffffffffffffffffffffffffffffffff1673ffffffffffffffffffffffffffffffffffffffff1673ffffffffffffffffffffffffffffffffffffffff16815260200190815260200160002060000160009054906101000a900478010000000000000000000000000000000000000000000000000277ffffffffffffffffffffffffffffffffffffffffffffffff19161415610f4657600288815481101515610e9657fe5b90600052602060002090600b02016006016001018054806001018281610ebc9190612d9b565b91600052602060002090016000600188815481101515610ed857fe5b906000526020600020900160009054906101000a900473ffffffffffffffffffffffffffffffffffffffff16909190916101000a81548173ffffffffffffffffffffffffffffffffffffffff021916908373ffffffffffffffffffffffffffffffffffffffff160217905550505b8380600101945050610d89565b8480600101955050610d77565b600288815481101515610f6f57fe5b90600052602060002090600b0201600101547f19b82506b3313c2dd5d3d7062965522938d291754bdf64c433f06c2a5b5f589760028a815481101515610fb157fe5b90600052602060002090600b02016006016001016040518080602001828103825283818154815260200191508054801561104057602002820191906000526020600020905b8160009054906101000a900473ffffffffffffffffffffffffffffffffffffffff1673ffffffffffffffffffffffffffffffffffffffff1681526020019060010190808311610ff6575b50509250505060405180910390a260019550505050505092915050565b600060028054905090506002805480919060010161107b9190612dc7565b508060028281548110151561108c57fe5b90600052602060002090600b020160010181905550336002828154811015156110b157fe5b90600052602060002090600b020160000160006101000a81548173ffffffffffffffffffffffffffffffffffffffff021916908373ffffffffffffffffffffffffffffffffffffffff1602179055508260028281548110151561111057fe5b90600052602060002090600b02016003019080519060200190611134929190612df9565b508460028281548110151561114557fe5b90600052602060002090600b02016002019080519060200190611169929190612df9565b508360028281548110151561117a57fe5b90600052602060002090600b020160040160006101000a81548160ff021916908315150217905550816002828154811015156111b257fe5b90600052602060002090600b02016008018190555060016002828154811015156111d857fe5b90600052602060002090600b020160090160006101000a81548160ff02191690831515021790555060028181548110151561120f57fe5b90600052602060002090600b020160000160009054906101000a900473ffffffffffffffffffffffffffffffffffffffff1673ffffffffffffffffffffffffffffffffffffffff16817fa2b5ca96e1c5de8e9a5a72d3726d31afed57fde16bcf46dbf75a1ddcc2a0df0960028481548110151561128857fe5b90600052602060002090600b02016002016002858154811015156112a857fe5b90600052602060002090600b02016003016002868154811015156112c857fe5b90600052602060002090600b020160040160009054906101000a900460ff166002878154811015156112f657fe5b90600052602060002090600b020160080154604051808060200180602001851515151581526020018481526020018381038352878181546001816001161561010002031660029004815260200191508054600181600116156101000203166002900480156113a55780601f1061137a576101008083540402835291602001916113a5565b820191906000526020600020905b81548152906001019060200180831161138857829003601f168201915b50508381038252868181546001816001161561010002031660029004815260200191508054600181600116156101000203166002900480156114285780601f106113fd57610100808354040283529160200191611428565b820191906000526020600020905b81548152906001019060200180831161140b57829003601f168201915b5050965050505050505060405180910390a3949350505050565b6000833373ffffffffffffffffffffffffffffffffffffffff1660028281548110151561146b57fe5b90600052602060002090600b020160000160009054906101000a900473ffffffffffffffffffffffffffffffffffffffff1673ffffffffffffffffffffffffffffffffffffffff161415156114bf57600080fd5b8260008090505b60018251038110156115285781818060010192508151811015156114e657fe5b9060200190602002015160001916828281518110151561150257fe5b9060200190602002015160001916141561151b57600080fd5b80806001019150506114c6565b8660028181548110151561153857fe5b90600052602060002090600b020160090160009054906101000a900460ff16151561156257600080fd5b60028881548110151561157157fe5b90600052602060002090600b020160050180549050945060028881548110151561159757fe5b90600052602060002090600b020160050180548091906001016115ba9190612e79565b50866002898154811015156115cb57fe5b90600052602060002090600b0201600501868154811015156115e957fe5b9060005260206000209060020201600001908051906020019061160d929190612df9565b508560028981548110151561161e57fe5b90600052602060002090600b02016005018681548110151561163c57fe5b90600052602060002090600202016001019080519060200190611660929190612eab565b5084887fa07ff47130ada328502f2b954ef63cb0306148ca86fe6b9468d2794128b8774360028b81548110151561169357fe5b90600052602060002090600b0201600501888154811015156116b157fe5b906000526020600020906002020160000160028c8154811015156116d157fe5b90600052602060002090600b0201600501898154811015156116ef57fe5b906000526020600020906002020160010160405180806020018060200183810383528581815460018160011615610100020316600290048152602001915080546001816001161561010002031660029004801561178d5780601f106117625761010080835404028352916020019161178d565b820191906000526020600020905b81548152906001019060200180831161177057829003601f168201915b505083810382528481815481526020019150805480156117d057602002820191906000526020600020905b815460001916815260200190600101908083116117b8575b505094505050505060405180910390a3505050509392505050565b60006117f5612efe565b8260008090505b6001805490508110156118f9578177ffffffffffffffffffffffffffffffffffffffffffffffff191660008060018481548110151561183757fe5b906000526020600020900160009054906101000a900473ffffffffffffffffffffffffffffffffffffffff1673ffffffffffffffffffffffffffffffffffffffff1673ffffffffffffffffffffffffffffffffffffffff16815260200190815260200160002060000160009054906101000a900478010000000000000000000000000000000000000000000000000277ffffffffffffffffffffffffffffffffffffffffffffffff191614156118ec57600080fd5b80806001019150506117fc565b60008090505b60018054905081101561198c5760018181548110151561191b57fe5b906000526020600020900160009054906101000a900473ffffffffffffffffffffffffffffffffffffffff1673ffffffffffffffffffffffffffffffffffffffff163373ffffffffffffffffffffffffffffffffffffffff16141561197f57600080fd5b80806001019150506118ff565b85846000019077ffffffffffffffffffffffffffffffffffffffffffffffff1916908177ffffffffffffffffffffffffffffffffffffffffffffffff1916815250506000846020018181525050836000803373ffffffffffffffffffffffffffffffffffffffff1673ffffffffffffffffffffffffffffffffffffffff16815260200190815260200160002060008201518160000160006101000a81548167ffffffffffffffff02191690837801000000000000000000000000000000000000000000000000900402179055506020820151816001015590505060018054806001018281611a7a9190612d9b565b9160005260206000209001600033909190916101000a81548173ffffffffffffffffffffffffffffffffffffffff021916908373ffffffffffffffffffffffffffffffffffffffff160217905550507f96596898687effee9fd8db31bbd7fc00c0ee2e755c1035c4635ac52c398060338460000151338660200151604051808477ffffffffffffffffffffffffffffffffffffffffffffffff191677ffffffffffffffffffffffffffffffffffffffffffffffff191681526020018373ffffffffffffffffffffffffffffffffffffffff1673ffffffffffffffffffffffffffffffffffffffff168152602001828152602001935050505060405180910390a16001945050505050919050565b600181815481101515611b9657fe5b90600052602060002090016000915054906101000a900473ffffffffffffffffffffffffffffffffffffffff1681565b6000600282815481101515611bd757fe5b90600052602060002090600b0201600501805490509050919050565b611bfb612f33565b611c03612f47565b6000806000611c10612f47565b6020604051805910611c1f5750595b9080825280601f01601f1916602001820160405250945060009350600092505b6020831015611cfd578260080260020a876001900402600102915060007f010000000000000000000000000000000000000000000000000000000000000002827effffffffffffffffffffffffffffffffffffffffffffffffffffffffffffff1916141515611cf057818585815181101515611cb757fe5b9060200101907effffffffffffffffffffffffffffffffffffffffffffffffffffffffffffff1916908160001a90535083806001019450505b8280600101935050611c3f565b83604051805910611d0b5750595b9080825280601f01601f19166020018201604052509050600092505b83831015611dd3578483815181101515611d3d57fe5b9060200101517f010000000000000000000000000000000000000000000000000000000000000090047f0100000000000000000000000000000000000000000000000000000000000000028184815181101515611d9657fe5b9060200101907effffffffffffffffffffffffffffffffffffffffffffffffffffffffffffff1916908160001a9053508280600101935050611d27565b8095505050505050919050565b611de8612f5b565b6001805480602002602001604051908101604052809291908181526020018280548015611e6a57602002820191906000526020600020905b8160009054906101000a900473ffffffffffffffffffffffffffffffffffffffff1673ffffffffffffffffffffffffffffffffffffffff1681526020019060010190808311611e20575b5050505050905090565b60008060003373ffffffffffffffffffffffffffffffffffffffff1673ffffffffffffffffffffffffffffffffffffffff16815260200190815260200160002060010154905090565b600080600090505b600284815481101515611ed457fe5b90600052602060002090600b020160060160010180549050811015611f9857600284815481101515611f0257fe5b90600052602060002090600b020160060160010181815481101515611f2357fe5b906000526020600020900160009054906101000a900473ffffffffffffffffffffffffffffffffffffffff1673ffffffffffffffffffffffffffffffffffffffff168373ffffffffffffffffffffffffffffffffffffffff161415611f8b5760019150611f9d565b8080600101915050611ec5565b600091505b5092915050565b81600281815481101515611fb457fe5b90600052602060002090600b020160090160009054906101000a900460ff161515611fde57600080fd5b82600281815481101515611fee57fe5b90600052602060002090600b020160060160000160003373ffffffffffffffffffffffffffffffffffffffff1673ffffffffffffffffffffffffffffffffffffffff16815260200190815260200160002060010160009054906101000a900460ff1615151561205c57600080fd5b8383600080600061206c85611bc6565b845114151561207a57600080fd5b60009250600091505b61208c85611bc6565b82101561218157600090505b6002858154811015156120a757fe5b90600052602060002090600b0201600501828154811015156120c557fe5b906000526020600020906002020160010180549050811015612174576002858154811015156120f057fe5b90600052602060002090600b02016005018281548110151561210e57fe5b90600052602060002090600202016001018181548110151561212c57fe5b90600052602060002090015460001916848381518110151561214a57fe5b906020019060200201516000191614156121675782806001019350505b8080600101915050612098565b8180600101925050612083565b61218a85611bc6565b8314151561219757600080fd5b6002898154811015156121a657fe5b90600052602060002090600b020160040160009054906101000a900460ff16156121d9576121d489896128fa565b612610565b8760028a8154811015156121e957fe5b90600052602060002090600b020160060160000160003373ffffffffffffffffffffffffffffffffffffffff1673ffffffffffffffffffffffffffffffffffffffff1681526020019081526020016000206000019080519060200190612250929190612eab565b50600160028a81548110151561226257fe5b90600052602060002090600b020160060160000160003373ffffffffffffffffffffffffffffffffffffffff1673ffffffffffffffffffffffffffffffffffffffff16815260200190815260200160002060010160006101000a81548160ff0219169083151502179055506002898154811015156122dc57fe5b90600052602060002090600b020160060160010180548060010182816123029190612d9b565b9160005260206000209001600033909190916101000a81548173ffffffffffffffffffffffffffffffffffffffff021916908373ffffffffffffffffffffffffffffffffffffffff160217905550506000803373ffffffffffffffffffffffffffffffffffffffff1673ffffffffffffffffffffffffffffffffffffffff168152602001908152602001600020600101600081548092919060010191905055506123ac8989612cc9565b3373ffffffffffffffffffffffffffffffffffffffff1660028a8154811015156123d257fe5b90600052602060002090600b0201600101547fae7fab35878ff4034302ce8b7ef19f037e3ef08350dca61711beb352c1076c2f60028c81548110151561241457fe5b90600052602060002090600b020160060160000160003373ffffffffffffffffffffffffffffffffffffffff1673ffffffffffffffffffffffffffffffffffffffff168152602001908152602001600020600001604051808060200182810382528381815481526020019150805480156124b157602002820191906000526020600020905b81546000191681526020019060010190808311612499575b50509250505060405180910390a37f96596898687effee9fd8db31bbd7fc00c0ee2e755c1035c4635ac52c398060336000803373ffffffffffffffffffffffffffffffffffffffff1673ffffffffffffffffffffffffffffffffffffffff16815260200190815260200160002060000160009054906101000a9004780100000000000000000000000000000000000000000000000002336000803373ffffffffffffffffffffffffffffffffffffffff1673ffffffffffffffffffffffffffffffffffffffff16815260200190815260200160002060010154604051808477ffffffffffffffffffffffffffffffffffffffffffffffff191677ffffffffffffffffffffffffffffffffffffffffffffffff191681526020018373ffffffffffffffffffffffffffffffffffffffff1673ffffffffffffffffffffffffffffffffffffffff168152602001828152602001935050505060405180910390a15b505050505050505050565b612623612f5b565b60028281548110151561263257fe5b90600052602060002090600b02016006016001018054806020026020016040519081016040528092919081815260200182805480156126c657602002820191906000526020600020905b8160009054906101000a900473ffffffffffffffffffffffffffffffffffffffff1673ffffffffffffffffffffffffffffffffffffffff168152602001906001019080831161267c575b50505050509050919050565b565b565b6000823373ffffffffffffffffffffffffffffffffffffffff166002828154811015156126ff57fe5b90600052602060002090600b020160000160009054906101000a900473ffffffffffffffffffffffffffffffffffffffff1673ffffffffffffffffffffffffffffffffffffffff1614151561275357600080fd5b8360028181548110151561276357fe5b90600052602060002090600b020160090160009054906101000a900460ff16151561278d57600080fd5b8460028181548110151561279d57fe5b90600052602060002090600b020160040160009054906101000a900460ff1615156127c757600080fd5b846002878154811015156127d757fe5b90600052602060002090600b020160060160010190805190602001906127fe929190612f6f565b5060028681548110151561280e57fe5b90600052602060002090600b0201600101547f19b82506b3313c2dd5d3d7062965522938d291754bdf64c433f06c2a5b5f589760028881548110151561285057fe5b90600052602060002090600b0201600601600101604051808060200182810382528381815481526020019150805480156128df57602002820191906000526020600020905b8160009054906101000a900473ffffffffffffffffffffffffffffffffffffffff1673ffffffffffffffffffffffffffffffffffffffff1681526020019060010190808311612895575b50509250505060405180910390a26001935050505092915050565b81336129068282611ebd565b151561291157600080fd5b8260028581548110151561292157fe5b90600052602060002090600b020160060160000160003373ffffffffffffffffffffffffffffffffffffffff1673ffffffffffffffffffffffffffffffffffffffff1681526020019081526020016000206000019080519060200190612988929190612eab565b50600160028581548110151561299a57fe5b90600052602060002090600b020160060160000160003373ffffffffffffffffffffffffffffffffffffffff1673ffffffffffffffffffffffffffffffffffffffff16815260200190815260200160002060010160006101000a81548160ff0219169083151502179055506000803373ffffffffffffffffffffffffffffffffffffffff1673ffffffffffffffffffffffffffffffffffffffff16815260200190815260200160002060010160008154809291906001019190505550612a608484612cc9565b3373ffffffffffffffffffffffffffffffffffffffff16600285815481101515612a8657fe5b90600052602060002090600b0201600101547fae7fab35878ff4034302ce8b7ef19f037e3ef08350dca61711beb352c1076c2f600287815481101515612ac857fe5b90600052602060002090600b020160060160000160003373ffffffffffffffffffffffffffffffffffffffff1673ffffffffffffffffffffffffffffffffffffffff16815260200190815260200160002060000160405180806020018281038252838181548152602001915080548015612b6557602002820191906000526020600020905b81546000191681526020019060010190808311612b4d575b50509250505060405180910390a37f96596898687effee9fd8db31bbd7fc00c0ee2e755c1035c4635ac52c398060336000803373ffffffffffffffffffffffffffffffffffffffff1673ffffffffffffffffffffffffffffffffffffffff16815260200190815260200160002060000160009054906101000a9004780100000000000000000000000000000000000000000000000002336000803373ffffffffffffffffffffffffffffffffffffffff1673ffffffffffffffffffffffffffffffffffffffff16815260200190815260200160002060010154604051808477ffffffffffffffffffffffffffffffffffffffffffffffff191677ffffffffffffffffffffffffffffffffffffffffffffffff191681526020018373ffffffffffffffffffffffffffffffffffffffff1673ffffffffffffffffffffffffffffffffffffffff168152602001828152602001935050505060405180910390a150505050565b60008090505b8151811015612d9657600283815481101515612ce757fe5b90600052602060002090600b0201600a0160008383815181101515612d0857fe5b90602001906020020151600019166000191681526020019081526020016000208054806001018281612d3a9190612d9b565b9160005260206000209001600033909190916101000a81548173ffffffffffffffffffffffffffffffffffffffff021916908373ffffffffffffffffffffffffffffffffffffffff160217905550508080600101915050612ccf565b505050565b815481835581811511612dc257818360005260206000209182019101612dc19190612ff9565b5b505050565b815481835581811511612df457600b0281600b028360005260206000209182019101612df3919061301e565b5b505050565b828054600181600116156101000203166002900490600052602060002090601f016020900481019282601f10612e3a57805160ff1916838001178555612e68565b82800160010185558215612e68579182015b82811115612e67578251825591602001919060010190612e4c565b5b509050612e759190612ff9565b5090565b815481835581811511612ea657600202816002028360005260206000209182019101612ea591906130e4565b5b505050565b828054828255906000526020600020908101928215612eed579160200282015b82811115612eec578251829060001916905591602001919060010190612ecb565b5b509050612efa9190613123565b5090565b6040805190810160405280600077ffffffffffffffffffffffffffffffffffffffffffffffff19168152602001600081525090565b602060405190810160405280600081525090565b602060405190810160405280600081525090565b602060405190810160405280600081525090565b828054828255906000526020600020908101928215612fe8579160200282015b82811115612fe75782518260006101000a81548173ffffffffffffffffffffffffffffffffffffffff021916908373ffffffffffffffffffffffffffffffffffffffff16021790555091602001919060010190612f8f565b5b509050612ff59190613148565b5090565b61301b91905b80821115613017576000816000905550600101612fff565b5090565b90565b6130e191905b808211156130dd57600080820160006101000a81549073ffffffffffffffffffffffffffffffffffffffff0219169055600182016000905560028201600061306c919061318b565b60038201600061307c919061318b565b6004820160006101000a81549060ff02191690556005820160006130a091906131d3565b6006820160006001820160006130b691906131f7565b505060088201600090556009820160006101000a81549060ff021916905550600b01613024565b5090565b90565b61312091905b8082111561311c5760008082016000613103919061318b565b6001820160006131139190613218565b506002016130ea565b5090565b90565b61314591905b80821115613141576000816000905550600101613129565b5090565b90565b61318891905b8082111561318457600081816101000a81549073ffffffffffffffffffffffffffffffffffffffff02191690555060010161314e565b5090565b90565b50805460018160011615610100020316600290046000825580601f106131b157506131d0565b601f0160209004906000526020600020908101906131cf9190612ff9565b5b50565b50805460008255600202906000526020600020908101906131f491906130e4565b50565b50805460008255906000526020600020908101906132159190612ff9565b50565b50805460008255906000526020600020908101906132369190613123565b505600a165627a7a72305820d3b62c97f6980d453bcf0397e0c657c970e9ff95b23eb96ff0b37f257094c1470029",
  "source": "pragma solidity ^0.4.18;\r\n\r\nimport \"./ManageAccount12.sol\";\r\n\r\ncontract voting12 is ManageAccount12\r\n {\r\n    room[] rooms;\r\n\r\n    \r\n    struct room\r\n    {\r\n        address owner;\r\n        uint id;\r\n        string title;\r\n        string descript;\r\n        bool privateRoom;\r\n        Poll[] poll;\r\n        ListVoters listVoters;\r\n        uint expiredTime;\r\n        bool open;\r\n        mapping(bytes32 => address[]) listVotersOf;\r\n    }\r\n\r\n    struct Voter\r\n    {\r\n\r\n        bytes32[] ballot;//roomID => ballot\r\n        bool voted;//roomID => ballot\r\n    }\r\n    \r\n    // struct Ballot\r\n    // {\r\n    //     bool voted;\r\n    //     bytes32[] voteFor;\r\n    // }\r\n    \r\n    struct ListVoters\r\n    {\r\n        mapping (address => Voter) voter;\r\n        address[] addrs;\r\n    }\r\n    \r\n    struct Poll\r\n    {\r\n        string questions;\r\n        bytes32[] options;\r\n        //bytes32[] res;\r\n    }\r\n    \r\n    event LOGroomOpened(uint indexed roomID, address indexed owner,string title, string descript, bool privateRoom, uint expiredTime);\r\n    event LOGaddListVoter(uint indexed roomID, address[] list);\r\n    event LOGpollingAdded(uint indexed roomID,uint indexed pollID, string question, bytes32[] options);\r\n    //event LOGpollingOptionAdded(uint indexed roomID,uint indexed pollID, string question, bytes32[] option);\r\n    event LOGroomClosed(uint indexed roomID);\r\n    event LOGoptions(uint indexed roomID, bytes[] options);\r\n    event LOGlistVotersOf(uint indexed roomID, bytes option, address[] voters);\r\n    //event roomInfo(uint indexed id, address indexed owner, bytes32[] options, bytes32 description, listVoter);\r\n    event LOGroomResult(uint indexed roomID, bytes option, uint counts, address[] voters);\r\n    \r\n    event LOGvoteNotify(uint indexed roomID, address indexed sender, bytes32[] options);\r\n    event LOGcountOf(uint roomID, uint pollNo, bytes32 option, uint count);\r\n    event LOGvoterOf(uint roomID, uint pollNo, bytes32 option, address[] voter);\r\n    \r\n    \r\n    modifier owned(uint _RoomID)\r\n    {\r\n       require(rooms[_RoomID].owner == msg.sender);\r\n       _;\r\n    }\r\n    \r\n    modifier roomOpening(uint _RoomID) \r\n    {\r\n        require(rooms[_RoomID].open);\r\n        _;\r\n    }\r\n    \r\n    modifier roomClosed(uint _RoomID) \r\n    {\r\n        require(!rooms[_RoomID].open);\r\n        _;\r\n    }\r\n    \r\n\r\n    modifier listVoterEmpty(uint _RoomID)\r\n    {\r\n        require(rooms[_RoomID].listVoters.addrs.length == 0);\r\n        _;\r\n    }\r\n    \r\n    modifier privateRoom(uint _RoomID)\r\n    {\r\n        require(rooms[_RoomID].privateRoom);\r\n        _;\r\n    }\r\n    \r\n    modifier validBallot(uint _roomID, bytes32[] _option)\r\n    {\r\n        if(_option.length != getNumberOfPolls(_roomID))\r\n        {\r\n            revert();\r\n        }\r\n        uint a = 0;\r\n        for(uint i = 0; i < getNumberOfPolls(_roomID); i++)\r\n        {\r\n            for(uint j = 0; j < rooms[_roomID].poll[i].options.length; j++)\r\n            {\r\n                if(_option[i] == rooms[_roomID].poll[i].options[j])\r\n                {\r\n                    a++;\r\n                }\r\n            }\r\n        }\r\n        if(a != getNumberOfPolls(_roomID))\r\n        {\r\n            revert();\r\n        }\r\n        _;\r\n    }\r\n    \r\n    modifier duplicateOption(bytes32[] _options)\r\n    {\r\n        for(uint i = 0; i < _options.length-1; i++)\r\n        {\r\n            if(_options[i] == _options[i++])\r\n            {\r\n                revert();\r\n            }\r\n        }\r\n        _;\r\n    }\r\n    \r\n    modifier notVoted(uint _roomID)\r\n    {\r\n        require(!rooms[_roomID].listVoters.voter[msg.sender].voted);\r\n        _;\r\n    }\r\n    \r\n    function checkVailableVoter(uint _roomID, address _voter) public view returns(bool)\r\n    {\r\n        for(uint i= 0; i < rooms[_roomID].listVoters.addrs.length ; i++)\r\n            {\r\n                if(_voter == rooms[_roomID].listVoters.addrs[i])\r\n                {\r\n                   return true;\r\n                }\r\n            }\r\n        return false;\r\n    }\r\n    \r\n    modifier vailableVoter(uint _roomID, address _voter)\r\n    {\r\n         require(checkVailableVoter(_roomID, _voter));\r\n        _;\r\n    }\r\n    \r\n    function voting()\r\n        public \r\n    {\r\n        \r\n    }\r\n    \r\n    function openRoom(string _til, bool _privateR, string _des, uint _expiredTime) public returns (uint id)\r\n    {\r\n        id = rooms.length;\r\n        rooms.length++;\r\n        rooms[id].id = id;\r\n        rooms[id].owner = msg.sender;\r\n        rooms[id].descript = _des;\r\n        rooms[id].title = _til;\r\n        rooms[id].privateRoom = _privateR;\r\n        rooms[id].expiredTime = _expiredTime;\r\n        rooms[id].open = true;\r\n        LOGroomOpened(id, rooms[id].owner,rooms[id].title, rooms[id].descript, rooms[id].privateRoom, rooms[id].expiredTime);\r\n    }\r\n    \r\n    function addPoll(uint _roomID, string _quest, bytes32[] _opt) \r\n            owned(_roomID)\r\n            duplicateOption(_opt)\r\n            roomOpening(_roomID)\r\n            public returns(uint pollNo)\r\n    {\r\n        pollNo = rooms[_roomID].poll.length;\r\n        rooms[_roomID].poll.length++;\r\n        rooms[_roomID].poll[pollNo].questions = _quest;\r\n        rooms[_roomID].poll[pollNo].options = _opt;\r\n         LOGpollingAdded(_roomID, pollNo, rooms[_roomID].poll[pollNo].questions, rooms[_roomID].poll[pollNo].options);\r\n    }\r\n\r\n    function getNumberOfPolls(uint _roomID) public view returns(uint)\r\n    {\r\n        return rooms[_roomID].poll.length;\r\n    }\r\n    \r\n    function closeRoom(uint _id) \r\n            owned(_id) \r\n            roomOpening(_id) public returns (bool)\r\n    {\r\n        rooms[_id].open = false;\r\n        for(uint i = 0; i < rooms[_id].poll.length; i++)\r\n        {\r\n            for(uint j = 0; j < rooms[_id].poll[i].options.length; j++)\r\n            {\r\n               LOGcountOf(_id, j, rooms[_id].poll[i].options[j], rooms[_id].listVotersOf[rooms[_id].poll[i].options[j]].length);  \r\n               LOGvoterOf(_id, j, rooms[_id].poll[i].options[j], rooms[_id].listVotersOf[rooms[_id].poll[i].options[j]]);\r\n            }\r\n        }\r\n        //calculateRoomResult(_id);\r\n       // LOGroomClosed(rooms[_id].id, rooms[_id].result);\r\n        return true;\r\n    }\r\n    \r\n    function setListVoters(uint _id, address[] _voters) \r\n            owned(_id)\r\n            roomOpening(_id)\r\n            privateRoom(_id)\r\n            public returns (bool)\r\n    {\r\n        rooms[_id].listVoters.addrs = _voters;\r\n         LOGaddListVoter(rooms[_id].id, rooms[_id].listVoters.addrs);\r\n        return true;\r\n    }\r\n\r\n    function voteForPrivateRoom(uint _roomID, bytes32[] _options)\r\n        vailableVoter(_roomID, msg.sender)\r\n        private \r\n    {\r\n        rooms[_roomID].listVoters.voter[msg.sender].ballot = _options;\r\n        rooms[_roomID].listVoters.voter[msg.sender].voted = true;\r\n        //rooms[_roomID].listVoters.addrs.push(msg.sender);\r\n        account[msg.sender].point++;\r\n        //rooms[_roomID].listVoters.voter[msg.sender].account.acount[msg.sender].point ++;\r\n        addToListVoteOf(_roomID, _options);\r\n         LOGvoteNotify(rooms[_roomID].id, msg.sender, rooms[_roomID].listVoters.voter[msg.sender].ballot);\r\n         LOGaccountInfo(account[msg.sender].id, msg.sender, account[msg.sender].point);\r\n    }\r\n\r\n    function voteFor(uint _roomID, bytes32[] _options)\r\n        roomOpening(_roomID)\r\n        notVoted(_roomID)\r\n        validBallot(_roomID, _options)\r\n        public\r\n    {\r\n        if(rooms[_roomID].privateRoom)\r\n        {\r\n            voteForPrivateRoom(_roomID, _options);\r\n            return;\r\n        }\r\n        rooms[_roomID].listVoters.voter[msg.sender].ballot = _options;\r\n        rooms[_roomID].listVoters.voter[msg.sender].voted = true;\r\n        rooms[_roomID].listVoters.addrs.push(msg.sender);\r\n        account[msg.sender].point++;\r\n       // rooms[_roomID].listVoters.voter[msg.sender].account.point ++;\r\n        addToListVoteOf(_roomID, _options);\r\n         LOGvoteNotify(rooms[_roomID].id, msg.sender, rooms[_roomID].listVoters.voter[msg.sender].ballot);\r\n         LOGaccountInfo(account[msg.sender].id, msg.sender, account[msg.sender].point);\r\n    }\r\n    \r\n    function addToListVoteOf(uint _roomID, bytes32[] _option) private \r\n    {\r\n        for(uint i=0; i <  _option.length; i++)\r\n        {\r\n            rooms[_roomID].listVotersOf[_option[i]].push(msg.sender);\r\n            //emit LOGcountOf(_roomID, i, _option[i], rooms[_roomID].listVotersOf[_option[i]].length);\r\n        }\r\n    }\r\n    \r\n    function setListVotersByID(uint _roomID, bytes8[] _ids) \r\n            owned(_roomID)\r\n            roomOpening(_roomID)\r\n            privateRoom(_roomID)\r\n            public returns (bool)\r\n    {\r\n        for(uint i = 0; i < listAddressAccount.length; i++)\r\n        {\r\n            for(uint j = 0; j < _ids.length; j++)\r\n            {\r\n                if(account[listAddressAccount[i]].id == _ids[j])\r\n                {\r\n                    rooms[_roomID].listVoters.addrs.push(listAddressAccount[i]);\r\n                }\r\n            }\r\n        }\r\n         LOGaddListVoter(rooms[_roomID].id, rooms[_roomID].listVoters.addrs);\r\n        return true;\r\n    }\r\n    function getListVoterOf(uint _roomID) public view returns(address[])\r\n    {\r\n        return  rooms[_roomID].listVoters.addrs;\r\n    }\r\n    \r\n    function getVoterPoint() public view returns(uint)\r\n    {\r\n        return account[msg.sender].point;\r\n    }\r\n    \r\n    function bytes32ToString(bytes32 x) public pure returns (string) \r\n    {\r\n        bytes memory bytesString = new bytes(32);\r\n        uint charCount = 0;\r\n        for (uint j = 0; j < 32; j++) \r\n        {\r\n            byte char = byte(bytes32(uint(x) * 2 ** (8 * j)));\r\n            if (char != 0) \r\n            {\r\n                bytesString[charCount] = char;\r\n                charCount++;\r\n            }\r\n        }\r\n        bytes memory bytesStringTrimmed = new bytes(charCount);\r\n        for (j = 0; j < charCount; j++) \r\n        {\r\n            bytesStringTrimmed[j] = bytesString[j];\r\n        }\r\n        return string(bytesStringTrimmed);\r\n    }\r\n }",
  "sourcePath": "C:\\Users\\PMM81HC\\Desktop\\Experiment\\VoteChain\\contracts\\voting12.sol",
  "compiler": {
    "name": "solc",
    "version": "0.4.19+commit.c4cbbb05.Emscripten.clang"
  },
  "schemaVersion": "2.0.0",
  "updatedAt": "2018-03-26T09:50:57.777Z"
}