{
  "contractName": "votingVer1_1_6",
  "abi": [
    {
      "constant": true,
      "inputs": [
        {
          "name": "_id",
          "type": "bytes32"
        }
      ],
      "name": "getListVoterOf",
      "outputs": [
        {
          "name": "",
          "type": "address[]"
        }
      ],
      "payable": false,
      "stateMutability": "view",
      "type": "function"
    },
    {
      "constant": false,
      "inputs": [
        {
          "name": "_option",
          "type": "bytes32"
        }
      ],
      "name": "VoteFor",
      "outputs": [],
      "payable": false,
      "stateMutability": "nonpayable",
      "type": "function"
    },
    {
      "constant": true,
      "inputs": [],
      "name": "getListVoters",
      "outputs": [
        {
          "name": "",
          "type": "address[]"
        }
      ],
      "payable": false,
      "stateMutability": "view",
      "type": "function"
    },
    {
      "constant": true,
      "inputs": [
        {
          "name": "x",
          "type": "bytes32"
        }
      ],
      "name": "bytes32ToString",
      "outputs": [
        {
          "name": "",
          "type": "string"
        }
      ],
      "payable": false,
      "stateMutability": "pure",
      "type": "function"
    },
    {
      "constant": true,
      "inputs": [],
      "name": "getOptions",
      "outputs": [
        {
          "name": "",
          "type": "bytes32[]"
        }
      ],
      "payable": false,
      "stateMutability": "view",
      "type": "function"
    },
    {
      "constant": true,
      "inputs": [
        {
          "name": "_option",
          "type": "bytes32"
        }
      ],
      "name": "getCountOf",
      "outputs": [
        {
          "name": "",
          "type": "uint256"
        }
      ],
      "payable": false,
      "stateMutability": "view",
      "type": "function"
    },
    {
      "constant": true,
      "inputs": [
        {
          "name": "_addr",
          "type": "address"
        }
      ],
      "name": "getVoteOf",
      "outputs": [
        {
          "name": "",
          "type": "bytes32"
        }
      ],
      "payable": false,
      "stateMutability": "view",
      "type": "function"
    },
    {
      "constant": false,
      "inputs": [
        {
          "name": "_n",
          "type": "bytes32"
        }
      ],
      "name": "addOption",
      "outputs": [],
      "payable": false,
      "stateMutability": "nonpayable",
      "type": "function"
    },
    {
      "constant": false,
      "inputs": [
        {
          "name": "_addr",
          "type": "address"
        }
      ],
      "name": "addVoter",
      "outputs": [],
      "payable": false,
      "stateMutability": "nonpayable",
      "type": "function"
    },
    {
      "inputs": [
        {
          "name": "_opt",
          "type": "bytes32[]"
        },
        {
          "name": "_voters",
          "type": "address[]"
        }
      ],
      "payable": false,
      "stateMutability": "nonpayable",
      "type": "constructor"
    },
    {
      "anonymous": false,
      "inputs": [
        {
          "indexed": false,
          "name": "sender",
          "type": "address"
        },
        {
          "indexed": false,
          "name": "option",
          "type": "string"
        },
        {
          "indexed": false,
          "name": "consequence",
          "type": "string"
        }
      ],
      "name": "notify",
      "type": "event"
    }
  ],
  "bytecode": "0x606060405234156200001057600080fd5b604051620010d9380380620010d983398101604052808051820191906020018051820191905050336000806101000a81548173ffffffffffffffffffffffffffffffffffffffff021916908373ffffffffffffffffffffffffffffffffffffffff16021790555081600190805190602001906200008f929190620000b1565b508060059080519060200190620000a892919062000109565b50505062000206565b828054828255906000526020600020908101928215620000f6579160200282015b82811115620000f5578251829060001916905591602001919060010190620000d2565b5b50905062000105919062000198565b5090565b82805482825590600052602060002090810192821562000185579160200282015b82811115620001845782518260006101000a81548173ffffffffffffffffffffffffffffffffffffffff021916908373ffffffffffffffffffffffffffffffffffffffff160217905550916020019190600101906200012a565b5b509050620001949190620001c0565b5090565b620001bd91905b80821115620001b95760008160009055506001016200019f565b5090565b90565b6200020391905b80821115620001ff57600081816101000a81549073ffffffffffffffffffffffffffffffffffffffff021916905550600101620001c7565b5090565b90565b610ec380620002166000396000f300606060405260043610610098576000357c0100000000000000000000000000000000000000000000000000000000900463ffffffff1680620f7f9d1461009d5780631925d443146101195780631b545327146101405780639201de55146101aa578063cc2ee1961461024a578063d3912c3e146102b4578063da38ab4b146102ef578063dde08b4114610344578063f4ab9adf1461036b575b600080fd5b34156100a857600080fd5b6100c26004808035600019169060200190919050506103a4565b6040518080602001828103825283818151815260200191508051906020019060200280838360005b838110156101055780820151818401526020810190506100ea565b505050509050019250505060405180910390f35b341561012457600080fd5b61013e600480803560001916906020019091905050610453565b005b341561014b57600080fd5b610153610727565b6040518080602001828103825283818151815260200191508051906020019060200280838360005b8381101561019657808201518184015260208101905061017b565b505050509050019250505060405180910390f35b34156101b557600080fd5b6101cf6004808035600019169060200190919050506107bb565b6040518080602001828103825283818151815260200191508051906020019080838360005b8381101561020f5780820151818401526020810190506101f4565b50505050905090810190601f16801561023c5780820380516001836020036101000a031916815260200191505b509250505060405180910390f35b341561025557600080fd5b61025d6109a8565b6040518080602001828103825283818151815260200191508051906020019060200280838360005b838110156102a0578082015181840152602081019050610285565b505050509050019250505060405180910390f35b34156102bf57600080fd5b6102d9600480803560001916906020019091905050610a0a565b6040518082815260200191505060405180910390f35b34156102fa57600080fd5b610326600480803573ffffffffffffffffffffffffffffffffffffffff16906020019091905050610a32565b60405180826000191660001916815260200191505060405180910390f35b341561034f57600080fd5b610369600480803560001916906020019091905050610ae1565b005b341561037657600080fd5b6103a2600480803573ffffffffffffffffffffffffffffffffffffffff16906020019091905050610c3b565b005b6103ac610da5565b60026000836000191660001916815260200190815260200160002080548060200260200160405190810160405280929190818152602001828054801561044757602002820191906000526020600020905b8160009054906101000a900473ffffffffffffffffffffffffffffffffffffffff1673ffffffffffffffffffffffffffffffffffffffff16815260200190600101908083116103fd575b50505050509050919050565b8061045d81610ca1565b151561046857600080fd5b3360001515600360008373ffffffffffffffffffffffffffffffffffffffff1673ffffffffffffffffffffffffffffffffffffffff16815260200190815260200160002060009054906101000a900460ff1615151415156104c857600080fd5b3360006005805490501415156104f457600115156104e582610d01565b15151415156104f357600080fd5b5b83600460003373ffffffffffffffffffffffffffffffffffffffff1673ffffffffffffffffffffffffffffffffffffffff168152602001908152602001600020816000191690555060026000856000191660001916815260200190815260200160002080548060010182816105699190610db9565b9160005260206000209001600033909190916101000a81548173ffffffffffffffffffffffffffffffffffffffff021916908373ffffffffffffffffffffffffffffffffffffffff160217905550506001600360003373ffffffffffffffffffffffffffffffffffffffff1673ffffffffffffffffffffffffffffffffffffffff16815260200190815260200160002060006101000a81548160ff0219169083151502179055507f6881f879f9d68b63a8645882505add0c1c07fd0799fd86cc30a03d9fe124f07e3361063b866107bb565b604051808373ffffffffffffffffffffffffffffffffffffffff1673ffffffffffffffffffffffffffffffffffffffff1681526020018060200180602001838103835284818151815260200191508051906020019080838360005b838110156106b1578082015181840152602081019050610696565b50505050905090810190601f1680156106de5780820380516001836020036101000a031916815260200191505b50838103825260058152602001807f766f74656400000000000000000000000000000000000000000000000000000081525060200194505050505060405180910390a150505050565b61072f610da5565b60058054806020026020016040519081016040528092919081815260200182805480156107b157602002820191906000526020600020905b8160009054906101000a900473ffffffffffffffffffffffffffffffffffffffff1673ffffffffffffffffffffffffffffffffffffffff1681526020019060010190808311610767575b5050505050905090565b6107c3610de5565b6107cb610df9565b60008060006107d8610df9565b60206040518059106107e75750595b9080825280601f01601f1916602001820160405250945060009350600092505b60208310156108c5578260080260020a876001900402600102915060007f010000000000000000000000000000000000000000000000000000000000000002827effffffffffffffffffffffffffffffffffffffffffffffffffffffffffffff19161415156108b85781858581518110151561087f57fe5b9060200101907effffffffffffffffffffffffffffffffffffffffffffffffffffffffffffff1916908160001a90535083806001019450505b8280600101935050610807565b836040518059106108d35750595b9080825280601f01601f19166020018201604052509050600092505b8383101561099b57848381518110151561090557fe5b9060200101517f010000000000000000000000000000000000000000000000000000000000000090047f010000000000000000000000000000000000000000000000000000000000000002818481518110151561095e57fe5b9060200101907effffffffffffffffffffffffffffffffffffffffffffffffffffffffffffff1916908160001a90535082806001019350506108ef565b8095505050505050919050565b6109b0610e0d565b6001805480602002602001604051908101604052809291908181526020018280548015610a0057602002820191906000526020600020905b815460001916815260200190600101908083116109e8575b5050505050905090565b6000600260008360001916600019168152602001908152602001600020805490509050919050565b600060011515600360008473ffffffffffffffffffffffffffffffffffffffff1673ffffffffffffffffffffffffffffffffffffffff16815260200190815260200160002060009054906101000a900460ff1615151415610ad457600460008373ffffffffffffffffffffffffffffffffffffffff1673ffffffffffffffffffffffffffffffffffffffff168152602001908152602001600020549050610adc565b600060010290505b919050565b80610aeb81610ca1565b151515610af757600080fd5b7f6881f879f9d68b63a8645882505add0c1c07fd0799fd86cc30a03d9fe124f07e33610b22846107bb565b604051808373ffffffffffffffffffffffffffffffffffffffff1673ffffffffffffffffffffffffffffffffffffffff1681526020018060200180602001838103835284818151815260200191508051906020019080838360005b83811015610b98578082015181840152602081019050610b7d565b50505050905090810190601f168015610bc55780820380516001836020036101000a031916815260200191505b508381038252600c8152602001807f6f7074696f6e206164646564000000000000000000000000000000000000000081525060200194505050505060405180910390a160018054806001018281610c1c9190610e21565b9160005260206000209001600084909190915090600019169055505050565b60058054806001018281610c4f9190610db9565b9160005260206000209001600083909190916101000a81548173ffffffffffffffffffffffffffffffffffffffff021916908373ffffffffffffffffffffffffffffffffffffffff1602179055505050565b600080600090505b600180549050811015610cf6578260001916600182815481101515610cca57fe5b906000526020600020900154600019161415610ce95760019150610cfb565b8080600101915050610ca9565b600091505b50919050565b600080600090505b600580549050811015610d9a578273ffffffffffffffffffffffffffffffffffffffff16600582815481101515610d3c57fe5b906000526020600020900160009054906101000a900473ffffffffffffffffffffffffffffffffffffffff1673ffffffffffffffffffffffffffffffffffffffff161415610d8d5760019150610d9f565b8080600101915050610d09565b600091505b50919050565b602060405190810160405280600081525090565b815481835581811511610de057818360005260206000209182019101610ddf9190610e4d565b5b505050565b602060405190810160405280600081525090565b602060405190810160405280600081525090565b602060405190810160405280600081525090565b815481835581811511610e4857818360005260206000209182019101610e479190610e72565b5b505050565b610e6f91905b80821115610e6b576000816000905550600101610e53565b5090565b90565b610e9491905b80821115610e90576000816000905550600101610e78565b5090565b905600a165627a7a723058202f341c30854f16e4195435f2f63f99368c1e0d57fd0faa9da1dff880be3b860d0029",
  "source": "/**\r\n * ver1.1.4\r\n * \r\n * add contract event\r\n * \r\n * -----------------------------------------------------\r\n * ver1.1.3\r\n * \r\n * add modifier to control vote, ballot, 1 address - 1 vote\r\n * check duplicate option when initiate the contract\r\n * \r\n * -----------------------------------------------------\r\n * ver1.1.2\r\n * \r\n * update\r\n *      add expired time: close the vote when time is up-to-date\r\n *      add list voters who can vote\r\n *          if the list is left empty, everyone can join the vote\r\n *          otherwise, only the ones in the list can cast vote\r\n *      get ballot of an address\r\n * \r\n * -----------------------------------------------------\r\n * ver1.1.1\r\n * \r\n * update\r\n *      add algorithm check 1 address - 1 vote\r\n * add new:\r\n *  property: \r\n *      voted\r\n *  method:\r\n *      (none)\r\n * remove:\r\n *      (none)\r\n * \r\n * -----------------------------------------------------\r\n * ver1.1.0\r\n * \r\n * update\r\n *      VotFor\r\n *      change the way managing the ballot\r\n *          voteOf => listVotersOf\r\n *      getCountOf => getCountOf\r\n * add new:\r\n *  property: \r\n *      owner\r\n *      listVotersOf\r\n *  method:\r\n *      getListVoterOf\r\n * remove:\r\n *      voteOf\r\n *      getCountOf\r\n * \r\n * -----------------------------------------------------\r\n * ver1\r\n * \r\n * add option when call the contract\r\n * vote for an option\r\n * convert option(bytes32) to string\r\n * get option vote\r\n * only available option can be voted\r\n * \r\n */\r\n \r\n pragma solidity ^0.4.18;\r\n \r\n contract votingVer1_1_6\r\n {\r\n    address owner;\r\n    bytes32[] opt;\r\n    //mapping(bytes32 => uint) voteOf;\r\n    mapping(bytes32 => address[]) listVotersOf;\r\n    mapping(address => bool) voted;\r\n    mapping(address => bytes32) ballotOf;\r\n    address[] voters;\r\n    event notify(address sender, string option, string consequence);\r\n    \r\n    string private status;\r\n    \r\n    function votingVer1_1_6(bytes32[] _opt, address[] _voters)\r\n        \r\n        public \r\n    {\r\n        owner = msg.sender;\r\n        opt = _opt;\r\n        voters = _voters;\r\n    }\r\n\r\n    \r\n    \r\n    \r\n    \r\n   function checkVailableOption(bytes32 _n) private view returns(bool)\r\n    {\r\n        for(uint i = 0; i < opt.length; i++)\r\n        {\r\n            if(opt[i] == _n)\r\n            {\r\n                return true;\r\n            }    \r\n        }\r\n        return false;\r\n    }\r\n    \r\n    function checkVailableVoter(address _addr) private view returns(bool)\r\n    {\r\n        for(uint i = 0; i < voters.length; i++)\r\n        {\r\n            if(voters[i] == _addr)\r\n            {\r\n                return true;\r\n            }\r\n        }\r\n        return false;\r\n    }\r\n\r\n    modifier validOption(bytes32 _option)\r\n    {\r\n        require(checkVailableOption(_option));\r\n        _;\r\n       \r\n    }\r\n    \r\n     modifier invalidOption(bytes32 _option)\r\n    {\r\n        require(!checkVailableOption(_option));\r\n        _;\r\n       \r\n    }\r\n    modifier notVoted(address _addr)\r\n    {\r\n       \r\n        require(voted[_addr] == false);\r\n        _;\r\n       \r\n    }\r\n    // modifier validVoter(address _addr)\r\n    // {\r\n    //     require(checkVailableVoter(_addr));\r\n    //     _;\r\n        \r\n    // }\r\n    modifier hasVoter(address _addr){\r\n        if(voters.length != 0)\r\n        {\r\n            require(checkVailableVoter(_addr) == true);    \r\n        }\r\n        _;\r\n    }\r\n    \r\n    function addOption(bytes32 _n) \r\n            invalidOption(_n)\r\n            public\r\n    {\r\n        notify(msg.sender, bytes32ToString(_n), \"option added\");\r\n        opt.push(_n);\r\n    }\r\n    function addVoter(address _addr) public\r\n    {\r\n        voters.push(_addr);\r\n    }\r\n    \r\n    function getOptions() public view returns(bytes32[])\r\n    {\r\n        return opt;\r\n    }\r\n     \r\n    function getListVoters() public view returns(address[])\r\n    {\r\n        return voters;\r\n    }\r\n    \r\n    function getOptionByIndex(uint _i) private view returns(string)\r\n    {\r\n        return bytes32ToString(opt[_i]);\r\n    }\r\n    \r\n    \r\n    function bytes32ToString(bytes32 x) public pure returns (string) \r\n    {\r\n        bytes memory bytesString = new bytes(32);\r\n        uint charCount = 0;\r\n        for (uint j = 0; j < 32; j++) \r\n        {\r\n            byte char = byte(bytes32(uint(x) * 2 ** (8 * j)));\r\n            if (char != 0) \r\n            {\r\n                bytesString[charCount] = char;\r\n                charCount++;\r\n            }\r\n        }\r\n        bytes memory bytesStringTrimmed = new bytes(charCount);\r\n        for (j = 0; j < charCount; j++) \r\n        {\r\n            bytesStringTrimmed[j] = bytesString[j];\r\n        }\r\n        return string(bytesStringTrimmed);\r\n    }\r\n   /* \r\n    modifier validopt(bytes32 _n){\r\n        for(uint i=0; i < opt.length; i++){\r\n            if(opt[i] == _n){\r\n                return true;\r\n            }   \r\n        }\r\n        return false;\r\n        _;\r\n        \r\n    }\r\n    */\r\n\r\n    function VoteFor(bytes32 _option) \r\n                validOption(_option) \r\n                notVoted(msg.sender)  \r\n                hasVoter(msg.sender)\r\n                public\r\n    {\r\n        ballotOf[msg.sender] = _option;\r\n        listVotersOf[_option].push(msg.sender);\r\n        voted[msg.sender] = true;\r\n        notify(msg.sender, bytes32ToString(_option), \"voted\");\r\n    }\r\n    \r\n    \r\n    function getVoteOf(address _addr) public view returns(bytes32)\r\n    {\r\n        if(voted[_addr] == true)\r\n        {\r\n            return ballotOf[_addr];\r\n        }\r\n        return 0x00;\r\n    }\r\n    \r\n    function getCountOf(bytes32 _option)public constant returns(uint){\r\n        //require(vailableCandidate(_addr));\r\n        return listVotersOf[_option].length;\r\n    }\r\n    \r\n    \r\n    function getListVoterOf(bytes32 _id) public view returns(address[])\r\n    {\r\n        return listVotersOf[_id];\r\n    }\r\n    \r\n}",
  "sourcePath": "C:\\Users\\PMM81HC\\Desktop\\Experiment\\VoteChain\\contracts\\votingVer1_1_6.sol",
  "compiler": {
    "name": "solc",
    "version": "0.4.18+commit.9cf6e910.Emscripten.clang"
  },
  "schemaVersion": "1.0.1",
  "updatedAt": "2018-02-23T09:27:24.287Z"
}