{
  "contractName": "votingVer1_3_0",
  "abi": [
    {
      "inputs": [],
      "payable": false,
      "stateMutability": "nonpayable",
      "type": "constructor"
    },
    {
      "anonymous": false,
      "inputs": [
        {
          "indexed": true,
          "name": "roomID",
          "type": "uint256"
        },
        {
          "indexed": true,
          "name": "owner",
          "type": "address"
        },
        {
          "indexed": false,
          "name": "title",
          "type": "string"
        },
        {
          "indexed": false,
          "name": "descript",
          "type": "string"
        },
        {
          "indexed": false,
          "name": "privateRoom",
          "type": "bool"
        },
        {
          "indexed": false,
          "name": "expiredTime",
          "type": "uint256"
        }
      ],
      "name": "LOGroomOpened",
      "type": "event"
    },
    {
      "anonymous": false,
      "inputs": [
        {
          "indexed": true,
          "name": "roomID",
          "type": "uint256"
        },
        {
          "indexed": false,
          "name": "list",
          "type": "address[]"
        }
      ],
      "name": "LOGaddListVoter",
      "type": "event"
    },
    {
      "anonymous": false,
      "inputs": [
        {
          "indexed": true,
          "name": "roomID",
          "type": "uint256"
        },
        {
          "indexed": true,
          "name": "pollID",
          "type": "uint256"
        },
        {
          "indexed": false,
          "name": "question",
          "type": "string"
        },
        {
          "indexed": false,
          "name": "options",
          "type": "bytes32[]"
        }
      ],
      "name": "LOGpollingAdded",
      "type": "event"
    },
    {
      "anonymous": false,
      "inputs": [
        {
          "indexed": true,
          "name": "roomID",
          "type": "uint256"
        },
        {
          "indexed": true,
          "name": "pollID",
          "type": "uint256"
        },
        {
          "indexed": false,
          "name": "question",
          "type": "string"
        },
        {
          "indexed": false,
          "name": "option",
          "type": "bytes32[]"
        }
      ],
      "name": "LOGpollingOptionAdded",
      "type": "event"
    },
    {
      "anonymous": false,
      "inputs": [
        {
          "indexed": true,
          "name": "roomID",
          "type": "uint256"
        },
        {
          "indexed": false,
          "name": "result",
          "type": "bytes"
        }
      ],
      "name": "LOGroomClosed",
      "type": "event"
    },
    {
      "anonymous": false,
      "inputs": [
        {
          "indexed": true,
          "name": "roomID",
          "type": "uint256"
        },
        {
          "indexed": false,
          "name": "options",
          "type": "bytes[]"
        }
      ],
      "name": "LOGoptions",
      "type": "event"
    },
    {
      "anonymous": false,
      "inputs": [
        {
          "indexed": true,
          "name": "roomID",
          "type": "uint256"
        },
        {
          "indexed": false,
          "name": "option",
          "type": "bytes"
        },
        {
          "indexed": false,
          "name": "voters",
          "type": "address[]"
        }
      ],
      "name": "LOGlistVotersOf",
      "type": "event"
    },
    {
      "anonymous": false,
      "inputs": [
        {
          "indexed": true,
          "name": "roomID",
          "type": "uint256"
        },
        {
          "indexed": false,
          "name": "option",
          "type": "bytes"
        },
        {
          "indexed": false,
          "name": "counts",
          "type": "uint256"
        },
        {
          "indexed": false,
          "name": "voters",
          "type": "address[]"
        }
      ],
      "name": "LOGroomResult",
      "type": "event"
    },
    {
      "anonymous": false,
      "inputs": [
        {
          "indexed": true,
          "name": "roomID",
          "type": "uint256"
        },
        {
          "indexed": true,
          "name": "sender",
          "type": "address"
        },
        {
          "indexed": false,
          "name": "options",
          "type": "bytes32[]"
        }
      ],
      "name": "LOGvoteNotify",
      "type": "event"
    },
    {
      "constant": false,
      "inputs": [
        {
          "name": "_til",
          "type": "string"
        },
        {
          "name": "_privateR",
          "type": "bool"
        },
        {
          "name": "_des",
          "type": "string"
        },
        {
          "name": "_expiredTime",
          "type": "uint256"
        }
      ],
      "name": "openRoom",
      "outputs": [
        {
          "name": "id",
          "type": "uint256"
        }
      ],
      "payable": false,
      "stateMutability": "nonpayable",
      "type": "function"
    },
    {
      "constant": false,
      "inputs": [
        {
          "name": "_roomID",
          "type": "uint256"
        },
        {
          "name": "_quest",
          "type": "string"
        },
        {
          "name": "_opt",
          "type": "bytes32[]"
        }
      ],
      "name": "addPoll",
      "outputs": [
        {
          "name": "pollNo",
          "type": "uint256"
        }
      ],
      "payable": false,
      "stateMutability": "nonpayable",
      "type": "function"
    },
    {
      "constant": true,
      "inputs": [
        {
          "name": "_roomID",
          "type": "uint256"
        }
      ],
      "name": "getNumberOfPolls",
      "outputs": [
        {
          "name": "",
          "type": "uint256"
        }
      ],
      "payable": false,
      "stateMutability": "view",
      "type": "function"
    },
    {
      "constant": false,
      "inputs": [
        {
          "name": "_id",
          "type": "uint256"
        }
      ],
      "name": "closeRoom",
      "outputs": [
        {
          "name": "",
          "type": "bool"
        }
      ],
      "payable": false,
      "stateMutability": "nonpayable",
      "type": "function"
    },
    {
      "constant": false,
      "inputs": [
        {
          "name": "_id",
          "type": "uint256"
        },
        {
          "name": "_voters",
          "type": "address[]"
        }
      ],
      "name": "setListVoters",
      "outputs": [
        {
          "name": "",
          "type": "bool"
        }
      ],
      "payable": false,
      "stateMutability": "nonpayable",
      "type": "function"
    },
    {
      "constant": false,
      "inputs": [
        {
          "name": "_roomID",
          "type": "uint256"
        },
        {
          "name": "_option",
          "type": "bytes32[]"
        }
      ],
      "name": "voteFor",
      "outputs": [],
      "payable": false,
      "stateMutability": "nonpayable",
      "type": "function"
    },
    {
      "constant": true,
      "inputs": [
        {
          "name": "x",
          "type": "bytes32"
        }
      ],
      "name": "bytes32ToString",
      "outputs": [
        {
          "name": "",
          "type": "string"
        }
      ],
      "payable": false,
      "stateMutability": "pure",
      "type": "function"
    }
  ],
  "bytecode": "0x6060604052341561000f57600080fd5b61183b8061001e6000396000f300606060405260043610610083576000357c0100000000000000000000000000000000000000000000000000000000900463ffffffff1680631c3a889214610088578063572ab162146100c35780635a192c011461018b57806380be87e0146102455780639201de551461027c578063a82a56011461031c578063fe7530541461037f575b600080fd5b341561009357600080fd5b6100a960048080359060200190919050506103fa565b604051808215151515815260200191505060405180910390f35b34156100ce57600080fd5b610175600480803590602001908201803590602001908080601f01602080910402602001604051908101604052809392919081815260200183838082843782019150505050505091908035151590602001909190803590602001908201803590602001908080601f016020809104026020016040519081016040528093929190818152602001838380828437820191505050505050919080359060200190919050506104cf565b6040518082815260200191505060405180910390f35b341561019657600080fd5b61022f600480803590602001909190803590602001908201803590602001908080601f01602080910402602001604051908101604052809392919081815260200183838082843782019150505050505091908035906020019082018035906020019080806020026020016040519081016040528093929190818152602001838360200280828437820191505050505050919050506108b3565b6040518082815260200191505060405180910390f35b341561025057600080fd5b6102666004808035906020019091905050610b84565b6040518082815260200191505060405180910390f35b341561028757600080fd5b6102a1600480803560001916906020019091905050610bb0565b6040518080602001828103825283818151815260200191508051906020019080838360005b838110156102e15780820151818401526020810190506102c6565b50505050905090810190601f16801561030e5780820380516001836020036101000a031916815260200191505b509250505060405180910390f35b341561032757600080fd5b61037d600480803590602001909190803590602001908201803590602001908080602002602001604051908101604052809392919081815260200183836020028082843782019150505050505091905050610d9d565b005b341561038a57600080fd5b6103e0600480803590602001909190803590602001908201803590602001908080602002602001604051908101604052809392919081815260200183836020028082843782019150505050505091905050611159565b604051808215151515815260200191505060405180910390f35b6000813373ffffffffffffffffffffffffffffffffffffffff1660008281548110151561042357fe5b90600052602060002090600a020160000160009054906101000a900473ffffffffffffffffffffffffffffffffffffffff1673ffffffffffffffffffffffffffffffffffffffff1614151561047757600080fd5b8261048181611358565b151561048c57600080fd5b6000808581548110151561049c57fe5b90600052602060002090600a020160090160006101000a81548160ff021916908315150217905550600192505050919050565b600080805490509050600080548091906001016104ec91906113e6565b50806000828154811015156104fd57fe5b90600052602060002090600a0201600101819055503360008281548110151561052257fe5b90600052602060002090600a020160000160006101000a81548173ffffffffffffffffffffffffffffffffffffffff021916908373ffffffffffffffffffffffffffffffffffffffff1602179055508260008281548110151561058157fe5b90600052602060002090600a020160050190805190602001906105a5929190611418565b50846000828154811015156105b657fe5b90600052602060002090600a020160020190805190602001906105da929190611418565b50836000828154811015156105eb57fe5b90600052602060002090600a020160030160006101000a81548160ff0219169083151502179055508160008281548110151561062357fe5b90600052602060002090600a020160080181905550600160008281548110151561064957fe5b90600052602060002090600a020160090160006101000a81548160ff02191690831515021790555060008181548110151561068057fe5b90600052602060002090600a020160000160009054906101000a900473ffffffffffffffffffffffffffffffffffffffff1673ffffffffffffffffffffffffffffffffffffffff16817fa2b5ca96e1c5de8e9a5a72d3726d31afed57fde16bcf46dbf75a1ddcc2a0df096000848154811015156106f957fe5b90600052602060002090600a020160020160008581548110151561071957fe5b90600052602060002090600a020160050160008681548110151561073957fe5b90600052602060002090600a020160030160009054906101000a900460ff1660008781548110151561076757fe5b90600052602060002090600a020160080154604051808060200180602001851515151581526020018481526020018381038352878181546001816001161561010002031660029004815260200191508054600181600116156101000203166002900480156108165780601f106107eb57610100808354040283529160200191610816565b820191906000526020600020905b8154815290600101906020018083116107f957829003601f168201915b50508381038252868181546001816001161561010002031660029004815260200191508054600181600116156101000203166002900480156108995780601f1061086e57610100808354040283529160200191610899565b820191906000526020600020905b81548152906001019060200180831161087c57829003601f168201915b5050965050505050505060405180910390a3949350505050565b6000833373ffffffffffffffffffffffffffffffffffffffff166000828154811015156108dc57fe5b90600052602060002090600a020160000160009054906101000a900473ffffffffffffffffffffffffffffffffffffffff1673ffffffffffffffffffffffffffffffffffffffff1614151561093057600080fd5b8461093a81611358565b151561094557600080fd5b60008681548110151561095457fe5b90600052602060002090600a020160040180549050925060008681548110151561097a57fe5b90600052602060002090600a0201600401805480919060010161099d9190611498565b50846000878154811015156109ae57fe5b90600052602060002090600a0201600401848154811015156109cc57fe5b906000526020600020906002020160000190805190602001906109f0929190611418565b506109fc86848661138e565b82867fa07ff47130ada328502f2b954ef63cb0306148ca86fe6b9468d2794128b87743600089815481101515610a2e57fe5b90600052602060002090600a020160040186815481101515610a4c57fe5b906000526020600020906002020160000160008a815481101515610a6c57fe5b90600052602060002090600a020160040187815481101515610a8a57fe5b9060005260206000209060020201600101604051808060200180602001838103835285818154600181600116156101000203166002900481526020019150805460018160011615610100020316600290048015610b285780601f10610afd57610100808354040283529160200191610b28565b820191906000526020600020905b815481529060010190602001808311610b0b57829003601f168201915b50508381038252848181548152602001915080548015610b6b57602002820191906000526020600020905b81546000191681526020019060010190808311610b53575b505094505050505060405180910390a350509392505050565b60008082815481101515610b9457fe5b90600052602060002090600a0201600401805490509050919050565b610bb86114ca565b610bc06114de565b6000806000610bcd6114de565b6020604051805910610bdc5750595b9080825280601f01601f1916602001820160405250945060009350600092505b6020831015610cba578260080260020a876001900402600102915060007f010000000000000000000000000000000000000000000000000000000000000002827effffffffffffffffffffffffffffffffffffffffffffffffffffffffffffff1916141515610cad57818585815181101515610c7457fe5b9060200101907effffffffffffffffffffffffffffffffffffffffffffffffffffffffffffff1916908160001a90535083806001019450505b8280600101935050610bfc565b83604051805910610cc85750595b9080825280601f01601f19166020018201604052509050600092505b83831015610d90578483815181101515610cfa57fe5b9060200101517f010000000000000000000000000000000000000000000000000000000000000090047f0100000000000000000000000000000000000000000000000000000000000000028184815181101515610d5357fe5b9060200101907effffffffffffffffffffffffffffffffffffffffffffffffffffffffffffff1916908160001a9053508280600101935050610ce4565b8095505050505050919050565b60008083815481101515610dad57fe5b90600052602060002090600a020160060160000160003373ffffffffffffffffffffffffffffffffffffffff1673ffffffffffffffffffffffffffffffffffffffff168152602001908152602001600020600101600084815260200190815260200160002060000160009054906101000a900460ff16151515610e2c57fe5b600083815481101515610e3b57fe5b90600052602060002090600a020160030160009054906101000a900460ff16156110c757600090505b600083815481101515610e7357fe5b90600052602060002090600a0201600601600101805490508110156110c257600083815481101515610ea157fe5b90600052602060002090600a020160060160010181815481101515610ec257fe5b906000526020600020900160009054906101000a900473ffffffffffffffffffffffffffffffffffffffff1673ffffffffffffffffffffffffffffffffffffffff163373ffffffffffffffffffffffffffffffffffffffff1614156110b55781600084815481101515610f3157fe5b90600052602060002090600a020160060160000160003373ffffffffffffffffffffffffffffffffffffffff1673ffffffffffffffffffffffffffffffffffffffff16815260200190815260200160002060010160008581526020019081526020016000206001019080519060200190610fac9291906114f2565b506001600084815481101515610fbe57fe5b90600052602060002090600a020160060160000160003373ffffffffffffffffffffffffffffffffffffffff1673ffffffffffffffffffffffffffffffffffffffff168152602001908152602001600020600101600085815260200190815260200160002060000160006101000a81548160ff02191690831515021790555060008381548110151561104c57fe5b90600052602060002090600a020160060160000160003373ffffffffffffffffffffffffffffffffffffffff1673ffffffffffffffffffffffffffffffffffffffff16815260200190815260200160002060000160008154809291906001019190505550611154565b8080600101915050610e64565b600080fd5b816000848154811015156110d757fe5b90600052602060002090600a020160060160000160003373ffffffffffffffffffffffffffffffffffffffff1673ffffffffffffffffffffffffffffffffffffffff168152602001908152602001600020600101600083815260200190815260200160002060010190805190602001906111529291906114f2565b505b505050565b6000823373ffffffffffffffffffffffffffffffffffffffff1660008281548110151561118257fe5b90600052602060002090600a020160000160009054906101000a900473ffffffffffffffffffffffffffffffffffffffff1673ffffffffffffffffffffffffffffffffffffffff161415156111d657600080fd5b836111e081611358565b15156111eb57600080fd5b846000818154811015156111fb57fe5b90600052602060002090600a020160030160009054906101000a900460ff16151561122557600080fd5b8460008781548110151561123557fe5b90600052602060002090600a0201600601600101908051906020019061125c929190611545565b5060008681548110151561126c57fe5b90600052602060002090600a0201600101547f19b82506b3313c2dd5d3d7062965522938d291754bdf64c433f06c2a5b5f58976000888154811015156112ae57fe5b90600052602060002090600a02016006016001016040518080602001828103825283818154815260200191508054801561133d57602002820191906000526020600020905b8160009054906101000a900473ffffffffffffffffffffffffffffffffffffffff1673ffffffffffffffffffffffffffffffffffffffff16815260200190600101908083116112f3575b50509250505060405180910390a26001935050505092915050565b6000808281548110151561136857fe5b90600052602060002090600a020160090160009054906101000a900460ff169050919050565b8060008481548110151561139e57fe5b90600052602060002090600a0201600401838154811015156113bc57fe5b906000526020600020906002020160010190805190602001906113e09291906114f2565b50505050565b81548183558181151161141357600a0281600a02836000526020600020918201910161141291906115cf565b5b505050565b828054600181600116156101000203166002900490600052602060002090601f016020900481019282601f1061145957805160ff1916838001178555611487565b82800160010185558215611487579182015b8281111561148657825182559160200191906001019061146b565b5b5090506114949190611695565b5090565b8154818355818115116114c5576002028160020283600052602060002091820191016114c491906116ba565b5b505050565b602060405190810160405280600081525090565b602060405190810160405280600081525090565b828054828255906000526020600020908101928215611534579160200282015b82811115611533578251829060001916905591602001919060010190611512565b5b50905061154191906116f9565b5090565b8280548282559060005260206000209081019282156115be579160200282015b828111156115bd5782518260006101000a81548173ffffffffffffffffffffffffffffffffffffffff021916908373ffffffffffffffffffffffffffffffffffffffff16021790555091602001919060010190611565565b5b5090506115cb919061171e565b5090565b61169291905b8082111561168e57600080820160006101000a81549073ffffffffffffffffffffffffffffffffffffffff0219169055600182016000905560028201600061161d9190611761565b6003820160006101000a81549060ff021916905560048201600061164191906117a9565b6005820160006116519190611761565b60068201600060018201600061166791906117cd565b505060088201600090556009820160006101000a81549060ff021916905550600a016115d5565b5090565b90565b6116b791905b808211156116b357600081600090555060010161169b565b5090565b90565b6116f691905b808211156116f257600080820160006116d99190611761565b6001820160006116e991906117ee565b506002016116c0565b5090565b90565b61171b91905b808211156117175760008160009055506001016116ff565b5090565b90565b61175e91905b8082111561175a57600081816101000a81549073ffffffffffffffffffffffffffffffffffffffff021916905550600101611724565b5090565b90565b50805460018160011615610100020316600290046000825580601f1061178757506117a6565b601f0160209004906000526020600020908101906117a59190611695565b5b50565b50805460008255600202906000526020600020908101906117ca91906116ba565b50565b50805460008255906000526020600020908101906117eb9190611695565b50565b508054600082559060005260206000209081019061180c91906116f9565b505600a165627a7a72305820549d75a480f60839e6d01a74287bce2795e68a6e747edeb18d81349a07e5f7a90029",
  "source": "/**\r\n * ver 1.2.1\r\n * \r\n * add private/public property of a vote\r\n * \r\n * -----------------------------------------------------\r\n * ver 1.2.0\r\n * \r\n * create room(s) to vote\r\n * only add/set option/list voters/cast ballot for opening rooms\r\n * voted voter cannot cast another vote\r\n * \r\n * -----------------------------------------------------\r\n * ver1.1.4\r\n * \r\n * add contract event\r\n * \r\n * -----------------------------------------------------\r\n * ver1.1.3\r\n * \r\n * add modifier to control vote, ballot, 1 address - 1 vote\r\n * check duplicate option when initiate the contract\r\n * \r\n * -----------------------------------------------------\r\n * ver1.1.2\r\n * \r\n * update\r\n *      add expired time: close the vote when time is up-to-date\r\n *      add list voters who can vote\r\n *          if the list is left empty, everyone can join the vote\r\n *          otherwise, only the ones in the list can cast vote\r\n *      get ballot of an address\r\n * \r\n * -----------------------------------------------------\r\n * ver1.1.1\r\n * \r\n * update\r\n *      add algorithm check 1 address - 1 vote\r\n * add new:\r\n *  property: \r\n *      voted\r\n *  method:\r\n *      (none)\r\n * remove:\r\n *      (none)\r\n * \r\n * -----------------------------------------------------\r\n * ver1.1.0\r\n * \r\n * update\r\n *      VotFor\r\n *      change the way managing the ballot\r\n *          voteOf => listVotersOf\r\n *      getCountOf => getCountOf\r\n * add new:\r\n *  property: \r\n *      owner\r\n *      listVotersOf\r\n *  method:\r\n *      getListVoterOf\r\n * remove:\r\n *      voteOf\r\n *      getCountOf\r\n * \r\n * -----------------------------------------------------\r\n * ver1\r\n * \r\n * add option when call the contract\r\n * vote for an option\r\n * convert option(bytes32) to string\r\n * get option vote\r\n * only available option can be voted\r\n * \r\n */\r\n \r\n \r\n pragma solidity ^0.4.18;\r\n \r\n \r\n contract votingVer1_3_0 \r\n {\r\n    room[] rooms;\r\n    \r\n    struct room\r\n    {\r\n        address owner;\r\n        uint id;\r\n        string title;\r\n        bool privateRoom;\r\n        Poll[] poll;\r\n        string descript;\r\n        ListVoters listVoters;\r\n        uint expiredTime;\r\n        bool open;\r\n    }\r\n    \r\n    struct Voter\r\n    {\r\n        uint point;\r\n        mapping(uint => Ballot) ballot;//roomID => ballot\r\n    }\r\n    \r\n    struct Ballot\r\n    {\r\n        bool voted;\r\n        bytes32[] voteFor;\r\n    }\r\n    \r\n    struct ListVoters\r\n    {\r\n        mapping (address => Voter) voter;\r\n        address[] addrs;\r\n    }\r\n    \r\n    struct Poll\r\n    {\r\n        string questions;\r\n        bytes32[] options;\r\n        //mapping(bytes32 => address[]) listVotersOf;\r\n        //bytes32[] res;\r\n    }\r\n\r\n    \r\n    event LOGroomOpened(uint indexed roomID, address indexed owner,string title, string descript, bool privateRoom, uint expiredTime);\r\n    event LOGaddListVoter(uint indexed roomID, address[] list);\r\n    event LOGpollingAdded(uint indexed roomID,uint indexed pollID, string question, bytes32[] options);\r\n    event LOGpollingOptionAdded(uint indexed roomID,uint indexed pollID, string question, bytes32[] option);\r\n    event LOGroomClosed(uint indexed roomID, bytes result);\r\n    event LOGoptions(uint indexed roomID, bytes[] options);\r\n    event LOGlistVotersOf(uint indexed roomID, bytes option, address[] voters);\r\n    //event roomInfo(uint indexed id, address indexed owner, bytes32[] options, bytes32 description, listVoter);\r\n    event LOGroomResult(uint indexed roomID, bytes option, uint counts, address[] voters);\r\n    \r\n    event LOGvoteNotify(uint indexed roomID, address indexed sender, bytes32[] options);\r\n    \r\n    modifier owned(uint _RoomID)\r\n    {\r\n       require(rooms[_RoomID].owner == msg.sender);\r\n       _;\r\n    }\r\n    \r\n    modifier roomOpening(uint _RoomID) \r\n    {\r\n        require(checkOpen(_RoomID));\r\n        _;\r\n    }\r\n    \r\n    modifier roomClosed(uint _RoomID) \r\n    {\r\n        require(!checkOpen(_RoomID));\r\n        _;\r\n    }\r\n    \r\n\r\n    modifier listVoterEmpty(uint _RoomID)\r\n    {\r\n        require(rooms[_RoomID].listVoters.addrs.length == 0);\r\n        _;\r\n    }\r\n    \r\n    modifier privateRoom(uint _RoomID)\r\n    {\r\n        require(rooms[_RoomID].privateRoom);\r\n        _;\r\n    }\r\n    \r\n    function votingVer1_3_0()\r\n        public \r\n    {\r\n        \r\n    }\r\n    \r\n     function openRoom(string _til, bool _privateR, string _des, uint _expiredTime) public returns (uint id)\r\n    {\r\n        id = rooms.length;\r\n        rooms.length++;\r\n        rooms[id].id = id;\r\n        rooms[id].owner = msg.sender;\r\n        rooms[id].descript = _des;\r\n        rooms[id].title = _til;\r\n        rooms[id].privateRoom = _privateR;\r\n        rooms[id].expiredTime = _expiredTime;\r\n        rooms[id].open = true;\r\n        LOGroomOpened(id, rooms[id].owner,rooms[id].title, rooms[id].descript, rooms[id].privateRoom, rooms[id].expiredTime);\r\n    }\r\n    \r\n    function addPoll(uint _roomID, string _quest, bytes32[] _opt) \r\n            owned(_roomID)\r\n            roomOpening(_roomID)\r\n            public returns(uint pollNo)\r\n    {\r\n        pollNo = rooms[_roomID].poll.length;\r\n        rooms[_roomID].poll.length++;\r\n        rooms[_roomID].poll[pollNo].questions = _quest;\r\n        addPollOption(_roomID, pollNo, _opt);\r\n        LOGpollingAdded(_roomID, pollNo, rooms[_roomID].poll[pollNo].questions, rooms[_roomID].poll[pollNo].options);\r\n    }\r\n\r\n    function addPollOption(uint _id, uint _pollNo, bytes32[] _opt) \r\n            // owned(_id)\r\n            // roomOpening(_id)\r\n            private\r\n    {\r\n        rooms[_id].poll[_pollNo].options = _opt;\r\n        //LOGpollingOptionAdded(_id, _pollNo, rooms[_id].poll[_pollNo].questions[_pollNo], rooms[_id].poll[_pollNo].options[rooms[_id].poll[_pollNo].questions[_pollNo]]);\r\n    }\r\n    \r\n    function getNumberOfPolls(uint _roomID) public view returns(uint)\r\n    {\r\n        return rooms[_roomID].poll.length;\r\n    }\r\n    \r\n    function closeRoom(uint _id) \r\n            owned(_id) \r\n            roomOpening(_id) public returns (bool)\r\n    {\r\n        rooms[_id].open = false;\r\n        //calculateRoomResult(_id);\r\n       // LOGroomClosed(rooms[_id].id, rooms[_id].result);\r\n        return true;\r\n    }\r\n    \r\n    function checkOpen(uint _id) private view returns(bool)\r\n    {\r\n        return rooms[_id].open;\r\n    }\r\n    \r\n    \r\n    // function setOption(uint _id, bytes _option) \r\n    //       // owned(_id) \r\n    //         //roomOpening(_id)\r\n    //         //optionEmpty(_id)\r\n    //         public returns (bool)\r\n    // {\r\n        \r\n    //     //rooms[_id].options = _option;\r\n    //     //LOGaddOptions(rooms[_id].id, rooms[_id].options);\r\n    //     return true;\r\n    // }\r\n    \r\n    function setListVoters(uint _id, address[] _voters) \r\n            owned(_id)\r\n            roomOpening(_id)\r\n            privateRoom(_id)\r\n            public returns (bool)\r\n    {\r\n        rooms[_id].listVoters.addrs = _voters;\r\n        LOGaddListVoter(rooms[_id].id, rooms[_id].listVoters.addrs);\r\n        return true;\r\n    }\r\n    \r\n    // function addOption(uint _id, bytes _option) \r\n    //         owned(_id) \r\n    //         roomOpening(_id)\r\n    //         public returns(bool)\r\n    // {\r\n    //     rooms[_id].options.push(_option);\r\n    //     return true;\r\n    // }\r\n    \r\n    function voteFor(uint _roomID, bytes32[] _option) public\r\n    {\r\n        assert(!rooms[_roomID].listVoters.voter[msg.sender].ballot[_roomID].voted);\r\n        if(rooms[_roomID].privateRoom)\r\n        {\r\n            for(uint i= 0; i < rooms[_roomID].listVoters.addrs.length ; i++)\r\n            {\r\n                if(msg.sender == rooms[_roomID].listVoters.addrs[i])\r\n                {\r\n                    rooms[_roomID].listVoters.voter[msg.sender].ballot[_roomID].voteFor = _option;\r\n                   rooms[_roomID].listVoters.voter[msg.sender].ballot[_roomID].voted = true;\r\n                    rooms[_roomID].listVoters.voter[msg.sender].point ++;\r\n                    return;\r\n                }\r\n            }\r\n            revert();\r\n        }\r\n        rooms[_roomID].listVoters.voter[msg.sender].ballot[i].voteFor = _option;\r\n        \r\n          \r\n        // for(j = 0; j < getNumberOfPolls(_roomID); j++)\r\n        // {\r\n        //     rooms[_roomID].listVoters.voter[msg.sender].ballot[j].voteFor[j] = _option[j];\r\n        //     //rooms[_roomID].listVoters.voter[msg.sender].ballot[j].\r\n        //     rooms[_roomID].poll[j].listVotersOf[_option[j]].push(msg.sender);\r\n            \r\n        // }\r\n        // rooms[_roomID].listVoters.voter[msg.sender].ballot[_roomID].voted[_roomID] = true;\r\n        // rooms[_roomID].listVoters.voter[msg.sender].point ++;\r\n        // rooms[_roomID].listVoters.addrs.push(msg.sender);\r\n        \r\n        //rooms[_roomID].listVoters.voter[msg.sender].ballot[msg.sender].voteFor[_pollNo] = _option;\r\n    }\r\n    // function getCountOf(uint _roomID, uint _pollNo, bytes32 _option) public view returns(uint)\r\n    // {\r\n    //     return rooms[_roomID].poll[_pollNo].listVotersOf[_option].length;\r\n    // }\r\n    // function VoteFor(uint _id, bytes _option) \r\n    //             roomOpening(_id)\r\n    //             // validOption(_option) \r\n    //             // notVoted(msg.sender)  \r\n    //             //hasVoter(msg.sender)\r\n    //             public returns (bool)\r\n    // {   \r\n    //     if(rooms[_id].privateRoom)\r\n    //     {\r\n    //         for(uint i= 0; i < rooms[_id].listVoters.Addrs.length ; i++)\r\n    //         {\r\n    //             if(msg.sender == rooms[_id].listVoters.Addrs[i])\r\n    //             {\r\n    //                 rooms[_id].listVoters.voter[msg.sender].ballot[msg.sender] = _option;\r\n    //                 rooms[_id].listVotersOf[_option].push(msg.sender);\r\n    //                 rooms[_id].listVoters.voter[msg.sender].voted = true;\r\n    //                 rooms[_id].listVoters.voter[msg.sender].point[msg.sender]++;\r\n    //                 LOGvoteNotify(rooms[_id].id,msg.sender, rooms[_id].listVoters.voter[msg.sender].ballot[msg.sender]);\r\n    //             }\r\n    //         }\r\n    //         revert();\r\n    //         return false;\r\n    //     }\r\n    //     rooms[_id].listVoters.voter[msg.sender].ballot[msg.sender] = _option;\r\n    //     rooms[_id].listVoters.voter[msg.sender].voted = true;\r\n    //     rooms[_id].listVotersOf[_option].push(msg.sender);\r\n    //     rooms[_id].listVoters.voter[msg.sender].point[msg.sender]++;\r\n    //     LOGvoteNotify(rooms[_id].id,msg.sender, rooms[_id].listVoters.voter[msg.sender].ballot[msg.sender]);\r\n    //     return true;\r\n    // }\r\n    // function calculateRoomResult(uint _id) private returns(bytes)\r\n    // {\r\n    //     bytes memory res;\r\n    //     uint temp;\r\n    //     res = rooms[_id].options[0];\r\n    //     temp = getCountOf(_id, rooms[_id].options[0]);\r\n    //     for(uint i = 1; i < rooms[_id].options.length; i++)\r\n    //     { \r\n    //         if(temp < getCountOf(_id, rooms[_id].options[i]))\r\n    //         {\r\n    //             temp = getCountOf(_id, rooms[_id].options[i]);     \r\n    //             res = rooms[_id].options[i];\r\n    //         }\r\n    //     }\r\n    //     rooms[_id].result = res;\r\n    //     return rooms[_id].result;\r\n    // }\r\n    \r\n    // function getRoomResult(uint _id) roomClosed(_id) public view returns(bytes)\r\n    // {\r\n    //     return rooms[_id].result;\r\n    // }\r\n    \r\n    // function getCountOf(uint _id, bytes _option) public constant returns(uint){\r\n    //     //require(vailableCandidate(_addr));\r\n    //     return rooms[_id].listVotersOf[_option].length;\r\n    // }\r\n    \r\n    // function getListVoterOf(uint _id, bytes _option) public view returns(address[])\r\n    // {\r\n    //     return rooms[_id].listVotersOf[_option];\r\n    // }\r\n    // function getOptions(uint _id) public view returns(bytes[])\r\n    // {\r\n    //     return rooms[_id].options;\r\n    // }\r\n    \r\n    // function getVoteOf(uint _id, address _addr) public view returns(bytes)\r\n    // {\r\n    //     if(rooms[_id].listVoters.voter[_addr].voted == true)\r\n    //     {\r\n    //         return (rooms[_id].listVoters.voter[_addr].ballot[_addr]);\r\n    //     }\r\n    // }\r\n    \r\n    \r\n//     function checkInitiateOption(bytes32[] _option) private pure returns(bool)\r\n//     {\r\n//         for(uint i = 0; i <= _option.length - 1; i++){\r\n//             var temp = _option[i];\r\n//             for(uint j = i+1; j <= _option.length-1; j++){\r\n//                 if (temp == _option[j] )\r\n//                 {\r\n//                     return false;\r\n//                 }\r\n//             }\r\n//         }\r\n//         return true;\r\n//     }\r\n    \r\n    \r\n    \r\n    \r\n//   function checkVailableOption(bytes32 _n) private view returns(bool)\r\n//     {\r\n//         for(uint i = 0; i < opt.length; i++)\r\n//         {\r\n//             if(opt[i] == _n)\r\n//             {\r\n//                 return true;\r\n//             }    \r\n//         }\r\n//         return false;\r\n//     }\r\n    \r\n//     function checkVailableVoter(address _addr) private view returns(bool)\r\n//     {\r\n//         for(uint i = 0; i < voters.length; i++)\r\n//         {\r\n//             if(voters[i] == _addr)\r\n//             {\r\n//                 return true;\r\n//             }\r\n//         }\r\n//         return false;\r\n//     }\r\n\r\n//     modifier validInitiate(bytes32[] _option) \r\n//     {\r\n//         if(_option.length != 0)\r\n//         {\r\n//             require(checkInitiateOption(_option));    \r\n//         }\r\n        \r\n//         _;    \r\n//     }\r\n//     modifier validOption(bytes32 _option)\r\n//     {\r\n//         require(!checkVailableOption(_option));\r\n//         _;\r\n       \r\n//     }\r\n//     modifier notVoted(address _addr)\r\n//     {\r\n       \r\n//         require(voted[_addr] == false);\r\n//         _;\r\n       \r\n//     }\r\n//     // modifier validVoter(address _addr)\r\n//     // {\r\n//     //     require(checkVailableVoter(_addr));\r\n//     //     _;\r\n        \r\n//     // }\r\n    // modifier hasVoter(address _addr){\r\n    //     if(voters.length != 0)\r\n    //     {\r\n    //         require(checkVailableVoter(_addr) == true);    \r\n    //     }\r\n    //     _;\r\n       \r\n    // }\r\n    \r\n//     function addOption(bytes32 _n) \r\n//             validOption(_n)\r\n//             public\r\n//     {\r\n//         notify(msg.sender, bytes32ToString(_n), \"option added\");\r\n//         opt.push(_n);\r\n//     }\r\n//     function addVoter(address _addr) public\r\n//     {\r\n//         voters.push(_addr);\r\n//     }\r\n    \r\n//     function getOptions() public view returns(bytes32[])\r\n//     {\r\n//         return opt;\r\n//     }\r\n     \r\n//     function getListVoters() public view returns(address[])\r\n//     {\r\n//         return voters;\r\n//     }\r\n    \r\n//     function getOptionByIndex(uint _i) private view returns(string)\r\n//     {\r\n//         return bytes32ToString(opt[_i]);\r\n//     }\r\n    \r\n    \r\n    function bytes32ToString(bytes32 x) public pure returns (string) \r\n    {\r\n        bytes memory bytesString = new bytes(32);\r\n        uint charCount = 0;\r\n        for (uint j = 0; j < 32; j++) \r\n        {\r\n            byte char = byte(bytes32(uint(x) * 2 ** (8 * j)));\r\n            if (char != 0) \r\n            {\r\n                bytesString[charCount] = char;\r\n                charCount++;\r\n            }\r\n        }\r\n        bytes memory bytesStringTrimmed = new bytes(charCount);\r\n        for (j = 0; j < charCount; j++) \r\n        {\r\n            bytesStringTrimmed[j] = bytesString[j];\r\n        }\r\n        return string(bytesStringTrimmed);\r\n    }\r\n//   /* \r\n//     modifier validopt(bytes32 _n){\r\n//         for(uint i=0; i < opt.length; i++){\r\n//             if(opt[i] == _n){\r\n//                 return true;\r\n//             }   \r\n//         }\r\n//         return false;\r\n//         _;\r\n        \r\n//     }\r\n//     */\r\n\r\n//     function VoteFor(bytes32 _option) \r\n//                 validOption(_option) \r\n//                 notVoted(msg.sender)  \r\n//                 hasVoter(msg.sender)\r\n//                 public\r\n//     {\r\n//         ballotOf[msg.sender] = _option;\r\n//         listVotersOf[_option].push(msg.sender);\r\n//         voted[msg.sender] = true;\r\n//         notify(msg.sender, bytes32ToString(_option), \"voted\");\r\n//     }\r\n }",
  "sourcePath": "C:\\Users\\PMM81HC\\Desktop\\Experiment\\VoteChain\\contracts\\votingVer1_3_0 .sol",
  "compiler": {
    "name": "solc",
    "version": "0.4.19+commit.c4cbbb05.Emscripten.clang"
  },
  "schemaVersion": "2.0.0",
  "updatedAt": "2018-03-23T07:54:45.346Z"
}