{
  "contractName": "voting",
  "abi": [
    {
      "constant": true,
      "inputs": [],
      "name": "getAccountInfo",
      "outputs": [
        {
          "name": "",
          "type": "bytes8"
        }
      ],
      "payable": false,
      "stateMutability": "view",
      "type": "function"
    },
    {
      "constant": false,
      "inputs": [
        {
          "name": "_id",
          "type": "bytes8"
        }
      ],
      "name": "createAcc",
      "outputs": [
        {
          "name": "",
          "type": "bool"
        }
      ],
      "payable": false,
      "stateMutability": "nonpayable",
      "type": "function"
    },
    {
      "constant": true,
      "inputs": [
        {
          "name": "",
          "type": "uint256"
        }
      ],
      "name": "listAddressAccount",
      "outputs": [
        {
          "name": "",
          "type": "address"
        }
      ],
      "payable": false,
      "stateMutability": "view",
      "type": "function"
    },
    {
      "constant": true,
      "inputs": [],
      "name": "getListAccounts",
      "outputs": [
        {
          "name": "",
          "type": "address[]"
        }
      ],
      "payable": false,
      "stateMutability": "view",
      "type": "function"
    },
    {
      "inputs": [],
      "payable": false,
      "stateMutability": "nonpayable",
      "type": "constructor"
    },
    {
      "anonymous": false,
      "inputs": [
        {
          "indexed": true,
          "name": "roomID",
          "type": "uint256"
        },
        {
          "indexed": true,
          "name": "owner",
          "type": "address"
        },
        {
          "indexed": false,
          "name": "title",
          "type": "string"
        },
        {
          "indexed": false,
          "name": "descript",
          "type": "string"
        },
        {
          "indexed": false,
          "name": "privateRoom",
          "type": "bool"
        },
        {
          "indexed": false,
          "name": "expiredTime",
          "type": "uint256"
        }
      ],
      "name": "LOGroomOpened",
      "type": "event"
    },
    {
      "anonymous": false,
      "inputs": [
        {
          "indexed": true,
          "name": "roomID",
          "type": "uint256"
        },
        {
          "indexed": false,
          "name": "list",
          "type": "address[]"
        }
      ],
      "name": "LOGaddListVoter",
      "type": "event"
    },
    {
      "anonymous": false,
      "inputs": [
        {
          "indexed": true,
          "name": "roomID",
          "type": "uint256"
        },
        {
          "indexed": true,
          "name": "pollID",
          "type": "uint256"
        },
        {
          "indexed": false,
          "name": "question",
          "type": "string"
        },
        {
          "indexed": false,
          "name": "options",
          "type": "bytes32[]"
        }
      ],
      "name": "LOGpollingAdded",
      "type": "event"
    },
    {
      "anonymous": false,
      "inputs": [
        {
          "indexed": true,
          "name": "roomID",
          "type": "uint256"
        }
      ],
      "name": "LOGroomClosed",
      "type": "event"
    },
    {
      "anonymous": false,
      "inputs": [
        {
          "indexed": true,
          "name": "roomID",
          "type": "uint256"
        },
        {
          "indexed": false,
          "name": "options",
          "type": "bytes[]"
        }
      ],
      "name": "LOGoptions",
      "type": "event"
    },
    {
      "anonymous": false,
      "inputs": [
        {
          "indexed": true,
          "name": "roomID",
          "type": "uint256"
        },
        {
          "indexed": false,
          "name": "option",
          "type": "bytes"
        },
        {
          "indexed": false,
          "name": "voters",
          "type": "address[]"
        }
      ],
      "name": "LOGlistVotersOf",
      "type": "event"
    },
    {
      "anonymous": false,
      "inputs": [
        {
          "indexed": true,
          "name": "roomID",
          "type": "uint256"
        },
        {
          "indexed": false,
          "name": "option",
          "type": "bytes"
        },
        {
          "indexed": false,
          "name": "counts",
          "type": "uint256"
        },
        {
          "indexed": false,
          "name": "voters",
          "type": "address[]"
        }
      ],
      "name": "LOGroomResult",
      "type": "event"
    },
    {
      "anonymous": false,
      "inputs": [
        {
          "indexed": true,
          "name": "roomID",
          "type": "uint256"
        },
        {
          "indexed": true,
          "name": "sender",
          "type": "address"
        },
        {
          "indexed": false,
          "name": "options",
          "type": "bytes32[]"
        }
      ],
      "name": "LOGvoteNotify",
      "type": "event"
    },
    {
      "anonymous": false,
      "inputs": [
        {
          "indexed": false,
          "name": "roomID",
          "type": "uint256"
        },
        {
          "indexed": false,
          "name": "pollNo",
          "type": "uint256"
        },
        {
          "indexed": false,
          "name": "option",
          "type": "bytes32"
        },
        {
          "indexed": false,
          "name": "count",
          "type": "uint256"
        }
      ],
      "name": "LOGcountOf",
      "type": "event"
    },
    {
      "anonymous": false,
      "inputs": [
        {
          "indexed": false,
          "name": "roomID",
          "type": "uint256"
        },
        {
          "indexed": false,
          "name": "pollNo",
          "type": "uint256"
        },
        {
          "indexed": false,
          "name": "option",
          "type": "bytes32"
        },
        {
          "indexed": false,
          "name": "voter",
          "type": "address[]"
        }
      ],
      "name": "LOGvoterOf",
      "type": "event"
    },
    {
      "anonymous": false,
      "inputs": [
        {
          "indexed": false,
          "name": "id",
          "type": "bytes8"
        },
        {
          "indexed": false,
          "name": "addr",
          "type": "address"
        },
        {
          "indexed": false,
          "name": "point",
          "type": "uint256"
        }
      ],
      "name": "LOGaccountInfo",
      "type": "event"
    },
    {
      "constant": true,
      "inputs": [
        {
          "name": "_roomID",
          "type": "uint256"
        },
        {
          "name": "_voter",
          "type": "address"
        }
      ],
      "name": "checkVailableVoter",
      "outputs": [
        {
          "name": "",
          "type": "bool"
        }
      ],
      "payable": false,
      "stateMutability": "view",
      "type": "function"
    },
    {
      "constant": false,
      "inputs": [
        {
          "name": "_til",
          "type": "string"
        },
        {
          "name": "_privateR",
          "type": "bool"
        },
        {
          "name": "_des",
          "type": "string"
        },
        {
          "name": "_expiredTime",
          "type": "uint256"
        }
      ],
      "name": "openRoom",
      "outputs": [
        {
          "name": "id",
          "type": "uint256"
        }
      ],
      "payable": false,
      "stateMutability": "nonpayable",
      "type": "function"
    },
    {
      "constant": false,
      "inputs": [
        {
          "name": "_roomID",
          "type": "uint256"
        },
        {
          "name": "_quest",
          "type": "string"
        },
        {
          "name": "_opt",
          "type": "bytes32[]"
        }
      ],
      "name": "addPoll",
      "outputs": [
        {
          "name": "pollNo",
          "type": "uint256"
        }
      ],
      "payable": false,
      "stateMutability": "nonpayable",
      "type": "function"
    },
    {
      "constant": true,
      "inputs": [
        {
          "name": "_roomID",
          "type": "uint256"
        }
      ],
      "name": "getNumberOfPolls",
      "outputs": [
        {
          "name": "",
          "type": "uint256"
        }
      ],
      "payable": false,
      "stateMutability": "view",
      "type": "function"
    },
    {
      "constant": false,
      "inputs": [
        {
          "name": "_id",
          "type": "uint256"
        }
      ],
      "name": "closeRoom",
      "outputs": [
        {
          "name": "",
          "type": "bool"
        }
      ],
      "payable": false,
      "stateMutability": "nonpayable",
      "type": "function"
    },
    {
      "constant": false,
      "inputs": [
        {
          "name": "_id",
          "type": "uint256"
        },
        {
          "name": "_voters",
          "type": "address[]"
        }
      ],
      "name": "setListVoters",
      "outputs": [
        {
          "name": "",
          "type": "bool"
        }
      ],
      "payable": false,
      "stateMutability": "nonpayable",
      "type": "function"
    },
    {
      "constant": false,
      "inputs": [
        {
          "name": "_roomID",
          "type": "uint256"
        },
        {
          "name": "_options",
          "type": "bytes32[]"
        }
      ],
      "name": "voteFor",
      "outputs": [],
      "payable": false,
      "stateMutability": "nonpayable",
      "type": "function"
    },
    {
      "constant": false,
      "inputs": [
        {
          "name": "_roomID",
          "type": "uint256"
        },
        {
          "name": "_ids",
          "type": "bytes8[]"
        }
      ],
      "name": "setListVotersByID",
      "outputs": [
        {
          "name": "",
          "type": "bool"
        }
      ],
      "payable": false,
      "stateMutability": "nonpayable",
      "type": "function"
    },
    {
      "constant": true,
      "inputs": [
        {
          "name": "_roomID",
          "type": "uint256"
        }
      ],
      "name": "getListVoterOf",
      "outputs": [
        {
          "name": "",
          "type": "address[]"
        }
      ],
      "payable": false,
      "stateMutability": "view",
      "type": "function"
    },
    {
      "constant": true,
      "inputs": [],
      "name": "getVoterPoint",
      "outputs": [
        {
          "name": "",
          "type": "uint256"
        }
      ],
      "payable": false,
      "stateMutability": "view",
      "type": "function"
    },
    {
      "constant": true,
      "inputs": [
        {
          "name": "x",
          "type": "bytes32"
        }
      ],
      "name": "bytes32ToString",
      "outputs": [
        {
          "name": "",
          "type": "string"
        }
      ],
      "payable": false,
      "stateMutability": "pure",
      "type": "function"
    }
  ],
  "bytecode": "0x6060604052341561000f57600080fd5b6132218061001e6000396000f3006060604052600436106100db576000357c0100000000000000000000000000000000000000000000000000000000900463ffffffff1680631b9e16ad146100e05780631c3a88921461013f5780632564e03d1461017a578063572ab162146101f55780635a192c01146102bd5780637bf1a45f146103775780637fc9f41a146103cd57806380be87e0146104305780639201de551461046757806395991e5e146105075780639a962c7f14610571578063a3b077841461059a578063a82a5601146105f4578063b95f808214610657578063fe753054146106cf575b600080fd5b34156100eb57600080fd5b6100f361074a565b604051808277ffffffffffffffffffffffffffffffffffffffffffffffff191677ffffffffffffffffffffffffffffffffffffffffffffffff1916815260200191505060405180910390f35b341561014a57600080fd5b61016060048080359060200190919050506107b8565b604051808215151515815260200191505060405180910390f35b341561018557600080fd5b6101db600480803590602001909190803590602001908201803590602001908080602002602001604051908101604052809392919081815260200183836020028082843782019150505050505091905050610c3e565b604051808215151515815260200191505060405180910390f35b341561020057600080fd5b6102a7600480803590602001908201803590602001908080601f01602080910402602001604051908101604052809392919081815260200183838082843782019150505050505091908035151590602001909190803590602001908201803590602001908080601f0160208091040260200160405190810160405280939291908181526020018383808284378201915050505050509190803590602001909190505061101d565b6040518082815260200191505060405180910390f35b34156102c857600080fd5b610361600480803590602001909190803590602001908201803590602001908080601f0160208091040260200160405190810160405280939291908181526020018383808284378201915050505050509190803590602001908201803590602001908080602002602001604051908101604052809392919081815260200183836020028082843782019150505050505091905050611402565b6040518082815260200191505060405180910390f35b341561038257600080fd5b6103b3600480803577ffffffffffffffffffffffffffffffffffffffffffffffff19169060200190919050506117ab565b604051808215151515815260200191505060405180910390f35b34156103d857600080fd5b6103ee6004808035906020019091905050611b47565b604051808273ffffffffffffffffffffffffffffffffffffffff1673ffffffffffffffffffffffffffffffffffffffff16815260200191505060405180910390f35b341561043b57600080fd5b6104516004808035906020019091905050611b86565b6040518082815260200191505060405180910390f35b341561047257600080fd5b61048c600480803560001916906020019091905050611bb3565b6040518080602001828103825283818151815260200191508051906020019080838360005b838110156104cc5780820151818401526020810190506104b1565b50505050905090810190601f1680156104f95780820380516001836020036101000a031916815260200191505b509250505060405180910390f35b341561051257600080fd5b61051a611da0565b6040518080602001828103825283818151815260200191508051906020019060200280838360005b8381101561055d578082015181840152602081019050610542565b505050509050019250505060405180910390f35b341561057c57600080fd5b610584611e34565b6040518082815260200191505060405180910390f35b34156105a557600080fd5b6105da600480803590602001909190803573ffffffffffffffffffffffffffffffffffffffff16906020019091905050611e7d565b604051808215151515815260200191505060405180910390f35b34156105ff57600080fd5b610655600480803590602001909190803590602001908201803590602001908080602002602001604051908101604052809392919081815260200183836020028082843782019150505050505091905050611f64565b005b341561066257600080fd5b61067860048080359060200190919050506125db565b6040518080602001828103825283818151815260200191508051906020019060200280838360005b838110156106bb5780820151818401526020810190506106a0565b505050509050019250505060405180910390f35b34156106da57600080fd5b610730600480803590602001909190803590602001908201803590602001908080602002602001604051908101604052809392919081815260200183836020028082843782019150505050505091905050612692565b604051808215151515815260200191505060405180910390f35b60008060003373ffffffffffffffffffffffffffffffffffffffff1673ffffffffffffffffffffffffffffffffffffffff16815260200190815260200160002060000160009054906101000a9004780100000000000000000000000000000000000000000000000002905090565b6000806000833373ffffffffffffffffffffffffffffffffffffffff166002828154811015156107e457fe5b90600052602060002090600b020160000160009054906101000a900473ffffffffffffffffffffffffffffffffffffffff1673ffffffffffffffffffffffffffffffffffffffff1614151561083857600080fd5b8460028181548110151561084857fe5b90600052602060002090600b020160090160009054906101000a900460ff16151561087257600080fd5b600060028781548110151561088357fe5b90600052602060002090600b020160090160006101000a81548160ff021916908315150217905550600093505b6002868154811015156108bf57fe5b90600052602060002090600b020160050180549050841015610c3157600092505b6002868154811015156108ef57fe5b90600052602060002090600b02016005018481548110151561090d57fe5b906000526020600020906002020160010180549050831015610c24577fa0b97c54dd0a479ab4bd0bd2d8bcb48dd820730838fac276234d21b7ee992f22868460028981548110151561095b57fe5b90600052602060002090600b02016005018781548110151561097957fe5b90600052602060002090600202016001018681548110151561099757fe5b90600052602060002090015460028a8154811015156109b257fe5b90600052602060002090600b0201600a01600060028c8154811015156109d457fe5b90600052602060002090600b02016005018a8154811015156109f257fe5b906000526020600020906002020160010189815481101515610a1057fe5b906000526020600020900154600019166000191681526020019081526020016000208054905060405180858152602001848152602001836000191660001916815260200182815260200194505050505060405180910390a17fda9196a813fbfa5c19e610765f29a6b68b6e791aea0f733677deebf9cb6b10d08684600289815481101515610a9a57fe5b90600052602060002090600b020160050187815481101515610ab857fe5b906000526020600020906002020160010186815481101515610ad657fe5b90600052602060002090015460028a815481101515610af157fe5b90600052602060002090600b0201600a01600060028c815481101515610b1357fe5b90600052602060002090600b02016005018a815481101515610b3157fe5b906000526020600020906002020160010189815481101515610b4f57fe5b90600052602060002090015460001916600019168152602001908152602001600020604051808581526020018481526020018360001916600019168152602001806020018281038252838181548152602001915080548015610c0657602002820191906000526020600020905b8160009054906101000a900473ffffffffffffffffffffffffffffffffffffffff1673ffffffffffffffffffffffffffffffffffffffff1681526020019060010190808311610bbc575b50509550505050505060405180910390a182806001019350506108e0565b83806001019450506108b0565b6001945050505050919050565b6000806000843373ffffffffffffffffffffffffffffffffffffffff16600282815481101515610c6a57fe5b90600052602060002090600b020160000160009054906101000a900473ffffffffffffffffffffffffffffffffffffffff1673ffffffffffffffffffffffffffffffffffffffff16141515610cbe57600080fd5b85600281815481101515610cce57fe5b90600052602060002090600b020160090160009054906101000a900460ff161515610cf857600080fd5b86600281815481101515610d0857fe5b90600052602060002090600b020160040160009054906101000a900460ff161515610d3257600080fd5b600094505b600180549050851015610f2057600093505b8651841015610f13578684815181101515610d6057fe5b9060200190602002015177ffffffffffffffffffffffffffffffffffffffffffffffff1916600080600188815481101515610d9757fe5b906000526020600020900160009054906101000a900473ffffffffffffffffffffffffffffffffffffffff1673ffffffffffffffffffffffffffffffffffffffff1673ffffffffffffffffffffffffffffffffffffffff16815260200190815260200160002060000160009054906101000a900478010000000000000000000000000000000000000000000000000277ffffffffffffffffffffffffffffffffffffffffffffffff19161415610f0657600288815481101515610e5657fe5b90600052602060002090600b02016006016001018054806001018281610e7c9190612d57565b91600052602060002090016000600188815481101515610e9857fe5b906000526020600020900160009054906101000a900473ffffffffffffffffffffffffffffffffffffffff16909190916101000a81548173ffffffffffffffffffffffffffffffffffffffff021916908373ffffffffffffffffffffffffffffffffffffffff160217905550505b8380600101945050610d49565b8480600101955050610d37565b600288815481101515610f2f57fe5b90600052602060002090600b0201600101547f19b82506b3313c2dd5d3d7062965522938d291754bdf64c433f06c2a5b5f589760028a815481101515610f7157fe5b90600052602060002090600b02016006016001016040518080602001828103825283818154815260200191508054801561100057602002820191906000526020600020905b8160009054906101000a900473ffffffffffffffffffffffffffffffffffffffff1673ffffffffffffffffffffffffffffffffffffffff1681526020019060010190808311610fb6575b50509250505060405180910390a260019550505050505092915050565b600060028054905090506002805480919060010161103b9190612d83565b508060028281548110151561104c57fe5b90600052602060002090600b0201600101819055503360028281548110151561107157fe5b90600052602060002090600b020160000160006101000a81548173ffffffffffffffffffffffffffffffffffffffff021916908373ffffffffffffffffffffffffffffffffffffffff160217905550826002828154811015156110d057fe5b90600052602060002090600b020160030190805190602001906110f4929190612db5565b508460028281548110151561110557fe5b90600052602060002090600b02016002019080519060200190611129929190612db5565b508360028281548110151561113a57fe5b90600052602060002090600b020160040160006101000a81548160ff0219169083151502179055508160028281548110151561117257fe5b90600052602060002090600b020160080181905550600160028281548110151561119857fe5b90600052602060002090600b020160090160006101000a81548160ff0219169083151502179055506002818154811015156111cf57fe5b90600052602060002090600b020160000160009054906101000a900473ffffffffffffffffffffffffffffffffffffffff1673ffffffffffffffffffffffffffffffffffffffff16817fa2b5ca96e1c5de8e9a5a72d3726d31afed57fde16bcf46dbf75a1ddcc2a0df0960028481548110151561124857fe5b90600052602060002090600b020160020160028581548110151561126857fe5b90600052602060002090600b020160030160028681548110151561128857fe5b90600052602060002090600b020160040160009054906101000a900460ff166002878154811015156112b657fe5b90600052602060002090600b020160080154604051808060200180602001851515151581526020018481526020018381038352878181546001816001161561010002031660029004815260200191508054600181600116156101000203166002900480156113655780601f1061133a57610100808354040283529160200191611365565b820191906000526020600020905b81548152906001019060200180831161134857829003601f168201915b50508381038252868181546001816001161561010002031660029004815260200191508054600181600116156101000203166002900480156113e85780601f106113bd576101008083540402835291602001916113e8565b820191906000526020600020905b8154815290600101906020018083116113cb57829003601f168201915b5050965050505050505060405180910390a3949350505050565b6000833373ffffffffffffffffffffffffffffffffffffffff1660028281548110151561142b57fe5b90600052602060002090600b020160000160009054906101000a900473ffffffffffffffffffffffffffffffffffffffff1673ffffffffffffffffffffffffffffffffffffffff1614151561147f57600080fd5b8260008090505b60018251038110156114e85781818060010192508151811015156114a657fe5b906020019060200201516000191682828151811015156114c257fe5b906020019060200201516000191614156114db57600080fd5b8080600101915050611486565b866002818154811015156114f857fe5b90600052602060002090600b020160090160009054906101000a900460ff16151561152257600080fd5b60028881548110151561153157fe5b90600052602060002090600b020160050180549050945060028881548110151561155757fe5b90600052602060002090600b0201600501805480919060010161157a9190612e35565b508660028981548110151561158b57fe5b90600052602060002090600b0201600501868154811015156115a957fe5b906000526020600020906002020160000190805190602001906115cd929190612db5565b50856002898154811015156115de57fe5b90600052602060002090600b0201600501868154811015156115fc57fe5b90600052602060002090600202016001019080519060200190611620929190612e67565b5084887fa07ff47130ada328502f2b954ef63cb0306148ca86fe6b9468d2794128b8774360028b81548110151561165357fe5b90600052602060002090600b02016005018881548110151561167157fe5b906000526020600020906002020160000160028c81548110151561169157fe5b90600052602060002090600b0201600501898154811015156116af57fe5b906000526020600020906002020160010160405180806020018060200183810383528581815460018160011615610100020316600290048152602001915080546001816001161561010002031660029004801561174d5780601f106117225761010080835404028352916020019161174d565b820191906000526020600020905b81548152906001019060200180831161173057829003601f168201915b5050838103825284818154815260200191508054801561179057602002820191906000526020600020905b81546000191681526020019060010190808311611778575b505094505050505060405180910390a3505050509392505050565b60006117b5612eba565b8260008090505b6001805490508110156118b9578177ffffffffffffffffffffffffffffffffffffffffffffffff19166000806001848154811015156117f757fe5b906000526020600020900160009054906101000a900473ffffffffffffffffffffffffffffffffffffffff1673ffffffffffffffffffffffffffffffffffffffff1673ffffffffffffffffffffffffffffffffffffffff16815260200190815260200160002060000160009054906101000a900478010000000000000000000000000000000000000000000000000277ffffffffffffffffffffffffffffffffffffffffffffffff191614156118ac57600080fd5b80806001019150506117bc565b60008090505b60018054905081101561194c576001818154811015156118db57fe5b906000526020600020900160009054906101000a900473ffffffffffffffffffffffffffffffffffffffff1673ffffffffffffffffffffffffffffffffffffffff163373ffffffffffffffffffffffffffffffffffffffff16141561193f57600080fd5b80806001019150506118bf565b85846000019077ffffffffffffffffffffffffffffffffffffffffffffffff1916908177ffffffffffffffffffffffffffffffffffffffffffffffff1916815250506000846020018181525050836000803373ffffffffffffffffffffffffffffffffffffffff1673ffffffffffffffffffffffffffffffffffffffff16815260200190815260200160002060008201518160000160006101000a81548167ffffffffffffffff02191690837801000000000000000000000000000000000000000000000000900402179055506020820151816001015590505060018054806001018281611a3a9190612d57565b9160005260206000209001600033909190916101000a81548173ffffffffffffffffffffffffffffffffffffffff021916908373ffffffffffffffffffffffffffffffffffffffff160217905550507f96596898687effee9fd8db31bbd7fc00c0ee2e755c1035c4635ac52c398060338460000151338660200151604051808477ffffffffffffffffffffffffffffffffffffffffffffffff191677ffffffffffffffffffffffffffffffffffffffffffffffff191681526020018373ffffffffffffffffffffffffffffffffffffffff1673ffffffffffffffffffffffffffffffffffffffff168152602001828152602001935050505060405180910390a16001945050505050919050565b600181815481101515611b5657fe5b90600052602060002090016000915054906101000a900473ffffffffffffffffffffffffffffffffffffffff1681565b6000600282815481101515611b9757fe5b90600052602060002090600b0201600501805490509050919050565b611bbb612eef565b611bc3612f03565b6000806000611bd0612f03565b6020604051805910611bdf5750595b9080825280601f01601f1916602001820160405250945060009350600092505b6020831015611cbd578260080260020a876001900402600102915060007f010000000000000000000000000000000000000000000000000000000000000002827effffffffffffffffffffffffffffffffffffffffffffffffffffffffffffff1916141515611cb057818585815181101515611c7757fe5b9060200101907effffffffffffffffffffffffffffffffffffffffffffffffffffffffffffff1916908160001a90535083806001019450505b8280600101935050611bff565b83604051805910611ccb5750595b9080825280601f01601f19166020018201604052509050600092505b83831015611d93578483815181101515611cfd57fe5b9060200101517f010000000000000000000000000000000000000000000000000000000000000090047f0100000000000000000000000000000000000000000000000000000000000000028184815181101515611d5657fe5b9060200101907effffffffffffffffffffffffffffffffffffffffffffffffffffffffffffff1916908160001a9053508280600101935050611ce7565b8095505050505050919050565b611da8612f17565b6001805480602002602001604051908101604052809291908181526020018280548015611e2a57602002820191906000526020600020905b8160009054906101000a900473ffffffffffffffffffffffffffffffffffffffff1673ffffffffffffffffffffffffffffffffffffffff1681526020019060010190808311611de0575b5050505050905090565b60008060003373ffffffffffffffffffffffffffffffffffffffff1673ffffffffffffffffffffffffffffffffffffffff16815260200190815260200160002060010154905090565b600080600090505b600284815481101515611e9457fe5b90600052602060002090600b020160060160010180549050811015611f5857600284815481101515611ec257fe5b90600052602060002090600b020160060160010181815481101515611ee357fe5b906000526020600020900160009054906101000a900473ffffffffffffffffffffffffffffffffffffffff1673ffffffffffffffffffffffffffffffffffffffff168373ffffffffffffffffffffffffffffffffffffffff161415611f4b5760019150611f5d565b8080600101915050611e85565b600091505b5092915050565b81600281815481101515611f7457fe5b90600052602060002090600b020160090160009054906101000a900460ff161515611f9e57600080fd5b82600281815481101515611fae57fe5b90600052602060002090600b020160060160000160003373ffffffffffffffffffffffffffffffffffffffff1673ffffffffffffffffffffffffffffffffffffffff16815260200190815260200160002060010160009054906101000a900460ff1615151561201c57600080fd5b8383600080600061202c85611b86565b845114151561203a57600080fd5b60009250600091505b61204c85611b86565b82101561214157600090505b60028581548110151561206757fe5b90600052602060002090600b02016005018281548110151561208557fe5b906000526020600020906002020160010180549050811015612134576002858154811015156120b057fe5b90600052602060002090600b0201600501828154811015156120ce57fe5b9060005260206000209060020201600101818154811015156120ec57fe5b90600052602060002090015460001916848381518110151561210a57fe5b906020019060200201516000191614156121275782806001019350505b8080600101915050612058565b8180600101925050612043565b61214a85611b86565b8314151561215757600080fd5b60028981548110151561216657fe5b90600052602060002090600b020160040160009054906101000a900460ff16156121995761219489896128b6565b6125d0565b8760028a8154811015156121a957fe5b90600052602060002090600b020160060160000160003373ffffffffffffffffffffffffffffffffffffffff1673ffffffffffffffffffffffffffffffffffffffff1681526020019081526020016000206000019080519060200190612210929190612e67565b50600160028a81548110151561222257fe5b90600052602060002090600b020160060160000160003373ffffffffffffffffffffffffffffffffffffffff1673ffffffffffffffffffffffffffffffffffffffff16815260200190815260200160002060010160006101000a81548160ff02191690831515021790555060028981548110151561229c57fe5b90600052602060002090600b020160060160010180548060010182816122c29190612d57565b9160005260206000209001600033909190916101000a81548173ffffffffffffffffffffffffffffffffffffffff021916908373ffffffffffffffffffffffffffffffffffffffff160217905550506000803373ffffffffffffffffffffffffffffffffffffffff1673ffffffffffffffffffffffffffffffffffffffff1681526020019081526020016000206001016000815480929190600101919050555061236c8989612c85565b3373ffffffffffffffffffffffffffffffffffffffff1660028a81548110151561239257fe5b90600052602060002090600b0201600101547fae7fab35878ff4034302ce8b7ef19f037e3ef08350dca61711beb352c1076c2f60028c8154811015156123d457fe5b90600052602060002090600b020160060160000160003373ffffffffffffffffffffffffffffffffffffffff1673ffffffffffffffffffffffffffffffffffffffff1681526020019081526020016000206000016040518080602001828103825283818154815260200191508054801561247157602002820191906000526020600020905b81546000191681526020019060010190808311612459575b50509250505060405180910390a37f96596898687effee9fd8db31bbd7fc00c0ee2e755c1035c4635ac52c398060336000803373ffffffffffffffffffffffffffffffffffffffff1673ffffffffffffffffffffffffffffffffffffffff16815260200190815260200160002060000160009054906101000a9004780100000000000000000000000000000000000000000000000002336000803373ffffffffffffffffffffffffffffffffffffffff1673ffffffffffffffffffffffffffffffffffffffff16815260200190815260200160002060010154604051808477ffffffffffffffffffffffffffffffffffffffffffffffff191677ffffffffffffffffffffffffffffffffffffffffffffffff191681526020018373ffffffffffffffffffffffffffffffffffffffff1673ffffffffffffffffffffffffffffffffffffffff168152602001828152602001935050505060405180910390a15b505050505050505050565b6125e3612f17565b6002828154811015156125f257fe5b90600052602060002090600b020160060160010180548060200260200160405190810160405280929190818152602001828054801561268657602002820191906000526020600020905b8160009054906101000a900473ffffffffffffffffffffffffffffffffffffffff1673ffffffffffffffffffffffffffffffffffffffff168152602001906001019080831161263c575b50505050509050919050565b6000823373ffffffffffffffffffffffffffffffffffffffff166002828154811015156126bb57fe5b90600052602060002090600b020160000160009054906101000a900473ffffffffffffffffffffffffffffffffffffffff1673ffffffffffffffffffffffffffffffffffffffff1614151561270f57600080fd5b8360028181548110151561271f57fe5b90600052602060002090600b020160090160009054906101000a900460ff16151561274957600080fd5b8460028181548110151561275957fe5b90600052602060002090600b020160040160009054906101000a900460ff16151561278357600080fd5b8460028781548110151561279357fe5b90600052602060002090600b020160060160010190805190602001906127ba929190612f2b565b506002868154811015156127ca57fe5b90600052602060002090600b0201600101547f19b82506b3313c2dd5d3d7062965522938d291754bdf64c433f06c2a5b5f589760028881548110151561280c57fe5b90600052602060002090600b02016006016001016040518080602001828103825283818154815260200191508054801561289b57602002820191906000526020600020905b8160009054906101000a900473ffffffffffffffffffffffffffffffffffffffff1673ffffffffffffffffffffffffffffffffffffffff1681526020019060010190808311612851575b50509250505060405180910390a26001935050505092915050565b81336128c28282611e7d565b15156128cd57600080fd5b826002858154811015156128dd57fe5b90600052602060002090600b020160060160000160003373ffffffffffffffffffffffffffffffffffffffff1673ffffffffffffffffffffffffffffffffffffffff1681526020019081526020016000206000019080519060200190612944929190612e67565b50600160028581548110151561295657fe5b90600052602060002090600b020160060160000160003373ffffffffffffffffffffffffffffffffffffffff1673ffffffffffffffffffffffffffffffffffffffff16815260200190815260200160002060010160006101000a81548160ff0219169083151502179055506000803373ffffffffffffffffffffffffffffffffffffffff1673ffffffffffffffffffffffffffffffffffffffff16815260200190815260200160002060010160008154809291906001019190505550612a1c8484612c85565b3373ffffffffffffffffffffffffffffffffffffffff16600285815481101515612a4257fe5b90600052602060002090600b0201600101547fae7fab35878ff4034302ce8b7ef19f037e3ef08350dca61711beb352c1076c2f600287815481101515612a8457fe5b90600052602060002090600b020160060160000160003373ffffffffffffffffffffffffffffffffffffffff1673ffffffffffffffffffffffffffffffffffffffff16815260200190815260200160002060000160405180806020018281038252838181548152602001915080548015612b2157602002820191906000526020600020905b81546000191681526020019060010190808311612b09575b50509250505060405180910390a37f96596898687effee9fd8db31bbd7fc00c0ee2e755c1035c4635ac52c398060336000803373ffffffffffffffffffffffffffffffffffffffff1673ffffffffffffffffffffffffffffffffffffffff16815260200190815260200160002060000160009054906101000a9004780100000000000000000000000000000000000000000000000002336000803373ffffffffffffffffffffffffffffffffffffffff1673ffffffffffffffffffffffffffffffffffffffff16815260200190815260200160002060010154604051808477ffffffffffffffffffffffffffffffffffffffffffffffff191677ffffffffffffffffffffffffffffffffffffffffffffffff191681526020018373ffffffffffffffffffffffffffffffffffffffff1673ffffffffffffffffffffffffffffffffffffffff168152602001828152602001935050505060405180910390a150505050565b60008090505b8151811015612d5257600283815481101515612ca357fe5b90600052602060002090600b0201600a0160008383815181101515612cc457fe5b90602001906020020151600019166000191681526020019081526020016000208054806001018281612cf69190612d57565b9160005260206000209001600033909190916101000a81548173ffffffffffffffffffffffffffffffffffffffff021916908373ffffffffffffffffffffffffffffffffffffffff160217905550508080600101915050612c8b565b505050565b815481835581811511612d7e57818360005260206000209182019101612d7d9190612fb5565b5b505050565b815481835581811511612db057600b0281600b028360005260206000209182019101612daf9190612fda565b5b505050565b828054600181600116156101000203166002900490600052602060002090601f016020900481019282601f10612df657805160ff1916838001178555612e24565b82800160010185558215612e24579182015b82811115612e23578251825591602001919060010190612e08565b5b509050612e319190612fb5565b5090565b815481835581811511612e6257600202816002028360005260206000209182019101612e6191906130a0565b5b505050565b828054828255906000526020600020908101928215612ea9579160200282015b82811115612ea8578251829060001916905591602001919060010190612e87565b5b509050612eb691906130df565b5090565b6040805190810160405280600077ffffffffffffffffffffffffffffffffffffffffffffffff19168152602001600081525090565b602060405190810160405280600081525090565b602060405190810160405280600081525090565b602060405190810160405280600081525090565b828054828255906000526020600020908101928215612fa4579160200282015b82811115612fa35782518260006101000a81548173ffffffffffffffffffffffffffffffffffffffff021916908373ffffffffffffffffffffffffffffffffffffffff16021790555091602001919060010190612f4b565b5b509050612fb19190613104565b5090565b612fd791905b80821115612fd3576000816000905550600101612fbb565b5090565b90565b61309d91905b8082111561309957600080820160006101000a81549073ffffffffffffffffffffffffffffffffffffffff021916905560018201600090556002820160006130289190613147565b6003820160006130389190613147565b6004820160006101000a81549060ff021916905560058201600061305c919061318f565b60068201600060018201600061307291906131b3565b505060088201600090556009820160006101000a81549060ff021916905550600b01612fe0565b5090565b90565b6130dc91905b808211156130d857600080820160006130bf9190613147565b6001820160006130cf91906131d4565b506002016130a6565b5090565b90565b61310191905b808211156130fd5760008160009055506001016130e5565b5090565b90565b61314491905b8082111561314057600081816101000a81549073ffffffffffffffffffffffffffffffffffffffff02191690555060010161310a565b5090565b90565b50805460018160011615610100020316600290046000825580601f1061316d575061318c565b601f01602090049060005260206000209081019061318b9190612fb5565b5b50565b50805460008255600202906000526020600020908101906131b091906130a0565b50565b50805460008255906000526020600020908101906131d19190612fb5565b50565b50805460008255906000526020600020908101906131f291906130df565b505600a165627a7a72305820865c41429d0699756c11256102a6aa6d2a7c519fbe5513163b7c9428690c1d560029",
  "source": "/**\r\n * ver 1.2.1\r\n * \r\n * add private/public property of a vote\r\n * \r\n * -----------------------------------------------------\r\n * ver 1.2.0\r\n * \r\n * create room(s) to vote\r\n * only add/set option/list voters/cast ballot for opening rooms\r\n * voted voter cannot cast another vote\r\n * \r\n * -----------------------------------------------------\r\n * ver1.1.4\r\n * \r\n * add contract event\r\n * \r\n * -----------------------------------------------------\r\n * ver1.1.3\r\n * \r\n * add modifier to control vote, ballot, 1 address - 1 vote\r\n * check duplicate option when initiate the contract\r\n * \r\n * -----------------------------------------------------\r\n * ver1.1.2\r\n * \r\n * update\r\n *      add expired time: close the vote when time is up-to-date\r\n *      add list voters who can vote\r\n *          if the list is left empty, everyone can join the vote\r\n *          otherwise, only the ones in the list can cast vote\r\n *      get ballot of an address\r\n * \r\n * -----------------------------------------------------\r\n * ver1.1.1\r\n * \r\n * update\r\n *      add algorithm check 1 address - 1 vote\r\n * add new:\r\n *  property: \r\n *      voted\r\n *  method:\r\n *      (none)\r\n * remove:\r\n *      (none)\r\n * \r\n * -----------------------------------------------------\r\n * ver1.1.0\r\n * \r\n * update\r\n *      VotFor\r\n *      change the way managing the ballot\r\n *          voteOf => listVotersOf\r\n *      getCountOf => getCountOf\r\n * add new:\r\n *  property: \r\n *      owner\r\n *      listVotersOf\r\n *  method:\r\n *      getListVoterOf\r\n * remove:\r\n *      voteOf\r\n *      getCountOf\r\n * \r\n * -----------------------------------------------------\r\n * ver1\r\n * \r\n * add option when call the contract\r\n * vote for an option\r\n * convert option(bytes32) to string\r\n * get option vote\r\n * only available option can be voted\r\n * \r\n */\r\n \r\n \r\npragma solidity ^0.4.18;\r\n \r\ncontract ManageAccount\r\n{\r\n    struct Account\r\n    {\r\n        bytes8 id;\r\n        uint point;\r\n    }\r\n    mapping (address => Account) account;\r\n    address[] public listAddressAccount;\r\n    \r\n    event LOGaccountInfo(bytes8 id, address addr, uint point);\r\n    \r\n   function ManageAccount() public\r\n   {\r\n       //listAddrAcc = [msg.sender];\r\n   }\r\n   \r\n    modifier validID(bytes8 _id)\r\n    {\r\n         for(uint i = 0; i < listAddressAccount.length; i++)\r\n        {\r\n            if(account[listAddressAccount[i]].id == _id)\r\n            {\r\n                revert();\r\n            }\r\n        }\r\n        _;\r\n    }\r\n    modifier validAddr()\r\n    {\r\n        for(uint i = 0; i < listAddressAccount.length; i++)\r\n        {\r\n            if(msg.sender == listAddressAccount[i])\r\n            {\r\n                revert();\r\n            }\r\n        }\r\n        _;\r\n    }\r\n    \r\n    function createAcc(bytes8 _id) \r\n        validID(_id)\r\n        validAddr\r\n        public returns(bool)\r\n    {\r\n        Account memory temp;\r\n        temp.id = _id;\r\n        temp.point = 0;\r\n        account[msg.sender] = temp;\r\n        listAddressAccount.push(msg.sender);\r\n         LOGaccountInfo(temp.id, msg.sender, temp.point);\r\n        return true;\r\n    }\r\n    function getListAccounts() public view returns(address[])\r\n    {\r\n        return listAddressAccount;\r\n    }\r\n    function getAccountInfo() public view returns(bytes8)\r\n    {\r\n        return account[msg.sender].id;\r\n    }\r\n}\r\n \r\ncontract voting is ManageAccount\r\n {\r\n    room[] rooms;\r\n\r\n    \r\n    struct room\r\n    {\r\n        address owner;\r\n        uint id;\r\n        string title;\r\n        string descript;\r\n        bool privateRoom;\r\n        Poll[] poll;\r\n        ListVoters listVoters;\r\n        uint expiredTime;\r\n        bool open;\r\n        mapping(bytes32 => address[]) listVotersOf;\r\n    }\r\n\r\n    struct Voter\r\n    {\r\n\r\n        bytes32[] ballot;//roomID => ballot\r\n        bool voted;//roomID => ballot\r\n    }\r\n    \r\n    // struct Ballot\r\n    // {\r\n    //     bool voted;\r\n    //     bytes32[] voteFor;\r\n    // }\r\n    \r\n    struct ListVoters\r\n    {\r\n        mapping (address => Voter) voter;\r\n        address[] addrs;\r\n    }\r\n    \r\n    struct Poll\r\n    {\r\n        string questions;\r\n        bytes32[] options;\r\n        //bytes32[] res;\r\n    }\r\n    \r\n    event LOGroomOpened(uint indexed roomID, address indexed owner,string title, string descript, bool privateRoom, uint expiredTime);\r\n    event LOGaddListVoter(uint indexed roomID, address[] list);\r\n    event LOGpollingAdded(uint indexed roomID,uint indexed pollID, string question, bytes32[] options);\r\n    //event LOGpollingOptionAdded(uint indexed roomID,uint indexed pollID, string question, bytes32[] option);\r\n    event LOGroomClosed(uint indexed roomID);\r\n    event LOGoptions(uint indexed roomID, bytes[] options);\r\n    event LOGlistVotersOf(uint indexed roomID, bytes option, address[] voters);\r\n    //event roomInfo(uint indexed id, address indexed owner, bytes32[] options, bytes32 description, listVoter);\r\n    event LOGroomResult(uint indexed roomID, bytes option, uint counts, address[] voters);\r\n    \r\n    event LOGvoteNotify(uint indexed roomID, address indexed sender, bytes32[] options);\r\n    event LOGcountOf(uint roomID, uint pollNo, bytes32 option, uint count);\r\n    event LOGvoterOf(uint roomID, uint pollNo, bytes32 option, address[] voter);\r\n    \r\n    \r\n    modifier owned(uint _RoomID)\r\n    {\r\n       require(rooms[_RoomID].owner == msg.sender);\r\n       _;\r\n    }\r\n    \r\n    modifier roomOpening(uint _RoomID) \r\n    {\r\n        require(rooms[_RoomID].open);\r\n        _;\r\n    }\r\n    \r\n    modifier roomClosed(uint _RoomID) \r\n    {\r\n        require(!rooms[_RoomID].open);\r\n        _;\r\n    }\r\n    \r\n\r\n    modifier listVoterEmpty(uint _RoomID)\r\n    {\r\n        require(rooms[_RoomID].listVoters.addrs.length == 0);\r\n        _;\r\n    }\r\n    \r\n    modifier privateRoom(uint _RoomID)\r\n    {\r\n        require(rooms[_RoomID].privateRoom);\r\n        _;\r\n    }\r\n    \r\n    modifier validBallot(uint _roomID, bytes32[] _option)\r\n    {\r\n        if(_option.length != getNumberOfPolls(_roomID))\r\n        {\r\n            revert();\r\n        }\r\n        uint a = 0;\r\n        for(uint i = 0; i < getNumberOfPolls(_roomID); i++)\r\n        {\r\n            for(uint j = 0; j < rooms[_roomID].poll[i].options.length; j++)\r\n            {\r\n                if(_option[i] == rooms[_roomID].poll[i].options[j])\r\n                {\r\n                    a++;\r\n                }\r\n            }\r\n        }\r\n        if(a != getNumberOfPolls(_roomID))\r\n        {\r\n            revert();\r\n        }\r\n        _;\r\n    }\r\n    \r\n    modifier duplicateOption(bytes32[] _options)\r\n    {\r\n        for(uint i = 0; i < _options.length-1; i++)\r\n        {\r\n            if(_options[i] == _options[i++])\r\n            {\r\n                revert();\r\n            }\r\n        }\r\n        _;\r\n    }\r\n    \r\n    modifier notVoted(uint _roomID)\r\n    {\r\n        require(!rooms[_roomID].listVoters.voter[msg.sender].voted);\r\n        _;\r\n    }\r\n    \r\n    function checkVailableVoter(uint _roomID, address _voter) public view returns(bool)\r\n    {\r\n        for(uint i= 0; i < rooms[_roomID].listVoters.addrs.length ; i++)\r\n            {\r\n                if(_voter == rooms[_roomID].listVoters.addrs[i])\r\n                {\r\n                   return true;\r\n                }\r\n            }\r\n        return false;\r\n    }\r\n    \r\n    modifier vailableVoter(uint _roomID, address _voter)\r\n    {\r\n         require(checkVailableVoter(_roomID, _voter));\r\n        _;\r\n    }\r\n    \r\n    function voting()\r\n        public \r\n    {\r\n        \r\n    }\r\n    \r\n    function openRoom(string _til, bool _privateR, string _des, uint _expiredTime) public returns (uint id)\r\n    {\r\n        id = rooms.length;\r\n        rooms.length++;\r\n        rooms[id].id = id;\r\n        rooms[id].owner = msg.sender;\r\n        rooms[id].descript = _des;\r\n        rooms[id].title = _til;\r\n        rooms[id].privateRoom = _privateR;\r\n        rooms[id].expiredTime = _expiredTime;\r\n        rooms[id].open = true;\r\n         LOGroomOpened(id, rooms[id].owner,rooms[id].title, rooms[id].descript, rooms[id].privateRoom, rooms[id].expiredTime);\r\n    }\r\n    \r\n    function addPoll(uint _roomID, string _quest, bytes32[] _opt) \r\n            owned(_roomID)\r\n            duplicateOption(_opt)\r\n            roomOpening(_roomID)\r\n            public returns(uint pollNo)\r\n    {\r\n        pollNo = rooms[_roomID].poll.length;\r\n        rooms[_roomID].poll.length++;\r\n        rooms[_roomID].poll[pollNo].questions = _quest;\r\n        rooms[_roomID].poll[pollNo].options = _opt;\r\n         LOGpollingAdded(_roomID, pollNo, rooms[_roomID].poll[pollNo].questions, rooms[_roomID].poll[pollNo].options);\r\n    }\r\n\r\n    function getNumberOfPolls(uint _roomID) public view returns(uint)\r\n    {\r\n        return rooms[_roomID].poll.length;\r\n    }\r\n    \r\n    function closeRoom(uint _id) \r\n            owned(_id) \r\n            roomOpening(_id) public returns (bool)\r\n    {\r\n        rooms[_id].open = false;\r\n        for(uint i = 0; i < rooms[_id].poll.length; i++)\r\n        {\r\n            for(uint j = 0; j < rooms[_id].poll[i].options.length; j++)\r\n            {\r\n               LOGcountOf(_id, j, rooms[_id].poll[i].options[j], rooms[_id].listVotersOf[rooms[_id].poll[i].options[j]].length);  \r\n               LOGvoterOf(_id, j, rooms[_id].poll[i].options[j], rooms[_id].listVotersOf[rooms[_id].poll[i].options[j]]);\r\n            }\r\n        }\r\n        //calculateRoomResult(_id);\r\n       // LOGroomClosed(rooms[_id].id, rooms[_id].result);\r\n        return true;\r\n    }\r\n    \r\n    function setListVoters(uint _id, address[] _voters) \r\n            owned(_id)\r\n            roomOpening(_id)\r\n            privateRoom(_id)\r\n            public returns (bool)\r\n    {\r\n        rooms[_id].listVoters.addrs = _voters;\r\n         LOGaddListVoter(rooms[_id].id, rooms[_id].listVoters.addrs);\r\n        return true;\r\n    }\r\n\r\n    function voteForPrivateRoom(uint _roomID, bytes32[] _options)\r\n        vailableVoter(_roomID, msg.sender)\r\n        private \r\n    {\r\n        rooms[_roomID].listVoters.voter[msg.sender].ballot = _options;\r\n        rooms[_roomID].listVoters.voter[msg.sender].voted = true;\r\n        //rooms[_roomID].listVoters.addrs.push(msg.sender);\r\n        account[msg.sender].point++;\r\n        //rooms[_roomID].listVoters.voter[msg.sender].account.acount[msg.sender].point ++;\r\n        addToListVoteOf(_roomID, _options);\r\n         LOGvoteNotify(rooms[_roomID].id, msg.sender, rooms[_roomID].listVoters.voter[msg.sender].ballot);\r\n         LOGaccountInfo(account[msg.sender].id, msg.sender, account[msg.sender].point);\r\n    }\r\n\r\n    function voteFor(uint _roomID, bytes32[] _options)\r\n        roomOpening(_roomID)\r\n        notVoted(_roomID)\r\n        validBallot(_roomID, _options)\r\n        public\r\n    {\r\n        if(rooms[_roomID].privateRoom)\r\n        {\r\n            voteForPrivateRoom(_roomID, _options);\r\n            return;\r\n        }\r\n        rooms[_roomID].listVoters.voter[msg.sender].ballot = _options;\r\n        rooms[_roomID].listVoters.voter[msg.sender].voted = true;\r\n        rooms[_roomID].listVoters.addrs.push(msg.sender);\r\n        account[msg.sender].point++;\r\n       // rooms[_roomID].listVoters.voter[msg.sender].account.point ++;\r\n        addToListVoteOf(_roomID, _options);\r\n         LOGvoteNotify(rooms[_roomID].id, msg.sender, rooms[_roomID].listVoters.voter[msg.sender].ballot);\r\n         LOGaccountInfo(account[msg.sender].id, msg.sender, account[msg.sender].point);\r\n    }\r\n    \r\n    function addToListVoteOf(uint _roomID, bytes32[] _option) private \r\n    {\r\n        for(uint i=0; i <  _option.length; i++)\r\n        {\r\n            rooms[_roomID].listVotersOf[_option[i]].push(msg.sender);\r\n            // LOGcountOf(_roomID, i, _option[i], rooms[_roomID].listVotersOf[_option[i]].length);\r\n        }\r\n    }\r\n    \r\n    function setListVotersByID(uint _roomID, bytes8[] _ids) \r\n            owned(_roomID)\r\n            roomOpening(_roomID)\r\n            privateRoom(_roomID)\r\n            public returns (bool)\r\n    {\r\n        for(uint i = 0; i < listAddressAccount.length; i++)\r\n        {\r\n            for(uint j = 0; j < _ids.length; j++)\r\n            {\r\n                if(account[listAddressAccount[i]].id == _ids[j])\r\n                {\r\n                    rooms[_roomID].listVoters.addrs.push(listAddressAccount[i]);\r\n                }\r\n            }\r\n        }\r\n         LOGaddListVoter(rooms[_roomID].id, rooms[_roomID].listVoters.addrs);\r\n        return true;\r\n    }\r\n    function getListVoterOf(uint _roomID) public view returns(address[])\r\n    {\r\n        return  rooms[_roomID].listVoters.addrs;\r\n    }\r\n    \r\n    function getVoterPoint() public view returns(uint)\r\n    {\r\n        return account[msg.sender].point;\r\n    }\r\n    // function getCountOf(uint _roomID, uint _pollNo, bytes32 _option) public view returns(uint)\r\n    // {\r\n    //     return rooms[_roomID].poll[_pollNo].listVotersOf[_option].length;\r\n    // }\r\n\r\n    // function calculateRoomResult(uint _id) private returns(bytes)\r\n    // {\r\n    //     bytes memory res;\r\n    //     uint temp;\r\n    //     res = rooms[_id].options[0];\r\n    //     temp = getCountOf(_id, rooms[_id].options[0]);\r\n    //     for(uint i = 1; i < rooms[_id].options.length; i++)\r\n    //     { \r\n    //         if(temp < getCountOf(_id, rooms[_id].options[i]))\r\n    //         {\r\n    //             temp = getCountOf(_id, rooms[_id].options[i]);     \r\n    //             res = rooms[_id].options[i];\r\n    //         }\r\n    //     }\r\n    //     rooms[_id].result = res;\r\n    //     return rooms[_id].result;\r\n    // }\r\n    \r\n    // function getRoomResult(uint _id) roomClosed(_id) public view returns(bytes)\r\n    // {\r\n    //     return rooms[_id].result;\r\n    // }\r\n    \r\n    // function getCountOf(uint _id, bytes _option) public constant returns(uint){\r\n    //     //require(vailableCandidate(_addr));\r\n    //     return rooms[_id].listVotersOf[_option].length;\r\n    // }\r\n    \r\n    // function getListVoterOf(uint _id, bytes _option) public view returns(address[])\r\n    // {\r\n    //     return rooms[_id].listVotersOf[_option];\r\n    // }\r\n    // function getOptions(uint _id) public view returns(bytes[])\r\n    // {\r\n    //     return rooms[_id].options;\r\n    // }\r\n    \r\n    // function getVoteOf(uint _id, address _addr) public view returns(bytes)\r\n    // {\r\n    //     if(rooms[_id].listVoters.voter[_addr].voted == true)\r\n    //     {\r\n    //         return (rooms[_id].listVoters.voter[_addr].ballot[_addr]);\r\n    //     }\r\n    // }\r\n    \r\n    \r\n//     function checkInitiateOption(bytes32[] _option) private pure returns(bool)\r\n//     {\r\n//         for(uint i = 0; i <= _option.length - 1; i++){\r\n//             var temp = _option[i];\r\n//             for(uint j = i+1; j <= _option.length-1; j++){\r\n//                 if (temp == _option[j] )\r\n//                 {\r\n//                     return false;\r\n//                 }\r\n//             }\r\n//         }\r\n//         return true;\r\n//     }\r\n    \r\n    \r\n    \r\n    \r\n//   function checkVailableOption(bytes32 _n) private view returns(bool)\r\n//     {\r\n//         for(uint i = 0; i < opt.length; i++)\r\n//         {\r\n//             if(opt[i] == _n)\r\n//             {\r\n//                 return true;\r\n//             }    \r\n//         }\r\n//         return false;\r\n//     }\r\n    \r\n//     function checkVailableVoter(address _addr) private view returns(bool)\r\n//     {\r\n//         for(uint i = 0; i < voters.length; i++)\r\n//         {\r\n//             if(voters[i] == _addr)\r\n//             {\r\n//                 return true;\r\n//             }\r\n//         }\r\n//         return false;\r\n//     }\r\n//     // modifier validVoter(address _addr)\r\n//     // {\r\n//     //     require(checkVailableVoter(_addr));\r\n//     //     _;\r\n        \r\n//     // }\r\n    // modifier hasVoter(address _addr){\r\n    //     if(voters.length != 0)\r\n    //     {\r\n    //         require(checkVailableVoter(_addr) == true);    \r\n    //     }\r\n    //     _;\r\n       \r\n    // }\r\n    \r\n//     function addOption(bytes32 _n) \r\n//             validOption(_n)\r\n//             public\r\n//     {\r\n//         notify(msg.sender, bytes32ToString(_n), \"option added\");\r\n//         opt.push(_n);\r\n//     }\r\n//     function addVoter(address _addr) public\r\n//     {\r\n//         voters.push(_addr);\r\n//     }\r\n    \r\n//     function getOptions() public view returns(bytes32[])\r\n//     {\r\n//         return opt;\r\n//     }\r\n     \r\n//     function getListVoters() public view returns(address[])\r\n//     {\r\n//         return voters;\r\n//     }\r\n    \r\n//     function getOptionByIndex(uint _i) private view returns(string)\r\n//     {\r\n//         return bytes32ToString(opt[_i]);\r\n//     }\r\n    \r\n    \r\n    function bytes32ToString(bytes32 x) public pure returns (string) \r\n    {\r\n        bytes memory bytesString = new bytes(32);\r\n        uint charCount = 0;\r\n        for (uint j = 0; j < 32; j++) \r\n        {\r\n            byte char = byte(bytes32(uint(x) * 2 ** (8 * j)));\r\n            if (char != 0) \r\n            {\r\n                bytesString[charCount] = char;\r\n                charCount++;\r\n            }\r\n        }\r\n        bytes memory bytesStringTrimmed = new bytes(charCount);\r\n        for (j = 0; j < charCount; j++) \r\n        {\r\n            bytesStringTrimmed[j] = bytesString[j];\r\n        }\r\n        return string(bytesStringTrimmed);\r\n    }\r\n}",
  "sourcePath": "C:\\Users\\PMM81HC\\Desktop\\Experiment\\VoteChain\\contracts\\votingApplication.sol",
  "compiler": {
    "name": "solc",
    "version": "0.4.19+commit.c4cbbb05.Emscripten.clang"
  },
  "schemaVersion": "2.0.0",
  "updatedAt": "2018-03-26T08:01:01.904Z"
}