{
  "contractName": "votingVer1_1_4",
  "abi": [
    {
      "constant": true,
      "inputs": [
        {
          "name": "_id",
          "type": "bytes32"
        }
      ],
      "name": "getListVoterOf",
      "outputs": [
        {
          "name": "",
          "type": "address[]"
        }
      ],
      "payable": false,
      "stateMutability": "view",
      "type": "function"
    },
    {
      "constant": false,
      "inputs": [
        {
          "name": "_option",
          "type": "bytes32"
        }
      ],
      "name": "VoteFor",
      "outputs": [],
      "payable": false,
      "stateMutability": "nonpayable",
      "type": "function"
    },
    {
      "constant": true,
      "inputs": [],
      "name": "getListVoters",
      "outputs": [
        {
          "name": "",
          "type": "address[]"
        }
      ],
      "payable": false,
      "stateMutability": "view",
      "type": "function"
    },
    {
      "constant": false,
      "inputs": [
        {
          "name": "_addr",
          "type": "address"
        }
      ],
      "name": "addVoters",
      "outputs": [],
      "payable": false,
      "stateMutability": "nonpayable",
      "type": "function"
    },
    {
      "constant": true,
      "inputs": [
        {
          "name": "x",
          "type": "bytes32"
        }
      ],
      "name": "bytes32ToString",
      "outputs": [
        {
          "name": "",
          "type": "string"
        }
      ],
      "payable": false,
      "stateMutability": "pure",
      "type": "function"
    },
    {
      "constant": true,
      "inputs": [],
      "name": "getOptions",
      "outputs": [
        {
          "name": "",
          "type": "bytes32[]"
        }
      ],
      "payable": false,
      "stateMutability": "view",
      "type": "function"
    },
    {
      "constant": true,
      "inputs": [
        {
          "name": "_option",
          "type": "bytes32"
        }
      ],
      "name": "getCountOf",
      "outputs": [
        {
          "name": "",
          "type": "uint256"
        }
      ],
      "payable": false,
      "stateMutability": "view",
      "type": "function"
    },
    {
      "constant": true,
      "inputs": [
        {
          "name": "_addr",
          "type": "address"
        }
      ],
      "name": "getVoteOf",
      "outputs": [
        {
          "name": "",
          "type": "bytes32"
        }
      ],
      "payable": false,
      "stateMutability": "view",
      "type": "function"
    },
    {
      "constant": false,
      "inputs": [
        {
          "name": "_n",
          "type": "bytes32"
        }
      ],
      "name": "addOption",
      "outputs": [],
      "payable": false,
      "stateMutability": "nonpayable",
      "type": "function"
    },
    {
      "inputs": [
        {
          "name": "_opt",
          "type": "bytes32[]"
        },
        {
          "name": "_voters",
          "type": "address[]"
        }
      ],
      "payable": false,
      "stateMutability": "nonpayable",
      "type": "constructor"
    }
  ],
  "bytecode": "0x606060405234156200001057600080fd5b60405162000eae38038062000eae83398101604052808051820191906020018051820191905050336000806101000a81548173ffffffffffffffffffffffffffffffffffffffff021916908373ffffffffffffffffffffffffffffffffffffffff16021790555081600190805190602001906200008f929190620000b1565b508060059080519060200190620000a892919062000109565b50505062000206565b828054828255906000526020600020908101928215620000f6579160200282015b82811115620000f5578251829060001916905591602001919060010190620000d2565b5b50905062000105919062000198565b5090565b82805482825590600052602060002090810192821562000185579160200282015b82811115620001845782518260006101000a81548173ffffffffffffffffffffffffffffffffffffffff021916908373ffffffffffffffffffffffffffffffffffffffff160217905550916020019190600101906200012a565b5b509050620001949190620001c0565b5090565b620001bd91905b80821115620001b95760008160009055506001016200019f565b5090565b90565b6200020391905b80821115620001ff57600081816101000a81549073ffffffffffffffffffffffffffffffffffffffff021916905550600101620001c7565b5090565b90565b610c9880620002166000396000f300606060405260043610610098576000357c0100000000000000000000000000000000000000000000000000000000900463ffffffff1680620f7f9d1461009d5780631925d443146101195780631b545327146101405780634c105d1b146101aa5780639201de55146101e3578063cc2ee19614610283578063d3912c3e146102ed578063da38ab4b14610328578063dde08b411461037d575b600080fd5b34156100a857600080fd5b6100c26004808035600019169060200190919050506103a4565b6040518080602001828103825283818151815260200191508051906020019060200280838360005b838110156101055780820151818401526020810190506100ea565b505050509050019250505060405180910390f35b341561012457600080fd5b61013e600480803560001916906020019091905050610453565b005b341561014b57600080fd5b610153610610565b6040518080602001828103825283818151815260200191508051906020019060200280838360005b8381101561019657808201518184015260208101905061017b565b505050509050019250505060405180910390f35b34156101b557600080fd5b6101e1600480803573ffffffffffffffffffffffffffffffffffffffff169060200190919050506106a4565b005b34156101ee57600080fd5b61020860048080356000191690602001909190505061070a565b6040518080602001828103825283818151815260200191508051906020019080838360005b8381101561024857808201518184015260208101905061022d565b50505050905090810190601f1680156102755780820380516001836020036101000a031916815260200191505b509250505060405180910390f35b341561028e57600080fd5b6102966108f7565b6040518080602001828103825283818151815260200191508051906020019060200280838360005b838110156102d95780820151818401526020810190506102be565b505050509050019250505060405180910390f35b34156102f857600080fd5b610312600480803560001916906020019091905050610959565b6040518082815260200191505060405180910390f35b341561033357600080fd5b61035f600480803573ffffffffffffffffffffffffffffffffffffffff16906020019091905050610995565b60405180826000191660001916815260200191505060405180910390f35b341561038857600080fd5b6103a2600480803560001916906020019091905050610a44565b005b6103ac610b7a565b60026000836000191660001916815260200190815260200160002080548060200260200160405190810160405280929190818152602001828054801561044757602002820191906000526020600020905b8160009054906101000a900473ffffffffffffffffffffffffffffffffffffffff1673ffffffffffffffffffffffffffffffffffffffff16815260200190600101908083116103fd575b50505050509050919050565b61045c81610a76565b151561046757600080fd5b60001515600360003373ffffffffffffffffffffffffffffffffffffffff1673ffffffffffffffffffffffffffffffffffffffff16815260200190815260200160002060009054906101000a900460ff1615151415156104c657600080fd5b60006005805490501415156104f157600115156104e233610ad6565b15151415156104f057600080fd5b5b80600460003373ffffffffffffffffffffffffffffffffffffffff1673ffffffffffffffffffffffffffffffffffffffff168152602001908152602001600020816000191690555060026000826000191660001916815260200190815260200160002080548060010182816105669190610b8e565b9160005260206000209001600033909190916101000a81548173ffffffffffffffffffffffffffffffffffffffff021916908373ffffffffffffffffffffffffffffffffffffffff160217905550506001600360003373ffffffffffffffffffffffffffffffffffffffff1673ffffffffffffffffffffffffffffffffffffffff16815260200190815260200160002060006101000a81548160ff02191690831515021790555050565b610618610b7a565b600580548060200260200160405190810160405280929190818152602001828054801561069a57602002820191906000526020600020905b8160009054906101000a900473ffffffffffffffffffffffffffffffffffffffff1673ffffffffffffffffffffffffffffffffffffffff1681526020019060010190808311610650575b5050505050905090565b600580548060010182816106b89190610b8e565b9160005260206000209001600083909190916101000a81548173ffffffffffffffffffffffffffffffffffffffff021916908373ffffffffffffffffffffffffffffffffffffffff1602179055505050565b610712610bba565b61071a610bce565b6000806000610727610bce565b60206040518059106107365750595b9080825280601f01601f1916602001820160405250945060009350600092505b6020831015610814578260080260020a876001900402600102915060007f010000000000000000000000000000000000000000000000000000000000000002827effffffffffffffffffffffffffffffffffffffffffffffffffffffffffffff1916141515610807578185858151811015156107ce57fe5b9060200101907effffffffffffffffffffffffffffffffffffffffffffffffffffffffffffff1916908160001a90535083806001019450505b8280600101935050610756565b836040518059106108225750595b9080825280601f01601f19166020018201604052509050600092505b838310156108ea57848381518110151561085457fe5b9060200101517f010000000000000000000000000000000000000000000000000000000000000090047f01000000000000000000000000000000000000000000000000000000000000000281848151811015156108ad57fe5b9060200101907effffffffffffffffffffffffffffffffffffffffffffffffffffffffffffff1916908160001a905350828060010193505061083e565b8095505050505050919050565b6108ff610be2565b600180548060200260200160405190810160405280929190818152602001828054801561094f57602002820191906000526020600020905b81546000191681526020019060010190808311610937575b5050505050905090565b600061096482610a76565b151561096f57600080fd5b600260008360001916600019168152602001908152602001600020805490509050919050565b600060011515600360008473ffffffffffffffffffffffffffffffffffffffff1673ffffffffffffffffffffffffffffffffffffffff16815260200190815260200160002060009054906101000a900460ff1615151415610a3757600460008373ffffffffffffffffffffffffffffffffffffffff1673ffffffffffffffffffffffffffffffffffffffff168152602001908152602001600020549050610a3f565b600060010290505b919050565b60018054806001018281610a589190610bf6565b91600052602060002090016000839091909150906000191690555050565b600080600090505b600180549050811015610acb578260001916600182815481101515610a9f57fe5b906000526020600020900154600019161415610abe5760019150610ad0565b8080600101915050610a7e565b600091505b50919050565b600080600090505b600580549050811015610b6f578273ffffffffffffffffffffffffffffffffffffffff16600582815481101515610b1157fe5b906000526020600020900160009054906101000a900473ffffffffffffffffffffffffffffffffffffffff1673ffffffffffffffffffffffffffffffffffffffff161415610b625760019150610b74565b8080600101915050610ade565b600091505b50919050565b602060405190810160405280600081525090565b815481835581811511610bb557818360005260206000209182019101610bb49190610c22565b5b505050565b602060405190810160405280600081525090565b602060405190810160405280600081525090565b602060405190810160405280600081525090565b815481835581811511610c1d57818360005260206000209182019101610c1c9190610c47565b5b505050565b610c4491905b80821115610c40576000816000905550600101610c28565b5090565b90565b610c6991905b80821115610c65576000816000905550600101610c4d565b5090565b905600a165627a7a72305820252cb289305a7b4fa1a2a339bc9859417e337c2550a65ed5cc1ae29a4c9e58c10029",
  "source": "/**\r\n * ver1.1.2\r\n * \r\n * update\r\n *      add expired time: close the vote when time is up-to-date\r\n *      add list voters who can vote\r\n *          if the list is left empty, everyone can join the vote\r\n *          otherwise, only the ones in the list can cast vote\r\n *      get ballot of an address\r\n * \r\n *-----------------------------------------------------\r\n *  ver1.1.0\r\n * \r\n * update\r\n *      VotFor\r\n *      change the way managing the ballot\r\n *          voteOf => listVotersOf\r\n *      getCountOf => getCountOf\r\n * add new:\r\n *  property: \r\n *      owner\r\n *      listVotersOf\r\n *  method:\r\n *      getListVoterOf\r\n * remove:\r\n *      voteOf\r\n *      getCountOf\r\n * \r\n * -----------------------------------------------------\r\n * \r\n * * ver1.1.0\r\n * \r\n * update\r\n *      VotFor\r\n *      change the way managing the ballot\r\n *          voteOf => listVotersOf\r\n *      getCountOf => getCountOf\r\n * add new:\r\n *  property: \r\n *      owner\r\n *      listVotersOf\r\n *  method:\r\n *      getListVoterOf\r\n * remove:\r\n *      voteOf\r\n *      getCountOf\r\n\r\n * \r\n * -----------------------------------------------------\r\n * ver1.1.1\r\n * \r\n * update\r\n *      add algorithm check 1 address - 1 vote\r\n * add new:\r\n *  property: \r\n *      voted\r\n *  method:\r\n *      (none)\r\n * remove:\r\n *      (none)\r\n * -----------------------------------------------------\r\n *  * ver1.1.0\r\n * \r\n * update\r\n *      VotFor\r\n *      change the way managing the ballot\r\n *          voteOf => listVotersOf\r\n *      getCountOf => getCountOf\r\n * add new:\r\n *  property: \r\n *      owner\r\n *      listVotersOf\r\n *  method:\r\n *      getListVoterOf\r\n * remove:\r\n *      voteOf\r\n *      getCountOf\r\n * \r\n * -----------------------------------------------------\r\n * ver1\r\n * \r\n * add option when call the contract\r\n * vote for an option\r\n * convert option(bytes32) to string\r\n * get option vote\r\n * only available option can be voted\r\n * \r\n * \r\n\r\n * \r\n */\r\npragma solidity ^0.4.18;\r\n\r\ncontract votingVer1_1_4 {\r\n\r\n  address owner;\r\n  bytes32[] opt;\r\n  //mapping(bytes32 => uint) voteOf;\r\n  mapping(bytes32 => address[]) listVotersOf;\r\n  mapping(address => bool) voted;\r\n  mapping(address => bytes32) ballotOf;\r\n  address[] voters;\r\n\r\n  function votingVer1_1_4(bytes32[] _opt, address[] _voters) public {\r\n    owner = msg.sender;\r\n    opt = _opt;\r\n    voters = _voters;\r\n  }\r\n\r\n  function addOption(bytes32 _n) public {\r\n    opt.push(_n);\r\n  }\r\n\r\n  function addVoters(address _addr) public {\r\n    voters.push(_addr);\r\n  }\r\n\r\n  function getOptions() public view returns(bytes32[]) {\r\n    return opt;\r\n  }\r\n\r\n  function getListVoters() public view returns(address[]) {\r\n    return voters;\r\n  }\r\n\r\n  function getOptionByIndex(uint _i) private view returns(string) {\r\n    return bytes32ToString(opt[_i]);\r\n  }\r\n\r\n\r\n  function bytes32ToString(bytes32 x) public pure returns(string) {\r\n    bytes memory bytesString = new bytes(32);\r\n    uint charCount = 0;\r\n    for (uint j = 0; j < 32; j++) {\r\n      byte char = byte(bytes32(uint(x) * 2 ** (8 * j)));\r\n      if (char != 0) {\r\n        bytesString[charCount] = char;\r\n        charCount++;\r\n      }\r\n    }\r\n    bytes memory bytesStringTrimmed = new bytes(charCount);\r\n    for (j = 0; j < charCount; j++) {\r\n      bytesStringTrimmed[j] = bytesString[j];\r\n    }\r\n    return string(bytesStringTrimmed);\r\n  }\r\n  /* \r\n   modifier validopt(bytes32 _n){\r\n       for(uint i=0; i < opt.length; i++){\r\n           if(opt[i] == _n){\r\n               return true;\r\n           }   \r\n       }\r\n       return false;\r\n       _;\r\n       \r\n   }\r\n   */\r\n  function vailableOption(bytes32 _n) private view returns(bool) {\r\n    for (uint i = 0; i < opt.length; i++) {\r\n      if (opt[i] == _n) {\r\n        return true;\r\n      }\r\n    }\r\n    return false;\r\n  }\r\n\r\n  function vailableVoter(address _addr) private view returns(bool) {\r\n    for (uint i = 0; i < voters.length; i++) {\r\n      if (voters[i] == _addr) {\r\n        return true;\r\n      }\r\n    }\r\n    return false;\r\n  }\r\n\r\n  function VoteFor(bytes32 _option) public {\r\n    require(vailableOption(_option));\r\n    require(voted[msg.sender] == false);\r\n    if (voters.length != 0) {\r\n      require(vailableVoter(msg.sender) == true);\r\n    }\r\n    ballotOf[msg.sender] = _option;\r\n    listVotersOf[_option].push(msg.sender);\r\n    voted[msg.sender] = true;\r\n  }\r\n\r\n\r\n  function getVoteOf(address _addr) public view returns(bytes32) {\r\n    if (voted[_addr] == true) {\r\n      return ballotOf[_addr];\r\n    }\r\n    return 0x00;\r\n  }\r\n\r\n  function getCountOf(bytes32 _option) public constant returns(uint) {\r\n    require(vailableOption(_option));\r\n    return listVotersOf[_option].length;\r\n  }\r\n\r\n  function getListVoterOf(bytes32 _id) public view returns(address[]) {\r\n    return listVotersOf[_id];\r\n  }\r\n\r\n\r\n}\r\n",
  "sourcePath": "C:\\Users\\PMM81HC\\Desktop\\Experiment\\VoteChain\\contracts\\votingVer1_1_4.sol",
  "compiler": {
    "name": "solc",
    "version": "0.4.18+commit.9cf6e910.Emscripten.clang"
  },
  "schemaVersion": "1.0.1",
  "updatedAt": "2018-02-23T07:24:26.585Z"
}