{
  "contractName": "votingVer1_3_2",
  "abi": [
    {
      "constant": false,
      "inputs": [
        {
          "name": "_id",
          "type": "uint256"
        }
      ],
      "name": "closeRoom",
      "outputs": [
        {
          "name": "",
          "type": "bool"
        }
      ],
      "payable": false,
      "stateMutability": "nonpayable",
      "type": "function"
    },
    {
      "constant": false,
      "inputs": [
        {
          "name": "_til",
          "type": "string"
        },
        {
          "name": "_privateR",
          "type": "bool"
        },
        {
          "name": "_des",
          "type": "string"
        },
        {
          "name": "_expiredTime",
          "type": "uint256"
        }
      ],
      "name": "openRoom",
      "outputs": [
        {
          "name": "id",
          "type": "uint256"
        }
      ],
      "payable": false,
      "stateMutability": "nonpayable",
      "type": "function"
    },
    {
      "constant": false,
      "inputs": [
        {
          "name": "_roomID",
          "type": "uint256"
        },
        {
          "name": "_quest",
          "type": "string"
        },
        {
          "name": "_opt",
          "type": "bytes32[]"
        }
      ],
      "name": "addPoll",
      "outputs": [
        {
          "name": "pollNo",
          "type": "uint256"
        }
      ],
      "payable": false,
      "stateMutability": "nonpayable",
      "type": "function"
    },
    {
      "constant": true,
      "inputs": [
        {
          "name": "_roomID",
          "type": "uint256"
        }
      ],
      "name": "getNumberOfPolls",
      "outputs": [
        {
          "name": "",
          "type": "uint256"
        }
      ],
      "payable": false,
      "stateMutability": "view",
      "type": "function"
    },
    {
      "constant": true,
      "inputs": [
        {
          "name": "x",
          "type": "bytes32"
        }
      ],
      "name": "bytes32ToString",
      "outputs": [
        {
          "name": "",
          "type": "string"
        }
      ],
      "payable": false,
      "stateMutability": "pure",
      "type": "function"
    },
    {
      "constant": false,
      "inputs": [
        {
          "name": "_roomID",
          "type": "uint256"
        },
        {
          "name": "_option",
          "type": "bytes32[]"
        }
      ],
      "name": "voteFor",
      "outputs": [],
      "payable": false,
      "stateMutability": "nonpayable",
      "type": "function"
    },
    {
      "constant": false,
      "inputs": [
        {
          "name": "_id",
          "type": "uint256"
        },
        {
          "name": "_voters",
          "type": "address[]"
        }
      ],
      "name": "setListVoters",
      "outputs": [
        {
          "name": "",
          "type": "bool"
        }
      ],
      "payable": false,
      "stateMutability": "nonpayable",
      "type": "function"
    },
    {
      "inputs": [],
      "payable": false,
      "stateMutability": "nonpayable",
      "type": "constructor"
    },
    {
      "anonymous": false,
      "inputs": [
        {
          "indexed": true,
          "name": "roomID",
          "type": "uint256"
        },
        {
          "indexed": true,
          "name": "owner",
          "type": "address"
        },
        {
          "indexed": false,
          "name": "title",
          "type": "string"
        },
        {
          "indexed": false,
          "name": "descript",
          "type": "string"
        },
        {
          "indexed": false,
          "name": "privateRoom",
          "type": "bool"
        },
        {
          "indexed": false,
          "name": "expiredTime",
          "type": "uint256"
        }
      ],
      "name": "LOGroomOpened",
      "type": "event"
    },
    {
      "anonymous": false,
      "inputs": [
        {
          "indexed": true,
          "name": "roomID",
          "type": "uint256"
        },
        {
          "indexed": false,
          "name": "list",
          "type": "address[]"
        }
      ],
      "name": "LOGaddListVoter",
      "type": "event"
    },
    {
      "anonymous": false,
      "inputs": [
        {
          "indexed": true,
          "name": "roomID",
          "type": "uint256"
        },
        {
          "indexed": true,
          "name": "pollID",
          "type": "uint256"
        },
        {
          "indexed": false,
          "name": "question",
          "type": "string"
        },
        {
          "indexed": false,
          "name": "options",
          "type": "bytes32[]"
        }
      ],
      "name": "LOGpollingAdded",
      "type": "event"
    },
    {
      "anonymous": false,
      "inputs": [
        {
          "indexed": true,
          "name": "roomID",
          "type": "uint256"
        }
      ],
      "name": "LOGroomClosed",
      "type": "event"
    },
    {
      "anonymous": false,
      "inputs": [
        {
          "indexed": true,
          "name": "roomID",
          "type": "uint256"
        },
        {
          "indexed": false,
          "name": "options",
          "type": "bytes[]"
        }
      ],
      "name": "LOGoptions",
      "type": "event"
    },
    {
      "anonymous": false,
      "inputs": [
        {
          "indexed": true,
          "name": "roomID",
          "type": "uint256"
        },
        {
          "indexed": false,
          "name": "option",
          "type": "bytes"
        },
        {
          "indexed": false,
          "name": "voters",
          "type": "address[]"
        }
      ],
      "name": "LOGlistVotersOf",
      "type": "event"
    },
    {
      "anonymous": false,
      "inputs": [
        {
          "indexed": true,
          "name": "roomID",
          "type": "uint256"
        },
        {
          "indexed": false,
          "name": "option",
          "type": "bytes"
        },
        {
          "indexed": false,
          "name": "counts",
          "type": "uint256"
        },
        {
          "indexed": false,
          "name": "voters",
          "type": "address[]"
        }
      ],
      "name": "LOGroomResult",
      "type": "event"
    },
    {
      "anonymous": false,
      "inputs": [
        {
          "indexed": true,
          "name": "roomID",
          "type": "uint256"
        },
        {
          "indexed": true,
          "name": "sender",
          "type": "address"
        },
        {
          "indexed": false,
          "name": "options",
          "type": "bytes32[]"
        }
      ],
      "name": "LOGvoteNotify",
      "type": "event"
    }
  ],
  "bytecode": "0x6060604052341561000f57600080fd5b6120e08061001e6000396000f300606060405260043610610083576000357c0100000000000000000000000000000000000000000000000000000000900463ffffffff1680631c3a889214610088578063572ab162146100c35780635a192c011461018b57806380be87e0146102455780639201de551461027c578063a82a56011461031c578063fe7530541461037f575b600080fd5b341561009357600080fd5b6100a960048080359060200190919050506103fa565b604051808215151515815260200191505060405180910390f35b34156100ce57600080fd5b610175600480803590602001908201803590602001908080601f01602080910402602001604051908101604052809392919081815260200183838082843782019150505050505091908035151590602001909190803590602001908201803590602001908080601f016020809104026020016040519081016040528093929190818152602001838380828437820191505050505050919080359060200190919050506104f4565b6040518082815260200191505060405180910390f35b341561019657600080fd5b61022f600480803590602001909190803590602001908201803590602001908080601f01602080910402602001604051908101604052809392919081815260200183838082843782019150505050505091908035906020019082018035906020019080806020026020016040519081016040528093929190818152602001838360200280828437820191505050505050919050506108d8565b6040518082815260200191505060405180910390f35b341561025057600080fd5b6102666004808035906020019091905050610bce565b6040518082815260200191505060405180910390f35b341561028757600080fd5b6102a1600480803560001916906020019091905050610bfa565b6040518080602001828103825283818151815260200191508051906020019080838360005b838110156102e15780820151818401526020810190506102c6565b50505050905090810190601f16801561030e5780820380516001836020036101000a031916815260200191505b509250505060405180910390f35b341561032757600080fd5b61037d600480803590602001909190803590602001908201803590602001908080602002602001604051908101604052809392919081815260200183836020028082843782019150505050505091905050610de7565b005b341561038a57600080fd5b6103e06004808035906020019091908035906020019082018035906020019080806020026020016040519081016040528093929190818152602001838360200280828437820191505050505050919050506112ed565b604051808215151515815260200191505060405180910390f35b6000813373ffffffffffffffffffffffffffffffffffffffff1660008281548110151561042357fe5b90600052602060002090600a020160000160009054906101000a900473ffffffffffffffffffffffffffffffffffffffff1673ffffffffffffffffffffffffffffffffffffffff1614151561047757600080fd5b8260008181548110151561048757fe5b90600052602060002090600a020160090160009054906101000a900460ff1615156104b157600080fd5b600080858154811015156104c157fe5b90600052602060002090600a020160090160006101000a81548160ff021916908315150217905550600192505050919050565b600080805490509050600080548091906001016105119190611c5f565b508060008281548110151561052257fe5b90600052602060002090600a0201600101819055503360008281548110151561054757fe5b90600052602060002090600a020160000160006101000a81548173ffffffffffffffffffffffffffffffffffffffff021916908373ffffffffffffffffffffffffffffffffffffffff160217905550826000828154811015156105a657fe5b90600052602060002090600a020160050190805190602001906105ca929190611c91565b50846000828154811015156105db57fe5b90600052602060002090600a020160020190805190602001906105ff929190611c91565b508360008281548110151561061057fe5b90600052602060002090600a020160030160006101000a81548160ff0219169083151502179055508160008281548110151561064857fe5b90600052602060002090600a020160080181905550600160008281548110151561066e57fe5b90600052602060002090600a020160090160006101000a81548160ff0219169083151502179055506000818154811015156106a557fe5b90600052602060002090600a020160000160009054906101000a900473ffffffffffffffffffffffffffffffffffffffff1673ffffffffffffffffffffffffffffffffffffffff16817fa2b5ca96e1c5de8e9a5a72d3726d31afed57fde16bcf46dbf75a1ddcc2a0df0960008481548110151561071e57fe5b90600052602060002090600a020160020160008581548110151561073e57fe5b90600052602060002090600a020160050160008681548110151561075e57fe5b90600052602060002090600a020160030160009054906101000a900460ff1660008781548110151561078c57fe5b90600052602060002090600a0201600801546040518080602001806020018515151515815260200184815260200183810383528781815460018160011615610100020316600290048152602001915080546001816001161561010002031660029004801561083b5780601f106108105761010080835404028352916020019161083b565b820191906000526020600020905b81548152906001019060200180831161081e57829003601f168201915b50508381038252868181546001816001161561010002031660029004815260200191508054600181600116156101000203166002900480156108be5780601f10610893576101008083540402835291602001916108be565b820191906000526020600020905b8154815290600101906020018083116108a157829003601f168201915b5050965050505050505060405180910390a3949350505050565b6000833373ffffffffffffffffffffffffffffffffffffffff1660008281548110151561090157fe5b90600052602060002090600a020160000160009054906101000a900473ffffffffffffffffffffffffffffffffffffffff1673ffffffffffffffffffffffffffffffffffffffff1614151561095557600080fd5b8460008181548110151561096557fe5b90600052602060002090600a020160090160009054906101000a900460ff16151561098f57600080fd5b60008681548110151561099e57fe5b90600052602060002090600a02016004018054905092506000868154811015156109c457fe5b90600052602060002090600a020160040180548091906001016109e79190611d11565b50846000878154811015156109f857fe5b90600052602060002090600a020160040184815481101515610a1657fe5b90600052602060002090600302016000019080519060200190610a3a929190611c91565b50610a46868486611511565b82867fa07ff47130ada328502f2b954ef63cb0306148ca86fe6b9468d2794128b87743600089815481101515610a7857fe5b90600052602060002090600a020160040186815481101515610a9657fe5b906000526020600020906003020160000160008a815481101515610ab657fe5b90600052602060002090600a020160040187815481101515610ad457fe5b9060005260206000209060030201600101604051808060200180602001838103835285818154600181600116156101000203166002900481526020019150805460018160011615610100020316600290048015610b725780601f10610b4757610100808354040283529160200191610b72565b820191906000526020600020905b815481529060010190602001808311610b5557829003601f168201915b50508381038252848181548152602001915080548015610bb557602002820191906000526020600020905b81546000191681526020019060010190808311610b9d575b505094505050505060405180910390a350509392505050565b60008082815481101515610bde57fe5b90600052602060002090600a0201600401805490509050919050565b610c02611d43565b610c0a611d57565b6000806000610c17611d57565b6020604051805910610c265750595b9080825280601f01601f1916602001820160405250945060009350600092505b6020831015610d04578260080260020a876001900402600102915060007f010000000000000000000000000000000000000000000000000000000000000002827effffffffffffffffffffffffffffffffffffffffffffffffffffffffffffff1916141515610cf757818585815181101515610cbe57fe5b9060200101907effffffffffffffffffffffffffffffffffffffffffffffffffffffffffffff1916908160001a90535083806001019450505b8280600101935050610c46565b83604051805910610d125750595b9080825280601f01601f19166020018201604052509050600092505b83831015610dda578483815181101515610d4457fe5b9060200101517f010000000000000000000000000000000000000000000000000000000000000090047f0100000000000000000000000000000000000000000000000000000000000000028184815181101515610d9d57fe5b9060200101907effffffffffffffffffffffffffffffffffffffffffffffffffffffffffffff1916908160001a9053508280600101935050610d2e565b8095505050505050919050565b81600081815481101515610df757fe5b90600052602060002090600a020160090160009054906101000a900460ff161515610e2157600080fd5b8233600082815481101515610e3257fe5b90600052602060002090600a020160060160000160008273ffffffffffffffffffffffffffffffffffffffff1673ffffffffffffffffffffffffffffffffffffffff168152602001908152602001600020600201600083815260200190815260200160002060009054906101000a900460ff16151515610eb157600080fd5b84846000806000610ec185610bce565b8451141515610ecf57600080fd5b60009250600091505b610ee185610bce565b821015610fd657600090505b600085815481101515610efc57fe5b90600052602060002090600a020160040182815481101515610f1a57fe5b906000526020600020906003020160010180549050811015610fc957600085815481101515610f4557fe5b90600052602060002090600a020160040182815481101515610f6357fe5b906000526020600020906003020160010181815481101515610f8157fe5b906000526020600020900154600019168483815181101515610f9f57fe5b90602001906020020151600019161415610fbc5782806001019350505b8080600101915050610eed565b8180600101925050610ed8565b610fdf85610bce565b83141515610fec57600080fd5b60008a815481101515610ffb57fe5b90600052602060002090600a020160030160009054906101000a900460ff161561102a576110298a8a611569565b5b8860008b81548110151561103a57fe5b90600052602060002090600a020160060160000160003373ffffffffffffffffffffffffffffffffffffffff1673ffffffffffffffffffffffffffffffffffffffff16815260200190815260200160002060010160008c815260200190815260200160002090805190602001906110b2929190611d6b565b50600160008b8154811015156110c457fe5b90600052602060002090600a020160060160000160003373ffffffffffffffffffffffffffffffffffffffff1673ffffffffffffffffffffffffffffffffffffffff16815260200190815260200160002060020160008c815260200190815260200160002060006101000a81548160ff02191690831515021790555061114a8a8a611b68565b60008a81548110151561115957fe5b90600052602060002090600a020160060160000160003373ffffffffffffffffffffffffffffffffffffffff1673ffffffffffffffffffffffffffffffffffffffff168152602001908152602001600020600001600081548092919060010191905055503373ffffffffffffffffffffffffffffffffffffffff1660008b8154811015156111e357fe5b90600052602060002090600a0201600101547fae7fab35878ff4034302ce8b7ef19f037e3ef08350dca61711beb352c1076c2f60008d81548110151561122557fe5b90600052602060002090600a020160060160000160003373ffffffffffffffffffffffffffffffffffffffff1673ffffffffffffffffffffffffffffffffffffffff16815260200190815260200160002060010160008e8152602001908152602001600020604051808060200182810382528381815481526020019150805480156112d357602002820191906000526020600020905b815460001916815260200190600101908083116112bb575b50509250505060405180910390a350505050505050505050565b6000823373ffffffffffffffffffffffffffffffffffffffff1660008281548110151561131657fe5b90600052602060002090600a020160000160009054906101000a900473ffffffffffffffffffffffffffffffffffffffff1673ffffffffffffffffffffffffffffffffffffffff1614151561136a57600080fd5b8360008181548110151561137a57fe5b90600052602060002090600a020160090160009054906101000a900460ff1615156113a457600080fd5b846000818154811015156113b457fe5b90600052602060002090600a020160030160009054906101000a900460ff1615156113de57600080fd5b846000878154811015156113ee57fe5b90600052602060002090600a02016006016001019080519060200190611415929190611dbe565b5060008681548110151561142557fe5b90600052602060002090600a0201600101547f19b82506b3313c2dd5d3d7062965522938d291754bdf64c433f06c2a5b5f589760008881548110151561146757fe5b90600052602060002090600a0201600601600101604051808060200182810382528381815481526020019150805480156114f657602002820191906000526020600020905b8160009054906101000a900473ffffffffffffffffffffffffffffffffffffffff1673ffffffffffffffffffffffffffffffffffffffff16815260200190600101908083116114ac575b50509250505060405180910390a26001935050505092915050565b8060008481548110151561152157fe5b90600052602060002090600a02016004018381548110151561153f57fe5b90600052602060002090600302016001019080519060200190611563929190611d6b565b50505050565b60008260008181548110151561157b57fe5b90600052602060002090600a020160090160009054906101000a900460ff1615156115a557600080fd5b83336000828154811015156115b657fe5b90600052602060002090600a020160060160000160008273ffffffffffffffffffffffffffffffffffffffff1673ffffffffffffffffffffffffffffffffffffffff168152602001908152602001600020600201600083815260200190815260200160002060009054906101000a900460ff1615151561163557600080fd5b8585600080600061164585610bce565b845114151561165357600080fd5b60009250600091505b61166585610bce565b82101561175a57600090505b60008581548110151561168057fe5b90600052602060002090600a02016004018281548110151561169e57fe5b90600052602060002090600302016001018054905081101561174d576000858154811015156116c957fe5b90600052602060002090600a0201600401828154811015156116e757fe5b90600052602060002090600302016001018181548110151561170557fe5b90600052602060002090015460001916848381518110151561172357fe5b906020019060200201516000191614156117405782806001019350505b8080600101915050611671565b818060010192505061165c565b61176385610bce565b8314151561177057600080fd5b600098505b60008b81548110151561178457fe5b90600052602060002090600a020160060160010180549050891015611b565760008b8154811015156117b257fe5b90600052602060002090600a0201600601600101898154811015156117d357fe5b906000526020600020900160009054906101000a900473ffffffffffffffffffffffffffffffffffffffff1673ffffffffffffffffffffffffffffffffffffffff163373ffffffffffffffffffffffffffffffffffffffff161415611b49578960008c81548110151561184257fe5b90600052602060002090600a020160060160000160003373ffffffffffffffffffffffffffffffffffffffff1673ffffffffffffffffffffffffffffffffffffffff16815260200190815260200160002060010160008d815260200190815260200160002090805190602001906118ba929190611d6b565b50600160008c8154811015156118cc57fe5b90600052602060002090600a020160060160000160003373ffffffffffffffffffffffffffffffffffffffff1673ffffffffffffffffffffffffffffffffffffffff16815260200190815260200160002060020160008d815260200190815260200160002060006101000a81548160ff02191690831515021790555060008b81548110151561195757fe5b90600052602060002090600a020160060160000160003373ffffffffffffffffffffffffffffffffffffffff1673ffffffffffffffffffffffffffffffffffffffff168152602001908152602001600020600001600081548092919060010191905055506119c58b8b611b68565b60008b8154811015156119d457fe5b90600052602060002090600a0201600601600101898154811015156119f557fe5b906000526020600020900160009054906101000a900473ffffffffffffffffffffffffffffffffffffffff1673ffffffffffffffffffffffffffffffffffffffff1660008c815481101515611a4657fe5b90600052602060002090600a0201600101547fae7fab35878ff4034302ce8b7ef19f037e3ef08350dca61711beb352c1076c2f60008e815481101515611a8857fe5b90600052602060002090600a020160060160000160003373ffffffffffffffffffffffffffffffffffffffff1673ffffffffffffffffffffffffffffffffffffffff16815260200190815260200160002060010160008f815260200190815260200160002060405180806020018281038252838181548152602001915080548015611b3657602002820191906000526020600020905b81546000191681526020019060010190808311611b1e575b50509250505060405180910390a3611b5b565b8880600101995050611775565b600080fd5b5050505050505050505050565b60008090505b611b7783610bce565b811015611c5a57600083815481101515611b8d57fe5b90600052602060002090600a020160040181815481101515611bab57fe5b906000526020600020906003020160020160008383815181101515611bcc57fe5b90602001906020020151600019166000191681526020019081526020016000208054806001018281611bfe9190611e48565b9160005260206000209001600033909190916101000a81548173ffffffffffffffffffffffffffffffffffffffff021916908373ffffffffffffffffffffffffffffffffffffffff160217905550508080600101915050611b6e565b505050565b815481835581811511611c8c57600a0281600a028360005260206000209182019101611c8b9190611e74565b5b505050565b828054600181600116156101000203166002900490600052602060002090601f016020900481019282601f10611cd257805160ff1916838001178555611d00565b82800160010185558215611d00579182015b82811115611cff578251825591602001919060010190611ce4565b5b509050611d0d9190611f3a565b5090565b815481835581811511611d3e57600302816003028360005260206000209182019101611d3d9190611f5f565b5b505050565b602060405190810160405280600081525090565b602060405190810160405280600081525090565b828054828255906000526020600020908101928215611dad579160200282015b82811115611dac578251829060001916905591602001919060010190611d8b565b5b509050611dba9190611f9e565b5090565b828054828255906000526020600020908101928215611e37579160200282015b82811115611e365782518260006101000a81548173ffffffffffffffffffffffffffffffffffffffff021916908373ffffffffffffffffffffffffffffffffffffffff16021790555091602001919060010190611dde565b5b509050611e449190611fc3565b5090565b815481835581811511611e6f57818360005260206000209182019101611e6e9190611f3a565b5b505050565b611f3791905b80821115611f3357600080820160006101000a81549073ffffffffffffffffffffffffffffffffffffffff02191690556001820160009055600282016000611ec29190612006565b6003820160006101000a81549060ff0219169055600482016000611ee6919061204e565b600582016000611ef69190612006565b600682016000600182016000611f0c9190612072565b505060088201600090556009820160006101000a81549060ff021916905550600a01611e7a565b5090565b90565b611f5c91905b80821115611f58576000816000905550600101611f40565b5090565b90565b611f9b91905b80821115611f975760008082016000611f7e9190612006565b600182016000611f8e9190612093565b50600301611f65565b5090565b90565b611fc091905b80821115611fbc576000816000905550600101611fa4565b5090565b90565b61200391905b80821115611fff57600081816101000a81549073ffffffffffffffffffffffffffffffffffffffff021916905550600101611fc9565b5090565b90565b50805460018160011615610100020316600290046000825580601f1061202c575061204b565b601f01602090049060005260206000209081019061204a9190611f3a565b5b50565b508054600082556003029060005260206000209081019061206f9190611f5f565b50565b50805460008255906000526020600020908101906120909190611f3a565b50565b50805460008255906000526020600020908101906120b19190611f9e565b505600a165627a7a723058200318e80c60455b2bbaf8fcbcecf0ac4ed7cdb6fa07a57b80be3bd51dce64c5a80029",
  "source": "/**\r\n * ver 1.2.1\r\n * \r\n * add private/public property of a vote\r\n * \r\n * -----------------------------------------------------\r\n * ver 1.2.0\r\n * \r\n * create room(s) to vote\r\n * only add/set option/list voters/cast ballot for opening rooms\r\n * voted voter cannot cast another vote\r\n * \r\n * -----------------------------------------------------\r\n * ver1.1.4\r\n * \r\n * add contract event\r\n * \r\n * -----------------------------------------------------\r\n * ver1.1.3\r\n * \r\n * add modifier to control vote, ballot, 1 address - 1 vote\r\n * check duplicate option when initiate the contract\r\n * \r\n * -----------------------------------------------------\r\n * ver1.1.2\r\n * \r\n * update\r\n *      add expired time: close the vote when time is up-to-date\r\n *      add list voters who can vote\r\n *          if the list is left empty, everyone can join the vote\r\n *          otherwise, only the ones in the list can cast vote\r\n *      get ballot of an address\r\n * \r\n * -----------------------------------------------------\r\n * ver1.1.1\r\n * \r\n * update\r\n *      add algorithm check 1 address - 1 vote\r\n * add new:\r\n *  property: \r\n *      voted\r\n *  method:\r\n *      (none)\r\n * remove:\r\n *      (none)\r\n * \r\n * -----------------------------------------------------\r\n * ver1.1.0\r\n * \r\n * update\r\n *      VotFor\r\n *      change the way managing the ballot\r\n *          voteOf => listVotersOf\r\n *      getCountOf => getCountOf\r\n * add new:\r\n *  property: \r\n *      owner\r\n *      listVotersOf\r\n *  method:\r\n *      getListVoterOf\r\n * remove:\r\n *      voteOf\r\n *      getCountOf\r\n * \r\n * -----------------------------------------------------\r\n * ver1\r\n * \r\n * add option when call the contract\r\n * vote for an option\r\n * convert option(bytes32) to string\r\n * get option vote\r\n * only available option can be voted\r\n * \r\n */\r\n \r\n \r\n pragma solidity ^0.4.18;\r\n \r\n \r\n \r\n contract votingVer1_3_2\r\n {\r\n    room[] rooms;\r\n    \r\n    struct room\r\n    {\r\n        address owner;\r\n        uint id;\r\n        string title;\r\n        bool privateRoom;\r\n        Poll[] poll;\r\n        string descript;\r\n        ListVoters listVoters;\r\n        uint expiredTime;\r\n        bool open;\r\n    }\r\n\r\n    struct Voter\r\n    {\r\n        uint point;\r\n        mapping(uint => bytes32[]) voteFor;//roomID => ballot\r\n        mapping(uint => bool) voted;//roomID => ballot\r\n    }\r\n    \r\n    // struct Ballot\r\n    // {\r\n    //     bool voted;\r\n    //     bytes32[] voteFor;\r\n    // }\r\n    \r\n    struct ListVoters\r\n    {\r\n        mapping (address => Voter) voter;\r\n        address[] addrs;\r\n    }\r\n    \r\n    struct Poll\r\n    {\r\n        string questions;\r\n        bytes32[] options;\r\n        mapping(bytes32 => address[]) listVotersOf;\r\n        //bytes32[] res;\r\n    }\r\n\r\n    \r\n    event LOGroomOpened(uint indexed roomID, address indexed owner,string title, string descript, bool privateRoom, uint expiredTime);\r\n    event LOGaddListVoter(uint indexed roomID, address[] list);\r\n    event LOGpollingAdded(uint indexed roomID,uint indexed pollID, string question, bytes32[] options);\r\n    //event LOGpollingOptionAdded(uint indexed roomID,uint indexed pollID, string question, bytes32[] option);\r\n    event LOGroomClosed(uint indexed roomID);\r\n    event LOGoptions(uint indexed roomID, bytes[] options);\r\n    event LOGlistVotersOf(uint indexed roomID, bytes option, address[] voters);\r\n    //event roomInfo(uint indexed id, address indexed owner, bytes32[] options, bytes32 description, listVoter);\r\n    event LOGroomResult(uint indexed roomID, bytes option, uint counts, address[] voters);\r\n    \r\n    event LOGvoteNotify(uint indexed roomID, address indexed sender, bytes32[] options);\r\n    \r\n    \r\n    modifier owned(uint _RoomID)\r\n    {\r\n       require(rooms[_RoomID].owner == msg.sender);\r\n       _;\r\n    }\r\n    \r\n    modifier roomOpening(uint _RoomID) \r\n    {\r\n        require(rooms[_RoomID].open);\r\n        _;\r\n    }\r\n    \r\n    modifier roomClosed(uint _RoomID) \r\n    {\r\n        require(!rooms[_RoomID].open);\r\n        _;\r\n    }\r\n    \r\n\r\n    modifier listVoterEmpty(uint _RoomID)\r\n    {\r\n        require(rooms[_RoomID].listVoters.addrs.length == 0);\r\n        _;\r\n    }\r\n    \r\n    modifier privateRoom(uint _RoomID)\r\n    {\r\n        require(rooms[_RoomID].privateRoom);\r\n        _;\r\n    }\r\n    \r\n    modifier validOption(uint _roomID, bytes32[] _option)\r\n    {\r\n        if(_option.length != getNumberOfPolls(_roomID))\r\n        {\r\n            revert();\r\n        }\r\n        uint a = 0;\r\n        for(uint i = 0; i < getNumberOfPolls(_roomID); i++)\r\n        {\r\n            for(uint j = 0; j < rooms[_roomID].poll[i].options.length; j++)\r\n            {\r\n                if(_option[i] == rooms[_roomID].poll[i].options[j])\r\n                {\r\n                    a++;\r\n                }\r\n            }\r\n        }\r\n        if(a != getNumberOfPolls(_roomID))\r\n        {\r\n            revert();\r\n        }\r\n        _;\r\n    }\r\n    modifier notVoted(uint _roomID, address addr)\r\n    {\r\n        require(!rooms[_roomID].listVoters.voter[addr].voted[_roomID]);\r\n        _;\r\n    }\r\n    function votingVer1_3_2()\r\n        public \r\n    {\r\n        \r\n    }\r\n    \r\n    function openRoom(string _til, bool _privateR, string _des, uint _expiredTime) public returns (uint id)\r\n    {\r\n        id = rooms.length;\r\n        rooms.length++;\r\n        rooms[id].id = id;\r\n        rooms[id].owner = msg.sender;\r\n        rooms[id].descript = _des;\r\n        rooms[id].title = _til;\r\n        rooms[id].privateRoom = _privateR;\r\n        rooms[id].expiredTime = _expiredTime;\r\n        rooms[id].open = true;\r\n        LOGroomOpened(id, rooms[id].owner,rooms[id].title, rooms[id].descript, rooms[id].privateRoom, rooms[id].expiredTime);\r\n    }\r\n    \r\n    function addPoll(uint _roomID, string _quest, bytes32[] _opt) \r\n            owned(_roomID)\r\n            roomOpening(_roomID)\r\n            public returns(uint pollNo)\r\n    {\r\n        pollNo = rooms[_roomID].poll.length;\r\n        rooms[_roomID].poll.length++;\r\n        rooms[_roomID].poll[pollNo].questions = _quest;\r\n        addPollOption(_roomID, pollNo, _opt);\r\n        LOGpollingAdded(_roomID, pollNo, rooms[_roomID].poll[pollNo].questions, rooms[_roomID].poll[pollNo].options);\r\n    }\r\n\r\n    function addPollOption(uint _id, uint _pollNo, bytes32[] _opt) \r\n            private\r\n    {\r\n        rooms[_id].poll[_pollNo].options = _opt;\r\n    }\r\n    \r\n    function getNumberOfPolls(uint _roomID) public view returns(uint)\r\n    {\r\n        return rooms[_roomID].poll.length;\r\n    }\r\n    \r\n    function closeRoom(uint _id) \r\n            owned(_id) \r\n            roomOpening(_id) public returns (bool)\r\n    {\r\n        rooms[_id].open = false;\r\n        //calculateRoomResult(_id);\r\n       // LOGroomClosed(rooms[_id].id, rooms[_id].result);\r\n        return true;\r\n    }\r\n    \r\n    function checkOpen(uint _id) private view returns(bool)\r\n    {\r\n        return rooms[_id].open;\r\n    }\r\n    \r\n    function setListVoters(uint _id, address[] _voters) \r\n            owned(_id)\r\n            roomOpening(_id)\r\n            privateRoom(_id)\r\n            public returns (bool)\r\n    {\r\n        rooms[_id].listVoters.addrs = _voters;\r\n        LOGaddListVoter(rooms[_id].id, rooms[_id].listVoters.addrs);\r\n        return true;\r\n    }\r\n    function addToListVoteOf(uint _roomID, bytes32[] _option) private\r\n    {\r\n        for(uint j = 0; j < getNumberOfPolls(_roomID); j++)\r\n        {\r\n            rooms[_roomID].poll[j].listVotersOf[_option[j]].push(msg.sender);\r\n        }\r\n    }\r\n    \r\n    function voteForPrivateRoom(uint _roomID, bytes32[] _option)\r\n        roomOpening(_roomID)\r\n        notVoted(_roomID, msg.sender)\r\n        validOption(_roomID, _option)\r\n        private \r\n    {\r\n         for(uint i= 0; i < rooms[_roomID].listVoters.addrs.length ; i++)\r\n            {\r\n                if(msg.sender == rooms[_roomID].listVoters.addrs[i])\r\n                {\r\n                    rooms[_roomID].listVoters.voter[msg.sender].voteFor[_roomID] = _option;\r\n                    rooms[_roomID].listVoters.voter[msg.sender].voted[_roomID] = true;\r\n                    rooms[_roomID].listVoters.voter[msg.sender].point ++;\r\n                    addToListVoteOf(_roomID, _option);\r\n                    LOGvoteNotify(rooms[_roomID].id, rooms[_roomID].listVoters.addrs[i], rooms[_roomID].listVoters.voter[msg.sender].voteFor[_roomID]);\r\n                    return;\r\n                }\r\n            }\r\n            revert();\r\n    }\r\n    \r\n    function voteFor(uint _roomID, bytes32[] _option)\r\n        roomOpening(_roomID)\r\n        notVoted(_roomID, msg.sender)\r\n        validOption(_roomID, _option)\r\n        public\r\n    {\r\n        //require(!rooms[_roomID].listVoters.voter[msg.sender].ballot[_roomID].voted);\r\n        if(rooms[_roomID].privateRoom)\r\n        {\r\n            voteForPrivateRoom(_roomID, _option);\r\n        }\r\n        rooms[_roomID].listVoters.voter[msg.sender].voteFor[_roomID] = _option;\r\n        rooms[_roomID].listVoters.voter[msg.sender].voted[_roomID] = true;\r\n        addToListVoteOf(_roomID, _option);\r\n        rooms[_roomID].listVoters.voter[msg.sender].point ++;\r\n        LOGvoteNotify(rooms[_roomID].id, msg.sender, rooms[_roomID].listVoters.voter[msg.sender].voteFor[_roomID]);\r\n    }\r\n    // function getCountOf(uint _roomID, uint _pollNo, bytes32 _option) public view returns(uint)\r\n    // {\r\n    //     return rooms[_roomID].poll[_pollNo].listVotersOf[_option].length;\r\n    // }\r\n    // function VoteFor(uint _id, bytes _option) \r\n    //             roomOpening(_id)\r\n    //             // validOption(_option) \r\n    //             // notVoted(msg.sender)  \r\n    //             //hasVoter(msg.sender)\r\n    //             public returns (bool)\r\n    // {   \r\n    //     if(rooms[_id].privateRoom)\r\n    //     {\r\n    //         for(uint i= 0; i < rooms[_id].listVoters.Addrs.length ; i++)\r\n    //         {\r\n    //             if(msg.sender == rooms[_id].listVoters.Addrs[i])\r\n    //             {\r\n    //                 rooms[_id].listVoters.voter[msg.sender].ballot[msg.sender] = _option;\r\n    //                 rooms[_id].listVotersOf[_option].push(msg.sender);\r\n    //                 rooms[_id].listVoters.voter[msg.sender].voted = true;\r\n    //                 rooms[_id].listVoters.voter[msg.sender].point[msg.sender]++;\r\n    //                 LOGvoteNotify(rooms[_id].id,msg.sender, rooms[_id].listVoters.voter[msg.sender].ballot[msg.sender]);\r\n    //             }\r\n    //         }\r\n    //         revert();\r\n    //         return false;\r\n    //     }\r\n    //     rooms[_id].listVoters.voter[msg.sender].ballot[msg.sender] = _option;\r\n    //     rooms[_id].listVoters.voter[msg.sender].voted = true;\r\n    //     rooms[_id].listVotersOf[_option].push(msg.sender);\r\n    //     rooms[_id].listVoters.voter[msg.sender].point[msg.sender]++;\r\n    //     LOGvoteNotify(rooms[_id].id,msg.sender, rooms[_id].listVoters.voter[msg.sender].ballot[msg.sender]);\r\n    //     return true;\r\n    // }\r\n    // function calculateRoomResult(uint _id) private returns(bytes)\r\n    // {\r\n    //     bytes memory res;\r\n    //     uint temp;\r\n    //     res = rooms[_id].options[0];\r\n    //     temp = getCountOf(_id, rooms[_id].options[0]);\r\n    //     for(uint i = 1; i < rooms[_id].options.length; i++)\r\n    //     { \r\n    //         if(temp < getCountOf(_id, rooms[_id].options[i]))\r\n    //         {\r\n    //             temp = getCountOf(_id, rooms[_id].options[i]);     \r\n    //             res = rooms[_id].options[i];\r\n    //         }\r\n    //     }\r\n    //     rooms[_id].result = res;\r\n    //     return rooms[_id].result;\r\n    // }\r\n    \r\n    // function getRoomResult(uint _id) roomClosed(_id) public view returns(bytes)\r\n    // {\r\n    //     return rooms[_id].result;\r\n    // }\r\n    \r\n    // function getCountOf(uint _id, bytes _option) public constant returns(uint){\r\n    //     //require(vailableCandidate(_addr));\r\n    //     return rooms[_id].listVotersOf[_option].length;\r\n    // }\r\n    \r\n    // function getListVoterOf(uint _id, bytes _option) public view returns(address[])\r\n    // {\r\n    //     return rooms[_id].listVotersOf[_option];\r\n    // }\r\n    // function getOptions(uint _id) public view returns(bytes[])\r\n    // {\r\n    //     return rooms[_id].options;\r\n    // }\r\n    \r\n    // function getVoteOf(uint _id, address _addr) public view returns(bytes)\r\n    // {\r\n    //     if(rooms[_id].listVoters.voter[_addr].voted == true)\r\n    //     {\r\n    //         return (rooms[_id].listVoters.voter[_addr].ballot[_addr]);\r\n    //     }\r\n    // }\r\n    \r\n    \r\n//     function checkInitiateOption(bytes32[] _option) private pure returns(bool)\r\n//     {\r\n//         for(uint i = 0; i <= _option.length - 1; i++){\r\n//             var temp = _option[i];\r\n//             for(uint j = i+1; j <= _option.length-1; j++){\r\n//                 if (temp == _option[j] )\r\n//                 {\r\n//                     return false;\r\n//                 }\r\n//             }\r\n//         }\r\n//         return true;\r\n//     }\r\n    \r\n    \r\n    \r\n    \r\n//   function checkVailableOption(bytes32 _n) private view returns(bool)\r\n//     {\r\n//         for(uint i = 0; i < opt.length; i++)\r\n//         {\r\n//             if(opt[i] == _n)\r\n//             {\r\n//                 return true;\r\n//             }    \r\n//         }\r\n//         return false;\r\n//     }\r\n    \r\n//     function checkVailableVoter(address _addr) private view returns(bool)\r\n//     {\r\n//         for(uint i = 0; i < voters.length; i++)\r\n//         {\r\n//             if(voters[i] == _addr)\r\n//             {\r\n//                 return true;\r\n//             }\r\n//         }\r\n//         return false;\r\n//     }\r\n\r\n//     modifier validInitiate(bytes32[] _option) \r\n//     {\r\n//         if(_option.length != 0)\r\n//         {\r\n//             require(checkInitiateOption(_option));    \r\n//         }\r\n        \r\n//         _;    \r\n//     }\r\n//     modifier validOption(bytes32 _option)\r\n//     {\r\n//         require(!checkVailableOption(_option));\r\n//         _;\r\n       \r\n//     }\r\n//     modifier notVoted(address _addr)\r\n//     {\r\n       \r\n//         require(voted[_addr] == false);\r\n//         _;\r\n       \r\n//     }\r\n//     // modifier validVoter(address _addr)\r\n//     // {\r\n//     //     require(checkVailableVoter(_addr));\r\n//     //     _;\r\n        \r\n//     // }\r\n    // modifier hasVoter(address _addr){\r\n    //     if(voters.length != 0)\r\n    //     {\r\n    //         require(checkVailableVoter(_addr) == true);    \r\n    //     }\r\n    //     _;\r\n       \r\n    // }\r\n    \r\n//     function addOption(bytes32 _n) \r\n//             validOption(_n)\r\n//             public\r\n//     {\r\n//         notify(msg.sender, bytes32ToString(_n), \"option added\");\r\n//         opt.push(_n);\r\n//     }\r\n//     function addVoter(address _addr) public\r\n//     {\r\n//         voters.push(_addr);\r\n//     }\r\n    \r\n//     function getOptions() public view returns(bytes32[])\r\n//     {\r\n//         return opt;\r\n//     }\r\n     \r\n//     function getListVoters() public view returns(address[])\r\n//     {\r\n//         return voters;\r\n//     }\r\n    \r\n//     function getOptionByIndex(uint _i) private view returns(string)\r\n//     {\r\n//         return bytes32ToString(opt[_i]);\r\n//     }\r\n    \r\n    \r\n    function bytes32ToString(bytes32 x) public pure returns (string) \r\n    {\r\n        bytes memory bytesString = new bytes(32);\r\n        uint charCount = 0;\r\n        for (uint j = 0; j < 32; j++) \r\n        {\r\n            byte char = byte(bytes32(uint(x) * 2 ** (8 * j)));\r\n            if (char != 0) \r\n            {\r\n                bytesString[charCount] = char;\r\n                charCount++;\r\n            }\r\n        }\r\n        bytes memory bytesStringTrimmed = new bytes(charCount);\r\n        for (j = 0; j < charCount; j++) \r\n        {\r\n            bytesStringTrimmed[j] = bytesString[j];\r\n        }\r\n        return string(bytesStringTrimmed);\r\n    }\r\n }",
  "sourcePath": "C:\\Users\\PMM81HC\\Desktop\\Experiment\\VoteChain\\contracts\\votingVer1_3_2.sol",
  "compiler": {
    "name": "solc",
    "version": "0.4.18+commit.9cf6e910.Emscripten.clang"
  },
  "schemaVersion": "1.0.1",
  "updatedAt": "2018-03-20T10:43:56.725Z"
}