{
  "contractName": "votingVer1_3_3",
  "abi": [
    {
      "inputs": [],
      "payable": false,
      "stateMutability": "nonpayable",
      "type": "constructor"
    },
    {
      "anonymous": false,
      "inputs": [
        {
          "indexed": true,
          "name": "roomID",
          "type": "uint256"
        },
        {
          "indexed": true,
          "name": "owner",
          "type": "address"
        },
        {
          "indexed": false,
          "name": "title",
          "type": "string"
        },
        {
          "indexed": false,
          "name": "descript",
          "type": "string"
        },
        {
          "indexed": false,
          "name": "privateRoom",
          "type": "bool"
        },
        {
          "indexed": false,
          "name": "expiredTime",
          "type": "uint256"
        }
      ],
      "name": "LOGroomOpened",
      "type": "event"
    },
    {
      "anonymous": false,
      "inputs": [
        {
          "indexed": true,
          "name": "roomID",
          "type": "uint256"
        },
        {
          "indexed": false,
          "name": "list",
          "type": "address[]"
        }
      ],
      "name": "LOGaddListVoter",
      "type": "event"
    },
    {
      "anonymous": false,
      "inputs": [
        {
          "indexed": true,
          "name": "roomID",
          "type": "uint256"
        },
        {
          "indexed": true,
          "name": "pollID",
          "type": "uint256"
        },
        {
          "indexed": false,
          "name": "question",
          "type": "string"
        },
        {
          "indexed": false,
          "name": "options",
          "type": "bytes32[]"
        }
      ],
      "name": "LOGpollingAdded",
      "type": "event"
    },
    {
      "anonymous": false,
      "inputs": [
        {
          "indexed": true,
          "name": "roomID",
          "type": "uint256"
        }
      ],
      "name": "LOGroomClosed",
      "type": "event"
    },
    {
      "anonymous": false,
      "inputs": [
        {
          "indexed": true,
          "name": "roomID",
          "type": "uint256"
        },
        {
          "indexed": false,
          "name": "options",
          "type": "bytes[]"
        }
      ],
      "name": "LOGoptions",
      "type": "event"
    },
    {
      "anonymous": false,
      "inputs": [
        {
          "indexed": true,
          "name": "roomID",
          "type": "uint256"
        },
        {
          "indexed": false,
          "name": "option",
          "type": "bytes"
        },
        {
          "indexed": false,
          "name": "voters",
          "type": "address[]"
        }
      ],
      "name": "LOGlistVotersOf",
      "type": "event"
    },
    {
      "anonymous": false,
      "inputs": [
        {
          "indexed": true,
          "name": "roomID",
          "type": "uint256"
        },
        {
          "indexed": false,
          "name": "option",
          "type": "bytes"
        },
        {
          "indexed": false,
          "name": "counts",
          "type": "uint256"
        },
        {
          "indexed": false,
          "name": "voters",
          "type": "address[]"
        }
      ],
      "name": "LOGroomResult",
      "type": "event"
    },
    {
      "anonymous": false,
      "inputs": [
        {
          "indexed": true,
          "name": "roomID",
          "type": "uint256"
        },
        {
          "indexed": true,
          "name": "sender",
          "type": "address"
        },
        {
          "indexed": false,
          "name": "options",
          "type": "bytes32[]"
        }
      ],
      "name": "LOGvoteNotify",
      "type": "event"
    },
    {
      "anonymous": false,
      "inputs": [
        {
          "indexed": false,
          "name": "roomID",
          "type": "uint256"
        },
        {
          "indexed": false,
          "name": "pollNo",
          "type": "uint256"
        },
        {
          "indexed": false,
          "name": "option",
          "type": "bytes32"
        },
        {
          "indexed": false,
          "name": "count",
          "type": "uint256"
        }
      ],
      "name": "LOGcountOf",
      "type": "event"
    },
    {
      "constant": true,
      "inputs": [
        {
          "name": "_roomID",
          "type": "uint256"
        },
        {
          "name": "_voter",
          "type": "address"
        }
      ],
      "name": "checkVailableVoter",
      "outputs": [
        {
          "name": "",
          "type": "bool"
        }
      ],
      "payable": false,
      "stateMutability": "view",
      "type": "function"
    },
    {
      "constant": false,
      "inputs": [
        {
          "name": "_til",
          "type": "string"
        },
        {
          "name": "_privateR",
          "type": "bool"
        },
        {
          "name": "_des",
          "type": "string"
        },
        {
          "name": "_expiredTime",
          "type": "uint256"
        }
      ],
      "name": "openRoom",
      "outputs": [
        {
          "name": "id",
          "type": "uint256"
        }
      ],
      "payable": false,
      "stateMutability": "nonpayable",
      "type": "function"
    },
    {
      "constant": false,
      "inputs": [
        {
          "name": "_roomID",
          "type": "uint256"
        },
        {
          "name": "_quest",
          "type": "string"
        },
        {
          "name": "_opt",
          "type": "bytes32[]"
        }
      ],
      "name": "addPoll",
      "outputs": [
        {
          "name": "pollNo",
          "type": "uint256"
        }
      ],
      "payable": false,
      "stateMutability": "nonpayable",
      "type": "function"
    },
    {
      "constant": true,
      "inputs": [
        {
          "name": "_roomID",
          "type": "uint256"
        }
      ],
      "name": "getNumberOfPolls",
      "outputs": [
        {
          "name": "",
          "type": "uint256"
        }
      ],
      "payable": false,
      "stateMutability": "view",
      "type": "function"
    },
    {
      "constant": false,
      "inputs": [
        {
          "name": "_id",
          "type": "uint256"
        }
      ],
      "name": "closeRoom",
      "outputs": [
        {
          "name": "",
          "type": "bool"
        }
      ],
      "payable": false,
      "stateMutability": "nonpayable",
      "type": "function"
    },
    {
      "constant": false,
      "inputs": [
        {
          "name": "_id",
          "type": "uint256"
        },
        {
          "name": "_voters",
          "type": "address[]"
        }
      ],
      "name": "setListVoters",
      "outputs": [
        {
          "name": "",
          "type": "bool"
        }
      ],
      "payable": false,
      "stateMutability": "nonpayable",
      "type": "function"
    },
    {
      "constant": false,
      "inputs": [
        {
          "name": "_roomID",
          "type": "uint256"
        },
        {
          "name": "_option",
          "type": "bytes32[]"
        }
      ],
      "name": "voteFor",
      "outputs": [],
      "payable": false,
      "stateMutability": "nonpayable",
      "type": "function"
    },
    {
      "constant": true,
      "inputs": [
        {
          "name": "x",
          "type": "bytes32"
        }
      ],
      "name": "bytes32ToString",
      "outputs": [
        {
          "name": "",
          "type": "string"
        }
      ],
      "payable": false,
      "stateMutability": "pure",
      "type": "function"
    }
  ],
  "bytecode": "0x6060604052341561000f57600080fd5b6120408061001e6000396000f30060606040526004361061008e576000357c0100000000000000000000000000000000000000000000000000000000900463ffffffff1680631c3a889214610093578063572ab162146100ce5780635a192c011461019657806380be87e0146102505780639201de5514610287578063a3b0778414610327578063a82a560114610381578063fe753054146103e4575b600080fd5b341561009e57600080fd5b6100b4600480803590602001909190505061045f565b604051808215151515815260200191505060405180910390f35b34156100d957600080fd5b610180600480803590602001908201803590602001908080601f01602080910402602001604051908101604052809392919081815260200183838082843782019150505050505091908035151590602001909190803590602001908201803590602001908080601f01602080910402602001604051908101604052809392919081815260200183838082843782019150505050505091908035906020019091905050610559565b6040518082815260200191505060405180910390f35b34156101a157600080fd5b61023a600480803590602001909190803590602001908201803590602001908080601f016020809104026020016040519081016040528093929190818152602001838380828437820191505050505050919080359060200190820180359060200190808060200260200160405190810160405280939291908181526020018383602002808284378201915050505050509190505061093d565b6040518082815260200191505060405180910390f35b341561025b57600080fd5b6102716004808035906020019091905050610ce6565b6040518082815260200191505060405180910390f35b341561029257600080fd5b6102ac600480803560001916906020019091905050610d12565b6040518080602001828103825283818151815260200191508051906020019080838360005b838110156102ec5780820151818401526020810190506102d1565b50505050905090810190601f1680156103195780820380516001836020036101000a031916815260200191505b509250505060405180910390f35b341561033257600080fd5b610367600480803590602001909190803573ffffffffffffffffffffffffffffffffffffffff16906020019091905050610eff565b604051808215151515815260200191505060405180910390f35b341561038c57600080fd5b6103e2600480803590602001909190803590602001908201803590602001908080602002602001604051908101604052809392919081815260200183836020028082843782019150505050505091905050610fe6565b005b34156103ef57600080fd5b6104456004808035906020019091908035906020019082018035906020019080806020026020016040519081016040528093929190818152602001838360200280828437820191505050505050919050506114ab565b604051808215151515815260200191505060405180910390f35b6000813373ffffffffffffffffffffffffffffffffffffffff1660008281548110151561048857fe5b90600052602060002090600a020160000160009054906101000a900473ffffffffffffffffffffffffffffffffffffffff1673ffffffffffffffffffffffffffffffffffffffff161415156104dc57600080fd5b826000818154811015156104ec57fe5b90600052602060002090600a020160090160009054906101000a900460ff16151561051657600080fd5b6000808581548110151561052657fe5b90600052602060002090600a020160090160006101000a81548160ff021916908315150217905550600192505050919050565b600080805490509050600080548091906001016105769190611bbf565b508060008281548110151561058757fe5b90600052602060002090600a020160010181905550336000828154811015156105ac57fe5b90600052602060002090600a020160000160006101000a81548173ffffffffffffffffffffffffffffffffffffffff021916908373ffffffffffffffffffffffffffffffffffffffff1602179055508260008281548110151561060b57fe5b90600052602060002090600a0201600501908051906020019061062f929190611bf1565b508460008281548110151561064057fe5b90600052602060002090600a02016002019080519060200190610664929190611bf1565b508360008281548110151561067557fe5b90600052602060002090600a020160030160006101000a81548160ff021916908315150217905550816000828154811015156106ad57fe5b90600052602060002090600a02016008018190555060016000828154811015156106d357fe5b90600052602060002090600a020160090160006101000a81548160ff02191690831515021790555060008181548110151561070a57fe5b90600052602060002090600a020160000160009054906101000a900473ffffffffffffffffffffffffffffffffffffffff1673ffffffffffffffffffffffffffffffffffffffff16817fa2b5ca96e1c5de8e9a5a72d3726d31afed57fde16bcf46dbf75a1ddcc2a0df0960008481548110151561078357fe5b90600052602060002090600a02016002016000858154811015156107a357fe5b90600052602060002090600a02016005016000868154811015156107c357fe5b90600052602060002090600a020160030160009054906101000a900460ff166000878154811015156107f157fe5b90600052602060002090600a020160080154604051808060200180602001851515151581526020018481526020018381038352878181546001816001161561010002031660029004815260200191508054600181600116156101000203166002900480156108a05780601f10610875576101008083540402835291602001916108a0565b820191906000526020600020905b81548152906001019060200180831161088357829003601f168201915b50508381038252868181546001816001161561010002031660029004815260200191508054600181600116156101000203166002900480156109235780601f106108f857610100808354040283529160200191610923565b820191906000526020600020905b81548152906001019060200180831161090657829003601f168201915b5050965050505050505060405180910390a3949350505050565b6000833373ffffffffffffffffffffffffffffffffffffffff1660008281548110151561096657fe5b90600052602060002090600a020160000160009054906101000a900473ffffffffffffffffffffffffffffffffffffffff1673ffffffffffffffffffffffffffffffffffffffff161415156109ba57600080fd5b8260008090505b6001825103811015610a235781818060010192508151811015156109e157fe5b906020019060200201516000191682828151811015156109fd57fe5b90602001906020020151600019161415610a1657600080fd5b80806001019150506109c1565b86600081815481101515610a3357fe5b90600052602060002090600a020160090160009054906101000a900460ff161515610a5d57600080fd5b600088815481101515610a6c57fe5b90600052602060002090600a0201600401805490509450600088815481101515610a9257fe5b90600052602060002090600a02016004018054809190600101610ab59190611c71565b5086600089815481101515610ac657fe5b90600052602060002090600a020160040186815481101515610ae457fe5b90600052602060002090600302016000019080519060200190610b08929190611bf1565b5085600089815481101515610b1957fe5b90600052602060002090600a020160040186815481101515610b3757fe5b90600052602060002090600302016001019080519060200190610b5b929190611ca3565b5084887fa07ff47130ada328502f2b954ef63cb0306148ca86fe6b9468d2794128b8774360008b815481101515610b8e57fe5b90600052602060002090600a020160040188815481101515610bac57fe5b906000526020600020906003020160000160008c815481101515610bcc57fe5b90600052602060002090600a020160040189815481101515610bea57fe5b9060005260206000209060030201600101604051808060200180602001838103835285818154600181600116156101000203166002900481526020019150805460018160011615610100020316600290048015610c885780601f10610c5d57610100808354040283529160200191610c88565b820191906000526020600020905b815481529060010190602001808311610c6b57829003601f168201915b50508381038252848181548152602001915080548015610ccb57602002820191906000526020600020905b81546000191681526020019060010190808311610cb3575b505094505050505060405180910390a3505050509392505050565b60008082815481101515610cf657fe5b90600052602060002090600a0201600401805490509050919050565b610d1a611cf6565b610d22611d0a565b6000806000610d2f611d0a565b6020604051805910610d3e5750595b9080825280601f01601f1916602001820160405250945060009350600092505b6020831015610e1c578260080260020a876001900402600102915060007f010000000000000000000000000000000000000000000000000000000000000002827effffffffffffffffffffffffffffffffffffffffffffffffffffffffffffff1916141515610e0f57818585815181101515610dd657fe5b9060200101907effffffffffffffffffffffffffffffffffffffffffffffffffffffffffffff1916908160001a90535083806001019450505b8280600101935050610d5e565b83604051805910610e2a5750595b9080825280601f01601f19166020018201604052509050600092505b83831015610ef2578483815181101515610e5c57fe5b9060200101517f010000000000000000000000000000000000000000000000000000000000000090047f0100000000000000000000000000000000000000000000000000000000000000028184815181101515610eb557fe5b9060200101907effffffffffffffffffffffffffffffffffffffffffffffffffffffffffffff1916908160001a9053508280600101935050610e46565b8095505050505050919050565b600080600090505b600084815481101515610f1657fe5b90600052602060002090600a020160060160010180549050811015610fda57600084815481101515610f4457fe5b90600052602060002090600a020160060160010181815481101515610f6557fe5b906000526020600020900160009054906101000a900473ffffffffffffffffffffffffffffffffffffffff1673ffffffffffffffffffffffffffffffffffffffff168373ffffffffffffffffffffffffffffffffffffffff161415610fcd5760019150610fdf565b8080600101915050610f07565b600091505b5092915050565b81600081815481101515610ff657fe5b90600052602060002090600a020160090160009054906101000a900460ff16151561102057600080fd5b8260008181548110151561103057fe5b90600052602060002090600a020160060160000160003373ffffffffffffffffffffffffffffffffffffffff1673ffffffffffffffffffffffffffffffffffffffff16815260200190815260200160002060020160009054906101000a900460ff1615151561109e57600080fd5b838360008060006110ae85610ce6565b84511415156110bc57600080fd5b60009250600091505b6110ce85610ce6565b8210156111c357600090505b6000858154811015156110e957fe5b90600052602060002090600a02016004018281548110151561110757fe5b9060005260206000209060030201600101805490508110156111b65760008581548110151561113257fe5b90600052602060002090600a02016004018281548110151561115057fe5b90600052602060002090600302016001018181548110151561116e57fe5b90600052602060002090015460001916848381518110151561118c57fe5b906020019060200201516000191614156111a95782806001019350505b80806001019150506110da565b81806001019250506110c5565b6111cc85610ce6565b831415156111d957600080fd5b6000898154811015156111e857fe5b90600052602060002090600a020160030160009054906101000a900460ff161561121b5761121689896116cf565b6114a0565b8760008a81548110151561122b57fe5b90600052602060002090600a020160060160000160003373ffffffffffffffffffffffffffffffffffffffff1673ffffffffffffffffffffffffffffffffffffffff1681526020019081526020016000206001019080519060200190611292929190611ca3565b50600160008a8154811015156112a457fe5b90600052602060002090600a020160060160000160003373ffffffffffffffffffffffffffffffffffffffff1673ffffffffffffffffffffffffffffffffffffffff16815260200190815260200160002060020160006101000a81548160ff0219169083151502179055506113198989611970565b60008981548110151561132857fe5b90600052602060002090600a020160060160000160003373ffffffffffffffffffffffffffffffffffffffff1673ffffffffffffffffffffffffffffffffffffffff168152602001908152602001600020600001600081548092919060010191905055503373ffffffffffffffffffffffffffffffffffffffff1660008a8154811015156113b257fe5b90600052602060002090600a0201600101547fae7fab35878ff4034302ce8b7ef19f037e3ef08350dca61711beb352c1076c2f60008c8154811015156113f457fe5b90600052602060002090600a020160060160000160003373ffffffffffffffffffffffffffffffffffffffff1673ffffffffffffffffffffffffffffffffffffffff1681526020019081526020016000206001016040518080602001828103825283818154815260200191508054801561149157602002820191906000526020600020905b81546000191681526020019060010190808311611479575b50509250505060405180910390a35b505050505050505050565b6000823373ffffffffffffffffffffffffffffffffffffffff166000828154811015156114d457fe5b90600052602060002090600a020160000160009054906101000a900473ffffffffffffffffffffffffffffffffffffffff1673ffffffffffffffffffffffffffffffffffffffff1614151561152857600080fd5b8360008181548110151561153857fe5b90600052602060002090600a020160090160009054906101000a900460ff16151561156257600080fd5b8460008181548110151561157257fe5b90600052602060002090600a020160030160009054906101000a900460ff16151561159c57600080fd5b846000878154811015156115ac57fe5b90600052602060002090600a020160060160010190805190602001906115d3929190611d1e565b506000868154811015156115e357fe5b90600052602060002090600a0201600101547f19b82506b3313c2dd5d3d7062965522938d291754bdf64c433f06c2a5b5f589760008881548110151561162557fe5b90600052602060002090600a0201600601600101604051808060200182810382528381815481526020019150805480156116b457602002820191906000526020600020905b8160009054906101000a900473ffffffffffffffffffffffffffffffffffffffff1673ffffffffffffffffffffffffffffffffffffffff168152602001906001019080831161166a575b50509250505060405180910390a26001935050505092915050565b81336116db8282610eff565b15156116e657600080fd5b826000858154811015156116f657fe5b90600052602060002090600a020160060160000160003373ffffffffffffffffffffffffffffffffffffffff1673ffffffffffffffffffffffffffffffffffffffff168152602001908152602001600020600101908051906020019061175d929190611ca3565b50600160008581548110151561176f57fe5b90600052602060002090600a020160060160000160003373ffffffffffffffffffffffffffffffffffffffff1673ffffffffffffffffffffffffffffffffffffffff16815260200190815260200160002060020160006101000a81548160ff0219169083151502179055506000848154811015156117e957fe5b90600052602060002090600a020160060160000160003373ffffffffffffffffffffffffffffffffffffffff1673ffffffffffffffffffffffffffffffffffffffff168152602001908152602001600020600001600081548092919060010191905055506118578484611970565b3373ffffffffffffffffffffffffffffffffffffffff1660008581548110151561187d57fe5b90600052602060002090600a0201600101547fae7fab35878ff4034302ce8b7ef19f037e3ef08350dca61711beb352c1076c2f6000878154811015156118bf57fe5b90600052602060002090600a020160060160000160003373ffffffffffffffffffffffffffffffffffffffff1673ffffffffffffffffffffffffffffffffffffffff1681526020019081526020016000206001016040518080602001828103825283818154815260200191508054801561195c57602002820191906000526020600020905b81546000191681526020019060010190808311611944575b50509250505060405180910390a350505050565b600080600091505b60008481548110151561198757fe5b90600052602060002090600a02016004018054905082111515611bb957600090505b8251811015611bac576000848154811015156119c157fe5b90600052602060002090600a0201600401828154811015156119df57fe5b906000526020600020906003020160020160008483815181101515611a0057fe5b90602001906020020151600019166000191681526020019081526020016000208054806001018281611a329190611da8565b9160005260206000209001600033909190916101000a81548173ffffffffffffffffffffffffffffffffffffffff021916908373ffffffffffffffffffffffffffffffffffffffff160217905550507fa0b97c54dd0a479ab4bd0bd2d8bcb48dd820730838fac276234d21b7ee992f228483600087815481101515611ab357fe5b90600052602060002090600a020160040185815481101515611ad157fe5b906000526020600020906003020160010184815481101515611aef57fe5b906000526020600020900154600088815481101515611b0a57fe5b90600052602060002090600a020160040186815481101515611b2857fe5b906000526020600020906003020160020160008887815181101515611b4957fe5b90602001906020020151600019166000191681526020019081526020016000208054905060405180858152602001848152602001836000191660001916815260200182815260200194505050505060405180910390a180806001019150506119a9565b8180600101925050611978565b50505050565b815481835581811511611bec57600a0281600a028360005260206000209182019101611beb9190611dd4565b5b505050565b828054600181600116156101000203166002900490600052602060002090601f016020900481019282601f10611c3257805160ff1916838001178555611c60565b82800160010185558215611c60579182015b82811115611c5f578251825591602001919060010190611c44565b5b509050611c6d9190611e9a565b5090565b815481835581811511611c9e57600302816003028360005260206000209182019101611c9d9190611ebf565b5b505050565b828054828255906000526020600020908101928215611ce5579160200282015b82811115611ce4578251829060001916905591602001919060010190611cc3565b5b509050611cf29190611efe565b5090565b602060405190810160405280600081525090565b602060405190810160405280600081525090565b828054828255906000526020600020908101928215611d97579160200282015b82811115611d965782518260006101000a81548173ffffffffffffffffffffffffffffffffffffffff021916908373ffffffffffffffffffffffffffffffffffffffff16021790555091602001919060010190611d3e565b5b509050611da49190611f23565b5090565b815481835581811511611dcf57818360005260206000209182019101611dce9190611e9a565b5b505050565b611e9791905b80821115611e9357600080820160006101000a81549073ffffffffffffffffffffffffffffffffffffffff02191690556001820160009055600282016000611e229190611f66565b6003820160006101000a81549060ff0219169055600482016000611e469190611fae565b600582016000611e569190611f66565b600682016000600182016000611e6c9190611fd2565b505060088201600090556009820160006101000a81549060ff021916905550600a01611dda565b5090565b90565b611ebc91905b80821115611eb8576000816000905550600101611ea0565b5090565b90565b611efb91905b80821115611ef75760008082016000611ede9190611f66565b600182016000611eee9190611ff3565b50600301611ec5565b5090565b90565b611f2091905b80821115611f1c576000816000905550600101611f04565b5090565b90565b611f6391905b80821115611f5f57600081816101000a81549073ffffffffffffffffffffffffffffffffffffffff021916905550600101611f29565b5090565b90565b50805460018160011615610100020316600290046000825580601f10611f8c5750611fab565b601f016020900490600052602060002090810190611faa9190611e9a565b5b50565b5080546000825560030290600052602060002090810190611fcf9190611ebf565b50565b5080546000825590600052602060002090810190611ff09190611e9a565b50565b50805460008255906000526020600020908101906120119190611efe565b505600a165627a7a72305820941749c67eb4d79321f573743c4508f866b4d4dc639aca630c7f4a52ec6a0af90029",
  "source": "/**\r\n * ver 1.2.1\r\n * \r\n * add private/public property of a vote\r\n * \r\n * -----------------------------------------------------\r\n * ver 1.2.0\r\n * \r\n * create room(s) to vote\r\n * only add/set option/list voters/cast ballot for opening rooms\r\n * voted voter cannot cast another vote\r\n * \r\n * -----------------------------------------------------\r\n * ver1.1.4\r\n * \r\n * add contract event\r\n * \r\n * -----------------------------------------------------\r\n * ver1.1.3\r\n * \r\n * add modifier to control vote, ballot, 1 address - 1 vote\r\n * check duplicate option when initiate the contract\r\n * \r\n * -----------------------------------------------------\r\n * ver1.1.2\r\n * \r\n * update\r\n *      add expired time: close the vote when time is up-to-date\r\n *      add list voters who can vote\r\n *          if the list is left empty, everyone can join the vote\r\n *          otherwise, only the ones in the list can cast vote\r\n *      get ballot of an address\r\n * \r\n * -----------------------------------------------------\r\n * ver1.1.1\r\n * \r\n * update\r\n *      add algorithm check 1 address - 1 vote\r\n * add new:\r\n *  property: \r\n *      voted\r\n *  method:\r\n *      (none)\r\n * remove:\r\n *      (none)\r\n * \r\n * -----------------------------------------------------\r\n * ver1.1.0\r\n * \r\n * update\r\n *      VotFor\r\n *      change the way managing the ballot\r\n *          voteOf => listVotersOf\r\n *      getCountOf => getCountOf\r\n * add new:\r\n *  property: \r\n *      owner\r\n *      listVotersOf\r\n *  method:\r\n *      getListVoterOf\r\n * remove:\r\n *      voteOf\r\n *      getCountOf\r\n * \r\n * -----------------------------------------------------\r\n * ver1\r\n * \r\n * add option when call the contract\r\n * vote for an option\r\n * convert option(bytes32) to string\r\n * get option vote\r\n * only available option can be voted\r\n * \r\n */\r\n \r\n \r\n pragma solidity ^0.4.18;\r\n \r\n \r\n \r\n contract votingVer1_3_3\r\n {\r\n    room[] rooms;\r\n    \r\n    struct room\r\n    {\r\n        address owner;\r\n        uint id;\r\n        string title;\r\n        bool privateRoom;\r\n        Poll[] poll;\r\n        string descript;\r\n        ListVoters listVoters;\r\n        uint expiredTime;\r\n        bool open;\r\n    }\r\n\r\n    struct Voter\r\n    {\r\n        uint point;\r\n        bytes32[] voteFor;//roomID => ballot\r\n        bool voted;//roomID => ballot\r\n    }\r\n    \r\n    // struct Ballot\r\n    // {\r\n    //     bool voted;\r\n    //     bytes32[] voteFor;\r\n    // }\r\n    \r\n    struct ListVoters\r\n    {\r\n        mapping (address => Voter) voter;\r\n        address[] addrs;\r\n    }\r\n    \r\n    struct Poll\r\n    {\r\n        string questions;\r\n        bytes32[] options;\r\n        mapping(bytes32 => address[]) listVotersOf;\r\n        //bytes32[] res;\r\n    }\r\n\r\n    \r\n    event LOGroomOpened(uint indexed roomID, address indexed owner,string title, string descript, bool privateRoom, uint expiredTime);\r\n    event LOGaddListVoter(uint indexed roomID, address[] list);\r\n    event LOGpollingAdded(uint indexed roomID,uint indexed pollID, string question, bytes32[] options);\r\n    //event LOGpollingOptionAdded(uint indexed roomID,uint indexed pollID, string question, bytes32[] option);\r\n    event LOGroomClosed(uint indexed roomID);\r\n    event LOGoptions(uint indexed roomID, bytes[] options);\r\n    event LOGlistVotersOf(uint indexed roomID, bytes option, address[] voters);\r\n    //event roomInfo(uint indexed id, address indexed owner, bytes32[] options, bytes32 description, listVoter);\r\n    event LOGroomResult(uint indexed roomID, bytes option, uint counts, address[] voters);\r\n    \r\n    event LOGvoteNotify(uint indexed roomID, address indexed sender, bytes32[] options);\r\n    event LOGcountOf(uint roomID, uint pollNo, bytes32 option, uint count);\r\n    \r\n    \r\n    modifier owned(uint _RoomID)\r\n    {\r\n       require(rooms[_RoomID].owner == msg.sender);\r\n       _;\r\n    }\r\n    \r\n    modifier roomOpening(uint _RoomID) \r\n    {\r\n        require(rooms[_RoomID].open);\r\n        _;\r\n    }\r\n    \r\n    modifier roomClosed(uint _RoomID) \r\n    {\r\n        require(!rooms[_RoomID].open);\r\n        _;\r\n    }\r\n    \r\n\r\n    modifier listVoterEmpty(uint _RoomID)\r\n    {\r\n        require(rooms[_RoomID].listVoters.addrs.length == 0);\r\n        _;\r\n    }\r\n    \r\n    modifier privateRoom(uint _RoomID)\r\n    {\r\n        require(rooms[_RoomID].privateRoom);\r\n        _;\r\n    }\r\n    \r\n    modifier validBallot(uint _roomID, bytes32[] _option)\r\n    {\r\n        if(_option.length != getNumberOfPolls(_roomID))\r\n        {\r\n            revert();\r\n        }\r\n        uint a = 0;\r\n        for(uint i = 0; i < getNumberOfPolls(_roomID); i++)\r\n        {\r\n            for(uint j = 0; j < rooms[_roomID].poll[i].options.length; j++)\r\n            {\r\n                if(_option[i] == rooms[_roomID].poll[i].options[j])\r\n                {\r\n                    a++;\r\n                }\r\n            }\r\n        }\r\n        if(a != getNumberOfPolls(_roomID))\r\n        {\r\n            revert();\r\n        }\r\n        _;\r\n    }\r\n    \r\n    modifier duplicateOption(bytes32[] _options)\r\n    {\r\n        for(uint i = 0; i < _options.length-1; i++)\r\n        {\r\n            if(_options[i] == _options[i++])\r\n            {\r\n                revert();\r\n            }\r\n        }\r\n        _;\r\n    }\r\n    \r\n    modifier notVoted(uint _roomID)\r\n    {\r\n        require(!rooms[_roomID].listVoters.voter[msg.sender].voted);\r\n        _;\r\n    }\r\n    \r\n    function checkVailableVoter(uint _roomID, address _voter) public view returns(bool)\r\n    {\r\n        for(uint i= 0; i < rooms[_roomID].listVoters.addrs.length ; i++)\r\n            {\r\n                if(_voter == rooms[_roomID].listVoters.addrs[i])\r\n                {\r\n                   return true;\r\n                }\r\n            }\r\n        return false;\r\n    }\r\n    \r\n    modifier vailableVoter(uint _roomID, address _voter)\r\n    {\r\n         require(checkVailableVoter(_roomID, _voter));\r\n        _;\r\n    }\r\n    \r\n    function votingVer1_3_3()\r\n        public \r\n    {\r\n        \r\n    }\r\n    \r\n    function openRoom(string _til, bool _privateR, string _des, uint _expiredTime) public returns (uint id)\r\n    {\r\n        id = rooms.length;\r\n        rooms.length++;\r\n        rooms[id].id = id;\r\n        rooms[id].owner = msg.sender;\r\n        rooms[id].descript = _des;\r\n        rooms[id].title = _til;\r\n        rooms[id].privateRoom = _privateR;\r\n        rooms[id].expiredTime = _expiredTime;\r\n        rooms[id].open = true;\r\n        LOGroomOpened(id, rooms[id].owner,rooms[id].title, rooms[id].descript, rooms[id].privateRoom, rooms[id].expiredTime);\r\n    }\r\n    \r\n    function addPoll(uint _roomID, string _quest, bytes32[] _opt) \r\n            owned(_roomID)\r\n            duplicateOption(_opt)\r\n            roomOpening(_roomID)\r\n            public returns(uint pollNo)\r\n    {\r\n        pollNo = rooms[_roomID].poll.length;\r\n        rooms[_roomID].poll.length++;\r\n        rooms[_roomID].poll[pollNo].questions = _quest;\r\n        rooms[_roomID].poll[pollNo].options = _opt;\r\n        LOGpollingAdded(_roomID, pollNo, rooms[_roomID].poll[pollNo].questions, rooms[_roomID].poll[pollNo].options);\r\n    }\r\n\r\n    function getNumberOfPolls(uint _roomID) public view returns(uint)\r\n    {\r\n        return rooms[_roomID].poll.length;\r\n    }\r\n    \r\n    function closeRoom(uint _id) \r\n            owned(_id) \r\n            roomOpening(_id) public returns (bool)\r\n    {\r\n        rooms[_id].open = false;\r\n        //calculateRoomResult(_id);\r\n       // LOGroomClosed(rooms[_id].id, rooms[_id].result);\r\n        return true;\r\n    }\r\n    \r\n    function setListVoters(uint _id, address[] _voters) \r\n            owned(_id)\r\n            roomOpening(_id)\r\n            privateRoom(_id)\r\n            public returns (bool)\r\n    {\r\n        rooms[_id].listVoters.addrs = _voters;\r\n        LOGaddListVoter(rooms[_id].id, rooms[_id].listVoters.addrs);\r\n        return true;\r\n    }\r\n\r\n    function voteForPrivateRoom(uint _roomID, bytes32[] _option)\r\n        vailableVoter(_roomID, msg.sender)\r\n        private \r\n    {\r\n        rooms[_roomID].listVoters.voter[msg.sender].voteFor = _option;\r\n        rooms[_roomID].listVoters.voter[msg.sender].voted = true;\r\n        rooms[_roomID].listVoters.voter[msg.sender].point ++;\r\n        addToListVoteOf(_roomID, _option);\r\n        LOGvoteNotify(rooms[_roomID].id, msg.sender, rooms[_roomID].listVoters.voter[msg.sender].voteFor);\r\n    }\r\n\r\n    function voteFor(uint _roomID, bytes32[] _option)\r\n        roomOpening(_roomID)\r\n        notVoted(_roomID)\r\n        validBallot(_roomID, _option)\r\n        public\r\n    {\r\n        if(rooms[_roomID].privateRoom)\r\n        {\r\n            voteForPrivateRoom(_roomID, _option);\r\n            return;\r\n        }\r\n        rooms[_roomID].listVoters.voter[msg.sender].voteFor = _option;\r\n        rooms[_roomID].listVoters.voter[msg.sender].voted = true;\r\n        addToListVoteOf(_roomID, _option);\r\n        rooms[_roomID].listVoters.voter[msg.sender].point ++;\r\n        LOGvoteNotify(rooms[_roomID].id, msg.sender, rooms[_roomID].listVoters.voter[msg.sender].voteFor);\r\n    }\r\n    \r\n    function addToListVoteOf(uint _roomID, bytes32[] _option) private \r\n    {\r\n        for(uint j = 0; j <= rooms[_roomID].poll.length; j++)\r\n        {\r\n            for(uint i=0; i < _option.length; i++)\r\n            {\r\n                rooms[_roomID].poll[j].listVotersOf[_option[i]].push(msg.sender);\r\n                LOGcountOf(_roomID, j, rooms[_roomID].poll[j].options[i], rooms[_roomID].poll[j].listVotersOf[_option[i]].length);\r\n            }\r\n        }\r\n    }\r\n    \r\n    // function getCountOf(uint _roomID, uint _pollNo, bytes32 _option) public view returns(uint)\r\n    // {\r\n    //     return rooms[_roomID].poll[_pollNo].listVotersOf[_option].length;\r\n    // }\r\n\r\n    // function calculateRoomResult(uint _id) private returns(bytes)\r\n    // {\r\n    //     bytes memory res;\r\n    //     uint temp;\r\n    //     res = rooms[_id].options[0];\r\n    //     temp = getCountOf(_id, rooms[_id].options[0]);\r\n    //     for(uint i = 1; i < rooms[_id].options.length; i++)\r\n    //     { \r\n    //         if(temp < getCountOf(_id, rooms[_id].options[i]))\r\n    //         {\r\n    //             temp = getCountOf(_id, rooms[_id].options[i]);     \r\n    //             res = rooms[_id].options[i];\r\n    //         }\r\n    //     }\r\n    //     rooms[_id].result = res;\r\n    //     return rooms[_id].result;\r\n    // }\r\n    \r\n    // function getRoomResult(uint _id) roomClosed(_id) public view returns(bytes)\r\n    // {\r\n    //     return rooms[_id].result;\r\n    // }\r\n    \r\n    // function getCountOf(uint _id, bytes _option) public constant returns(uint){\r\n    //     //require(vailableCandidate(_addr));\r\n    //     return rooms[_id].listVotersOf[_option].length;\r\n    // }\r\n    \r\n    // function getListVoterOf(uint _id, bytes _option) public view returns(address[])\r\n    // {\r\n    //     return rooms[_id].listVotersOf[_option];\r\n    // }\r\n    // function getOptions(uint _id) public view returns(bytes[])\r\n    // {\r\n    //     return rooms[_id].options;\r\n    // }\r\n    \r\n    // function getVoteOf(uint _id, address _addr) public view returns(bytes)\r\n    // {\r\n    //     if(rooms[_id].listVoters.voter[_addr].voted == true)\r\n    //     {\r\n    //         return (rooms[_id].listVoters.voter[_addr].ballot[_addr]);\r\n    //     }\r\n    // }\r\n    \r\n    \r\n//     function checkInitiateOption(bytes32[] _option) private pure returns(bool)\r\n//     {\r\n//         for(uint i = 0; i <= _option.length - 1; i++){\r\n//             var temp = _option[i];\r\n//             for(uint j = i+1; j <= _option.length-1; j++){\r\n//                 if (temp == _option[j] )\r\n//                 {\r\n//                     return false;\r\n//                 }\r\n//             }\r\n//         }\r\n//         return true;\r\n//     }\r\n    \r\n    \r\n    \r\n    \r\n//   function checkVailableOption(bytes32 _n) private view returns(bool)\r\n//     {\r\n//         for(uint i = 0; i < opt.length; i++)\r\n//         {\r\n//             if(opt[i] == _n)\r\n//             {\r\n//                 return true;\r\n//             }    \r\n//         }\r\n//         return false;\r\n//     }\r\n    \r\n//     function checkVailableVoter(address _addr) private view returns(bool)\r\n//     {\r\n//         for(uint i = 0; i < voters.length; i++)\r\n//         {\r\n//             if(voters[i] == _addr)\r\n//             {\r\n//                 return true;\r\n//             }\r\n//         }\r\n//         return false;\r\n//     }\r\n//     // modifier validVoter(address _addr)\r\n//     // {\r\n//     //     require(checkVailableVoter(_addr));\r\n//     //     _;\r\n        \r\n//     // }\r\n    // modifier hasVoter(address _addr){\r\n    //     if(voters.length != 0)\r\n    //     {\r\n    //         require(checkVailableVoter(_addr) == true);    \r\n    //     }\r\n    //     _;\r\n       \r\n    // }\r\n    \r\n//     function addOption(bytes32 _n) \r\n//             validOption(_n)\r\n//             public\r\n//     {\r\n//         notify(msg.sender, bytes32ToString(_n), \"option added\");\r\n//         opt.push(_n);\r\n//     }\r\n//     function addVoter(address _addr) public\r\n//     {\r\n//         voters.push(_addr);\r\n//     }\r\n    \r\n//     function getOptions() public view returns(bytes32[])\r\n//     {\r\n//         return opt;\r\n//     }\r\n     \r\n//     function getListVoters() public view returns(address[])\r\n//     {\r\n//         return voters;\r\n//     }\r\n    \r\n//     function getOptionByIndex(uint _i) private view returns(string)\r\n//     {\r\n//         return bytes32ToString(opt[_i]);\r\n//     }\r\n    \r\n    \r\n    function bytes32ToString(bytes32 x) public pure returns (string) \r\n    {\r\n        bytes memory bytesString = new bytes(32);\r\n        uint charCount = 0;\r\n        for (uint j = 0; j < 32; j++) \r\n        {\r\n            byte char = byte(bytes32(uint(x) * 2 ** (8 * j)));\r\n            if (char != 0) \r\n            {\r\n                bytesString[charCount] = char;\r\n                charCount++;\r\n            }\r\n        }\r\n        bytes memory bytesStringTrimmed = new bytes(charCount);\r\n        for (j = 0; j < charCount; j++) \r\n        {\r\n            bytesStringTrimmed[j] = bytesString[j];\r\n        }\r\n        return string(bytesStringTrimmed);\r\n    }\r\n }",
  "sourcePath": "C:\\Users\\PMM81HC\\Desktop\\Experiment\\VoteChain\\contracts\\votingVer1_3_3.sol",
  "compiler": {
    "name": "solc",
    "version": "0.4.19+commit.c4cbbb05.Emscripten.clang"
  },
  "schemaVersion": "2.0.0",
  "updatedAt": "2018-03-23T07:54:45.364Z"
}