{
  "contractName": "votingVer1_2_0",
  "abi": [
    {
      "constant": false,
      "inputs": [
        {
          "name": "_id",
          "type": "uint256"
        },
        {
          "name": "_option",
          "type": "bytes32[]"
        }
      ],
      "name": "setOption",
      "outputs": [
        {
          "name": "",
          "type": "bool"
        }
      ],
      "payable": false,
      "stateMutability": "nonpayable",
      "type": "function"
    },
    {
      "constant": true,
      "inputs": [
        {
          "name": "_id",
          "type": "uint256"
        },
        {
          "name": "_option",
          "type": "bytes32"
        }
      ],
      "name": "getListVoterOf",
      "outputs": [
        {
          "name": "",
          "type": "address[]"
        }
      ],
      "payable": false,
      "stateMutability": "view",
      "type": "function"
    },
    {
      "constant": false,
      "inputs": [
        {
          "name": "_id",
          "type": "uint256"
        }
      ],
      "name": "closeRoom",
      "outputs": [
        {
          "name": "",
          "type": "bool"
        }
      ],
      "payable": false,
      "stateMutability": "nonpayable",
      "type": "function"
    },
    {
      "constant": true,
      "inputs": [
        {
          "name": "_id",
          "type": "uint256"
        }
      ],
      "name": "getRoomResult",
      "outputs": [
        {
          "name": "",
          "type": "bytes32"
        }
      ],
      "payable": false,
      "stateMutability": "view",
      "type": "function"
    },
    {
      "constant": false,
      "inputs": [
        {
          "name": "_des",
          "type": "string"
        },
        {
          "name": "_expiredTime",
          "type": "uint256"
        }
      ],
      "name": "openRoom",
      "outputs": [
        {
          "name": "id",
          "type": "uint256"
        }
      ],
      "payable": false,
      "stateMutability": "nonpayable",
      "type": "function"
    },
    {
      "constant": false,
      "inputs": [
        {
          "name": "_id",
          "type": "uint256"
        },
        {
          "name": "_option",
          "type": "bytes32"
        }
      ],
      "name": "addOption",
      "outputs": [
        {
          "name": "",
          "type": "bool"
        }
      ],
      "payable": false,
      "stateMutability": "nonpayable",
      "type": "function"
    },
    {
      "constant": true,
      "inputs": [
        {
          "name": "_id",
          "type": "uint256"
        }
      ],
      "name": "getOptions",
      "outputs": [
        {
          "name": "",
          "type": "bytes32[]"
        }
      ],
      "payable": false,
      "stateMutability": "view",
      "type": "function"
    },
    {
      "constant": true,
      "inputs": [
        {
          "name": "x",
          "type": "bytes32"
        }
      ],
      "name": "bytes32ToString",
      "outputs": [
        {
          "name": "",
          "type": "string"
        }
      ],
      "payable": false,
      "stateMutability": "pure",
      "type": "function"
    },
    {
      "constant": false,
      "inputs": [
        {
          "name": "_id",
          "type": "uint256"
        },
        {
          "name": "_option",
          "type": "bytes32"
        }
      ],
      "name": "VoteFor",
      "outputs": [],
      "payable": false,
      "stateMutability": "nonpayable",
      "type": "function"
    },
    {
      "constant": true,
      "inputs": [
        {
          "name": "_id",
          "type": "uint256"
        },
        {
          "name": "_addr",
          "type": "address"
        }
      ],
      "name": "getVoteOf",
      "outputs": [
        {
          "name": "",
          "type": "bytes32"
        }
      ],
      "payable": false,
      "stateMutability": "view",
      "type": "function"
    },
    {
      "constant": true,
      "inputs": [
        {
          "name": "_id",
          "type": "uint256"
        },
        {
          "name": "_option",
          "type": "bytes32"
        }
      ],
      "name": "getCountOf",
      "outputs": [
        {
          "name": "",
          "type": "uint256"
        }
      ],
      "payable": false,
      "stateMutability": "view",
      "type": "function"
    },
    {
      "constant": false,
      "inputs": [
        {
          "name": "_id",
          "type": "uint256"
        },
        {
          "name": "_voters",
          "type": "address[]"
        }
      ],
      "name": "setListVoters",
      "outputs": [
        {
          "name": "",
          "type": "bool"
        }
      ],
      "payable": false,
      "stateMutability": "nonpayable",
      "type": "function"
    },
    {
      "inputs": [],
      "payable": false,
      "stateMutability": "nonpayable",
      "type": "constructor"
    },
    {
      "anonymous": false,
      "inputs": [
        {
          "indexed": true,
          "name": "id",
          "type": "uint256"
        },
        {
          "indexed": true,
          "name": "owner",
          "type": "address"
        },
        {
          "indexed": false,
          "name": "expiredTime",
          "type": "uint256"
        }
      ],
      "name": "EVroomOpened",
      "type": "event"
    },
    {
      "anonymous": false,
      "inputs": [
        {
          "indexed": true,
          "name": "id",
          "type": "uint256"
        },
        {
          "indexed": false,
          "name": "list",
          "type": "address[]"
        }
      ],
      "name": "EVaddListVoter",
      "type": "event"
    },
    {
      "anonymous": false,
      "inputs": [
        {
          "indexed": true,
          "name": "id",
          "type": "uint256"
        },
        {
          "indexed": false,
          "name": "options",
          "type": "bytes32[]"
        }
      ],
      "name": "EVaddOptions",
      "type": "event"
    },
    {
      "anonymous": false,
      "inputs": [
        {
          "indexed": true,
          "name": "id",
          "type": "uint256"
        }
      ],
      "name": "EVroomClosed",
      "type": "event"
    },
    {
      "anonymous": false,
      "inputs": [
        {
          "indexed": true,
          "name": "id",
          "type": "uint256"
        },
        {
          "indexed": false,
          "name": "option",
          "type": "bytes32"
        },
        {
          "indexed": false,
          "name": "counts",
          "type": "uint256"
        },
        {
          "indexed": false,
          "name": "voters",
          "type": "address[]"
        }
      ],
      "name": "EVroomResult",
      "type": "event"
    },
    {
      "anonymous": false,
      "inputs": [
        {
          "indexed": true,
          "name": "id",
          "type": "uint256"
        },
        {
          "indexed": true,
          "name": "sender",
          "type": "address"
        },
        {
          "indexed": false,
          "name": "option",
          "type": "string"
        }
      ],
      "name": "EVvoteNotify",
      "type": "event"
    }
  ],
  "bytecode": "0x6060604052341561000f57600080fd5b611abd8061001e6000396000f3006060604052600436106100ba576000357c0100000000000000000000000000000000000000000000000000000000900463ffffffff1680630414d791146100bf57806310d82ed41461013a5780631c3a8892146101bf57806365ebdb99146101fa578063808070a21461023957806386d39cbc146102b35780638915b3fb146102fb5780639201de551461037357806392554b8814610413578063ab85cb4d14610443578063deae85ef146104a1578063fe753054146104e5575b600080fd5b34156100ca57600080fd5b610120600480803590602001909190803590602001908201803590602001908080602002602001604051908101604052809392919081815260200183836020028082843782019150505050505091905050610560565b604051808215151515815260200191505060405180910390f35b341561014557600080fd5b61016860048080359060200190919080356000191690602001909190505061071a565b6040518080602001828103825283818151815260200191508051906020019060200280838360005b838110156101ab578082015181840152602081019050610190565b505050509050019250505060405180910390f35b34156101ca57600080fd5b6101e060048080359060200190919050506107e8565b604051808215151515815260200191505060405180910390f35b341561020557600080fd5b61021b6004808035906020019091905050610905565b60405180826000191660001916815260200191505060405180910390f35b341561024457600080fd5b61029d600480803590602001908201803590602001908080601f01602080910402602001604051908101604052809392919081815260200183838082843782019150505050505091908035906020019091905050610a9d565b6040518082815260200191505060405180910390f35b34156102be57600080fd5b6102e1600480803590602001909190803560001916906020019091905050610c87565b604051808215151515815260200191505060405180910390f35b341561030657600080fd5b61031c6004808035906020019091905050610d6d565b6040518080602001828103825283818151815260200191508051906020019060200280838360005b8381101561035f578082015181840152602081019050610344565b505050509050019250505060405180910390f35b341561037e57600080fd5b610398600480803560001916906020019091905050610def565b6040518080602001828103825283818151815260200191508051906020019080838360005b838110156103d85780820151818401526020810190506103bd565b50505050905090810190601f1680156104055780820380516001836020036101000a031916815260200191505b509250505060405180910390f35b341561041e57600080fd5b610441600480803590602001909190803560001916906020019091905050610fdc565b005b341561044e57600080fd5b610483600480803590602001909190803573ffffffffffffffffffffffffffffffffffffffff16906020019091905050611331565b60405180826000191660001916815260200191505060405180910390f35b34156104ac57600080fd5b6104cf600480803590602001909190803560001916906020019091905050611466565b6040518082815260200191505060405180910390f35b34156104f057600080fd5b6105466004808035906020019091908035906020019082018035906020019080806020026020016040519081016040528093929190818152602001838360200280828437820191505050505050919050506114ac565b604051808215151515815260200191505060405180910390f35b6000823373ffffffffffffffffffffffffffffffffffffffff1660008281548110151561058957fe5b906000526020600020906009020160010160009054906101000a900473ffffffffffffffffffffffffffffffffffffffff1673ffffffffffffffffffffffffffffffffffffffff16141561071357836105e18161166b565b15156105ec57600080fd5b84600080828154811015156105fd57fe5b90600052602060002090600902016002018054905014151561061e57600080fd5b8460008781548110151561062e57fe5b906000526020600020906009020160020190805190602001906106529291906116a1565b5060008681548110151561066257fe5b9060005260206000209060090201600001547fd75f438d01b3233808afa8bdbc49572c4b77a47a5dbf4cbfb5e8b41134043a176000888154811015156106a457fe5b9060005260206000209060090201600201604051808060200182810382528381815481526020019150805480156106fe57602002820191906000526020600020905b815460001916815260200190600101908083116106e6575b50509250505060405180910390a26001935050505b5092915050565b6107226116f4565b60008381548110151561073157fe5b9060005260206000209060090201600401600083600019166000191681526020019081526020016000208054806020026020016040519081016040528092919081815260200182805480156107db57602002820191906000526020600020905b8160009054906101000a900473ffffffffffffffffffffffffffffffffffffffff1673ffffffffffffffffffffffffffffffffffffffff1681526020019060010190808311610791575b5050505050905092915050565b6000813373ffffffffffffffffffffffffffffffffffffffff1660008281548110151561081157fe5b906000526020600020906009020160010160009054906101000a900473ffffffffffffffffffffffffffffffffffffffff1673ffffffffffffffffffffffffffffffffffffffff1614156108ff57826108698161166b565b151561087457600080fd5b6000808581548110151561088457fe5b906000526020600020906009020160080160006101000a81548160ff0219169083151502179055506000848154811015156108bb57fe5b9060005260206000209060090201600001547ff47bf13b398cfe4294c801f369677331e64636ac862263520174705f93d36fec60405160405180910390a260019250505b50919050565b60008060008060008581548110151561091a57fe5b9060005260206000209060090201600201600081548110151561093957fe5b906000526020600020900154925061098a8560008781548110151561095a57fe5b9060005260206000209060090201600201600081548110151561097957fe5b906000526020600020900154611466565b9150600190505b6000858154811015156109a057fe5b906000526020600020906009020160020180549050811015610a92576109fe856000878154811015156109cf57fe5b9060005260206000209060090201600201838154811015156109ed57fe5b906000526020600020900154611466565b821015610a8557610a4785600087815481101515610a1857fe5b906000526020600020906009020160020183815481101515610a3657fe5b906000526020600020900154611466565b9150600085815481101515610a5857fe5b906000526020600020906009020160020181815481101515610a7657fe5b90600052602060002090015492505b8080600101915050610991565b829350505050919050565b60008080549050905060008054809190600101610aba9190611708565b5080600082815481101515610acb57fe5b90600052602060002090600902016000018190555033600082815481101515610af057fe5b906000526020600020906009020160010160006101000a81548173ffffffffffffffffffffffffffffffffffffffff021916908373ffffffffffffffffffffffffffffffffffffffff16021790555082600082815481101515610b4f57fe5b90600052602060002090600902016003019080519060200190610b7392919061173a565b5081600082815481101515610b8457fe5b9060005260206000209060090201600701819055506001600082815481101515610baa57fe5b906000526020600020906009020160080160006101000a81548160ff021916908315150217905550600081815481101515610be157fe5b906000526020600020906009020160010160009054906101000a900473ffffffffffffffffffffffffffffffffffffffff1673ffffffffffffffffffffffffffffffffffffffff16817febae947b1b2365f2dff19ae6e7406e73a275d7b26299cc231a14e563094dfd77600084815481101515610c5a57fe5b9060005260206000209060090201600701546040518082815260200191505060405180910390a392915050565b6000823373ffffffffffffffffffffffffffffffffffffffff16600082815481101515610cb057fe5b906000526020600020906009020160010160009054906101000a900473ffffffffffffffffffffffffffffffffffffffff1673ffffffffffffffffffffffffffffffffffffffff161415610d665783610d088161166b565b1515610d1357600080fd5b600085815481101515610d2257fe5b90600052602060002090600902016002018054806001018281610d4591906117ba565b91600052602060002090016000869091909150906000191690555060019250505b5092915050565b610d756117e6565b600082815481101515610d8457fe5b9060005260206000209060090201600201805480602002602001604051908101604052809291908181526020018280548015610de357602002820191906000526020600020905b81546000191681526020019060010190808311610dcb575b50505050509050919050565b610df76117fa565b610dff61180e565b6000806000610e0c61180e565b6020604051805910610e1b5750595b9080825280601f01601f1916602001820160405250945060009350600092505b6020831015610ef9578260080260020a876001900402600102915060007f010000000000000000000000000000000000000000000000000000000000000002827effffffffffffffffffffffffffffffffffffffffffffffffffffffffffffff1916141515610eec57818585815181101515610eb357fe5b9060200101907effffffffffffffffffffffffffffffffffffffffffffffffffffffffffffff1916908160001a90535083806001019450505b8280600101935050610e3b565b83604051805910610f075750595b9080825280601f01601f19166020018201604052509050600092505b83831015610fcf578483815181101515610f3957fe5b9060200101517f010000000000000000000000000000000000000000000000000000000000000090047f0100000000000000000000000000000000000000000000000000000000000000028184815181101515610f9257fe5b9060200101907effffffffffffffffffffffffffffffffffffffffffffffffffffffffffffff1916908160001a9053508280600101935050610f23565b8095505050505050919050565b81610fe68161166b565b1515610ff157600080fd5b8160008481548110151561100157fe5b906000526020600020906009020160050160000160003373ffffffffffffffffffffffffffffffffffffffff1673ffffffffffffffffffffffffffffffffffffffff16815260200190815260200160002060000160003373ffffffffffffffffffffffffffffffffffffffff1673ffffffffffffffffffffffffffffffffffffffff168152602001908152602001600020816000191690555060016000848154811015156110ab57fe5b906000526020600020906009020160050160000160003373ffffffffffffffffffffffffffffffffffffffff1673ffffffffffffffffffffffffffffffffffffffff16815260200190815260200160002060010160006101000a81548160ff02191690831515021790555060008381548110151561112557fe5b90600052602060002090600902016004016000836000191660001916815260200190815260200160002080548060010182816111619190611822565b9160005260206000209001600033909190916101000a81548173ffffffffffffffffffffffffffffffffffffffff021916908373ffffffffffffffffffffffffffffffffffffffff160217905550503373ffffffffffffffffffffffffffffffffffffffff166000848154811015156111d657fe5b9060005260206000209060090201600001547f6511f4fac645d668c33b8dd23458914acb4aecf69cf503661ce42ed80af2328c6112b260008781548110151561121b57fe5b906000526020600020906009020160050160000160003373ffffffffffffffffffffffffffffffffffffffff1673ffffffffffffffffffffffffffffffffffffffff16815260200190815260200160002060000160003373ffffffffffffffffffffffffffffffffffffffff1673ffffffffffffffffffffffffffffffffffffffff16815260200190815260200160002054610def565b6040518080602001828103825283818151815260200191508051906020019080838360005b838110156112f25780820151818401526020810190506112d7565b50505050905090810190601f16801561131f5780820380516001836020036101000a031916815260200191505b509250505060405180910390a3505050565b60006001151560008481548110151561134657fe5b906000526020600020906009020160050160000160008473ffffffffffffffffffffffffffffffffffffffff1673ffffffffffffffffffffffffffffffffffffffff16815260200190815260200160002060010160009054906101000a900460ff1615151415611458576000838154811015156113bf57fe5b906000526020600020906009020160050160000160008373ffffffffffffffffffffffffffffffffffffffff1673ffffffffffffffffffffffffffffffffffffffff16815260200190815260200160002060000160008373ffffffffffffffffffffffffffffffffffffffff1673ffffffffffffffffffffffffffffffffffffffff168152602001908152602001600020549050611460565b600060010290505b92915050565b6000808381548110151561147657fe5b90600052602060002090600902016004016000836000191660001916815260200190815260200160002080549050905092915050565b6000823373ffffffffffffffffffffffffffffffffffffffff166000828154811015156114d557fe5b906000526020600020906009020160010160009054906101000a900473ffffffffffffffffffffffffffffffffffffffff1673ffffffffffffffffffffffffffffffffffffffff161415611664578361152d8161166b565b151561153857600080fd5b8360008681548110151561154857fe5b9060005260206000209060090201600501600101908051906020019061156f92919061184e565b5060008581548110151561157f57fe5b9060005260206000209060090201600001547f68452cce5167b6848f97ea8122447e1360916b8ad68ea49ec7ce3361930490e06000878154811015156115c157fe5b90600052602060002090600902016005016001016040518080602001828103825283818154815260200191508054801561165057602002820191906000526020600020905b8160009054906101000a900473ffffffffffffffffffffffffffffffffffffffff1673ffffffffffffffffffffffffffffffffffffffff1681526020019060010190808311611606575b50509250505060405180910390a260019250505b5092915050565b6000808281548110151561167b57fe5b906000526020600020906009020160080160009054906101000a900460ff169050919050565b8280548282559060005260206000209081019282156116e3579160200282015b828111156116e25782518290600019169055916020019190600101906116c1565b5b5090506116f091906118d8565b5090565b602060405190810160405280600081525090565b8154818355818115116117355760090281600902836000526020600020918201910161173491906118fd565b5b505050565b828054600181600116156101000203166002900490600052602060002090601f016020900481019282601f1061177b57805160ff19168380011785556117a9565b828001600101855582156117a9579182015b828111156117a857825182559160200191906001019061178d565b5b5090506117b6919061199f565b5090565b8154818355818115116117e1578183600052602060002091820191016117e091906118d8565b5b505050565b602060405190810160405280600081525090565b602060405190810160405280600081525090565b602060405190810160405280600081525090565b81548183558181151161184957818360005260206000209182019101611848919061199f565b5b505050565b8280548282559060005260206000209081019282156118c7579160200282015b828111156118c65782518260006101000a81548173ffffffffffffffffffffffffffffffffffffffff021916908373ffffffffffffffffffffffffffffffffffffffff1602179055509160200191906001019061186e565b5b5090506118d491906119c4565b5090565b6118fa91905b808211156118f65760008160009055506001016118de565b5090565b90565b61199c91905b80821115611998576000808201600090556001820160006101000a81549073ffffffffffffffffffffffffffffffffffffffff021916905560028201600061194b9190611a07565b60038201600061195b9190611a28565b6005820160006001820160006119719190611a70565b505060078201600090556008820160006101000a81549060ff021916905550600901611903565b5090565b90565b6119c191905b808211156119bd5760008160009055506001016119a5565b5090565b90565b611a0491905b80821115611a0057600081816101000a81549073ffffffffffffffffffffffffffffffffffffffff0219169055506001016119ca565b5090565b90565b5080546000825590600052602060002090810190611a2591906118d8565b50565b50805460018160011615610100020316600290046000825580601f10611a4e5750611a6d565b601f016020900490600052602060002090810190611a6c919061199f565b5b50565b5080546000825590600052602060002090810190611a8e919061199f565b505600a165627a7a72305820870be45fa1f2888112d7e9cd207b917bb2cafe2941258769e13ab4a813947fbc0029",
  "source": "pragma solidity ^0.4.18;\r\n \r\n contract votingVer1_2_0\r\n {\r\n    room[] rooms;\r\n    \r\n    struct room\r\n    {\r\n        uint id;\r\n        address owner;\r\n        bytes32[] options;\r\n        string descript;\r\n        mapping(bytes32 => address[]) listVotersOf;\r\n        ListVoters listVoters;\r\n        uint expiredTime;\r\n        bool open;\r\n    }\r\n    \r\n    struct Voter\r\n    {\r\n        mapping(address => bytes32) ballot;\r\n        bool voted;\r\n    }\r\n    \r\n    struct ListVoters\r\n    {\r\n        mapping (address => Voter) voter;\r\n        address[] Addrs;\r\n    }\r\n    \r\n    \r\n    \r\n    event EVroomOpened(uint indexed id, address indexed owner, uint expiredTime);\r\n    event EVaddListVoter(uint indexed id, address[] list);\r\n    event EVaddOptions(uint indexed id, bytes32[] options);\r\n    event EVroomClosed(uint indexed id);\r\n    //event roomInfo(uint indexed id, address indexed owner, bytes32[] options, bytes32 description, listVoter);\r\n    event EVroomResult(uint indexed id, bytes32 option, uint counts, address[] voters);\r\n    event EVvoteNotify(uint indexed id, address indexed sender, string option);\r\n    \r\n    modifier owned(uint id)\r\n    {\r\n        if(rooms[id].owner == msg.sender){\r\n            _;    \r\n        }\r\n        \r\n    }\r\n    modifier roomOpening(uint _id) \r\n    {\r\n        require(checkOpen(_id));\r\n        _;\r\n    }\r\n    modifier optionEmpty(uint _id)\r\n    {\r\n        require(rooms[_id].options.length == 0);\r\n        _;\r\n    }\r\n    modifier listVoterEmpty(uint _id)\r\n    {\r\n        require(rooms[_id].listVoters.Addrs.length == 0);\r\n        _;\r\n    }\r\n    \r\n    function votingVer1_2_0()\r\n        public \r\n    {\r\n        \r\n    }\r\n    \r\n    function openRoom(string _des, uint _expiredTime) public returns (uint id)\r\n    {\r\n        id = rooms.length;\r\n        rooms.length++;\r\n        rooms[id].id = id;\r\n        rooms[id].owner = msg.sender;\r\n        rooms[id].descript = _des;\r\n        rooms[id].expiredTime = _expiredTime;\r\n        rooms[id].open = true;\r\n        EVroomOpened(id, rooms[id].owner,rooms[id].expiredTime);\r\n    }\r\n    function closeRoom(uint _id) \r\n            owned(_id) \r\n            roomOpening(_id) public returns (bool)\r\n    {\r\n        rooms[_id].open = false;\r\n        EVroomClosed(rooms[_id].id);\r\n        return true;\r\n    }\r\n    \r\n    function checkOpen(uint _id) private view returns(bool)\r\n    {\r\n        return rooms[_id].open;\r\n    }\r\n    \r\n    \r\n    \r\n    function setOption(uint _id, bytes32[] _option) \r\n            owned(_id) \r\n            roomOpening(_id)\r\n            optionEmpty(_id)\r\n            public returns (bool)\r\n    {\r\n        rooms[_id].options = _option;\r\n        EVaddOptions(rooms[_id].id, rooms[_id].options);\r\n        return true;\r\n    }\r\n    function setListVoters(uint _id, address[] _voters) \r\n            owned(_id)\r\n            roomOpening(_id)\r\n            public returns (bool)\r\n    {\r\n        rooms[_id].listVoters.Addrs = _voters;\r\n        EVaddListVoter(rooms[_id].id, rooms[_id].listVoters.Addrs);\r\n        return true;\r\n    }\r\n    function addOption(uint _id, bytes32 _option) \r\n            owned(_id) \r\n            roomOpening(_id)\r\n            public returns(bool)\r\n    {\r\n        rooms[_id].options.push(_option);\r\n        return true;\r\n    }\r\n    \r\n    \r\n    \r\n    function VoteFor(uint _id, bytes32 _option) \r\n                roomOpening(_id)\r\n                // validOption(_option) \r\n                // notVoted(msg.sender)  \r\n                // hasVoter(msg.sender)\r\n                public\r\n    {\r\n        rooms[_id].listVoters.voter[msg.sender].ballot[msg.sender] = _option;\r\n        rooms[_id].listVoters.voter[msg.sender].voted = true;\r\n        rooms[_id].listVotersOf[_option].push(msg.sender);\r\n        EVvoteNotify(rooms[_id].id,msg.sender, bytes32ToString(rooms[_id].listVoters.voter[msg.sender].ballot[msg.sender]));\r\n    }\r\n    function getRoomResult(uint _id) public view returns(bytes32)\r\n    {\r\n        bytes32 res;\r\n        uint temp;\r\n        res = rooms[_id].options[0];\r\n        temp = getCountOf(_id, rooms[_id].options[0]);\r\n        for(uint i = 1; i < rooms[_id].options.length; i++)\r\n        { \r\n            if(temp < getCountOf(_id, rooms[_id].options[i]))\r\n            {\r\n                temp = getCountOf(_id, rooms[_id].options[i]);     \r\n                res = rooms[_id].options[i];\r\n            }\r\n        }\r\n        return res;\r\n    }\r\n    function getCountOf(uint _id, bytes32 _option) public constant returns(uint){\r\n        //require(vailableCandidate(_addr));\r\n        return rooms[_id].listVotersOf[_option].length;\r\n    }\r\n    \r\n    function getListVoterOf(uint _id, bytes32 _option) public view returns(address[])\r\n    {\r\n        return rooms[_id].listVotersOf[_option];\r\n    }\r\n    function getOptions(uint _id) public view returns(bytes32[])\r\n    {\r\n        return rooms[_id].options;\r\n    }\r\n    \r\n    function getVoteOf(uint _id, address _addr) public view returns(bytes32)\r\n    {\r\n        if(rooms[_id].listVoters.voter[_addr].voted == true)\r\n        {\r\n            return (rooms[_id].listVoters.voter[_addr].ballot[_addr]);\r\n        }\r\n        return 0x00;\r\n    }\r\n    \r\n    \r\n//     function checkInitiateOption(bytes32[] _option) private pure returns(bool)\r\n//     {\r\n//         for(uint i = 0; i <= _option.length - 1; i++){\r\n//             var temp = _option[i];\r\n//             for(uint j = i+1; j <= _option.length-1; j++){\r\n//                 if (temp == _option[j] )\r\n//                 {\r\n//                     return false;\r\n//                 }\r\n//             }\r\n//         }\r\n//         return true;\r\n//     }\r\n    \r\n    \r\n    \r\n    \r\n//   function checkVailableOption(bytes32 _n) private view returns(bool)\r\n//     {\r\n//         for(uint i = 0; i < opt.length; i++)\r\n//         {\r\n//             if(opt[i] == _n)\r\n//             {\r\n//                 return true;\r\n//             }    \r\n//         }\r\n//         return false;\r\n//     }\r\n    \r\n//     function checkVailableVoter(address _addr) private view returns(bool)\r\n//     {\r\n//         for(uint i = 0; i < voters.length; i++)\r\n//         {\r\n//             if(voters[i] == _addr)\r\n//             {\r\n//                 return true;\r\n//             }\r\n//         }\r\n//         return false;\r\n//     }\r\n\r\n//     modifier validInitiate(bytes32[] _option) \r\n//     {\r\n//         if(_option.length != 0)\r\n//         {\r\n//             require(checkInitiateOption(_option));    \r\n//         }\r\n        \r\n//         _;    \r\n//     }\r\n//     modifier validOption(bytes32 _option)\r\n//     {\r\n//         require(!checkVailableOption(_option));\r\n//         _;\r\n       \r\n//     }\r\n//     modifier notVoted(address _addr)\r\n//     {\r\n       \r\n//         require(voted[_addr] == false);\r\n//         _;\r\n       \r\n//     }\r\n//     // modifier validVoter(address _addr)\r\n//     // {\r\n//     //     require(checkVailableVoter(_addr));\r\n//     //     _;\r\n        \r\n//     // }\r\n//     modifier hasVoter(address _addr){\r\n//         if(voters.length != 0)\r\n//         {\r\n//             require(checkVailableVoter(_addr) == true);    \r\n//         }\r\n//         _;\r\n       \r\n//     }\r\n    \r\n//     function addOption(bytes32 _n) \r\n//             validOption(_n)\r\n//             public\r\n//     {\r\n//         notify(msg.sender, bytes32ToString(_n), \"option added\");\r\n//         opt.push(_n);\r\n//     }\r\n//     function addVoter(address _addr) public\r\n//     {\r\n//         voters.push(_addr);\r\n//     }\r\n    \r\n//     function getOptions() public view returns(bytes32[])\r\n//     {\r\n//         return opt;\r\n//     }\r\n     \r\n//     function getListVoters() public view returns(address[])\r\n//     {\r\n//         return voters;\r\n//     }\r\n    \r\n//     function getOptionByIndex(uint _i) private view returns(string)\r\n//     {\r\n//         return bytes32ToString(opt[_i]);\r\n//     }\r\n    \r\n    \r\n    function bytes32ToString(bytes32 x) public pure returns (string) \r\n    {\r\n        bytes memory bytesString = new bytes(32);\r\n        uint charCount = 0;\r\n        for (uint j = 0; j < 32; j++) \r\n        {\r\n            byte char = byte(bytes32(uint(x) * 2 ** (8 * j)));\r\n            if (char != 0) \r\n            {\r\n                bytesString[charCount] = char;\r\n                charCount++;\r\n            }\r\n        }\r\n        bytes memory bytesStringTrimmed = new bytes(charCount);\r\n        for (j = 0; j < charCount; j++) \r\n        {\r\n            bytesStringTrimmed[j] = bytesString[j];\r\n        }\r\n        return string(bytesStringTrimmed);\r\n    }\r\n//   /* \r\n//     modifier validopt(bytes32 _n){\r\n//         for(uint i=0; i < opt.length; i++){\r\n//             if(opt[i] == _n){\r\n//                 return true;\r\n//             }   \r\n//         }\r\n//         return false;\r\n//         _;\r\n        \r\n//     }\r\n//     */\r\n\r\n//     function VoteFor(bytes32 _option) \r\n//                 validOption(_option) \r\n//                 notVoted(msg.sender)  \r\n//                 hasVoter(msg.sender)\r\n//                 public\r\n//     {\r\n//         ballotOf[msg.sender] = _option;\r\n//         listVotersOf[_option].push(msg.sender);\r\n//         voted[msg.sender] = true;\r\n//         notify(msg.sender, bytes32ToString(_option), \"voted\");\r\n//     }\r\n }",
  "sourcePath": "C:\\Users\\PMM81HC\\Desktop\\Experiment\\VoteChain\\contracts\\votingVer1_2_0.sol",
  "compiler": {
    "name": "solc",
    "version": "0.4.18+commit.9cf6e910.Emscripten.clang"
  },
  "schemaVersion": "1.0.1",
  "updatedAt": "2018-03-08T08:31:04.712Z"
}