{
  "contractName": "votingVer1_2_1",
  "abi": [
    {
      "constant": false,
      "inputs": [
        {
          "name": "_id",
          "type": "uint256"
        },
        {
          "name": "_option",
          "type": "bytes32[]"
        }
      ],
      "name": "setOption",
      "outputs": [
        {
          "name": "",
          "type": "bool"
        }
      ],
      "payable": false,
      "stateMutability": "nonpayable",
      "type": "function"
    },
    {
      "constant": true,
      "inputs": [
        {
          "name": "_id",
          "type": "uint256"
        },
        {
          "name": "_option",
          "type": "bytes32"
        }
      ],
      "name": "getListVoterOf",
      "outputs": [
        {
          "name": "",
          "type": "address[]"
        }
      ],
      "payable": false,
      "stateMutability": "view",
      "type": "function"
    },
    {
      "constant": false,
      "inputs": [
        {
          "name": "_id",
          "type": "uint256"
        }
      ],
      "name": "closeRoom",
      "outputs": [
        {
          "name": "",
          "type": "bool"
        }
      ],
      "payable": false,
      "stateMutability": "nonpayable",
      "type": "function"
    },
    {
      "constant": false,
      "inputs": [
        {
          "name": "_til",
          "type": "string"
        },
        {
          "name": "_privateR",
          "type": "bool"
        },
        {
          "name": "_des",
          "type": "string"
        },
        {
          "name": "_expiredTime",
          "type": "uint256"
        }
      ],
      "name": "openRoom",
      "outputs": [
        {
          "name": "id",
          "type": "uint256"
        }
      ],
      "payable": false,
      "stateMutability": "nonpayable",
      "type": "function"
    },
    {
      "constant": true,
      "inputs": [
        {
          "name": "_id",
          "type": "uint256"
        }
      ],
      "name": "getRoomResult",
      "outputs": [
        {
          "name": "",
          "type": "bytes32"
        }
      ],
      "payable": false,
      "stateMutability": "view",
      "type": "function"
    },
    {
      "constant": false,
      "inputs": [
        {
          "name": "_id",
          "type": "uint256"
        },
        {
          "name": "_option",
          "type": "bytes32"
        }
      ],
      "name": "addOption",
      "outputs": [
        {
          "name": "",
          "type": "bool"
        }
      ],
      "payable": false,
      "stateMutability": "nonpayable",
      "type": "function"
    },
    {
      "constant": true,
      "inputs": [
        {
          "name": "_id",
          "type": "uint256"
        }
      ],
      "name": "getOptions",
      "outputs": [
        {
          "name": "",
          "type": "bytes32[]"
        }
      ],
      "payable": false,
      "stateMutability": "view",
      "type": "function"
    },
    {
      "constant": true,
      "inputs": [
        {
          "name": "x",
          "type": "bytes32"
        }
      ],
      "name": "bytes32ToString",
      "outputs": [
        {
          "name": "",
          "type": "string"
        }
      ],
      "payable": false,
      "stateMutability": "pure",
      "type": "function"
    },
    {
      "constant": false,
      "inputs": [
        {
          "name": "_id",
          "type": "uint256"
        },
        {
          "name": "_option",
          "type": "bytes32"
        }
      ],
      "name": "VoteFor",
      "outputs": [],
      "payable": false,
      "stateMutability": "nonpayable",
      "type": "function"
    },
    {
      "constant": true,
      "inputs": [
        {
          "name": "_id",
          "type": "uint256"
        },
        {
          "name": "_addr",
          "type": "address"
        }
      ],
      "name": "getVoteOf",
      "outputs": [
        {
          "name": "",
          "type": "bytes32"
        }
      ],
      "payable": false,
      "stateMutability": "view",
      "type": "function"
    },
    {
      "constant": true,
      "inputs": [
        {
          "name": "_id",
          "type": "uint256"
        },
        {
          "name": "_option",
          "type": "bytes32"
        }
      ],
      "name": "getCountOf",
      "outputs": [
        {
          "name": "",
          "type": "uint256"
        }
      ],
      "payable": false,
      "stateMutability": "view",
      "type": "function"
    },
    {
      "constant": false,
      "inputs": [
        {
          "name": "_id",
          "type": "uint256"
        },
        {
          "name": "_voters",
          "type": "address[]"
        }
      ],
      "name": "setListVoters",
      "outputs": [
        {
          "name": "",
          "type": "bool"
        }
      ],
      "payable": false,
      "stateMutability": "nonpayable",
      "type": "function"
    },
    {
      "inputs": [],
      "payable": false,
      "stateMutability": "nonpayable",
      "type": "constructor"
    },
    {
      "anonymous": false,
      "inputs": [
        {
          "indexed": true,
          "name": "id",
          "type": "uint256"
        },
        {
          "indexed": true,
          "name": "owner",
          "type": "address"
        },
        {
          "indexed": false,
          "name": "title",
          "type": "string"
        },
        {
          "indexed": false,
          "name": "descript",
          "type": "string"
        },
        {
          "indexed": false,
          "name": "privateRoom",
          "type": "bool"
        },
        {
          "indexed": false,
          "name": "expiredTime",
          "type": "uint256"
        }
      ],
      "name": "LOGroomOpened",
      "type": "event"
    },
    {
      "anonymous": false,
      "inputs": [
        {
          "indexed": true,
          "name": "id",
          "type": "uint256"
        },
        {
          "indexed": false,
          "name": "list",
          "type": "address[]"
        }
      ],
      "name": "LOGaddListVoter",
      "type": "event"
    },
    {
      "anonymous": false,
      "inputs": [
        {
          "indexed": true,
          "name": "id",
          "type": "uint256"
        },
        {
          "indexed": false,
          "name": "options",
          "type": "bytes32[]"
        }
      ],
      "name": "LOGaddOptions",
      "type": "event"
    },
    {
      "anonymous": false,
      "inputs": [
        {
          "indexed": true,
          "name": "id",
          "type": "uint256"
        },
        {
          "indexed": false,
          "name": "result",
          "type": "string"
        }
      ],
      "name": "LOGroomClosed",
      "type": "event"
    },
    {
      "anonymous": false,
      "inputs": [
        {
          "indexed": true,
          "name": "id",
          "type": "uint256"
        },
        {
          "indexed": false,
          "name": "option",
          "type": "bytes32"
        },
        {
          "indexed": false,
          "name": "counts",
          "type": "uint256"
        },
        {
          "indexed": false,
          "name": "voters",
          "type": "address[]"
        }
      ],
      "name": "EVroomResult",
      "type": "event"
    },
    {
      "anonymous": false,
      "inputs": [
        {
          "indexed": true,
          "name": "id",
          "type": "uint256"
        },
        {
          "indexed": true,
          "name": "sender",
          "type": "address"
        },
        {
          "indexed": false,
          "name": "option",
          "type": "string"
        }
      ],
      "name": "EVvoteNotify",
      "type": "event"
    }
  ],
  "bytecode": "0x6060604052341561000f57600080fd5b611c868061001e6000396000f3006060604052600436106100ba576000357c0100000000000000000000000000000000000000000000000000000000900463ffffffff1680630414d791146100bf57806310d82ed41461013a5780631c3a8892146101bf578063572ab162146101fa57806365ebdb99146102c257806386d39cbc146103015780638915b3fb146103495780639201de55146103c157806392554b8814610461578063ab85cb4d14610491578063deae85ef146104ef578063fe75305414610533575b600080fd5b34156100ca57600080fd5b6101206004808035906020019091908035906020019082018035906020019080806020026020016040519081016040528093929190818152602001838360200280828437820191505050505050919050506105ae565b604051808215151515815260200191505060405180910390f35b341561014557600080fd5b61016860048080359060200190919080356000191690602001909190505061076d565b6040518080602001828103825283818151815260200191508051906020019060200280838360005b838110156101ab578082015181840152602081019050610190565b505050509050019250505060405180910390f35b34156101ca57600080fd5b6101e0600480803590602001909190505061083b565b604051808215151515815260200191505060405180910390f35b341561020557600080fd5b6102ac600480803590602001908201803590602001908080601f01602080910402602001604051908101604052809392919081815260200183838082843782019150505050505091908035151590602001909190803590602001908201803590602001908080601f016020809104026020016040519081016040528093929190818152602001838380828437820191505050505050919080359060200190919050506109f5565b6040518082815260200191505060405180910390f35b34156102cd57600080fd5b6102e36004808035906020019091905050610dd9565b60405180826000191660001916815260200191505060405180910390f35b341561030c57600080fd5b61032f600480803590602001909190803560001916906020019091905050610e1a565b604051808215151515815260200191505060405180910390f35b341561035457600080fd5b61036a6004808035906020019091905050610f05565b6040518080602001828103825283818151815260200191508051906020019060200280838360005b838110156103ad578082015181840152602081019050610392565b505050509050019250505060405180910390f35b34156103cc57600080fd5b6103e6600480803560001916906020019091905050610f87565b6040518080602001828103825283818151815260200191508051906020019080838360005b8381101561042657808201518184015260208101905061040b565b50505050905090810190601f1680156104535780820380516001836020036101000a031916815260200191505b509250505060405180910390f35b341561046c57600080fd5b61048f600480803590602001909190803560001916906020019091905050611174565b005b341561049c57600080fd5b6104d1600480803590602001909190803573ffffffffffffffffffffffffffffffffffffffff169060200190919050506114c9565b60405180826000191660001916815260200191505060405180910390f35b34156104fa57600080fd5b61051d6004808035906020019091908035600019169060200190919050506115fe565b6040518082815260200191505060405180910390f35b341561053e57600080fd5b610594600480803590602001909190803590602001908201803590602001908080602002602001604051908101604052809392919081815260200183836020028082843782019150505050505091905050611644565b604051808215151515815260200191505060405180910390f35b6000823373ffffffffffffffffffffffffffffffffffffffff166000828154811015156105d757fe5b90600052602060002090600c020160000160009054906101000a900473ffffffffffffffffffffffffffffffffffffffff1673ffffffffffffffffffffffffffffffffffffffff1614151561062b57600080fd5b8361063581611808565b151561064057600080fd5b846000808281548110151561065157fe5b90600052602060002090600c02016004018054905014151561067257600080fd5b8460008781548110151561068257fe5b90600052602060002090600c020160040190805190602001906106a692919061183e565b506000868154811015156106b657fe5b90600052602060002090600c0201600101547f8dbc229bd4de18730350bdd4b16b688e262e62cdcb3e7b9c4a5a7232b027434a6000888154811015156106f857fe5b90600052602060002090600c02016004016040518080602001828103825283818154815260200191508054801561075257602002820191906000526020600020905b8154600019168152602001906001019080831161073a575b50509250505060405180910390a26001935050505092915050565b610775611891565b60008381548110151561078457fe5b90600052602060002090600c02016006016000836000191660001916815260200190815260200160002080548060200260200160405190810160405280929190818152602001828054801561082e57602002820191906000526020600020905b8160009054906101000a900473ffffffffffffffffffffffffffffffffffffffff1673ffffffffffffffffffffffffffffffffffffffff16815260200190600101908083116107e4575b5050505050905092915050565b6000813373ffffffffffffffffffffffffffffffffffffffff1660008281548110151561086457fe5b90600052602060002090600c020160000160009054906101000a900473ffffffffffffffffffffffffffffffffffffffff1673ffffffffffffffffffffffffffffffffffffffff161415156108b857600080fd5b826108c281611808565b15156108cd57600080fd5b600080858154811015156108dd57fe5b90600052602060002090600c0201600a0160006101000a81548160ff02191690831515021790555060008481548110151561091457fe5b90600052602060002090600c0201600101547f33156418fb267c14f554911a036ed33e93494a77b537b49291f121ba0e7bf6d261097060008781548110151561095957fe5b90600052602060002090600c0201600b0154610f87565b6040518080602001828103825283818151815260200191508051906020019080838360005b838110156109b0578082015181840152602081019050610995565b50505050905090810190601f1680156109dd5780820380516001836020036101000a031916815260200191505b509250505060405180910390a2600192505050919050565b60008080549050905060008054809190600101610a1291906118a5565b5080600082815481101515610a2357fe5b90600052602060002090600c02016001018190555033600082815481101515610a4857fe5b90600052602060002090600c020160000160006101000a81548173ffffffffffffffffffffffffffffffffffffffff021916908373ffffffffffffffffffffffffffffffffffffffff16021790555082600082815481101515610aa757fe5b90600052602060002090600c02016005019080519060200190610acb9291906118d7565b5084600082815481101515610adc57fe5b90600052602060002090600c02016002019080519060200190610b009291906118d7565b5083600082815481101515610b1157fe5b90600052602060002090600c020160030160006101000a81548160ff02191690831515021790555081600082815481101515610b4957fe5b90600052602060002090600c0201600901819055506001600082815481101515610b6f57fe5b90600052602060002090600c0201600a0160006101000a81548160ff021916908315150217905550600081815481101515610ba657fe5b90600052602060002090600c020160000160009054906101000a900473ffffffffffffffffffffffffffffffffffffffff1673ffffffffffffffffffffffffffffffffffffffff16817fa2b5ca96e1c5de8e9a5a72d3726d31afed57fde16bcf46dbf75a1ddcc2a0df09600084815481101515610c1f57fe5b90600052602060002090600c0201600201600085815481101515610c3f57fe5b90600052602060002090600c0201600501600086815481101515610c5f57fe5b90600052602060002090600c020160030160009054906101000a900460ff16600087815481101515610c8d57fe5b90600052602060002090600c02016009015460405180806020018060200185151515158152602001848152602001838103835287818154600181600116156101000203166002900481526020019150805460018160011615610100020316600290048015610d3c5780601f10610d1157610100808354040283529160200191610d3c565b820191906000526020600020905b815481529060010190602001808311610d1f57829003601f168201915b5050838103825286818154600181600116156101000203166002900481526020019150805460018160011615610100020316600290048015610dbf5780601f10610d9457610100808354040283529160200191610dbf565b820191906000526020600020905b815481529060010190602001808311610da257829003601f168201915b5050965050505050505060405180910390a3949350505050565b600081610de581611808565b151515610df157600080fd5b600083815481101515610e0057fe5b90600052602060002090600c0201600b0154915050919050565b6000823373ffffffffffffffffffffffffffffffffffffffff16600082815481101515610e4357fe5b90600052602060002090600c020160000160009054906101000a900473ffffffffffffffffffffffffffffffffffffffff1673ffffffffffffffffffffffffffffffffffffffff16141515610e9757600080fd5b83610ea181611808565b1515610eac57600080fd5b600085815481101515610ebb57fe5b90600052602060002090600c02016004018054806001018281610ede9190611957565b91600052602060002090016000869091909150906000191690555060019250505092915050565b610f0d611983565b600082815481101515610f1c57fe5b90600052602060002090600c0201600401805480602002602001604051908101604052809291908181526020018280548015610f7b57602002820191906000526020600020905b81546000191681526020019060010190808311610f63575b50505050509050919050565b610f8f611997565b610f976119ab565b6000806000610fa46119ab565b6020604051805910610fb35750595b9080825280601f01601f1916602001820160405250945060009350600092505b6020831015611091578260080260020a876001900402600102915060007f010000000000000000000000000000000000000000000000000000000000000002827effffffffffffffffffffffffffffffffffffffffffffffffffffffffffffff19161415156110845781858581518110151561104b57fe5b9060200101907effffffffffffffffffffffffffffffffffffffffffffffffffffffffffffff1916908160001a90535083806001019450505b8280600101935050610fd3565b8360405180591061109f5750595b9080825280601f01601f19166020018201604052509050600092505b838310156111675784838151811015156110d157fe5b9060200101517f010000000000000000000000000000000000000000000000000000000000000090047f010000000000000000000000000000000000000000000000000000000000000002818481518110151561112a57fe5b9060200101907effffffffffffffffffffffffffffffffffffffffffffffffffffffffffffff1916908160001a90535082806001019350506110bb565b8095505050505050919050565b8161117e81611808565b151561118957600080fd5b8160008481548110151561119957fe5b90600052602060002090600c020160070160000160003373ffffffffffffffffffffffffffffffffffffffff1673ffffffffffffffffffffffffffffffffffffffff16815260200190815260200160002060000160003373ffffffffffffffffffffffffffffffffffffffff1673ffffffffffffffffffffffffffffffffffffffff1681526020019081526020016000208160001916905550600160008481548110151561124357fe5b90600052602060002090600c020160070160000160003373ffffffffffffffffffffffffffffffffffffffff1673ffffffffffffffffffffffffffffffffffffffff16815260200190815260200160002060010160006101000a81548160ff0219169083151502179055506000838154811015156112bd57fe5b90600052602060002090600c02016006016000836000191660001916815260200190815260200160002080548060010182816112f991906119bf565b9160005260206000209001600033909190916101000a81548173ffffffffffffffffffffffffffffffffffffffff021916908373ffffffffffffffffffffffffffffffffffffffff160217905550503373ffffffffffffffffffffffffffffffffffffffff1660008481548110151561136e57fe5b90600052602060002090600c0201600101547f6511f4fac645d668c33b8dd23458914acb4aecf69cf503661ce42ed80af2328c61144a6000878154811015156113b357fe5b90600052602060002090600c020160070160000160003373ffffffffffffffffffffffffffffffffffffffff1673ffffffffffffffffffffffffffffffffffffffff16815260200190815260200160002060000160003373ffffffffffffffffffffffffffffffffffffffff1673ffffffffffffffffffffffffffffffffffffffff16815260200190815260200160002054610f87565b6040518080602001828103825283818151815260200191508051906020019080838360005b8381101561148a57808201518184015260208101905061146f565b50505050905090810190601f1680156114b75780820380516001836020036101000a031916815260200191505b509250505060405180910390a3505050565b6000600115156000848154811015156114de57fe5b90600052602060002090600c020160070160000160008473ffffffffffffffffffffffffffffffffffffffff1673ffffffffffffffffffffffffffffffffffffffff16815260200190815260200160002060010160009054906101000a900460ff16151514156115f05760008381548110151561155757fe5b90600052602060002090600c020160070160000160008373ffffffffffffffffffffffffffffffffffffffff1673ffffffffffffffffffffffffffffffffffffffff16815260200190815260200160002060000160008373ffffffffffffffffffffffffffffffffffffffff1673ffffffffffffffffffffffffffffffffffffffff1681526020019081526020016000205490506115f8565b600060010290505b92915050565b6000808381548110151561160e57fe5b90600052602060002090600c02016006016000836000191660001916815260200190815260200160002080549050905092915050565b6000823373ffffffffffffffffffffffffffffffffffffffff1660008281548110151561166d57fe5b90600052602060002090600c020160000160009054906101000a900473ffffffffffffffffffffffffffffffffffffffff1673ffffffffffffffffffffffffffffffffffffffff161415156116c157600080fd5b836116cb81611808565b15156116d657600080fd5b836000868154811015156116e657fe5b90600052602060002090600c0201600701600101908051906020019061170d9291906119eb565b5060008581548110151561171d57fe5b90600052602060002090600c0201600101547f19b82506b3313c2dd5d3d7062965522938d291754bdf64c433f06c2a5b5f589760008781548110151561175f57fe5b90600052602060002090600c0201600701600101604051808060200182810382528381815481526020019150805480156117ee57602002820191906000526020600020905b8160009054906101000a900473ffffffffffffffffffffffffffffffffffffffff1673ffffffffffffffffffffffffffffffffffffffff16815260200190600101908083116117a4575b50509250505060405180910390a260019250505092915050565b6000808281548110151561181857fe5b90600052602060002090600c0201600a0160009054906101000a900460ff169050919050565b828054828255906000526020600020908101928215611880579160200282015b8281111561187f57825182906000191690559160200191906001019061185e565b5b50905061188d9190611a75565b5090565b602060405190810160405280600081525090565b8154818355818115116118d257600c0281600c0283600052602060002091820191016118d19190611a9a565b5b505050565b828054600181600116156101000203166002900490600052602060002090601f016020900481019282601f1061191857805160ff1916838001178555611946565b82800160010185558215611946579182015b8281111561194557825182559160200191906001019061192a565b5b5090506119539190611b68565b5090565b81548183558181151161197e5781836000526020600020918201910161197d9190611a75565b5b505050565b602060405190810160405280600081525090565b602060405190810160405280600081525090565b602060405190810160405280600081525090565b8154818355818115116119e6578183600052602060002091820191016119e59190611b68565b5b505050565b828054828255906000526020600020908101928215611a64579160200282015b82811115611a635782518260006101000a81548173ffffffffffffffffffffffffffffffffffffffff021916908373ffffffffffffffffffffffffffffffffffffffff16021790555091602001919060010190611a0b565b5b509050611a719190611b8d565b5090565b611a9791905b80821115611a93576000816000905550600101611a7b565b5090565b90565b611b6591905b80821115611b6157600080820160006101000a81549073ffffffffffffffffffffffffffffffffffffffff02191690556001820160009055600282016000611ae89190611bd0565b6003820160006101000a81549060ff0219169055600482016000611b0c9190611c18565b600582016000611b1c9190611bd0565b600782016000600182016000611b329190611c39565b50506009820160009055600a820160006101000a81549060ff0219169055600b82016000905550600c01611aa0565b5090565b90565b611b8a91905b80821115611b86576000816000905550600101611b6e565b5090565b90565b611bcd91905b80821115611bc957600081816101000a81549073ffffffffffffffffffffffffffffffffffffffff021916905550600101611b93565b5090565b90565b50805460018160011615610100020316600290046000825580601f10611bf65750611c15565b601f016020900490600052602060002090810190611c149190611b68565b5b50565b5080546000825590600052602060002090810190611c369190611a75565b50565b5080546000825590600052602060002090810190611c579190611b68565b505600a165627a7a723058206a4ea4db005ac8c1aa588d88bb2c4373d28c2104278218a5036353552088d4940029",
  "source": "/**\r\n * ver 1.2.0\r\n * \r\n * create room(s) to vote\r\n * only add/set option/list voters/cast ballot for opening rooms\r\n * voted voter cannot cast another vote\r\n * \r\n * \r\n * ver1.1.4\r\n * \r\n * add contract event\r\n * \r\n * -----------------------------------------------------\r\n * ver1.1.3\r\n * \r\n * add modifier to control vote, ballot, 1 address - 1 vote\r\n * check duplicate option when initiate the contract\r\n * \r\n * -----------------------------------------------------\r\n * ver1.1.2\r\n * \r\n * update\r\n *      add expired time: close the vote when time is up-to-date\r\n *      add list voters who can vote\r\n *          if the list is left empty, everyone can join the vote\r\n *          otherwise, only the ones in the list can cast vote\r\n *      get ballot of an address\r\n * \r\n * -----------------------------------------------------\r\n * ver1.1.1\r\n * \r\n * update\r\n *      add algorithm check 1 address - 1 vote\r\n * add new:\r\n *  property: \r\n *      voted\r\n *  method:\r\n *      (none)\r\n * remove:\r\n *      (none)\r\n * \r\n * -----------------------------------------------------\r\n * ver1.1.0\r\n * \r\n * update\r\n *      VotFor\r\n *      change the way managing the ballot\r\n *          voteOf => listVotersOf\r\n *      getCountOf => getCountOf\r\n * add new:\r\n *  property: \r\n *      owner\r\n *      listVotersOf\r\n *  method:\r\n *      getListVoterOf\r\n * remove:\r\n *      voteOf\r\n *      getCountOf\r\n * \r\n * -----------------------------------------------------\r\n * ver1\r\n * \r\n * add option when call the contract\r\n * vote for an option\r\n * convert option(bytes32) to string\r\n * get option vote\r\n * only available option can be voted\r\n * \r\n */\r\n \r\n pragma solidity ^0.4.18;\r\n \r\n contract votingVer1_2_1\r\n {\r\n    room[] rooms;\r\n    \r\n    struct room\r\n    {\r\n        address owner;\r\n        uint id;\r\n        string title;\r\n        bool privateRoom;\r\n        bytes32[] options;\r\n        string descript;\r\n        mapping(bytes32 => address[]) listVotersOf;\r\n        ListVoters listVoters;\r\n        uint expiredTime;\r\n        bool open;\r\n        bytes32 result;\r\n    }\r\n    \r\n    struct Voter\r\n    {\r\n        mapping(address => bytes32) ballot;\r\n        bool voted;\r\n    }\r\n    \r\n    struct ListVoters\r\n    {\r\n        mapping (address => Voter) voter;\r\n        address[] Addrs;\r\n    }\r\n    \r\n    \r\n    \r\n    event LOGroomOpened(uint indexed id, address indexed owner,string title, string descript, bool privateRoom, uint expiredTime);\r\n    event LOGaddListVoter(uint indexed id, address[] list);\r\n    event LOGaddOptions(uint indexed id, bytes32[] options);\r\n    event LOGroomClosed(uint indexed id, string result);\r\n    //event roomInfo(uint indexed id, address indexed owner, bytes32[] options, bytes32 description, listVoter);\r\n    event EVroomResult(uint indexed id, bytes32 option, uint counts, address[] voters);\r\n    event EVvoteNotify(uint indexed id, address indexed sender, string option);\r\n    \r\n    modifier owned(uint id)\r\n    {\r\n        require(rooms[id].owner == msg.sender);\r\n        _;    \r\n        \r\n        \r\n    }\r\n    modifier roomOpening(uint _id) \r\n    {\r\n        require(checkOpen(_id));\r\n        _;\r\n    }\r\n    \r\n    modifier roomClosed(uint _id) \r\n    {\r\n        require(!checkOpen(_id));\r\n        _;\r\n    }\r\n    modifier optionEmpty(uint _id)\r\n    {\r\n        require(rooms[_id].options.length == 0);\r\n        _;\r\n    }\r\n    modifier listVoterEmpty(uint _id)\r\n    {\r\n        require(rooms[_id].listVoters.Addrs.length == 0);\r\n        _;\r\n    }\r\n    \r\n    function votingVer1_2_1()\r\n        public \r\n    {\r\n        \r\n    }\r\n    \r\n    function openRoom(string _til, bool _privateR, string _des, uint _expiredTime) public returns (uint id)\r\n    {\r\n        id = rooms.length;\r\n        rooms.length++;\r\n        rooms[id].id = id;\r\n        rooms[id].owner = msg.sender;\r\n        rooms[id].descript = _des;\r\n        rooms[id].title = _til;\r\n        rooms[id].privateRoom = _privateR;\r\n        rooms[id].expiredTime = _expiredTime;\r\n        rooms[id].open = true;\r\n        LOGroomOpened(id, rooms[id].owner,rooms[id].title, rooms[id].descript, rooms[id].privateRoom, rooms[id].expiredTime);\r\n    }\r\n    function closeRoom(uint _id) \r\n            owned(_id) \r\n            roomOpening(_id) public returns (bool)\r\n    {\r\n        rooms[_id].open = false;\r\n        //calculateRoomResult(_id);\r\n        LOGroomClosed(rooms[_id].id, bytes32ToString(rooms[_id].result));\r\n        return true;\r\n    }\r\n    \r\n    function checkOpen(uint _id) private view returns(bool)\r\n    {\r\n        return rooms[_id].open;\r\n    }\r\n    \r\n    function setOption(uint _id, bytes32[] _option) \r\n            owned(_id) \r\n            roomOpening(_id)\r\n            optionEmpty(_id)\r\n            public returns (bool)\r\n    {\r\n        rooms[_id].options = _option;\r\n        LOGaddOptions(rooms[_id].id, rooms[_id].options);\r\n        return true;\r\n    }\r\n    function setListVoters(uint _id, address[] _voters) \r\n            owned(_id)\r\n            roomOpening(_id)\r\n            public returns (bool)\r\n    {\r\n        rooms[_id].listVoters.Addrs = _voters;\r\n        LOGaddListVoter(rooms[_id].id, rooms[_id].listVoters.Addrs);\r\n        return true;\r\n    }\r\n    \r\n    function addOption(uint _id, bytes32 _option) \r\n            owned(_id) \r\n            roomOpening(_id)\r\n            public returns(bool)\r\n    {\r\n        rooms[_id].options.push(_option);\r\n        return true;\r\n    }\r\n    \r\n    function VoteFor(uint _id, bytes32 _option) \r\n                roomOpening(_id)\r\n                // validOption(_option) \r\n                // notVoted(msg.sender)  \r\n                // hasVoter(msg.sender)\r\n                public\r\n    {\r\n        rooms[_id].listVoters.voter[msg.sender].ballot[msg.sender] = _option;\r\n        rooms[_id].listVoters.voter[msg.sender].voted = true;\r\n        rooms[_id].listVotersOf[_option].push(msg.sender);\r\n        EVvoteNotify(rooms[_id].id,msg.sender, bytes32ToString(rooms[_id].listVoters.voter[msg.sender].ballot[msg.sender]));\r\n    }\r\n    function calculateRoomResult(uint _id) private returns(bytes32)\r\n    {\r\n        bytes32 res;\r\n        uint temp;\r\n        res = rooms[_id].options[0];\r\n        temp = getCountOf(_id, rooms[_id].options[0]);\r\n        for(uint i = 1; i < rooms[_id].options.length; i++)\r\n        { \r\n            if(temp < getCountOf(_id, rooms[_id].options[i]))\r\n            {\r\n                temp = getCountOf(_id, rooms[_id].options[i]);     \r\n                res = rooms[_id].options[i];\r\n            }\r\n        }\r\n        rooms[_id].result = res;\r\n        return rooms[_id].result;\r\n    }\r\n    \r\n    function getRoomResult(uint _id) roomClosed(_id) public view returns(bytes32)\r\n    {\r\n        return rooms[_id].result;\r\n    }\r\n    \r\n    function getCountOf(uint _id, bytes32 _option) public constant returns(uint){\r\n        //require(vailableCandidate(_addr));\r\n        return rooms[_id].listVotersOf[_option].length;\r\n    }\r\n    \r\n    function getListVoterOf(uint _id, bytes32 _option) public view returns(address[])\r\n    {\r\n        return rooms[_id].listVotersOf[_option];\r\n    }\r\n    function getOptions(uint _id) public view returns(bytes32[])\r\n    {\r\n        return rooms[_id].options;\r\n    }\r\n    \r\n    function getVoteOf(uint _id, address _addr) public view returns(bytes32)\r\n    {\r\n        if(rooms[_id].listVoters.voter[_addr].voted == true)\r\n        {\r\n            return (rooms[_id].listVoters.voter[_addr].ballot[_addr]);\r\n        }\r\n        return 0x00;\r\n    }\r\n    \r\n    \r\n//     function checkInitiateOption(bytes32[] _option) private pure returns(bool)\r\n//     {\r\n//         for(uint i = 0; i <= _option.length - 1; i++){\r\n//             var temp = _option[i];\r\n//             for(uint j = i+1; j <= _option.length-1; j++){\r\n//                 if (temp == _option[j] )\r\n//                 {\r\n//                     return false;\r\n//                 }\r\n//             }\r\n//         }\r\n//         return true;\r\n//     }\r\n    \r\n    \r\n    \r\n    \r\n//   function checkVailableOption(bytes32 _n) private view returns(bool)\r\n//     {\r\n//         for(uint i = 0; i < opt.length; i++)\r\n//         {\r\n//             if(opt[i] == _n)\r\n//             {\r\n//                 return true;\r\n//             }    \r\n//         }\r\n//         return false;\r\n//     }\r\n    \r\n//     function checkVailableVoter(address _addr) private view returns(bool)\r\n//     {\r\n//         for(uint i = 0; i < voters.length; i++)\r\n//         {\r\n//             if(voters[i] == _addr)\r\n//             {\r\n//                 return true;\r\n//             }\r\n//         }\r\n//         return false;\r\n//     }\r\n\r\n//     modifier validInitiate(bytes32[] _option) \r\n//     {\r\n//         if(_option.length != 0)\r\n//         {\r\n//             require(checkInitiateOption(_option));    \r\n//         }\r\n        \r\n//         _;    \r\n//     }\r\n//     modifier validOption(bytes32 _option)\r\n//     {\r\n//         require(!checkVailableOption(_option));\r\n//         _;\r\n       \r\n//     }\r\n//     modifier notVoted(address _addr)\r\n//     {\r\n       \r\n//         require(voted[_addr] == false);\r\n//         _;\r\n       \r\n//     }\r\n//     // modifier validVoter(address _addr)\r\n//     // {\r\n//     //     require(checkVailableVoter(_addr));\r\n//     //     _;\r\n        \r\n//     // }\r\n//     modifier hasVoter(address _addr){\r\n//         if(voters.length != 0)\r\n//         {\r\n//             require(checkVailableVoter(_addr) == true);    \r\n//         }\r\n//         _;\r\n       \r\n//     }\r\n    \r\n//     function addOption(bytes32 _n) \r\n//             validOption(_n)\r\n//             public\r\n//     {\r\n//         notify(msg.sender, bytes32ToString(_n), \"option added\");\r\n//         opt.push(_n);\r\n//     }\r\n//     function addVoter(address _addr) public\r\n//     {\r\n//         voters.push(_addr);\r\n//     }\r\n    \r\n//     function getOptions() public view returns(bytes32[])\r\n//     {\r\n//         return opt;\r\n//     }\r\n     \r\n//     function getListVoters() public view returns(address[])\r\n//     {\r\n//         return voters;\r\n//     }\r\n    \r\n//     function getOptionByIndex(uint _i) private view returns(string)\r\n//     {\r\n//         return bytes32ToString(opt[_i]);\r\n//     }\r\n    \r\n    \r\n    function bytes32ToString(bytes32 x) public pure returns (string) \r\n    {\r\n        bytes memory bytesString = new bytes(32);\r\n        uint charCount = 0;\r\n        for (uint j = 0; j < 32; j++) \r\n        {\r\n            byte char = byte(bytes32(uint(x) * 2 ** (8 * j)));\r\n            if (char != 0) \r\n            {\r\n                bytesString[charCount] = char;\r\n                charCount++;\r\n            }\r\n        }\r\n        bytes memory bytesStringTrimmed = new bytes(charCount);\r\n        for (j = 0; j < charCount; j++) \r\n        {\r\n            bytesStringTrimmed[j] = bytesString[j];\r\n        }\r\n        return string(bytesStringTrimmed);\r\n    }\r\n//   /* \r\n//     modifier validopt(bytes32 _n){\r\n//         for(uint i=0; i < opt.length; i++){\r\n//             if(opt[i] == _n){\r\n//                 return true;\r\n//             }   \r\n//         }\r\n//         return false;\r\n//         _;\r\n        \r\n//     }\r\n//     */\r\n\r\n//     function VoteFor(bytes32 _option) \r\n//                 validOption(_option) \r\n//                 notVoted(msg.sender)  \r\n//                 hasVoter(msg.sender)\r\n//                 public\r\n//     {\r\n//         ballotOf[msg.sender] = _option;\r\n//         listVotersOf[_option].push(msg.sender);\r\n//         voted[msg.sender] = true;\r\n//         notify(msg.sender, bytes32ToString(_option), \"voted\");\r\n//     }\r\n }",
  "sourcePath": "C:\\Users\\PMM81HC\\Desktop\\Experiment\\VoteChain\\contracts\\votingVer1_2_1.sol",
  "compiler": {
    "name": "solc",
    "version": "0.4.18+commit.9cf6e910.Emscripten.clang"
  },
  "schemaVersion": "1.0.1",
  "updatedAt": "2018-03-01T04:12:24.509Z"
}